{
  "contractName": "ContributionReward",
  "abi": [
    {
      "constant": true,
      "inputs": [
        {
          "name": "",
          "type": "bytes32"
        }
      ],
      "name": "parameters",
      "outputs": [
        {
          "name": "voteApproveParams",
          "type": "bytes32"
        },
        {
          "name": "intVote",
          "type": "address"
        }
      ],
      "payable": false,
      "stateMutability": "view",
      "type": "function"
    },
    {
      "constant": true,
      "inputs": [
        {
          "name": "",
          "type": "address"
        },
        {
          "name": "",
          "type": "bytes32"
        }
      ],
      "name": "organizationsProposals",
      "outputs": [
        {
          "name": "nativeTokenReward",
          "type": "uint256"
        },
        {
          "name": "reputationChange",
          "type": "int256"
        },
        {
          "name": "ethReward",
          "type": "uint256"
        },
        {
          "name": "externalToken",
          "type": "address"
        },
        {
          "name": "externalTokenReward",
          "type": "uint256"
        },
        {
          "name": "beneficiary",
          "type": "address"
        },
        {
          "name": "periodLength",
          "type": "uint256"
        },
        {
          "name": "numberOfPeriods",
          "type": "uint256"
        },
        {
          "name": "executionTime",
          "type": "uint256"
        }
      ],
      "payable": false,
      "stateMutability": "view",
      "type": "function"
    },
    {
      "constant": true,
      "inputs": [
        {
          "name": "",
          "type": "address"
        },
        {
          "name": "",
          "type": "bytes32"
        }
      ],
      "name": "proposalsInfo",
      "outputs": [
        {
          "name": "blockNumber",
          "type": "uint256"
        },
        {
          "name": "avatar",
          "type": "address"
        }
      ],
      "payable": false,
      "stateMutability": "view",
      "type": "function"
    },
    {
      "constant": true,
      "inputs": [
        {
          "name": "_stakingToken",
          "type": "address"
        },
        {
          "name": "_proposalId",
          "type": "bytes32"
        }
      ],
      "name": "balanceOfStakingToken",
      "outputs": [
        {
          "name": "",
          "type": "uint256"
        }
      ],
      "payable": false,
      "stateMutability": "view",
      "type": "function"
    },
    {
      "constant": true,
      "inputs": [
        {
          "name": "_owner",
          "type": "address"
        },
        {
          "name": "_proposalId",
          "type": "bytes32"
        }
      ],
      "name": "reputationOf",
      "outputs": [
        {
          "name": "",
          "type": "uint256"
        }
      ],
      "payable": false,
      "stateMutability": "view",
      "type": "function"
    },
    {
      "constant": true,
      "inputs": [
        {
          "name": "_proposalId",
          "type": "bytes32"
        }
      ],
      "name": "getTotalReputationSupply",
      "outputs": [
        {
          "name": "",
          "type": "uint256"
        }
      ],
      "payable": false,
      "stateMutability": "view",
      "type": "function"
    },
    {
      "constant": false,
      "inputs": [
        {
          "name": "_stakingToken",
          "type": "address"
        },
        {
          "name": "_beneficiary",
          "type": "address"
        },
        {
          "name": "_amount",
          "type": "uint256"
        },
        {
          "name": "_proposalId",
          "type": "bytes32"
        }
      ],
      "name": "stakingTokenTransfer",
      "outputs": [
        {
          "name": "",
          "type": "bool"
        }
      ],
      "payable": false,
      "stateMutability": "nonpayable",
      "type": "function"
    },
    {
      "constant": false,
      "inputs": [
        {
          "name": "_amount",
          "type": "uint256"
        },
        {
          "name": "_beneficiary",
          "type": "address"
        },
        {
          "name": "_proposalId",
          "type": "bytes32"
        }
      ],
      "name": "mintReputation",
      "outputs": [
        {
          "name": "",
          "type": "bool"
        }
      ],
      "payable": false,
      "stateMutability": "nonpayable",
      "type": "function"
    },
    {
      "constant": false,
      "inputs": [
        {
          "name": "_amount",
          "type": "uint256"
        },
        {
          "name": "_beneficiary",
          "type": "address"
        },
        {
          "name": "_proposalId",
          "type": "bytes32"
        }
      ],
      "name": "burnReputation",
      "outputs": [
        {
          "name": "",
          "type": "bool"
        }
      ],
      "payable": false,
      "stateMutability": "nonpayable",
      "type": "function"
    },
    {
      "anonymous": false,
      "inputs": [
        {
          "indexed": true,
          "name": "_avatar",
          "type": "address"
        },
        {
          "indexed": true,
          "name": "_proposalId",
          "type": "bytes32"
        },
        {
          "indexed": true,
          "name": "_intVoteInterface",
          "type": "address"
        },
        {
          "indexed": false,
          "name": "_descriptionHash",
          "type": "string"
        },
        {
          "indexed": false,
          "name": "_reputationChange",
          "type": "int256"
        },
        {
          "indexed": false,
          "name": "_rewards",
          "type": "uint256[5]"
        },
        {
          "indexed": false,
          "name": "_externalToken",
          "type": "address"
        },
        {
          "indexed": false,
          "name": "_beneficiary",
          "type": "address"
        }
      ],
      "name": "NewContributionProposal",
      "type": "event"
    },
    {
      "anonymous": false,
      "inputs": [
        {
          "indexed": true,
          "name": "_avatar",
          "type": "address"
        },
        {
          "indexed": true,
          "name": "_proposalId",
          "type": "bytes32"
        },
        {
          "indexed": false,
          "name": "_param",
          "type": "int256"
        }
      ],
      "name": "ProposalExecuted",
      "type": "event"
    },
    {
      "anonymous": false,
      "inputs": [
        {
          "indexed": true,
          "name": "_avatar",
          "type": "address"
        },
        {
          "indexed": true,
          "name": "_proposalId",
          "type": "bytes32"
        },
        {
          "indexed": true,
          "name": "_beneficiary",
          "type": "address"
        },
        {
          "indexed": false,
          "name": "_amount",
          "type": "int256"
        }
      ],
      "name": "RedeemReputation",
      "type": "event"
    },
    {
      "anonymous": false,
      "inputs": [
        {
          "indexed": true,
          "name": "_avatar",
          "type": "address"
        },
        {
          "indexed": true,
          "name": "_proposalId",
          "type": "bytes32"
        },
        {
          "indexed": true,
          "name": "_beneficiary",
          "type": "address"
        },
        {
          "indexed": false,
          "name": "_amount",
          "type": "uint256"
        }
      ],
      "name": "RedeemEther",
      "type": "event"
    },
    {
      "anonymous": false,
      "inputs": [
        {
          "indexed": true,
          "name": "_avatar",
          "type": "address"
        },
        {
          "indexed": true,
          "name": "_proposalId",
          "type": "bytes32"
        },
        {
          "indexed": true,
          "name": "_beneficiary",
          "type": "address"
        },
        {
          "indexed": false,
          "name": "_amount",
          "type": "uint256"
        }
      ],
      "name": "RedeemNativeToken",
      "type": "event"
    },
    {
      "anonymous": false,
      "inputs": [
        {
          "indexed": true,
          "name": "_avatar",
          "type": "address"
        },
        {
          "indexed": true,
          "name": "_proposalId",
          "type": "bytes32"
        },
        {
          "indexed": true,
          "name": "_beneficiary",
          "type": "address"
        },
        {
          "indexed": false,
          "name": "_amount",
          "type": "uint256"
        }
      ],
      "name": "RedeemExternalToken",
      "type": "event"
    },
    {
      "constant": false,
      "inputs": [
        {
          "name": "_proposalId",
          "type": "bytes32"
        },
        {
          "name": "_param",
          "type": "int256"
        }
      ],
      "name": "executeProposal",
      "outputs": [
        {
          "name": "",
          "type": "bool"
        }
      ],
      "payable": false,
      "stateMutability": "nonpayable",
      "type": "function"
    },
    {
      "constant": false,
      "inputs": [
        {
          "name": "_voteApproveParams",
          "type": "bytes32"
        },
        {
          "name": "_intVote",
          "type": "address"
        }
      ],
      "name": "setParameters",
      "outputs": [
        {
          "name": "",
          "type": "bytes32"
        }
      ],
      "payable": false,
      "stateMutability": "nonpayable",
      "type": "function"
    },
    {
      "constant": true,
      "inputs": [
        {
          "name": "_voteApproveParams",
          "type": "bytes32"
        },
        {
          "name": "_intVote",
          "type": "address"
        }
      ],
      "name": "getParametersHash",
      "outputs": [
        {
          "name": "",
          "type": "bytes32"
        }
      ],
      "payable": false,
      "stateMutability": "pure",
      "type": "function"
    },
    {
      "constant": false,
      "inputs": [
        {
          "name": "_avatar",
          "type": "address"
        },
        {
          "name": "_descriptionHash",
          "type": "string"
        },
        {
          "name": "_reputationChange",
          "type": "int256"
        },
        {
          "name": "_rewards",
          "type": "uint256[5]"
        },
        {
          "name": "_externalToken",
          "type": "address"
        },
        {
          "name": "_beneficiary",
          "type": "address"
        }
      ],
      "name": "proposeContributionReward",
      "outputs": [
        {
          "name": "",
          "type": "bytes32"
        }
      ],
      "payable": false,
      "stateMutability": "nonpayable",
      "type": "function"
    },
    {
      "constant": false,
      "inputs": [
        {
          "name": "_proposalId",
          "type": "bytes32"
        },
        {
          "name": "_avatar",
          "type": "address"
        }
      ],
      "name": "redeemReputation",
      "outputs": [
        {
          "name": "reputation",
          "type": "int256"
        }
      ],
      "payable": false,
      "stateMutability": "nonpayable",
      "type": "function"
    },
    {
      "constant": false,
      "inputs": [
        {
          "name": "_proposalId",
          "type": "bytes32"
        },
        {
          "name": "_avatar",
          "type": "address"
        }
      ],
      "name": "redeemNativeToken",
      "outputs": [
        {
          "name": "amount",
          "type": "uint256"
        }
      ],
      "payable": false,
      "stateMutability": "nonpayable",
      "type": "function"
    },
    {
      "constant": false,
      "inputs": [
        {
          "name": "_proposalId",
          "type": "bytes32"
        },
        {
          "name": "_avatar",
          "type": "address"
        }
      ],
      "name": "redeemEther",
      "outputs": [
        {
          "name": "amount",
          "type": "uint256"
        }
      ],
      "payable": false,
      "stateMutability": "nonpayable",
      "type": "function"
    },
    {
      "constant": false,
      "inputs": [
        {
          "name": "_proposalId",
          "type": "bytes32"
        },
        {
          "name": "_avatar",
          "type": "address"
        }
      ],
      "name": "redeemExternalToken",
      "outputs": [
        {
          "name": "amount",
          "type": "uint256"
        }
      ],
      "payable": false,
      "stateMutability": "nonpayable",
      "type": "function"
    },
    {
      "constant": false,
      "inputs": [
        {
          "name": "_proposalId",
          "type": "bytes32"
        },
        {
          "name": "_avatar",
          "type": "address"
        },
        {
          "name": "_whatToRedeem",
          "type": "bool[4]"
        }
      ],
      "name": "redeem",
      "outputs": [
        {
          "name": "reputationReward",
          "type": "int256"
        },
        {
          "name": "nativeTokenReward",
          "type": "uint256"
        },
        {
          "name": "etherReward",
          "type": "uint256"
        },
        {
          "name": "externalTokenReward",
          "type": "uint256"
        }
      ],
      "payable": false,
      "stateMutability": "nonpayable",
      "type": "function"
    },
    {
      "constant": true,
      "inputs": [
        {
          "name": "_proposalId",
          "type": "bytes32"
        },
        {
          "name": "_avatar",
          "type": "address"
        },
        {
          "name": "_redeemType",
          "type": "uint256"
        }
      ],
      "name": "getPeriodsToPay",
      "outputs": [
        {
          "name": "",
          "type": "uint256"
        }
      ],
      "payable": false,
      "stateMutability": "view",
      "type": "function"
    },
    {
      "constant": true,
      "inputs": [
        {
          "name": "_proposalId",
          "type": "bytes32"
        },
        {
          "name": "_avatar",
          "type": "address"
        },
        {
          "name": "_redeemType",
          "type": "uint256"
        }
      ],
      "name": "getRedeemedPeriods",
      "outputs": [
        {
          "name": "",
          "type": "uint256"
        }
      ],
      "payable": false,
      "stateMutability": "view",
      "type": "function"
    },
    {
      "constant": true,
      "inputs": [
        {
          "name": "_proposalId",
          "type": "bytes32"
        },
        {
          "name": "_avatar",
          "type": "address"
        }
      ],
      "name": "getProposalEthReward",
      "outputs": [
        {
          "name": "",
          "type": "uint256"
        }
      ],
      "payable": false,
      "stateMutability": "view",
      "type": "function"
    },
    {
      "constant": true,
      "inputs": [
        {
          "name": "_proposalId",
          "type": "bytes32"
        },
        {
          "name": "_avatar",
          "type": "address"
        }
      ],
      "name": "getProposalExternalTokenReward",
      "outputs": [
        {
          "name": "",
          "type": "uint256"
        }
      ],
      "payable": false,
      "stateMutability": "view",
      "type": "function"
    },
    {
      "constant": true,
      "inputs": [
        {
          "name": "_proposalId",
          "type": "bytes32"
        },
        {
          "name": "_avatar",
          "type": "address"
        }
      ],
      "name": "getProposalExternalToken",
      "outputs": [
        {
          "name": "",
          "type": "address"
        }
      ],
      "payable": false,
      "stateMutability": "view",
      "type": "function"
    },
    {
      "constant": true,
      "inputs": [
        {
          "name": "_proposalId",
          "type": "bytes32"
        },
        {
          "name": "_avatar",
          "type": "address"
        }
      ],
      "name": "getProposalExecutionTime",
      "outputs": [
        {
          "name": "",
          "type": "uint256"
        }
      ],
      "payable": false,
      "stateMutability": "view",
      "type": "function"
    }
  ],
  "bytecode": "0x608060405234801561001057600080fd5b50614f78806100206000396000f3fe608060405234801561001057600080fd5b50600436106101585760003560e01c80639d4c162d116100c3578063d29b5d2f1161007c578063d29b5d2f14610a36578063d58bf09a14610aa6578063e074ee5514610b5e578063e63b681e14610bca578063f70bbb9a14610c2c578063f81f8bf614610cba57610158565b80639d4c162d146107e4578063b551c37314610834578063b7c251c314610876578063bb1c9351146108e2578063bea75f2814610944578063cd3ce306146109d457610158565b80636046f71d116101155780636046f71d1461044c57806360bdbb3f146104ae57806368e14dac146105435780636b8eb403146105a5578063896488b9146106075780639588378e1461078257610158565b8063025068041461015d57806306e3a978146101d25780630d5e1e82146102c45780631c3a5713146103265780632453732a146103885780633a256daa146103ea575b600080fd5b6101896004803603602081101561017357600080fd5b8101908080359060200190929190505050610d2a565b604051808381526020018273ffffffffffffffffffffffffffffffffffffffff1673ffffffffffffffffffffffffffffffffffffffff1681526020019250505060405180910390f35b61021e600480360360408110156101e857600080fd5b81019080803573ffffffffffffffffffffffffffffffffffffffff16906020019092919080359060200190929190505050610d6e565b604051808a81526020018981526020018881526020018773ffffffffffffffffffffffffffffffffffffffff1673ffffffffffffffffffffffffffffffffffffffff1681526020018681526020018573ffffffffffffffffffffffffffffffffffffffff1673ffffffffffffffffffffffffffffffffffffffff168152602001848152602001838152602001828152602001995050505050505050505060405180910390f35b610310600480360360408110156102da57600080fd5b8101908080359060200190929190803573ffffffffffffffffffffffffffffffffffffffff169060200190929190505050610e09565b6040518082815260200191505060405180910390f35b6103726004803603604081101561033c57600080fd5b8101908080359060200190929190803573ffffffffffffffffffffffffffffffffffffffff169060200190929190505050611434565b6040518082815260200191505060405180910390f35b6103d46004803603604081101561039e57600080fd5b8101908080359060200190929190803573ffffffffffffffffffffffffffffffffffffffff169060200190929190505050611492565b6040518082815260200191505060405180910390f35b6104366004803603604081101561040057600080fd5b8101908080359060200190929190803573ffffffffffffffffffffffffffffffffffffffff1690602001909291905050506114fa565b6040518082815260200191505060405180910390f35b6104986004803603604081101561046257600080fd5b8101908080359060200190929190803573ffffffffffffffffffffffffffffffffffffffff169060200190929190505050611558565b6040518082815260200191505060405180910390f35b6104fa600480360360408110156104c457600080fd5b81019080803573ffffffffffffffffffffffffffffffffffffffff169060200190929190803590602001909291905050506115b6565b604051808381526020018273ffffffffffffffffffffffffffffffffffffffff1673ffffffffffffffffffffffffffffffffffffffff1681526020019250505060405180910390f35b61058f6004803603604081101561055957600080fd5b8101908080359060200190929190803573ffffffffffffffffffffffffffffffffffffffff169060200190929190505050611607565b6040518082815260200191505060405180910390f35b6105f1600480360360408110156105bb57600080fd5b81019080803573ffffffffffffffffffffffffffffffffffffffff16906020019092919080359060200190929190505050611690565b6040518082815260200191505060405180910390f35b61076c600480360361014081101561061e57600080fd5b81019080803573ffffffffffffffffffffffffffffffffffffffff1690602001909291908035906020019064010000000081111561065b57600080fd5b82018360208201111561066d57600080fd5b8035906020019184600183028401116401000000008311171561068f57600080fd5b91908080601f016020809104026020016040519081016040528093929190818152602001838380828437600081840152601f19601f820116905080830192505050505050509192919290803590602001909291908060a001906005806020026040519081016040528092919082600560200280828437600081840152601f19601f8201169050808301925050505050509192919290803573ffffffffffffffffffffffffffffffffffffffff169060200190929190803573ffffffffffffffffffffffffffffffffffffffff16906020019092919050505061187b565b6040518082815260200191505060405180910390f35b6107ce6004803603604081101561079857600080fd5b81019080803573ffffffffffffffffffffffffffffffffffffffff16906020019092919080359060200190929190505050611eea565b6040518082815260200191505060405180910390f35b61081a600480360360408110156107fa57600080fd5b810190808035906020019092919080359060200190929190505050612145565b604051808215151515815260200191505060405180910390f35b6108606004803603602081101561084a57600080fd5b81019080803590602001909291905050506124fb565b6040518082815260200191505060405180910390f35b6108cc6004803603606081101561088c57600080fd5b8101908080359060200190929190803573ffffffffffffffffffffffffffffffffffffffff16906020019092919080359060200190929190505050612721565b6040518082815260200191505060405180910390f35b61092e600480360360408110156108f857600080fd5b8101908080359060200190929190803573ffffffffffffffffffffffffffffffffffffffff16906020019092919050505061278c565b6040518082815260200191505060405180910390f35b6109ba6004803603608081101561095a57600080fd5b81019080803573ffffffffffffffffffffffffffffffffffffffff169060200190929190803573ffffffffffffffffffffffffffffffffffffffff1690602001909291908035906020019092919080359060200190929190505050612c0a565b604051808215151515815260200191505060405180910390f35b610a20600480360360408110156109ea57600080fd5b8101908080359060200190929190803573ffffffffffffffffffffffffffffffffffffffff169060200190929190505050612f8f565b6040518082815260200191505060405180910390f35b610a8c60048036036060811015610a4c57600080fd5b8101908080359060200190929190803573ffffffffffffffffffffffffffffffffffffffff1690602001909291908035906020019092919050505061340d565b604051808215151515815260200191505060405180910390f35b610b33600480360360c0811015610abc57600080fd5b8101908080359060200190929190803573ffffffffffffffffffffffffffffffffffffffff16906020019092919080608001906004806020026040519081016040528092919082600460200280828437600081840152601f19601f820116905080830192505050505050919291929050505061375d565b6040518085815260200184815260200183815260200182815260200194505050505060405180910390f35b610bb460048036036060811015610b7457600080fd5b8101908080359060200190929190803573ffffffffffffffffffffffffffffffffffffffff169060200190929190803590602001909291905050506137fc565b6040518082815260200191505060405180910390f35b610c1660048036036040811015610be057600080fd5b8101908080359060200190929190803573ffffffffffffffffffffffffffffffffffffffff169060200190929190505050613acc565b6040518082815260200191505060405180910390f35b610c7860048036036040811015610c4257600080fd5b8101908080359060200190929190803573ffffffffffffffffffffffffffffffffffffffff169060200190929190505050613fed565b604051808273ffffffffffffffffffffffffffffffffffffffff1673ffffffffffffffffffffffffffffffffffffffff16815260200191505060405180910390f35b610d1060048036036060811015610cd057600080fd5b8101908080359060200190929190803573ffffffffffffffffffffffffffffffffffffffff1690602001909291908035906020019092919050505061406b565b604051808215151515815260200191505060405180910390f35b60026020528060005260406000206000915090508060000154908060010160009054906101000a900473ffffffffffffffffffffffffffffffffffffffff16905082565b6001602052816000526040600020602052806000526040600020600091509150508060000154908060010154908060020154908060030160009054906101000a900473ffffffffffffffffffffffffffffffffffffffff16908060040154908060050160009054906101000a900473ffffffffffffffffffffffffffffffffffffffff16908060060154908060070154908060080154905089565b6000610e13614c79565b600160008473ffffffffffffffffffffffffffffffffffffffff1673ffffffffffffffffffffffffffffffffffffffff1681526020019081526020016000206000858152602001908152602001600020604051806101400160405290816000820154815260200160018201548152602001600282015481526020016003820160009054906101000a900473ffffffffffffffffffffffffffffffffffffffff1673ffffffffffffffffffffffffffffffffffffffff1673ffffffffffffffffffffffffffffffffffffffff168152602001600482015481526020016005820160009054906101000a900473ffffffffffffffffffffffffffffffffffffffff1673ffffffffffffffffffffffffffffffffffffffff1673ffffffffffffffffffffffffffffffffffffffff16815260200160068201548152602001600782015481526020016008820154815260200160098201600480602002604051908101604052809291908260048015610f9d576020028201915b815481526020019060010190808311610f89575b50505050508152505090506000600160008573ffffffffffffffffffffffffffffffffffffffff1673ffffffffffffffffffffffffffffffffffffffff1681526020019081526020016000206000868152602001908152602001600020905060008160080154141561100e57600080fd5b600061101c868660006137fc565b90506000826001018190555082602001518102935060008413156111c2578473ffffffffffffffffffffffffffffffffffffffff16638da5cb5b6040518163ffffffff1660e01b815260040160206040518083038186803b15801561108057600080fd5b505afa158015611094573d6000803e3d6000fd5b505050506040513d60208110156110aa57600080fd5b810190808051906020019092919050505073ffffffffffffffffffffffffffffffffffffffff1663eaf994b2858560a00151886040518463ffffffff1660e01b8152600401808481526020018373ffffffffffffffffffffffffffffffffffffffff1673ffffffffffffffffffffffffffffffffffffffff1681526020018273ffffffffffffffffffffffffffffffffffffffff1673ffffffffffffffffffffffffffffffffffffffff1681526020019350505050602060405180830381600087803b15801561117957600080fd5b505af115801561118d573d6000803e3d6000fd5b505050506040513d60208110156111a357600080fd5b81019080805190602001909291905050506111bd57600080fd5b611372565b6000841215611371578473ffffffffffffffffffffffffffffffffffffffff16638da5cb5b6040518163ffffffff1660e01b815260040160206040518083038186803b15801561121157600080fd5b505afa158015611225573d6000803e3d6000fd5b505050506040513d602081101561123b57600080fd5b810190808051906020019092919050505073ffffffffffffffffffffffffffffffffffffffff16636e94d2787fffffffffffffffffffffffffffffffffffffffffffffffffffffffffffffffff86028560a00151886040518463ffffffff1660e01b8152600401808481526020018373ffffffffffffffffffffffffffffffffffffffff1673ffffffffffffffffffffffffffffffffffffffff1681526020018273ffffffffffffffffffffffffffffffffffffffff1673ffffffffffffffffffffffffffffffffffffffff1681526020019350505050602060405180830381600087803b15801561132c57600080fd5b505af1158015611340573d6000803e3d6000fd5b505050506040513d602081101561135657600080fd5b810190808051906020019092919050505061137057600080fd5b5b5b6000841461141e5761139e818360090160006004811061138e57fe5b01546143bb90919063ffffffff16565b826009016000600481106113ae57fe5b01819055508260a0015173ffffffffffffffffffffffffffffffffffffffff16868673ffffffffffffffffffffffffffffffffffffffff167feab8bc4bf2fd6ce5634b8e75023e0e48367e68249ce2aa2c0ef7c0efe5648bee876040518082815260200191505060405180910390a45b8260200151826001018190555050505092915050565b6000600160008373ffffffffffffffffffffffffffffffffffffffff1673ffffffffffffffffffffffffffffffffffffffff168152602001908152602001600020600084815260200190815260200160002060040154905092915050565b60008282604051602001808381526020018273ffffffffffffffffffffffffffffffffffffffff1673ffffffffffffffffffffffffffffffffffffffff1660601b81526014019250505060405160208183030381529060405280519060200120905092915050565b6000600160008373ffffffffffffffffffffffffffffffffffffffff1673ffffffffffffffffffffffffffffffffffffffff168152602001908152602001600020600084815260200190815260200160002060080154905092915050565b6000600160008373ffffffffffffffffffffffffffffffffffffffff1673ffffffffffffffffffffffffffffffffffffffff168152602001908152602001600020600084815260200190815260200160002060020154905092915050565b6000602052816000526040600020602052806000526040600020600091509150508060000154908060010160009054906101000a900473ffffffffffffffffffffffffffffffffffffffff16905082565b6000806116148484611492565b9050836002600083815260200190815260200160002060000181905550826002600083815260200190815260200160002060010160006101000a81548173ffffffffffffffffffffffffffffffffffffffff021916908373ffffffffffffffffffffffffffffffffffffffff1602179055508091505092915050565b6000806000803373ffffffffffffffffffffffffffffffffffffffff1673ffffffffffffffffffffffffffffffffffffffff168152602001908152602001600020600084815260200190815260200160002060010160009054906101000a900473ffffffffffffffffffffffffffffffffffffffff169050600073ffffffffffffffffffffffffffffffffffffffff166000803373ffffffffffffffffffffffffffffffffffffffff1673ffffffffffffffffffffffffffffffffffffffff168152602001908152602001600020600085815260200190815260200160002060010160009054906101000a900473ffffffffffffffffffffffffffffffffffffffff1673ffffffffffffffffffffffffffffffffffffffff1614156117b9576000915050611875565b8373ffffffffffffffffffffffffffffffffffffffff166370a08231826040518263ffffffff1660e01b8152600401808273ffffffffffffffffffffffffffffffffffffffff1673ffffffffffffffffffffffffffffffffffffffff16815260200191505060206040518083038186803b15801561183657600080fd5b505afa15801561184a573d6000803e3d6000fd5b505050506040513d602081101561186057600080fd5b81019080805190602001909291905050509150505b92915050565b60006118878585614443565b61188f614cfe565b6002600061189c8a614817565b8152602001908152602001600020604051806040016040529081600082015481526020016001820160009054906101000a900473ffffffffffffffffffffffffffffffffffffffff1673ffffffffffffffffffffffffffffffffffffffff1673ffffffffffffffffffffffffffffffffffffffff168152505090506000816020015173ffffffffffffffffffffffffffffffffffffffff166388737b5e60028460000151338d6040518563ffffffff1660e01b8152600401808581526020018481526020018373ffffffffffffffffffffffffffffffffffffffff1673ffffffffffffffffffffffffffffffffffffffff1681526020018273ffffffffffffffffffffffffffffffffffffffff1673ffffffffffffffffffffffffffffffffffffffff168152602001945050505050602060405180830381600087803b1580156119e557600080fd5b505af11580156119f9573d6000803e3d6000fd5b505050506040513d6020811015611a0f57600080fd5b810190808051906020019092919050505090506000849050600073ffffffffffffffffffffffffffffffffffffffff168173ffffffffffffffffffffffffffffffffffffffff161415611a60573390505b611a68614c79565b60405180610140016040528089600060058110611a8157fe5b602002015181526020018a815260200189600160058110611a9e57fe5b602002015181526020018873ffffffffffffffffffffffffffffffffffffffff16815260200189600260058110611ad157fe5b602002015181526020018373ffffffffffffffffffffffffffffffffffffffff16815260200189600360058110611b0457fe5b6020020151815260200189600460058110611b1b57fe5b602002015181526020016000815260200160405180608001604052806000815260200160008152602001600081526020016000815250815250905080600160008d73ffffffffffffffffffffffffffffffffffffffff1673ffffffffffffffffffffffffffffffffffffffff168152602001908152602001600020600085815260200190815260200160002060008201518160000155602082015181600101556040820151816002015560608201518160030160006101000a81548173ffffffffffffffffffffffffffffffffffffffff021916908373ffffffffffffffffffffffffffffffffffffffff1602179055506080820151816004015560a08201518160050160006101000a81548173ffffffffffffffffffffffffffffffffffffffff021916908373ffffffffffffffffffffffffffffffffffffffff16021790555060c0820151816006015560e08201518160070155610100820151816008015561012082015181600901906004611c94929190614d31565b50905050836020015173ffffffffffffffffffffffffffffffffffffffff16838c73ffffffffffffffffffffffffffffffffffffffff167fcbdcbf9aaeb1e9eff0f75d74e1c1e044bc87110164baec7d18d825b0450d97df8d8d8d8d89604051808060200186815260200185600560200280838360005b83811015611d26578082015181840152602081019050611d0b565b505050509050018473ffffffffffffffffffffffffffffffffffffffff1673ffffffffffffffffffffffffffffffffffffffff1681526020018373ffffffffffffffffffffffffffffffffffffffff1673ffffffffffffffffffffffffffffffffffffffff168152602001828103825287818151815260200191508051906020019080838360005b83811015611dc9578082015181840152602081019050611dae565b50505050905090810190601f168015611df65780820380516001836020036101000a031916815260200191505b50965050505050505060405180910390a460405180604001604052804381526020018c73ffffffffffffffffffffffffffffffffffffffff16815250600080866020015173ffffffffffffffffffffffffffffffffffffffff1673ffffffffffffffffffffffffffffffffffffffff16815260200190815260200160002060008581526020019081526020016000206000820151816000015560208201518160010160006101000a81548173ffffffffffffffffffffffffffffffffffffffff021916908373ffffffffffffffffffffffffffffffffffffffff160217905550905050829450505050509695505050505050565b6000611ef4614d71565b6000803373ffffffffffffffffffffffffffffffffffffffff1673ffffffffffffffffffffffffffffffffffffffff1681526020019081526020016000206000848152602001908152602001600020604051806040016040529081600082015481526020016001820160009054906101000a900473ffffffffffffffffffffffffffffffffffffffff1673ffffffffffffffffffffffffffffffffffffffff1673ffffffffffffffffffffffffffffffffffffffff16815250509050600073ffffffffffffffffffffffffffffffffffffffff16816020015173ffffffffffffffffffffffffffffffffffffffff161415611ff357600091505061213f565b806020015173ffffffffffffffffffffffffffffffffffffffff166389ae1c906040518163ffffffff1660e01b815260040160206040518083038186803b15801561203d57600080fd5b505afa158015612051573d6000803e3d6000fd5b505050506040513d602081101561206757600080fd5b810190808051906020019092919050505073ffffffffffffffffffffffffffffffffffffffff16634ee2cd7e8583600001516040518363ffffffff1660e01b8152600401808373ffffffffffffffffffffffffffffffffffffffff1673ffffffffffffffffffffffffffffffffffffffff1681526020018281526020019250505060206040518083038186803b15801561210057600080fd5b505afa158015612114573d6000803e3d6000fd5b505050506040513d602081101561212a57600080fd5b81019080805190602001909291905050509150505b92915050565b600082600073ffffffffffffffffffffffffffffffffffffffff166000803373ffffffffffffffffffffffffffffffffffffffff1673ffffffffffffffffffffffffffffffffffffffff168152602001908152602001600020600083815260200190815260200160002060010160009054906101000a900473ffffffffffffffffffffffffffffffffffffffff1673ffffffffffffffffffffffffffffffffffffffff16141561225d576040517f08c379a00000000000000000000000000000000000000000000000000000000081526004018080602001828103825260128152602001807f6f6e6c7920566f74696e674d616368696e65000000000000000000000000000081525060200191505060405180910390fd5b612265614d71565b6000803373ffffffffffffffffffffffffffffffffffffffff1673ffffffffffffffffffffffffffffffffffffffff1681526020019081526020016000206000868152602001908152602001600020604051806040016040529081600082015481526020016001820160009054906101000a900473ffffffffffffffffffffffffffffffffffffffff1673ffffffffffffffffffffffffffffffffffffffff1673ffffffffffffffffffffffffffffffffffffffff16815250509050600060016000836020015173ffffffffffffffffffffffffffffffffffffffff1673ffffffffffffffffffffffffffffffffffffffff1681526020019081526020016000206000878152602001908152602001600020600801541461238557600080fd5b600073ffffffffffffffffffffffffffffffffffffffff1660016000836020015173ffffffffffffffffffffffffffffffffffffffff1673ffffffffffffffffffffffffffffffffffffffff168152602001908152602001600020600087815260200190815260200160002060050160009054906101000a900473ffffffffffffffffffffffffffffffffffffffff1673ffffffffffffffffffffffffffffffffffffffff16141561243657600080fd5b600184141561249c574260016000836020015173ffffffffffffffffffffffffffffffffffffffff1673ffffffffffffffffffffffffffffffffffffffff1681526020019081526020016000206000878152602001908152602001600020600801819055505b84816020015173ffffffffffffffffffffffffffffffffffffffff167fd2632e80f5364f02aded1c64e8a04637b7c8bb9c2db2bedf4b6ac47c013acbc0866040518082815260200191505060405180910390a360019250505092915050565b6000612505614d71565b6000803373ffffffffffffffffffffffffffffffffffffffff1673ffffffffffffffffffffffffffffffffffffffff1681526020019081526020016000206000848152602001908152602001600020604051806040016040529081600082015481526020016001820160009054906101000a900473ffffffffffffffffffffffffffffffffffffffff1673ffffffffffffffffffffffffffffffffffffffff1673ffffffffffffffffffffffffffffffffffffffff16815250509050600073ffffffffffffffffffffffffffffffffffffffff16816020015173ffffffffffffffffffffffffffffffffffffffff16141561260457600091505061271c565b806020015173ffffffffffffffffffffffffffffffffffffffff166389ae1c906040518163ffffffff1660e01b815260040160206040518083038186803b15801561264e57600080fd5b505afa158015612662573d6000803e3d6000fd5b505050506040513d602081101561267857600080fd5b810190808051906020019092919050505073ffffffffffffffffffffffffffffffffffffffff1663981b24d082600001516040518263ffffffff1660e01b81526004018082815260200191505060206040518083038186803b1580156126dd57600080fd5b505afa1580156126f1573d6000803e3d6000fd5b505050506040513d602081101561270757600080fd5b81019080805190602001909291905050509150505b919050565b6000600160008473ffffffffffffffffffffffffffffffffffffffff1673ffffffffffffffffffffffffffffffffffffffff1681526020019081526020016000206000858152602001908152602001600020600901826004811061278157fe5b015490509392505050565b6000612796614c79565b600160008473ffffffffffffffffffffffffffffffffffffffff1673ffffffffffffffffffffffffffffffffffffffff1681526020019081526020016000206000858152602001908152602001600020604051806101400160405290816000820154815260200160018201548152602001600282015481526020016003820160009054906101000a900473ffffffffffffffffffffffffffffffffffffffff1673ffffffffffffffffffffffffffffffffffffffff1673ffffffffffffffffffffffffffffffffffffffff168152602001600482015481526020016005820160009054906101000a900473ffffffffffffffffffffffffffffffffffffffff1673ffffffffffffffffffffffffffffffffffffffff1673ffffffffffffffffffffffffffffffffffffffff16815260200160068201548152602001600782015481526020016008820154815260200160098201600480602002604051908101604052809291908260048015612920576020028201915b81548152602001906001019080831161290c575b50505050508152505090506000600160008573ffffffffffffffffffffffffffffffffffffffff1673ffffffffffffffffffffffffffffffffffffffff1681526020019081526020016000206000868152602001908152602001600020905060008160080154141561299157600080fd5b600061299f868660016137fc565b9050600082600001819055506129c2836000015182614b6a90919063ffffffff16565b93506000841115612bf4578473ffffffffffffffffffffffffffffffffffffffff16638da5cb5b6040518163ffffffff1660e01b815260040160206040518083038186803b158015612a1357600080fd5b505afa158015612a27573d6000803e3d6000fd5b505050506040513d6020811015612a3d57600080fd5b810190808051906020019092919050505073ffffffffffffffffffffffffffffffffffffffff16636407e432858560a00151886040518463ffffffff1660e01b8152600401808481526020018373ffffffffffffffffffffffffffffffffffffffff1673ffffffffffffffffffffffffffffffffffffffff1681526020018273ffffffffffffffffffffffffffffffffffffffff1673ffffffffffffffffffffffffffffffffffffffff1681526020019350505050602060405180830381600087803b158015612b0c57600080fd5b505af1158015612b20573d6000803e3d6000fd5b505050506040513d6020811015612b3657600080fd5b8101908080519060200190929190505050612b5057600080fd5b612b748183600901600160048110612b6457fe5b01546143bb90919063ffffffff16565b82600901600160048110612b8457fe5b01819055508260a0015173ffffffffffffffffffffffffffffffffffffffff16868673ffffffffffffffffffffffffffffffffffffffff167f13f7471cab9806ac4ff5d80ae879babfbf1081e240d05c4450b75f69c626cb2e876040518082815260200191505060405180910390a45b8260000151826000018190555050505092915050565b600081600073ffffffffffffffffffffffffffffffffffffffff166000803373ffffffffffffffffffffffffffffffffffffffff1673ffffffffffffffffffffffffffffffffffffffff168152602001908152602001600020600083815260200190815260200160002060010160009054906101000a900473ffffffffffffffffffffffffffffffffffffffff1673ffffffffffffffffffffffffffffffffffffffff161415612d22576040517f08c379a00000000000000000000000000000000000000000000000000000000081526004018080602001828103825260128152602001807f6f6e6c7920566f74696e674d616368696e65000000000000000000000000000081525060200191505060405180910390fd5b60008060003373ffffffffffffffffffffffffffffffffffffffff1673ffffffffffffffffffffffffffffffffffffffff168152602001908152602001600020600085815260200190815260200160002060010160009054906101000a900473ffffffffffffffffffffffffffffffffffffffff169050600073ffffffffffffffffffffffffffffffffffffffff168173ffffffffffffffffffffffffffffffffffffffff161415612dd8576000925050612f86565b8073ffffffffffffffffffffffffffffffffffffffff16638da5cb5b6040518163ffffffff1660e01b815260040160206040518083038186803b158015612e1e57600080fd5b505afa158015612e32573d6000803e3d6000fd5b505050506040513d6020811015612e4857600080fd5b810190808051906020019092919050505073ffffffffffffffffffffffffffffffffffffffff1663b9a04cdd888888856040518563ffffffff1660e01b8152600401808573ffffffffffffffffffffffffffffffffffffffff1673ffffffffffffffffffffffffffffffffffffffff1681526020018473ffffffffffffffffffffffffffffffffffffffff1673ffffffffffffffffffffffffffffffffffffffff1681526020018381526020018273ffffffffffffffffffffffffffffffffffffffff1673ffffffffffffffffffffffffffffffffffffffff168152602001945050505050602060405180830381600087803b158015612f4757600080fd5b505af1158015612f5b573d6000803e3d6000fd5b505050506040513d6020811015612f7157600080fd5b81019080805190602001909291905050509250505b50949350505050565b6000612f99614c79565b600160008473ffffffffffffffffffffffffffffffffffffffff1673ffffffffffffffffffffffffffffffffffffffff1681526020019081526020016000206000858152602001908152602001600020604051806101400160405290816000820154815260200160018201548152602001600282015481526020016003820160009054906101000a900473ffffffffffffffffffffffffffffffffffffffff1673ffffffffffffffffffffffffffffffffffffffff1673ffffffffffffffffffffffffffffffffffffffff168152602001600482015481526020016005820160009054906101000a900473ffffffffffffffffffffffffffffffffffffffff1673ffffffffffffffffffffffffffffffffffffffff1673ffffffffffffffffffffffffffffffffffffffff16815260200160068201548152602001600782015481526020016008820154815260200160098201600480602002604051908101604052809291908260048015613123576020028201915b81548152602001906001019080831161310f575b50505050508152505090506000600160008573ffffffffffffffffffffffffffffffffffffffff1673ffffffffffffffffffffffffffffffffffffffff1681526020019081526020016000206000868152602001908152602001600020905060008160080154141561319457600080fd5b60006131a2868660026137fc565b9050600082600201819055506131c5836040015182614b6a90919063ffffffff16565b935060008411156133f7578473ffffffffffffffffffffffffffffffffffffffff16638da5cb5b6040518163ffffffff1660e01b815260040160206040518083038186803b15801561321657600080fd5b505afa15801561322a573d6000803e3d6000fd5b505050506040513d602081101561324057600080fd5b810190808051906020019092919050505073ffffffffffffffffffffffffffffffffffffffff1663634965da858560a00151886040518463ffffffff1660e01b8152600401808481526020018373ffffffffffffffffffffffffffffffffffffffff1673ffffffffffffffffffffffffffffffffffffffff1681526020018273ffffffffffffffffffffffffffffffffffffffff1673ffffffffffffffffffffffffffffffffffffffff1681526020019350505050602060405180830381600087803b15801561330f57600080fd5b505af1158015613323573d6000803e3d6000fd5b505050506040513d602081101561333957600080fd5b810190808051906020019092919050505061335357600080fd5b613377818360090160026004811061336757fe5b01546143bb90919063ffffffff16565b8260090160026004811061338757fe5b01819055508260a0015173ffffffffffffffffffffffffffffffffffffffff16868673ffffffffffffffffffffffffffffffffffffffff167f7dd55ea53ce2c347b544c257b778e1dd6638f232fa6b94320e740440e72b4b87876040518082815260200191505060405180910390a45b8260400151826002018190555050505092915050565b600081600073ffffffffffffffffffffffffffffffffffffffff166000803373ffffffffffffffffffffffffffffffffffffffff1673ffffffffffffffffffffffffffffffffffffffff168152602001908152602001600020600083815260200190815260200160002060010160009054906101000a900473ffffffffffffffffffffffffffffffffffffffff1673ffffffffffffffffffffffffffffffffffffffff161415613525576040517f08c379a00000000000000000000000000000000000000000000000000000000081526004018080602001828103825260128152602001807f6f6e6c7920566f74696e674d616368696e65000000000000000000000000000081525060200191505060405180910390fd5b60008060003373ffffffffffffffffffffffffffffffffffffffff1673ffffffffffffffffffffffffffffffffffffffff168152602001908152602001600020600085815260200190815260200160002060010160009054906101000a900473ffffffffffffffffffffffffffffffffffffffff169050600073ffffffffffffffffffffffffffffffffffffffff168173ffffffffffffffffffffffffffffffffffffffff1614156135db576000925050613755565b8073ffffffffffffffffffffffffffffffffffffffff16638da5cb5b6040518163ffffffff1660e01b815260040160206040518083038186803b15801561362157600080fd5b505afa158015613635573d6000803e3d6000fd5b505050506040513d602081101561364b57600080fd5b810190808051906020019092919050505073ffffffffffffffffffffffffffffffffffffffff1663eaf994b28787846040518463ffffffff1660e01b8152600401808481526020018373ffffffffffffffffffffffffffffffffffffffff1673ffffffffffffffffffffffffffffffffffffffff1681526020018273ffffffffffffffffffffffffffffffffffffffff1673ffffffffffffffffffffffffffffffffffffffff1681526020019350505050602060405180830381600087803b15801561371657600080fd5b505af115801561372a573d6000803e3d6000fd5b505050506040513d602081101561374057600080fd5b81019080805190602001909291905050509250505b509392505050565b6000806000808460006004811061377057fe5b602002015115613787576137848787610e09565b93505b8460016004811061379457fe5b6020020151156137ab576137a8878761278c565b92505b846002600481106137b857fe5b6020020151156137cf576137cc8787612f8f565b91505b846003600481106137dc57fe5b6020020151156137f3576137f08787613acc565b90505b93509350935093565b60006003821115613858576040517f08c379a0000000000000000000000000000000000000000000000000000000008152600401808060200182810382526026815260200180614ef36026913960400191505060405180910390fd5b613860614c79565b600160008573ffffffffffffffffffffffffffffffffffffffff1673ffffffffffffffffffffffffffffffffffffffff1681526020019081526020016000206000868152602001908152602001600020604051806101400160405290816000820154815260200160018201548152602001600282015481526020016003820160009054906101000a900473ffffffffffffffffffffffffffffffffffffffff1673ffffffffffffffffffffffffffffffffffffffff1673ffffffffffffffffffffffffffffffffffffffff168152602001600482015481526020016005820160009054906101000a900473ffffffffffffffffffffffffffffffffffffffff1673ffffffffffffffffffffffffffffffffffffffff1673ffffffffffffffffffffffffffffffffffffffff168152602001600682015481526020016007820154815260200160088201548152602001600982016004806020026040519081016040528092919082600480156139ea576020028201915b8154815260200190600101908083116139d6575b505050505081525050905060008161010001511415613a0d576000915050613ac5565b6000808260c001511115613a43578160c00151613a3883610100015142614bf090919063ffffffff16565b81613a3f57fe5b0490505b6000808360c001511480613a5b57508260e001518210155b15613a9357613a8c8361012001518660048110613a7457fe5b60200201518460e00151614bf090919063ffffffff16565b9050613abe565b613abb8361012001518660048110613aa757fe5b602002015183614bf090919063ffffffff16565b90505b8093505050505b9392505050565b6000613ad6614c79565b600160008473ffffffffffffffffffffffffffffffffffffffff1673ffffffffffffffffffffffffffffffffffffffff1681526020019081526020016000206000858152602001908152602001600020604051806101400160405290816000820154815260200160018201548152602001600282015481526020016003820160009054906101000a900473ffffffffffffffffffffffffffffffffffffffff1673ffffffffffffffffffffffffffffffffffffffff1673ffffffffffffffffffffffffffffffffffffffff168152602001600482015481526020016005820160009054906101000a900473ffffffffffffffffffffffffffffffffffffffff1673ffffffffffffffffffffffffffffffffffffffff1673ffffffffffffffffffffffffffffffffffffffff16815260200160068201548152602001600782015481526020016008820154815260200160098201600480602002604051908101604052809291908260048015613c60576020028201915b815481526020019060010190808311613c4c575b50505050508152505090506000600160008573ffffffffffffffffffffffffffffffffffffffff1673ffffffffffffffffffffffffffffffffffffffff16815260200190815260200160002060008681526020019081526020016000209050600081600801541415613cd157600080fd5b6000613cdf868660036137fc565b905060008260040181905550600073ffffffffffffffffffffffffffffffffffffffff168260030160009054906101000a900473ffffffffffffffffffffffffffffffffffffffff1673ffffffffffffffffffffffffffffffffffffffff1614158015613d50575060008360800151115b15613fd757613d6c836080015182614b6a90919063ffffffff16565b93506000841115613fd6578473ffffffffffffffffffffffffffffffffffffffff16638da5cb5b6040518163ffffffff1660e01b815260040160206040518083038186803b158015613dbd57600080fd5b505afa158015613dd1573d6000803e3d6000fd5b505050506040513d6020811015613de757600080fd5b810190808051906020019092919050505073ffffffffffffffffffffffffffffffffffffffff1663b9a04cdd84606001518560a0015187896040518563ffffffff1660e01b8152600401808573ffffffffffffffffffffffffffffffffffffffff1673ffffffffffffffffffffffffffffffffffffffff1681526020018473ffffffffffffffffffffffffffffffffffffffff1673ffffffffffffffffffffffffffffffffffffffff1681526020018381526020018273ffffffffffffffffffffffffffffffffffffffff1673ffffffffffffffffffffffffffffffffffffffff168152602001945050505050602060405180830381600087803b158015613eee57600080fd5b505af1158015613f02573d6000803e3d6000fd5b505050506040513d6020811015613f1857600080fd5b8101908080519060200190929190505050613f3257600080fd5b613f568183600901600360048110613f4657fe5b01546143bb90919063ffffffff16565b82600901600360048110613f6657fe5b01819055508260a0015173ffffffffffffffffffffffffffffffffffffffff16868673ffffffffffffffffffffffffffffffffffffffff167f5a66e28cdcd3bc22082d9f07be2b6bed5f50f349e5d89f655d750ecdd1988374876040518082815260200191505060405180910390a45b5b8260800151826004018190555050505092915050565b6000600160008373ffffffffffffffffffffffffffffffffffffffff1673ffffffffffffffffffffffffffffffffffffffff168152602001908152602001600020600084815260200190815260200160002060030160009054906101000a900473ffffffffffffffffffffffffffffffffffffffff16905092915050565b600081600073ffffffffffffffffffffffffffffffffffffffff166000803373ffffffffffffffffffffffffffffffffffffffff1673ffffffffffffffffffffffffffffffffffffffff168152602001908152602001600020600083815260200190815260200160002060010160009054906101000a900473ffffffffffffffffffffffffffffffffffffffff1673ffffffffffffffffffffffffffffffffffffffff161415614183576040517f08c379a00000000000000000000000000000000000000000000000000000000081526004018080602001828103825260128152602001807f6f6e6c7920566f74696e674d616368696e65000000000000000000000000000081525060200191505060405180910390fd5b60008060003373ffffffffffffffffffffffffffffffffffffffff1673ffffffffffffffffffffffffffffffffffffffff168152602001908152602001600020600085815260200190815260200160002060010160009054906101000a900473ffffffffffffffffffffffffffffffffffffffff169050600073ffffffffffffffffffffffffffffffffffffffff168173ffffffffffffffffffffffffffffffffffffffff1614156142395760009250506143b3565b8073ffffffffffffffffffffffffffffffffffffffff16638da5cb5b6040518163ffffffff1660e01b815260040160206040518083038186803b15801561427f57600080fd5b505afa158015614293573d6000803e3d6000fd5b505050506040513d60208110156142a957600080fd5b810190808051906020019092919050505073ffffffffffffffffffffffffffffffffffffffff16636e94d2788787846040518463ffffffff1660e01b8152600401808481526020018373ffffffffffffffffffffffffffffffffffffffff1673ffffffffffffffffffffffffffffffffffffffff1681526020018273ffffffffffffffffffffffffffffffffffffffff1673ffffffffffffffffffffffffffffffffffffffff1681526020019350505050602060405180830381600087803b15801561437457600080fd5b505af1158015614388573d6000803e3d6000fd5b505050506040513d602081101561439e57600080fd5b81019080805190602001909291905050509250505b509392505050565b600080828401905083811015614439576040517f08c379a000000000000000000000000000000000000000000000000000000000815260040180806020018281038252601b8152602001807f536166654d6174683a206164646974696f6e206f766572666c6f77000000000081525060200191505060405180910390fd5b8091505092915050565b60008160036005811061445257fe5b60200201511180614474575060018160046005811061446d57fe5b6020020151145b6144c9576040517f08c379a0000000000000000000000000000000000000000000000000000000008152600401808060200182810382526034815260200180614de96034913960400191505060405180910390fd5b6000816004600581106144d857fe5b60200201511115614813577fffffffffffffffffffffffffffffffffffffffffffffffffffffffffffffffff8160046005811061451157fe5b602002015114801561454257507f800000000000000000000000000000000000000000000000000000000000000082145b15614598576040517f08c379a0000000000000000000000000000000000000000000000000000000008152600401808060200182810382526031815260200180614ec26031913960400191505060405180910390fd5b81816004600581106145a657fe5b602002015183836004600581106145b957fe5b602002015102816145c657fe5b051461461d576040517f08c379a0000000000000000000000000000000000000000000000000000000008152600401808060200182810382526030815260200180614e486030913960400191505060405180910390fd5b8060006005811061462a57fe5b60200201518160046005811061463c57fe5b60200201518260006005811061464e57fe5b60200201518360046005811061466057fe5b6020020151028161466d57fe5b04146146c4576040517f08c379a000000000000000000000000000000000000000000000000000000000815260040180806020018281038252602b815260200180614e1d602b913960400191505060405180910390fd5b806001600581106146d157fe5b6020020151816004600581106146e357fe5b6020020151826001600581106146f557fe5b60200201518360046005811061470757fe5b6020020151028161471457fe5b041461476b576040517f08c379a0000000000000000000000000000000000000000000000000000000008152600401808060200182810382526029815260200180614e786029913960400191505060405180910390fd5b8060026005811061477857fe5b60200201518160046005811061478a57fe5b60200201518260026005811061479c57fe5b6020020151836004600581106147ae57fe5b602002015102816147bb57fe5b0414614812576040517f08c379a0000000000000000000000000000000000000000000000000000000008152600401808060200182810382526034815260200180614f196034913960400191505060405180910390fd5b5b5050565b60008173ffffffffffffffffffffffffffffffffffffffff16638da5cb5b6040518163ffffffff1660e01b815260040160206040518083038186803b15801561485f57600080fd5b505afa158015614873573d6000803e3d6000fd5b505050506040513d602081101561488957600080fd5b810190808051906020019092919050505073ffffffffffffffffffffffffffffffffffffffff16639be2faed30846040518363ffffffff1660e01b8152600401808373ffffffffffffffffffffffffffffffffffffffff1673ffffffffffffffffffffffffffffffffffffffff1681526020018273ffffffffffffffffffffffffffffffffffffffff1673ffffffffffffffffffffffffffffffffffffffff1681526020019250505060206040518083038186803b15801561494a57600080fd5b505afa15801561495e573d6000803e3d6000fd5b505050506040513d602081101561497457600080fd5b81019080805190602001909291905050506149f7576040517f08c379a00000000000000000000000000000000000000000000000000000000081526004018080602001828103825260188152602001807f736368656d65206973206e6f742072656769737465726564000000000000000081525060200191505060405180910390fd5b8173ffffffffffffffffffffffffffffffffffffffff16638da5cb5b6040518163ffffffff1660e01b815260040160206040518083038186803b158015614a3d57600080fd5b505afa158015614a51573d6000803e3d6000fd5b505050506040513d6020811015614a6757600080fd5b810190808051906020019092919050505073ffffffffffffffffffffffffffffffffffffffff16631c4d560830846040518363ffffffff1660e01b8152600401808373ffffffffffffffffffffffffffffffffffffffff1673ffffffffffffffffffffffffffffffffffffffff1681526020018273ffffffffffffffffffffffffffffffffffffffff1673ffffffffffffffffffffffffffffffffffffffff1681526020019250505060206040518083038186803b158015614b2857600080fd5b505afa158015614b3c573d6000803e3d6000fd5b505050506040513d6020811015614b5257600080fd5b81019080805190602001909291905050509050919050565b600080831415614b7d5760009050614bea565b6000828402905082848281614b8e57fe5b0414614be5576040517f08c379a0000000000000000000000000000000000000000000000000000000008152600401808060200182810382526021815260200180614ea16021913960400191505060405180910390fd5b809150505b92915050565b600082821115614c68576040517f08c379a000000000000000000000000000000000000000000000000000000000815260040180806020018281038252601e8152602001807f536166654d6174683a207375627472616374696f6e206f766572666c6f77000081525060200191505060405180910390fd5b600082840390508091505092915050565b604051806101a00160405280600081526020016000815260200160008152602001600073ffffffffffffffffffffffffffffffffffffffff16815260200160008152602001600073ffffffffffffffffffffffffffffffffffffffff168152602001600081526020016000815260200160008152602001614cf8614da1565b81525090565b604051806040016040528060008019168152602001600073ffffffffffffffffffffffffffffffffffffffff1681525090565b8260048101928215614d60579160200282015b82811115614d5f578251825591602001919060010190614d44565b5b509050614d6d9190614dc3565b5090565b604051806040016040528060008152602001600073ffffffffffffffffffffffffffffffffffffffff1681525090565b6040518060800160405280600490602082028038833980820191505090505090565b614de591905b80821115614de1576000816000905550600101614dc9565b5090565b9056fe706572696f644c656e67746820657175616c20302072657175697265206e756d6265724f66506572696f647320746f20626520316e756d6265724f66506572696f6473202a20746f6b656e5265776172642077696c6c206f766572666c6f776e756d6265724f66506572696f6473202a2072657075746174696f6e4368616e67652077696c6c206f766572666c6f776e756d6265724f66506572696f6473202a206574685265776172642077696c6c206f766572666c6f77536166654d6174683a206d756c7469706c69636174696f6e206f766572666c6f776e756d6265724f66506572696f6473202a205f72657075746174696f6e4368616e67652077696c6c206f766572666c6f7773686f756c6420626520696e207468652072656465656d6564506572696f64732072616e67656e756d6265724f66506572696f6473202a207465787465726e616c546f6b656e5265776172642077696c6c206f766572666c6f77a165627a7a7230582027c1d7c33fd77b820bfa05959b971f92852f156085b276435fd71dfd54e9db6f0029",
  "source": "pragma solidity ^0.5.4;\n\nimport \"../../Voting-Machine/contracts/VotingMachine/IntVoteInterface.sol\";\nimport \"../../Voting-Machine/contracts/VotingMachine/VotingMachineCallbacksInterface.sol\";\nimport \"./UniversalScheme.sol\";\nimport \"../../Voting-Machine/contracts/VotingMachine/VotingMachineCallbacks.sol\";\n\n\n/**\n * @title A scheme for proposing and rewarding contributions to an organization\n * @dev An agent can ask an organization to recognize a contribution and reward\n * him with token, reputation, ether or any combination.\n */\n\ncontract ContributionReward is UniversalScheme, VotingMachineCallbacks, ProposalExecuteInterface {\n    using SafeMath for uint;\n\n    event NewContributionProposal(\n        address indexed _avatar,\n        bytes32 indexed _proposalId,\n        address indexed _intVoteInterface,\n        string _descriptionHash,\n        int256 _reputationChange,\n        uint[5]  _rewards,\n        IERC20 _externalToken,\n        address _beneficiary\n    );\n\n    event ProposalExecuted(address indexed _avatar, bytes32 indexed _proposalId, int256 _param);\n\n    event RedeemReputation(\n        address indexed _avatar,\n        bytes32 indexed _proposalId,\n        address indexed _beneficiary,\n        int256 _amount);\n\n    event RedeemEther(address indexed _avatar,\n        bytes32 indexed _proposalId,\n        address indexed _beneficiary,\n        uint256 _amount);\n\n    event RedeemNativeToken(address indexed _avatar,\n        bytes32 indexed _proposalId,\n        address indexed _beneficiary,\n        uint256 _amount);\n\n    event RedeemExternalToken(address indexed _avatar,\n        bytes32 indexed _proposalId,\n        address indexed _beneficiary,\n        uint256 _amount);\n\n    // A struct holding the data for a contribution proposal\n    struct ContributionProposal {\n        uint256 nativeTokenReward; // Reward asked in the native token of the organization.\n        int256 reputationChange; // Organization reputation reward requested.\n        uint256 ethReward;\n        IERC20 externalToken;\n        uint256 externalTokenReward;\n        address payable beneficiary;\n        uint256 periodLength;\n        uint256 numberOfPeriods;\n        uint256 executionTime;\n        uint[4] redeemedPeriods;\n    }\n\n    // A mapping from the organization (Avatar) address to the saved data of the organization:\n    mapping(address=>mapping(bytes32=>ContributionProposal)) public organizationsProposals;\n\n    // A mapping from hashes to parameters (use to store a particular configuration on the controller)\n    struct Parameters {\n        bytes32 voteApproveParams;\n        IntVoteInterface intVote;\n    }\n\n    // A mapping from hashes to parameters (use to store a particular configuration on the controller)\n    mapping(bytes32=>Parameters) public parameters;\n\n    /**\n    * @dev execution of proposals, can only be called by the voting machine in which the vote is held.\n    * @param _proposalId the ID of the voting in the voting machine\n    * @param _param a parameter of the voting result, 1 yes and 2 is no.\n    */\n    function executeProposal(bytes32 _proposalId, int256 _param) external onlyVotingMachine(_proposalId) returns(bool) {\n        ProposalInfo memory proposal = proposalsInfo[msg.sender][_proposalId];\n        require(organizationsProposals[address(proposal.avatar)][_proposalId].executionTime == 0);\n        require(organizationsProposals[address(proposal.avatar)][_proposalId].beneficiary != address(0));\n        // Check if vote was successful:\n        if (_param == 1) {\n          // solhint-disable-next-line not-rely-on-time\n            organizationsProposals[address(proposal.avatar)][_proposalId].executionTime = now;\n        }\n        emit ProposalExecuted(address(proposal.avatar), _proposalId, _param);\n        return true;\n    }\n\n    /**\n    * @dev hash the parameters, save them if necessary, and return the hash value\n    */\n    function setParameters(\n        bytes32 _voteApproveParams,\n        IntVoteInterface _intVote\n    ) public returns(bytes32)\n    {\n        bytes32 paramsHash = getParametersHash(\n            _voteApproveParams,\n            _intVote\n        );\n        parameters[paramsHash].voteApproveParams = _voteApproveParams;\n        parameters[paramsHash].intVote = _intVote;\n        return paramsHash;\n    }\n\n    /**\n    * @dev return a hash of the given parameters\n    * @param _voteApproveParams parameters for the voting machine used to approve a contribution\n    * @param _intVote the voting machine used to approve a contribution\n    * @return a hash of the parameters\n    */\n    function getParametersHash(\n        bytes32 _voteApproveParams,\n        IntVoteInterface _intVote\n    ) public pure returns(bytes32)\n    {\n        return (keccak256(abi.encodePacked(_voteApproveParams, _intVote)));\n    }\n\n    /**\n    * @dev Submit a proposal for a reward for a contribution:\n    * @param _avatar Avatar of the organization that the contribution was made for\n    * @param _descriptionHash A hash of the proposal's description\n    * @param _reputationChange - Amount of reputation change requested .Can be negative.\n    * @param _rewards rewards array:\n    *         rewards[0] - Amount of tokens requested per period\n    *         rewards[1] - Amount of ETH requested per period\n    *         rewards[2] - Amount of external tokens requested per period\n    *         rewards[3] - Period length - if set to zero it allows immediate redeeming after execution.\n    *         rewards[4] - Number of periods\n    * @param _externalToken Address of external token, if reward is requested there\n    * @param _beneficiary Who gets the rewards\n    */\n    function proposeContributionReward(\n        Avatar _avatar,\n        string memory _descriptionHash,\n        int256 _reputationChange,\n        uint[5] memory _rewards,\n        IERC20 _externalToken,\n        address payable _beneficiary\n    )\n    public\n    returns(bytes32)\n    {\n        validateProposalParams(_reputationChange, _rewards);\n        Parameters memory controllerParams = parameters[getParametersFromController(_avatar)];\n\n        bytes32 contributionId = controllerParams.intVote.propose(\n        2,\n        controllerParams.voteApproveParams,\n        msg.sender,\n        address(_avatar)\n        );\n\n        address payable beneficiary = _beneficiary;\n        if (beneficiary == address(0)) {\n            beneficiary = msg.sender;\n        }\n\n        ContributionProposal memory proposal = ContributionProposal({\n            nativeTokenReward: _rewards[0],\n            reputationChange: _reputationChange,\n            ethReward: _rewards[1],\n            externalToken: _externalToken,\n            externalTokenReward: _rewards[2],\n            beneficiary: beneficiary,\n            periodLength: _rewards[3],\n            numberOfPeriods: _rewards[4],\n            executionTime: 0,\n            redeemedPeriods:[uint(0), uint(0), uint(0), uint(0)]\n        });\n        organizationsProposals[address(_avatar)][contributionId] = proposal;\n\n        emit NewContributionProposal(\n            address(_avatar),\n            contributionId,\n            address(controllerParams.intVote),\n            _descriptionHash,\n            _reputationChange,\n            _rewards,\n            _externalToken,\n            beneficiary\n        );\n\n        proposalsInfo[address(controllerParams.intVote)][contributionId] = ProposalInfo({\n            blockNumber:block.number,\n            avatar:_avatar\n        });\n        return contributionId;\n    }\n\n    /**\n    * @dev RedeemReputation reward for proposal\n    * @param _proposalId the ID of the voting in the voting machine\n    * @param _avatar address of the controller\n    * @return reputation the redeemed reputation.\n    */\n    function redeemReputation(bytes32 _proposalId, Avatar _avatar) public returns(int256 reputation) {\n\n        ContributionProposal memory _proposal = organizationsProposals[address(_avatar)][_proposalId];\n        ContributionProposal storage proposal = organizationsProposals[address(_avatar)][_proposalId];\n        require(proposal.executionTime != 0);\n        uint256 periodsToPay = getPeriodsToPay(_proposalId, address(_avatar), 0);\n\n        //set proposal reward to zero to prevent reentrancy attack.\n        proposal.reputationChange = 0;\n        reputation = int(periodsToPay) * _proposal.reputationChange;\n        if (reputation > 0) {\n            require(\n            ControllerInterface(\n            _avatar.owner()).mintReputation(uint(reputation), _proposal.beneficiary, address(_avatar)));\n        } else if (reputation < 0) {\n            require(\n            ControllerInterface(\n            _avatar.owner()).burnReputation(uint(reputation*(-1)), _proposal.beneficiary, address(_avatar)));\n        }\n        if (reputation != 0) {\n            proposal.redeemedPeriods[0] = proposal.redeemedPeriods[0].add(periodsToPay);\n            emit RedeemReputation(address(_avatar), _proposalId, _proposal.beneficiary, reputation);\n        }\n        //restore proposal reward.\n        proposal.reputationChange = _proposal.reputationChange;\n    }\n\n    /**\n    * @dev RedeemNativeToken reward for proposal\n    * @param _proposalId the ID of the voting in the voting machine\n    * @param _avatar address of the controller\n    * @return amount the redeemed nativeToken.\n    */\n    function redeemNativeToken(bytes32 _proposalId, Avatar _avatar) public returns(uint256 amount) {\n\n        ContributionProposal memory _proposal = organizationsProposals[address(_avatar)][_proposalId];\n        ContributionProposal storage proposal = organizationsProposals[address(_avatar)][_proposalId];\n        require(proposal.executionTime != 0);\n        uint256 periodsToPay = getPeriodsToPay(_proposalId, address(_avatar), 1);\n        //set proposal rewards to zero to prevent reentrancy attack.\n        proposal.nativeTokenReward = 0;\n\n        amount = periodsToPay.mul(_proposal.nativeTokenReward);\n        if (amount > 0) {\n            require(ControllerInterface(_avatar.owner()).mintTokens(amount, _proposal.beneficiary, address(_avatar)));\n            proposal.redeemedPeriods[1] = proposal.redeemedPeriods[1].add(periodsToPay);\n            emit RedeemNativeToken(address(_avatar), _proposalId, _proposal.beneficiary, amount);\n        }\n\n        //restore proposal reward.\n        proposal.nativeTokenReward = _proposal.nativeTokenReward;\n    }\n\n    /**\n    * @dev RedeemEther reward for proposal\n    * @param _proposalId the ID of the voting in the voting machine\n    * @param _avatar address of the controller\n    * @return amount ether redeemed amount\n    */\n    function redeemEther(bytes32 _proposalId, Avatar _avatar) public returns(uint256 amount) {\n\n        ContributionProposal memory _proposal = organizationsProposals[address(_avatar)][_proposalId];\n        ContributionProposal storage proposal = organizationsProposals[address(_avatar)][_proposalId];\n        require(proposal.executionTime != 0);\n        uint256 periodsToPay = getPeriodsToPay(_proposalId, address(_avatar), 2);\n        //set proposal rewards to zero to prevent reentrancy attack.\n        proposal.ethReward = 0;\n        amount = periodsToPay.mul(_proposal.ethReward);\n\n        if (amount > 0) {\n            require(ControllerInterface(_avatar.owner()).sendEther(amount, _proposal.beneficiary, _avatar));\n            proposal.redeemedPeriods[2] = proposal.redeemedPeriods[2].add(periodsToPay);\n            emit RedeemEther(address(_avatar), _proposalId, _proposal.beneficiary, amount);\n        }\n\n        //restore proposal reward.\n        proposal.ethReward = _proposal.ethReward;\n    }\n\n    /**\n    * @dev RedeemNativeToken reward for proposal\n    * @param _proposalId the ID of the voting in the voting machine\n    * @param _avatar address of the controller\n    * @return amount the external token redeemed amount\n    */\n    function redeemExternalToken(bytes32 _proposalId, Avatar _avatar) public returns(uint256 amount) {\n\n        ContributionProposal memory _proposal = organizationsProposals[address(_avatar)][_proposalId];\n        ContributionProposal storage proposal = organizationsProposals[address(_avatar)][_proposalId];\n        require(proposal.executionTime != 0);\n        uint256 periodsToPay = getPeriodsToPay(_proposalId, address(_avatar), 3);\n        //set proposal rewards to zero to prevent reentrancy attack.\n        proposal.externalTokenReward = 0;\n\n        if (proposal.externalToken != IERC20(0) && _proposal.externalTokenReward > 0) {\n            amount = periodsToPay.mul(_proposal.externalTokenReward);\n            if (amount > 0) {\n                require(\n                ControllerInterface(\n                _avatar.owner())\n                .externalTokenTransfer(_proposal.externalToken, _proposal.beneficiary, amount, _avatar));\n                proposal.redeemedPeriods[3] = proposal.redeemedPeriods[3].add(periodsToPay);\n                emit RedeemExternalToken(address(_avatar), _proposalId, _proposal.beneficiary, amount);\n            }\n        }\n        //restore proposal reward.\n        proposal.externalTokenReward = _proposal.externalTokenReward;\n    }\n\n    /**\n    * @dev redeem rewards for proposal\n    * @param _proposalId the ID of the voting in the voting machine\n    * @param _avatar address of the controller\n    * @param _whatToRedeem whatToRedeem array:\n    *         whatToRedeem[0] - reputation\n    *         whatToRedeem[1] - nativeTokenReward\n    *         whatToRedeem[2] - Ether\n    *         whatToRedeem[3] - ExternalToken\n    * @return  result boolean array for each redeem type.\n    */\n    function redeem(bytes32 _proposalId, Avatar _avatar, bool[4] memory _whatToRedeem)\n    public\n    returns(int256 reputationReward, uint256 nativeTokenReward, uint256 etherReward, uint256 externalTokenReward)\n    {\n\n        if (_whatToRedeem[0]) {\n            reputationReward = redeemReputation(_proposalId, _avatar);\n        }\n\n        if (_whatToRedeem[1]) {\n            nativeTokenReward = redeemNativeToken(_proposalId, _avatar);\n        }\n\n        if (_whatToRedeem[2]) {\n            etherReward = redeemEther(_proposalId, _avatar);\n        }\n\n        if (_whatToRedeem[3]) {\n            externalTokenReward = redeemExternalToken(_proposalId, _avatar);\n        }\n    }\n\n    /**\n    * @dev getPeriodsToPay return the periods left to be paid for reputation,nativeToken,ether or externalToken.\n    * The function ignore the reward amount to be paid (which can be zero).\n    * @param _proposalId the ID of the voting in the voting machine\n    * @param _avatar address of the controller\n    * @param _redeemType - the type of the reward  :\n    *         0 - reputation\n    *         1 - nativeTokenReward\n    *         2 - Ether\n    *         3 - ExternalToken\n    * @return  periods left to be paid.\n    */\n    function getPeriodsToPay(bytes32 _proposalId, address _avatar, uint256 _redeemType) public view returns (uint256) {\n        require(_redeemType <= 3, \"should be in the redeemedPeriods range\");\n        ContributionProposal memory _proposal = organizationsProposals[_avatar][_proposalId];\n        if (_proposal.executionTime == 0)\n            return 0;\n        uint256 periodsFromExecution;\n        if (_proposal.periodLength > 0) {\n          // solhint-disable-next-line not-rely-on-time\n            periodsFromExecution = (now.sub(_proposal.executionTime))/(_proposal.periodLength);\n        }\n        uint256 periodsToPay;\n        if ((_proposal.periodLength == 0) || (periodsFromExecution >= _proposal.numberOfPeriods)) {\n            periodsToPay = _proposal.numberOfPeriods.sub(_proposal.redeemedPeriods[_redeemType]);\n        } else {\n            periodsToPay = periodsFromExecution.sub(_proposal.redeemedPeriods[_redeemType]);\n        }\n        return periodsToPay;\n    }\n\n    /**\n    * @dev getRedeemedPeriods return the already redeemed periods for reputation, nativeToken, ether or externalToken.\n    * @param _proposalId the ID of the voting in the voting machine\n    * @param _avatar address of the controller\n    * @param _redeemType - the type of the reward  :\n    *         0 - reputation\n    *         1 - nativeTokenReward\n    *         2 - Ether\n    *         3 - ExternalToken\n    * @return redeemed period.\n    */\n    function getRedeemedPeriods(bytes32 _proposalId, address _avatar, uint256 _redeemType)\n    public\n    view\n    returns (uint256) {\n        return organizationsProposals[_avatar][_proposalId].redeemedPeriods[_redeemType];\n    }\n\n    function getProposalEthReward(bytes32 _proposalId, address _avatar) public view returns (uint256) {\n        return organizationsProposals[_avatar][_proposalId].ethReward;\n    }\n\n    function getProposalExternalTokenReward(bytes32 _proposalId, address _avatar) public view returns (uint256) {\n        return organizationsProposals[_avatar][_proposalId].externalTokenReward;\n    }\n\n    function getProposalExternalToken(bytes32 _proposalId, address _avatar) public view returns (address) {\n        return address(organizationsProposals[_avatar][_proposalId].externalToken);\n    }\n\n    function getProposalExecutionTime(bytes32 _proposalId, address _avatar) public view returns (uint256) {\n        return organizationsProposals[_avatar][_proposalId].executionTime;\n    }\n\n    /**\n    * @dev validateProposalParams validate proposal's rewards parameters.\n    * The function check for potential overflow upon proposal's redeem.\n    * The function reverts if the params are not valid.\n    * @param _reputationChange - Amount of reputation change requested .Can be negative.\n    * @param _rewards rewards array:\n    *         rewards[0] - Amount of tokens requested per period\n    *         rewards[1] - Amount of ETH requested per period\n    *         rewards[2] - Amount of external tokens requested per period\n    *         rewards[3] - Period length - if set to zero it allows immediate redeeming after execution.\n    *         rewards[4] - Number of periods\n    */\n    function validateProposalParams(int256 _reputationChange, uint[5] memory _rewards) private pure {\n        require(((_rewards[3] > 0) || (_rewards[4] == 1)), \"periodLength equal 0 require numberOfPeriods to be 1\");\n        if (_rewards[4] > 0) {\n            // This is the only case of overflow not detected by the check below\n            require(!(int(_rewards[4]) == -1 && _reputationChange == (-2**255)),\n            \"numberOfPeriods * _reputationChange will overflow\");\n           //check that numberOfPeriods * _reputationChange will not overflow\n            require((int(_rewards[4]) * _reputationChange) / int(_rewards[4]) == _reputationChange,\n            \"numberOfPeriods * reputationChange will overflow\");\n            //check that numberOfPeriods * tokenReward will not overflow\n            require((_rewards[4] * _rewards[0]) / _rewards[4] == _rewards[0],\n            \"numberOfPeriods * tokenReward will overflow\");\n            //check that numberOfPeriods * ethReward will not overflow\n            require((_rewards[4] * _rewards[1]) / _rewards[4] == _rewards[1],\n            \"numberOfPeriods * ethReward will overflow\");\n            //check that numberOfPeriods * texternalTokenReward will not overflow\n            require((_rewards[4] * _rewards[2]) / _rewards[4] == _rewards[2],\n            \"numberOfPeriods * texternalTokenReward will overflow\");\n        }\n    }\n\n}",
  "sourcePath": "C:\\Users\\Subhan\\Desktop\\github\\betterbrooklyndao\\UniversalSchemes\\contracts\\ContributionReward.sol",
  "compiler": {
    "name": "solc",
    "version": "0.5.8+commit.23d335f2.Emscripten.clang"
  },
  "schemaVersion": "3.0.11",
  "updatedAt": "2019-07-18T15:03:28.793Z",
  "devdoc": {
    "details": "An agent can ask an organization to recognize a contribution and reward him with token, reputation, ether or any combination.",
    "methods": {
      "executeProposal(bytes32,int256)": {
        "details": "execution of proposals, can only be called by the voting machine in which the vote is held.",
        "params": {
          "_param": "a parameter of the voting result, 1 yes and 2 is no.",
          "_proposalId": "the ID of the voting in the voting machine"
        }
      },
      "getParametersHash(bytes32,address)": {
        "details": "return a hash of the given parameters",
        "params": {
          "_intVote": "the voting machine used to approve a contribution",
          "_voteApproveParams": "parameters for the voting machine used to approve a contribution"
        },
        "return": "a hash of the parameters"
      },
      "getPeriodsToPay(bytes32,address,uint256)": {
        "details": "getPeriodsToPay return the periods left to be paid for reputation,nativeToken,ether or externalToken. The function ignore the reward amount to be paid (which can be zero).",
        "params": {
          "_avatar": "address of the controller",
          "_proposalId": "the ID of the voting in the voting machine",
          "_redeemType": "- the type of the reward  :        0 - reputation        1 - nativeTokenReward        2 - Ether        3 - ExternalToken"
        },
        "return": "periods left to be paid."
      },
      "getRedeemedPeriods(bytes32,address,uint256)": {
        "details": "getRedeemedPeriods return the already redeemed periods for reputation, nativeToken, ether or externalToken.",
        "params": {
          "_avatar": "address of the controller",
          "_proposalId": "the ID of the voting in the voting machine",
          "_redeemType": "- the type of the reward  :        0 - reputation        1 - nativeTokenReward        2 - Ether        3 - ExternalToken"
        },
        "return": "redeemed period."
      },
      "proposeContributionReward(address,string,int256,uint256[5],address,address)": {
        "details": "Submit a proposal for a reward for a contribution:",
        "params": {
          "_avatar": "Avatar of the organization that the contribution was made for",
          "_beneficiary": "Who gets the rewards",
          "_descriptionHash": "A hash of the proposal's description",
          "_externalToken": "Address of external token, if reward is requested there",
          "_reputationChange": "- Amount of reputation change requested .Can be negative.",
          "_rewards": "rewards array:        rewards[0] - Amount of tokens requested per period        rewards[1] - Amount of ETH requested per period        rewards[2] - Amount of external tokens requested per period        rewards[3] - Period length - if set to zero it allows immediate redeeming after execution.        rewards[4] - Number of periods"
        }
      },
      "redeem(bytes32,address,bool[4])": {
        "details": "redeem rewards for proposal",
        "params": {
          "_avatar": "address of the controller",
          "_proposalId": "the ID of the voting in the voting machine",
          "_whatToRedeem": "whatToRedeem array:        whatToRedeem[0] - reputation        whatToRedeem[1] - nativeTokenReward        whatToRedeem[2] - Ether        whatToRedeem[3] - ExternalToken"
        },
        "return": "result boolean array for each redeem type."
      },
      "redeemEther(bytes32,address)": {
        "details": "RedeemEther reward for proposal",
        "params": {
          "_avatar": "address of the controller",
          "_proposalId": "the ID of the voting in the voting machine"
        },
        "return": "amount ether redeemed amount"
      },
      "redeemExternalToken(bytes32,address)": {
        "details": "RedeemNativeToken reward for proposal",
        "params": {
          "_avatar": "address of the controller",
          "_proposalId": "the ID of the voting in the voting machine"
        },
        "return": "amount the external token redeemed amount"
      },
      "redeemNativeToken(bytes32,address)": {
        "details": "RedeemNativeToken reward for proposal",
        "params": {
          "_avatar": "address of the controller",
          "_proposalId": "the ID of the voting in the voting machine"
        },
        "return": "amount the redeemed nativeToken."
      },
      "redeemReputation(bytes32,address)": {
        "details": "RedeemReputation reward for proposal",
        "params": {
          "_avatar": "address of the controller",
          "_proposalId": "the ID of the voting in the voting machine"
        },
        "return": "reputation the redeemed reputation."
      },
      "setParameters(bytes32,address)": {
        "details": "hash the parameters, save them if necessary, and return the hash value"
      }
    },
    "title": "A scheme for proposing and rewarding contributions to an organization"
  },
  "userdoc": {
    "methods": {}
  }
}