{
  "contractName": "DaoCreator",
  "abi": [
    {
      "constant": true,
      "inputs": [
        {
          "name": "",
          "type": "address"
        }
      ],
      "name": "locks",
      "outputs": [
        {
          "name": "",
          "type": "address"
        }
      ],
      "payable": false,
      "stateMutability": "view",
      "type": "function"
    },
    {
      "inputs": [
        {
          "name": "_controllerCreator",
          "type": "address"
        }
      ],
      "payable": false,
      "stateMutability": "nonpayable",
      "type": "constructor"
    },
    {
      "anonymous": false,
      "inputs": [
        {
          "indexed": false,
          "name": "_avatar",
          "type": "address"
        }
      ],
      "name": "NewOrg",
      "type": "event"
    },
    {
      "anonymous": false,
      "inputs": [
        {
          "indexed": false,
          "name": "_avatar",
          "type": "address"
        }
      ],
      "name": "InitialSchemesSet",
      "type": "event"
    },
    {
      "constant": false,
      "inputs": [
        {
          "name": "_avatar",
          "type": "address"
        },
        {
          "name": "_founders",
          "type": "address[]"
        },
        {
          "name": "_foundersTokenAmount",
          "type": "uint256[]"
        },
        {
          "name": "_foundersReputationAmount",
          "type": "uint256[]"
        }
      ],
      "name": "addFounders",
      "outputs": [
        {
          "name": "",
          "type": "bool"
        }
      ],
      "payable": false,
      "stateMutability": "nonpayable",
      "type": "function"
    },
    {
      "constant": false,
      "inputs": [
        {
          "name": "_orgName",
          "type": "string"
        },
        {
          "name": "_tokenName",
          "type": "string"
        },
        {
          "name": "_tokenSymbol",
          "type": "string"
        },
        {
          "name": "_founders",
          "type": "address[]"
        },
        {
          "name": "_foundersTokenAmount",
          "type": "uint256[]"
        },
        {
          "name": "_foundersReputationAmount",
          "type": "uint256[]"
        },
        {
          "name": "_uController",
          "type": "address"
        },
        {
          "name": "_cap",
          "type": "uint256"
        }
      ],
      "name": "forgeOrg",
      "outputs": [
        {
          "name": "",
          "type": "address"
        }
      ],
      "payable": false,
      "stateMutability": "nonpayable",
      "type": "function"
    },
    {
      "constant": false,
      "inputs": [
        {
          "name": "_avatar",
          "type": "address"
        },
        {
          "name": "_schemes",
          "type": "address[]"
        },
        {
          "name": "_params",
          "type": "bytes32[]"
        },
        {
          "name": "_permissions",
          "type": "bytes4[]"
        },
        {
          "name": "_metaData",
          "type": "string"
        }
      ],
      "name": "setSchemes",
      "outputs": [],
      "payable": false,
      "stateMutability": "nonpayable",
      "type": "function"
    }
  ],
  "bytecode": "0x608060405234801561001057600080fd5b50604051602080616d068339810180604052602081101561003057600080fd5b810190808051906020019092919050505080600160006101000a81548173ffffffffffffffffffffffffffffffffffffffff021916908373ffffffffffffffffffffffffffffffffffffffff16021790555050616c74806100926000396000f3fe60806040523480156200001157600080fd5b5060043610620000525760003560e01c8063064bf3861462000057578063571084bd14620001fe5780635de9a1371462000365578063ff720f0f14620003ec575b600080fd5b620001fc600480360360a08110156200006f57600080fd5b81019080803573ffffffffffffffffffffffffffffffffffffffff16906020019092919080359060200190640100000000811115620000ad57600080fd5b820183602082011115620000c057600080fd5b80359060200191846020830284011164010000000083111715620000e357600080fd5b9091929391929390803590602001906401000000008111156200010557600080fd5b8201836020820111156200011857600080fd5b803590602001918460208302840111640100000000831117156200013b57600080fd5b9091929391929390803590602001906401000000008111156200015d57600080fd5b8201836020820111156200017057600080fd5b803590602001918460208302840111640100000000831117156200019357600080fd5b909192939192939080359060200190640100000000811115620001b557600080fd5b820183602082011115620001c857600080fd5b80359060200191846001830284011164010000000083111715620001eb57600080fd5b90919293919293905050506200068e565b005b6200034b600480360360808110156200021657600080fd5b81019080803573ffffffffffffffffffffffffffffffffffffffff169060200190929190803590602001906401000000008111156200025457600080fd5b8201836020820111156200026757600080fd5b803590602001918460208302840111640100000000831117156200028a57600080fd5b909192939192939080359060200190640100000000811115620002ac57600080fd5b820183602082011115620002bf57600080fd5b80359060200191846020830284011164010000000083111715620002e257600080fd5b9091929391929390803590602001906401000000008111156200030457600080fd5b8201836020820111156200031757600080fd5b803590602001918460208302840111640100000000831117156200033a57600080fd5b909192939192939050505062000c30565b604051808215151515815260200191505060405180910390f35b620003aa600480360360208110156200037d57600080fd5b81019080803573ffffffffffffffffffffffffffffffffffffffff16906020019092919050505062001142565b604051808273ffffffffffffffffffffffffffffffffffffffff1673ffffffffffffffffffffffffffffffffffffffff16815260200191505060405180910390f35b6200064c60048036036101008110156200040557600080fd5b81019080803590602001906401000000008111156200042357600080fd5b8201836020820111156200043657600080fd5b803590602001918460018302840111640100000000831117156200045957600080fd5b9091929391929390803590602001906401000000008111156200047b57600080fd5b8201836020820111156200048e57600080fd5b80359060200191846001830284011164010000000083111715620004b157600080fd5b909192939192939080359060200190640100000000811115620004d357600080fd5b820183602082011115620004e657600080fd5b803590602001918460018302840111640100000000831117156200050957600080fd5b9091929391929390803590602001906401000000008111156200052b57600080fd5b8201836020820111156200053e57600080fd5b803590602001918460208302840111640100000000831117156200056157600080fd5b9091929391929390803590602001906401000000008111156200058357600080fd5b8201836020820111156200059657600080fd5b80359060200191846020830284011164010000000083111715620005b957600080fd5b909192939192939080359060200190640100000000811115620005db57600080fd5b820183602082011115620005ee57600080fd5b803590602001918460208302840111640100000000831117156200061157600080fd5b9091929391929390803573ffffffffffffffffffffffffffffffffffffffff1690602001909291908035906020019092919050505062001175565b604051808273ffffffffffffffffffffffffffffffffffffffff1673ffffffffffffffffffffffffffffffffffffffff16815260200191505060405180910390f35b3373ffffffffffffffffffffffffffffffffffffffff166000808b73ffffffffffffffffffffffffffffffffffffffff1673ffffffffffffffffffffffffffffffffffffffff16815260200190815260200160002060009054906101000a900473ffffffffffffffffffffffffffffffffffffffff1673ffffffffffffffffffffffffffffffffffffffff16146200072557600080fd5b60008973ffffffffffffffffffffffffffffffffffffffff16638da5cb5b6040518163ffffffff1660e01b815260040160206040518083038186803b1580156200076e57600080fd5b505afa15801562000783573d6000803e3d6000fd5b505050506040513d60208110156200079a57600080fd5b8101908080519060200190929190505050905060008090505b898990508110156200097b578173ffffffffffffffffffffffffffffffffffffffff1663e869d45f8b8b84818110620007e857fe5b9050602002013573ffffffffffffffffffffffffffffffffffffffff168a8a858181106200081257fe5b905060200201358989868181106200082657fe5b905060200201357bffffffffffffffffffffffffffffffffffffffffffffffffffffffff19168f6040518563ffffffff1660e01b8152600401808573ffffffffffffffffffffffffffffffffffffffff1673ffffffffffffffffffffffffffffffffffffffff168152602001848152602001837bffffffffffffffffffffffffffffffffffffffffffffffffffffffff19167bffffffffffffffffffffffffffffffffffffffffffffffffffffffff191681526020018273ffffffffffffffffffffffffffffffffffffffff1673ffffffffffffffffffffffffffffffffffffffff168152602001945050505050602060405180830381600087803b1580156200092f57600080fd5b505af115801562000944573d6000803e3d6000fd5b505050506040513d60208110156200095b57600080fd5b8101908080519060200190929190505050508080600101915050620007b3565b508073ffffffffffffffffffffffffffffffffffffffff1663c9b62eb184848d6040518463ffffffff1660e01b815260040180806020018373ffffffffffffffffffffffffffffffffffffffff1673ffffffffffffffffffffffffffffffffffffffff1681526020018281038252858582818152602001925080828437600081840152601f19601f820116905080830192505050945050505050602060405180830381600087803b15801562000a3057600080fd5b505af115801562000a45573d6000803e3d6000fd5b505050506040513d602081101562000a5c57600080fd5b8101908080519060200190929190505050508073ffffffffffffffffffffffffffffffffffffffff1663039de01d308c6040518363ffffffff1660e01b8152600401808373ffffffffffffffffffffffffffffffffffffffff1673ffffffffffffffffffffffffffffffffffffffff1681526020018273ffffffffffffffffffffffffffffffffffffffff1673ffffffffffffffffffffffffffffffffffffffff16815260200192505050602060405180830381600087803b15801562000b2257600080fd5b505af115801562000b37573d6000803e3d6000fd5b505050506040513d602081101562000b4e57600080fd5b8101908080519060200190929190505050506000808b73ffffffffffffffffffffffffffffffffffffffff1673ffffffffffffffffffffffffffffffffffffffff16815260200190815260200160002060006101000a81549073ffffffffffffffffffffffffffffffffffffffff02191690557f9007c9042f12be953f7dbe3909f56c3f088e9fe294dbebbef4a67afa63462b6a8a604051808273ffffffffffffffffffffffffffffffffffffffff1673ffffffffffffffffffffffffffffffffffffffff16815260200191505060405180910390a150505050505050505050565b600084849050878790501462000c4557600080fd5b82829050878790501462000c5857600080fd5b6000878790501162000c6957600080fd5b3373ffffffffffffffffffffffffffffffffffffffff166000808a73ffffffffffffffffffffffffffffffffffffffff1673ffffffffffffffffffffffffffffffffffffffff16815260200190815260200160002060009054906101000a900473ffffffffffffffffffffffffffffffffffffffff1673ffffffffffffffffffffffffffffffffffffffff161462000d0057600080fd5b60008090505b878790508110156200113257600073ffffffffffffffffffffffffffffffffffffffff1688888381811062000d3757fe5b9050602002013573ffffffffffffffffffffffffffffffffffffffff1673ffffffffffffffffffffffffffffffffffffffff16141562000d7657600080fd5b600086868381811062000d8557fe5b90506020020135111562000f4d578873ffffffffffffffffffffffffffffffffffffffff16638da5cb5b6040518163ffffffff1660e01b815260040160206040518083038186803b15801562000dda57600080fd5b505afa15801562000def573d6000803e3d6000fd5b505050506040513d602081101562000e0657600080fd5b810190808051906020019092919050505073ffffffffffffffffffffffffffffffffffffffff16636407e43287878481811062000e3f57fe5b905060200201358a8a8581811062000e5357fe5b9050602002013573ffffffffffffffffffffffffffffffffffffffff168c6040518463ffffffff1660e01b8152600401808481526020018373ffffffffffffffffffffffffffffffffffffffff1673ffffffffffffffffffffffffffffffffffffffff1681526020018273ffffffffffffffffffffffffffffffffffffffff1673ffffffffffffffffffffffffffffffffffffffff1681526020019350505050602060405180830381600087803b15801562000f0e57600080fd5b505af115801562000f23573d6000803e3d6000fd5b505050506040513d602081101562000f3a57600080fd5b8101908080519060200190929190505050505b600084848381811062000f5c57fe5b90506020020135111562001124578873ffffffffffffffffffffffffffffffffffffffff16638da5cb5b6040518163ffffffff1660e01b815260040160206040518083038186803b15801562000fb157600080fd5b505afa15801562000fc6573d6000803e3d6000fd5b505050506040513d602081101562000fdd57600080fd5b810190808051906020019092919050505073ffffffffffffffffffffffffffffffffffffffff1663eaf994b28585848181106200101657fe5b905060200201358a8a858181106200102a57fe5b9050602002013573ffffffffffffffffffffffffffffffffffffffff168c6040518463ffffffff1660e01b8152600401808481526020018373ffffffffffffffffffffffffffffffffffffffff1673ffffffffffffffffffffffffffffffffffffffff1681526020018273ffffffffffffffffffffffffffffffffffffffff1673ffffffffffffffffffffffffffffffffffffffff1681526020019350505050602060405180830381600087803b158015620010e557600080fd5b505af1158015620010fa573d6000803e3d6000fd5b505050506040513d60208110156200111157600080fd5b8101908080519060200190929190505050505b808060010191505062000d06565b5060019050979650505050505050565b60006020528060005260406000206000915054906101000a900473ffffffffffffffffffffffffffffffffffffffff1681565b6000620013188f8f8080601f016020809104026020016040519081016040528093929190818152602001838380828437600081840152601f19601f820116905080830192505050505050508e8e8080601f016020809104026020016040519081016040528093929190818152602001838380828437600081840152601f19601f820116905080830192505050505050508d8d8080601f016020809104026020016040519081016040528093929190818152602001838380828437600081840152601f19601f820116905080830192505050505050508c8c80806020026020016040519081016040528093929190818152602001838360200280828437600081840152601f19601f820116905080830192505050505050508b8b80806020026020016040519081016040528093929190818152602001838360200280828437600081840152601f19601f820116905080830192505050505050508a8a80806020026020016040519081016040528093929190818152602001838360200280828437600081840152601f19601f8201169050808301925050505050505089896200132c565b90509e9d5050505050505050505050505050565b600084518651146200133d57600080fd5b83518651146200134c57600080fd5b60008651116200135b57600080fd5b60008888846040516200136e9062001e7e565b808060200180602001848152602001838103835286818151815260200191508051906020019080838360005b83811015620013b75780820151818401526020810190506200139a565b50505050905090810190601f168015620013e55780820380516001836020036101000a031916815260200191505b50838103825285818151815260200191508051906020019080838360005b838110156200142057808201518184015260208101905062001403565b50505050905090810190601f1680156200144e5780820380516001836020036101000a031916815260200191505b5095505050505050604051809103906000f08015801562001473573d6000803e3d6000fd5b5090506000604051620014869062001e8c565b604051809103906000f080158015620014a3573d6000803e3d6000fd5b50905060008b8383604051620014b99062001e9a565b80806020018473ffffffffffffffffffffffffffffffffffffffff1673ffffffffffffffffffffffffffffffffffffffff1681526020018373ffffffffffffffffffffffffffffffffffffffff1673ffffffffffffffffffffffffffffffffffffffff168152602001828103825285818151815260200191508051906020019080838360005b838110156200155c5780820151818401526020810190506200153f565b50505050905090810190601f1680156200158a5780820380516001836020036101000a031916815260200191505b50945050505050604051809103906000f080158015620015ae573d6000803e3d6000fd5b509050600080600090505b8a518110156200183a57600073ffffffffffffffffffffffffffffffffffffffff168b8281518110620015e857fe5b602002602001015173ffffffffffffffffffffffffffffffffffffffff1614156200161257600080fd5b60008a82815181106200162157fe5b602002602001015111156200171f578473ffffffffffffffffffffffffffffffffffffffff166340c10f198c83815181106200165957fe5b60200260200101518c84815181106200166e57fe5b60200260200101516040518363ffffffff1660e01b8152600401808373ffffffffffffffffffffffffffffffffffffffff1673ffffffffffffffffffffffffffffffffffffffff16815260200182815260200192505050602060405180830381600087803b158015620016e057600080fd5b505af1158015620016f5573d6000803e3d6000fd5b505050506040513d60208110156200170c57600080fd5b8101908080519060200190929190505050505b60008982815181106200172e57fe5b602002602001015111156200182c578373ffffffffffffffffffffffffffffffffffffffff166340c10f198c83815181106200176657fe5b60200260200101518b84815181106200177b57fe5b60200260200101516040518363ffffffff1660e01b8152600401808373ffffffffffffffffffffffffffffffffffffffff1673ffffffffffffffffffffffffffffffffffffffff16815260200182815260200192505050602060405180830381600087803b158015620017ed57600080fd5b505af115801562001802573d6000803e3d6000fd5b505050506040513d60208110156200181957600080fd5b8101908080519060200190929190505050505b8080600101915050620015b9565b508673ffffffffffffffffffffffffffffffffffffffff16600073ffffffffffffffffffffffffffffffffffffffff16141562001b2357600160009054906101000a900473ffffffffffffffffffffffffffffffffffffffff1673ffffffffffffffffffffffffffffffffffffffff16639ed93318836040518263ffffffff1660e01b8152600401808273ffffffffffffffffffffffffffffffffffffffff1673ffffffffffffffffffffffffffffffffffffffff168152602001915050602060405180830381600087803b1580156200191357600080fd5b505af115801562001928573d6000803e3d6000fd5b505050506040513d60208110156200193f57600080fd5b810190808051906020019092919050505090508173ffffffffffffffffffffffffffffffffffffffff1663f2fde38b826040518263ffffffff1660e01b8152600401808273ffffffffffffffffffffffffffffffffffffffff1673ffffffffffffffffffffffffffffffffffffffff168152602001915050600060405180830381600087803b158015620019d257600080fd5b505af1158015620019e7573d6000803e3d6000fd5b505050508373ffffffffffffffffffffffffffffffffffffffff1663f2fde38b826040518263ffffffff1660e01b8152600401808273ffffffffffffffffffffffffffffffffffffffff1673ffffffffffffffffffffffffffffffffffffffff168152602001915050600060405180830381600087803b15801562001a6b57600080fd5b505af115801562001a80573d6000803e3d6000fd5b505050508273ffffffffffffffffffffffffffffffffffffffff1663f2fde38b826040518263ffffffff1660e01b8152600401808273ffffffffffffffffffffffffffffffffffffffff1673ffffffffffffffffffffffffffffffffffffffff168152602001915050600060405180830381600087803b15801562001b0457600080fd5b505af115801562001b19573d6000803e3d6000fd5b5050505062001d8b565b8690508173ffffffffffffffffffffffffffffffffffffffff1663f2fde38b826040518263ffffffff1660e01b8152600401808273ffffffffffffffffffffffffffffffffffffffff1673ffffffffffffffffffffffffffffffffffffffff168152602001915050600060405180830381600087803b15801562001ba657600080fd5b505af115801562001bbb573d6000803e3d6000fd5b505050508373ffffffffffffffffffffffffffffffffffffffff1663f2fde38b826040518263ffffffff1660e01b8152600401808273ffffffffffffffffffffffffffffffffffffffff1673ffffffffffffffffffffffffffffffffffffffff168152602001915050600060405180830381600087803b15801562001c3f57600080fd5b505af115801562001c54573d6000803e3d6000fd5b505050508273ffffffffffffffffffffffffffffffffffffffff1663f2fde38b826040518263ffffffff1660e01b8152600401808273ffffffffffffffffffffffffffffffffffffffff1673ffffffffffffffffffffffffffffffffffffffff168152602001915050600060405180830381600087803b15801562001cd857600080fd5b505af115801562001ced573d6000803e3d6000fd5b505050508673ffffffffffffffffffffffffffffffffffffffff1663b9981364836040518263ffffffff1660e01b8152600401808273ffffffffffffffffffffffffffffffffffffffff1673ffffffffffffffffffffffffffffffffffffffff168152602001915050600060405180830381600087803b15801562001d7157600080fd5b505af115801562001d86573d6000803e3d6000fd5b505050505b336000808473ffffffffffffffffffffffffffffffffffffffff1673ffffffffffffffffffffffffffffffffffffffff16815260200190815260200160002060006101000a81548173ffffffffffffffffffffffffffffffffffffffff021916908373ffffffffffffffffffffffffffffffffffffffff1602179055507f244496352f5e67e59ce96b4a53ef9ea7cb88b7db33eb13dc5e771bd04385a60e82604051808273ffffffffffffffffffffffffffffffffffffffff1673ffffffffffffffffffffffffffffffffffffffff16815260200191505060405180910390a18194505050505098975050505050505050565b611d178062001ea983390190565b6111028062003bc083390190565b611f878062004cc28339019056fe60806040523480156200001157600080fd5b5060405162001d1738038062001d17833981018060405260608110156200003757600080fd5b8101908080516401000000008111156200005057600080fd5b828101905060208101848111156200006757600080fd5b81518560018202830111640100000000821117156200008557600080fd5b50509291906020018051640100000000811115620000a257600080fd5b82810190506020810184811115620000b957600080fd5b8151856001820283011164010000000082111715620000d757600080fd5b50509291906020018051906020019092919050505033600360006101000a81548173ffffffffffffffffffffffffffffffffffffffff021916908373ffffffffffffffffffffffffffffffffffffffff160217905550600360009054906101000a900473ffffffffffffffffffffffffffffffffffffffff1673ffffffffffffffffffffffffffffffffffffffff16600073ffffffffffffffffffffffffffffffffffffffff167f8be0079c531659141344cd1fd0a4f28419497f9722a3daafe3b4186f6b6457e060405160405180910390a38260049080519060200190620001c2929190620001ec565b508160059080519060200190620001db929190620001ec565b50806006819055505050506200029b565b828054600181600116156101000203166002900490600052602060002090601f016020900481019282601f106200022f57805160ff191683800117855562000260565b8280016001018555821562000260579182015b828111156200025f57825182559160200191906001019062000242565b5b5090506200026f919062000273565b5090565b6200029891905b80821115620002945760008160009055506001016200027a565b5090565b90565b611a6c80620002ab6000396000f3fe608060405234801561001057600080fd5b50600436106101215760003560e01c806370a08231116100ad57806395d89b411161007157806395d89b411461050b578063a457c2d71461058e578063a9059cbb146105f4578063dd62ed3e1461065a578063f2fde38b146106d257610121565b806370a08231146103ef578063715018a61461044757806379cc6790146104515780638da5cb5b1461049f5780638f32d59b146104e957610121565b8063313ce567116100f4578063313ce567146102b3578063355274ea146102d757806339509351146102f557806340c10f191461035b57806342966c68146103c157610121565b806306fdde0314610126578063095ea7b3146101a957806318160ddd1461020f57806323b872dd1461022d575b600080fd5b61012e610716565b6040518080602001828103825283818151815260200191508051906020019080838360005b8381101561016e578082015181840152602081019050610153565b50505050905090810190601f16801561019b5780820380516001836020036101000a031916815260200191505b509250505060405180910390f35b6101f5600480360360408110156101bf57600080fd5b81019080803573ffffffffffffffffffffffffffffffffffffffff169060200190929190803590602001909291905050506107b4565b604051808215151515815260200191505060405180910390f35b6102176107cb565b6040518082815260200191505060405180910390f35b6102996004803603606081101561024357600080fd5b81019080803573ffffffffffffffffffffffffffffffffffffffff169060200190929190803573ffffffffffffffffffffffffffffffffffffffff169060200190929190803590602001909291905050506107d5565b604051808215151515815260200191505060405180910390f35b6102bb610886565b604051808260ff1660ff16815260200191505060405180910390f35b6102df61088b565b6040518082815260200191505060405180910390f35b6103416004803603604081101561030b57600080fd5b81019080803573ffffffffffffffffffffffffffffffffffffffff16906020019092919080359060200190929190505050610891565b604051808215151515815260200191505060405180910390f35b6103a76004803603604081101561037157600080fd5b81019080803573ffffffffffffffffffffffffffffffffffffffff16906020019092919080359060200190929190505050610936565b604051808215151515815260200191505060405180910390f35b6103ed600480360360208110156103d757600080fd5b81019080803590602001909291905050506109fa565b005b6104316004803603602081101561040557600080fd5b81019080803573ffffffffffffffffffffffffffffffffffffffff169060200190929190505050610a07565b6040518082815260200191505060405180910390f35b61044f610a4f565b005b61049d6004803603604081101561046757600080fd5b81019080803573ffffffffffffffffffffffffffffffffffffffff16906020019092919080359060200190929190505050610b8a565b005b6104a7610b98565b604051808273ffffffffffffffffffffffffffffffffffffffff1673ffffffffffffffffffffffffffffffffffffffff16815260200191505060405180910390f35b6104f1610bc2565b604051808215151515815260200191505060405180910390f35b610513610c1a565b6040518080602001828103825283818151815260200191508051906020019080838360005b83811015610553578082015181840152602081019050610538565b50505050905090810190601f1680156105805780820380516001836020036101000a031916815260200191505b509250505060405180910390f35b6105da600480360360408110156105a457600080fd5b81019080803573ffffffffffffffffffffffffffffffffffffffff16906020019092919080359060200190929190505050610cb8565b604051808215151515815260200191505060405180910390f35b6106406004803603604081101561060a57600080fd5b81019080803573ffffffffffffffffffffffffffffffffffffffff16906020019092919080359060200190929190505050610d5d565b604051808215151515815260200191505060405180910390f35b6106bc6004803603604081101561067057600080fd5b81019080803573ffffffffffffffffffffffffffffffffffffffff169060200190929190803573ffffffffffffffffffffffffffffffffffffffff169060200190929190505050610d74565b6040518082815260200191505060405180910390f35b610714600480360360208110156106e857600080fd5b81019080803573ffffffffffffffffffffffffffffffffffffffff169060200190929190505050610dfb565b005b60048054600181600116156101000203166002900480601f0160208091040260200160405190810160405280929190818152602001828054600181600116156101000203166002900480156107ac5780601f10610781576101008083540402835291602001916107ac565b820191906000526020600020905b81548152906001019060200180831161078f57829003601f168201915b505050505081565b60006107c1338484610e81565b6001905092915050565b6000600254905090565b60006107e2848484611078565b61087b843361087685600160008a73ffffffffffffffffffffffffffffffffffffffff1673ffffffffffffffffffffffffffffffffffffffff16815260200190815260200160002060003373ffffffffffffffffffffffffffffffffffffffff1673ffffffffffffffffffffffffffffffffffffffff1681526020019081526020016000205461131490919063ffffffff16565b610e81565b600190509392505050565b601281565b60065481565b600061092c338461092785600160003373ffffffffffffffffffffffffffffffffffffffff1673ffffffffffffffffffffffffffffffffffffffff16815260200190815260200160002060008973ffffffffffffffffffffffffffffffffffffffff1673ffffffffffffffffffffffffffffffffffffffff1681526020019081526020016000205461139d90919063ffffffff16565b610e81565b6001905092915050565b6000610940610bc2565b6109b2576040517f08c379a00000000000000000000000000000000000000000000000000000000081526004018080602001828103825260208152602001807f4f776e61626c653a2063616c6c6572206973206e6f7420746865206f776e657281525060200191505060405180910390fd5b600060065411156109e6576006546109da836109cc6107cb565b61139d90919063ffffffff16565b11156109e557600080fd5b5b6109f08383611425565b6001905092915050565b610a0433826115e0565b50565b60008060008373ffffffffffffffffffffffffffffffffffffffff1673ffffffffffffffffffffffffffffffffffffffff168152602001908152602001600020549050919050565b610a57610bc2565b610ac9576040517f08c379a00000000000000000000000000000000000000000000000000000000081526004018080602001828103825260208152602001807f4f776e61626c653a2063616c6c6572206973206e6f7420746865206f776e657281525060200191505060405180910390fd5b600073ffffffffffffffffffffffffffffffffffffffff16600360009054906101000a900473ffffffffffffffffffffffffffffffffffffffff1673ffffffffffffffffffffffffffffffffffffffff167f8be0079c531659141344cd1fd0a4f28419497f9722a3daafe3b4186f6b6457e060405160405180910390a36000600360006101000a81548173ffffffffffffffffffffffffffffffffffffffff021916908373ffffffffffffffffffffffffffffffffffffffff160217905550565b610b94828261177e565b5050565b6000600360009054906101000a900473ffffffffffffffffffffffffffffffffffffffff16905090565b6000600360009054906101000a900473ffffffffffffffffffffffffffffffffffffffff1673ffffffffffffffffffffffffffffffffffffffff163373ffffffffffffffffffffffffffffffffffffffff1614905090565b60058054600181600116156101000203166002900480601f016020809104026020016040519081016040528092919081815260200182805460018160011615610100020316600290048015610cb05780601f10610c8557610100808354040283529160200191610cb0565b820191906000526020600020905b815481529060010190602001808311610c9357829003601f168201915b505050505081565b6000610d533384610d4e85600160003373ffffffffffffffffffffffffffffffffffffffff1673ffffffffffffffffffffffffffffffffffffffff16815260200190815260200160002060008973ffffffffffffffffffffffffffffffffffffffff1673ffffffffffffffffffffffffffffffffffffffff1681526020019081526020016000205461131490919063ffffffff16565b610e81565b6001905092915050565b6000610d6a338484611078565b6001905092915050565b6000600160008473ffffffffffffffffffffffffffffffffffffffff1673ffffffffffffffffffffffffffffffffffffffff16815260200190815260200160002060008373ffffffffffffffffffffffffffffffffffffffff1673ffffffffffffffffffffffffffffffffffffffff16815260200190815260200160002054905092915050565b610e03610bc2565b610e75576040517f08c379a00000000000000000000000000000000000000000000000000000000081526004018080602001828103825260208152602001807f4f776e61626c653a2063616c6c6572206973206e6f7420746865206f776e657281525060200191505060405180910390fd5b610e7e81611825565b50565b600073ffffffffffffffffffffffffffffffffffffffff168373ffffffffffffffffffffffffffffffffffffffff161415610f07576040517f08c379a0000000000000000000000000000000000000000000000000000000008152600401808060200182810382526024815260200180611a1d6024913960400191505060405180910390fd5b600073ffffffffffffffffffffffffffffffffffffffff168273ffffffffffffffffffffffffffffffffffffffff161415610f8d576040517f08c379a00000000000000000000000000000000000000000000000000000000081526004018080602001828103825260228152602001806119b56022913960400191505060405180910390fd5b80600160008573ffffffffffffffffffffffffffffffffffffffff1673ffffffffffffffffffffffffffffffffffffffff16815260200190815260200160002060008473ffffffffffffffffffffffffffffffffffffffff1673ffffffffffffffffffffffffffffffffffffffff168152602001908152602001600020819055508173ffffffffffffffffffffffffffffffffffffffff168373ffffffffffffffffffffffffffffffffffffffff167f8c5be1e5ebec7d5bd14f71427d1e84f3dd0314c0f7b2291e5b200ac8c7c3b925836040518082815260200191505060405180910390a3505050565b600073ffffffffffffffffffffffffffffffffffffffff168373ffffffffffffffffffffffffffffffffffffffff1614156110fe576040517f08c379a00000000000000000000000000000000000000000000000000000000081526004018080602001828103825260258152602001806119f86025913960400191505060405180910390fd5b600073ffffffffffffffffffffffffffffffffffffffff168273ffffffffffffffffffffffffffffffffffffffff161415611184576040517f08c379a000000000000000000000000000000000000000000000000000000000815260040180806020018281038252602381526020018061196c6023913960400191505060405180910390fd5b6111d5816000808673ffffffffffffffffffffffffffffffffffffffff1673ffffffffffffffffffffffffffffffffffffffff1681526020019081526020016000205461131490919063ffffffff16565b6000808573ffffffffffffffffffffffffffffffffffffffff1673ffffffffffffffffffffffffffffffffffffffff16815260200190815260200160002081905550611268816000808573ffffffffffffffffffffffffffffffffffffffff1673ffffffffffffffffffffffffffffffffffffffff1681526020019081526020016000205461139d90919063ffffffff16565b6000808473ffffffffffffffffffffffffffffffffffffffff1673ffffffffffffffffffffffffffffffffffffffff168152602001908152602001600020819055508173ffffffffffffffffffffffffffffffffffffffff168373ffffffffffffffffffffffffffffffffffffffff167fddf252ad1be2c89b69c2b068fc378daa952ba7f163c4a11628f55a4df523b3ef836040518082815260200191505060405180910390a3505050565b60008282111561138c576040517f08c379a000000000000000000000000000000000000000000000000000000000815260040180806020018281038252601e8152602001807f536166654d6174683a207375627472616374696f6e206f766572666c6f77000081525060200191505060405180910390fd5b600082840390508091505092915050565b60008082840190508381101561141b576040517f08c379a000000000000000000000000000000000000000000000000000000000815260040180806020018281038252601b8152602001807f536166654d6174683a206164646974696f6e206f766572666c6f77000000000081525060200191505060405180910390fd5b8091505092915050565b600073ffffffffffffffffffffffffffffffffffffffff168273ffffffffffffffffffffffffffffffffffffffff1614156114c8576040517f08c379a000000000000000000000000000000000000000000000000000000000815260040180806020018281038252601f8152602001807f45524332303a206d696e7420746f20746865207a65726f20616464726573730081525060200191505060405180910390fd5b6114dd8160025461139d90919063ffffffff16565b600281905550611534816000808573ffffffffffffffffffffffffffffffffffffffff1673ffffffffffffffffffffffffffffffffffffffff1681526020019081526020016000205461139d90919063ffffffff16565b6000808473ffffffffffffffffffffffffffffffffffffffff1673ffffffffffffffffffffffffffffffffffffffff168152602001908152602001600020819055508173ffffffffffffffffffffffffffffffffffffffff16600073ffffffffffffffffffffffffffffffffffffffff167fddf252ad1be2c89b69c2b068fc378daa952ba7f163c4a11628f55a4df523b3ef836040518082815260200191505060405180910390a35050565b600073ffffffffffffffffffffffffffffffffffffffff168273ffffffffffffffffffffffffffffffffffffffff161415611666576040517f08c379a00000000000000000000000000000000000000000000000000000000081526004018080602001828103825260218152602001806119d76021913960400191505060405180910390fd5b61167b8160025461131490919063ffffffff16565b6002819055506116d2816000808573ffffffffffffffffffffffffffffffffffffffff1673ffffffffffffffffffffffffffffffffffffffff1681526020019081526020016000205461131490919063ffffffff16565b6000808473ffffffffffffffffffffffffffffffffffffffff1673ffffffffffffffffffffffffffffffffffffffff16815260200190815260200160002081905550600073ffffffffffffffffffffffffffffffffffffffff168273ffffffffffffffffffffffffffffffffffffffff167fddf252ad1be2c89b69c2b068fc378daa952ba7f163c4a11628f55a4df523b3ef836040518082815260200191505060405180910390a35050565b61178882826115e0565b611821823361181c84600160008873ffffffffffffffffffffffffffffffffffffffff1673ffffffffffffffffffffffffffffffffffffffff16815260200190815260200160002060003373ffffffffffffffffffffffffffffffffffffffff1673ffffffffffffffffffffffffffffffffffffffff1681526020019081526020016000205461131490919063ffffffff16565b610e81565b5050565b600073ffffffffffffffffffffffffffffffffffffffff168173ffffffffffffffffffffffffffffffffffffffff1614156118ab576040517f08c379a000000000000000000000000000000000000000000000000000000000815260040180806020018281038252602681526020018061198f6026913960400191505060405180910390fd5b8073ffffffffffffffffffffffffffffffffffffffff16600360009054906101000a900473ffffffffffffffffffffffffffffffffffffffff1673ffffffffffffffffffffffffffffffffffffffff167f8be0079c531659141344cd1fd0a4f28419497f9722a3daafe3b4186f6b6457e060405160405180910390a380600360006101000a81548173ffffffffffffffffffffffffffffffffffffffff021916908373ffffffffffffffffffffffffffffffffffffffff1602179055505056fe45524332303a207472616e7366657220746f20746865207a65726f20616464726573734f776e61626c653a206e6577206f776e657220697320746865207a65726f206164647265737345524332303a20617070726f766520746f20746865207a65726f206164647265737345524332303a206275726e2066726f6d20746865207a65726f206164647265737345524332303a207472616e736665722066726f6d20746865207a65726f206164647265737345524332303a20617070726f76652066726f6d20746865207a65726f2061646472657373a165627a7a7230582007bbb0bb95d977ee2a5fd9b69e577a009fa86ca23ad746e6851bcad5ad58702e002960806040526012600060146101000a81548160ff021916908360ff16021790555034801561002c57600080fd5b50336000806101000a81548173ffffffffffffffffffffffffffffffffffffffff021916908373ffffffffffffffffffffffffffffffffffffffff1602179055506000809054906101000a900473ffffffffffffffffffffffffffffffffffffffff1673ffffffffffffffffffffffffffffffffffffffff16600073ffffffffffffffffffffffffffffffffffffffff167f8be0079c531659141344cd1fd0a4f28419497f9722a3daafe3b4186f6b6457e060405160405180910390a361100a806100f86000396000f3fe608060405234801561001057600080fd5b50600436106100a95760003560e01c8063715018a611610071578063715018a6146102105780638da5cb5b1461021a5780638f32d59b14610264578063981b24d0146102865780639dc29fac146102c8578063f2fde38b1461032e576100a9565b806318160ddd146100ae578063313ce567146100cc57806340c10f19146100f05780634ee2cd7e1461015657806370a08231146101b8575b600080fd5b6100b6610372565b6040518082815260200191505060405180910390f35b6100d4610382565b604051808260ff1660ff16815260200191505060405180910390f35b61013c6004803603604081101561010657600080fd5b81019080803573ffffffffffffffffffffffffffffffffffffffff16906020019092919080359060200190929190505050610395565b604051808215151515815260200191505060405180910390f35b6101a26004803603604081101561016c57600080fd5b81019080803573ffffffffffffffffffffffffffffffffffffffff169060200190929190803590602001909291905050506104f9565b6040518082815260200191505060405180910390f35b6101fa600480360360208110156101ce57600080fd5b81019080803573ffffffffffffffffffffffffffffffffffffffff16906020019092919050505061062f565b6040518082815260200191505060405180910390f35b610218610642565b005b61022261077b565b604051808273ffffffffffffffffffffffffffffffffffffffff1673ffffffffffffffffffffffffffffffffffffffff16815260200191505060405180910390f35b61026c6107a4565b604051808215151515815260200191505060405180910390f35b6102b26004803603602081101561029c57600080fd5b81019080803590602001909291905050506107fb565b6040518082815260200191505060405180910390f35b610314600480360360408110156102de57600080fd5b81019080803573ffffffffffffffffffffffffffffffffffffffff16906020019092919080359060200190929190505050610879565b604051808215151515815260200191505060405180910390f35b6103706004803603602081101561034457600080fd5b81019080803573ffffffffffffffffffffffffffffffffffffffff1690602001909291905050506109d1565b005b600061037d436107fb565b905090565b600060149054906101000a900460ff1681565b600061039f6107a4565b610411576040517f08c379a00000000000000000000000000000000000000000000000000000000081526004018080602001828103825260208152602001807f4f776e61626c653a2063616c6c6572206973206e6f7420746865206f776e657281525060200191505060405180910390fd5b600061041b610372565b905080838201101561042c57600080fd5b60006104378561062f565b905080848201101561044857600080fd5b6104556002858401610a57565b61049f600160008773ffffffffffffffffffffffffffffffffffffffff1673ffffffffffffffffffffffffffffffffffffffff168152602001908152602001600020858301610a57565b8473ffffffffffffffffffffffffffffffffffffffff167f0f6798a560793a54c3bcfe86a93cde1e73087d944c0ea20544137d4121396885856040518082815260200191505060405180910390a260019250505092915050565b600080600160008573ffffffffffffffffffffffffffffffffffffffff1673ffffffffffffffffffffffffffffffffffffffff1681526020019081526020016000208054905014806105d0575081600160008573ffffffffffffffffffffffffffffffffffffffff1673ffffffffffffffffffffffffffffffffffffffff16815260200190815260200160002060008154811061059257fe5b9060005260206000200160000160009054906101000a90046fffffffffffffffffffffffffffffffff166fffffffffffffffffffffffffffffffff16115b156105de5760009050610629565b610626600160008573ffffffffffffffffffffffffffffffffffffffff1673ffffffffffffffffffffffffffffffffffffffff16815260200190815260200160002083610be4565b90505b92915050565b600061063b82436104f9565b9050919050565b61064a6107a4565b6106bc576040517f08c379a00000000000000000000000000000000000000000000000000000000081526004018080602001828103825260208152602001807f4f776e61626c653a2063616c6c6572206973206e6f7420746865206f776e657281525060200191505060405180910390fd5b600073ffffffffffffffffffffffffffffffffffffffff166000809054906101000a900473ffffffffffffffffffffffffffffffffffffffff1673ffffffffffffffffffffffffffffffffffffffff167f8be0079c531659141344cd1fd0a4f28419497f9722a3daafe3b4186f6b6457e060405160405180910390a360008060006101000a81548173ffffffffffffffffffffffffffffffffffffffff021916908373ffffffffffffffffffffffffffffffffffffffff160217905550565b60008060009054906101000a900473ffffffffffffffffffffffffffffffffffffffff16905090565b60008060009054906101000a900473ffffffffffffffffffffffffffffffffffffffff1673ffffffffffffffffffffffffffffffffffffffff163373ffffffffffffffffffffffffffffffffffffffff1614905090565b6000806002805490501480610858575081600260008154811061081a57fe5b9060005260206000200160000160009054906101000a90046fffffffffffffffffffffffffffffffff166fffffffffffffffffffffffffffffffff16115b156108665760009050610874565b610871600283610be4565b90505b919050565b60006108836107a4565b6108f5576040517f08c379a00000000000000000000000000000000000000000000000000000000081526004018080602001828103825260208152602001807f4f776e61626c653a2063616c6c6572206973206e6f7420746865206f776e657281525060200191505060405180910390fd5b60006108ff610372565b9050600083905060006109118661062f565b90508181101561091f578091505b61092c6002838503610a57565b610976600160008873ffffffffffffffffffffffffffffffffffffffff1673ffffffffffffffffffffffffffffffffffffffff168152602001908152602001600020838303610a57565b8573ffffffffffffffffffffffffffffffffffffffff167fcc16f5dbb4873280815c1ee09dbd06736cffcc184412cf7a71a0fdb75d397ca5836040518082815260200191505060405180910390a26001935050505092915050565b6109d96107a4565b610a4b576040517f08c379a00000000000000000000000000000000000000000000000000000000081526004018080602001828103825260208152602001807f4f776e61626c653a2063616c6c6572206973206e6f7420746865206f776e657281525060200191505060405180910390fd5b610a5481610de3565b50565b80816fffffffffffffffffffffffffffffffff1614610a7557600080fd5b600082805490501480610ad557504382600184805490500381548110610a9757fe5b9060005260206000200160000160009054906101000a90046fffffffffffffffffffffffffffffffff166fffffffffffffffffffffffffffffffff16105b15610b8257600082838054809190600101610af09190610f27565b81548110610afa57fe5b906000526020600020019050438160000160006101000a8154816fffffffffffffffffffffffffffffffff02191690836fffffffffffffffffffffffffffffffff160217905550818160000160106101000a8154816fffffffffffffffffffffffffffffffff02191690836fffffffffffffffffffffffffffffffff16021790555050610be0565b600082600184805490500381548110610b9757fe5b906000526020600020019050818160000160106101000a8154816fffffffffffffffffffffffffffffffff02191690836fffffffffffffffffffffffffffffffff160217905550505b5050565b60008083805490501415610bfb5760009050610ddd565b82600184805490500381548110610c0e57fe5b9060005260206000200160000160009054906101000a90046fffffffffffffffffffffffffffffffff166fffffffffffffffffffffffffffffffff168210610ca65782600184805490500381548110610c6357fe5b9060005260206000200160000160109054906101000a90046fffffffffffffffffffffffffffffffff166fffffffffffffffffffffffffffffffff169050610ddd565b82600081548110610cb357fe5b9060005260206000200160000160009054906101000a90046fffffffffffffffffffffffffffffffff166fffffffffffffffffffffffffffffffff16821015610cff5760009050610ddd565b60008090506000600185805490500390505b81811115610d90576000600260018484010181610d2a57fe5b04905084868281548110610d3a57fe5b9060005260206000200160000160009054906101000a90046fffffffffffffffffffffffffffffffff166fffffffffffffffffffffffffffffffff1611610d8357809250610d8a565b6001810391505b50610d11565b848281548110610d9c57fe5b9060005260206000200160000160109054906101000a90046fffffffffffffffffffffffffffffffff166fffffffffffffffffffffffffffffffff16925050505b92915050565b600073ffffffffffffffffffffffffffffffffffffffff168173ffffffffffffffffffffffffffffffffffffffff161415610e69576040517f08c379a0000000000000000000000000000000000000000000000000000000008152600401808060200182810382526026815260200180610fb96026913960400191505060405180910390fd5b8073ffffffffffffffffffffffffffffffffffffffff166000809054906101000a900473ffffffffffffffffffffffffffffffffffffffff1673ffffffffffffffffffffffffffffffffffffffff167f8be0079c531659141344cd1fd0a4f28419497f9722a3daafe3b4186f6b6457e060405160405180910390a3806000806101000a81548173ffffffffffffffffffffffffffffffffffffffff021916908373ffffffffffffffffffffffffffffffffffffffff16021790555050565b815481835581811115610f4e57818360005260206000209182019101610f4d9190610f53565b5b505050565b610fb591905b80821115610fb157600080820160006101000a8154906fffffffffffffffffffffffffffffffff02191690556000820160106101000a8154906fffffffffffffffffffffffffffffffff021916905550600101610f59565b5090565b9056fe4f776e61626c653a206e6577206f776e657220697320746865207a65726f2061646472657373a165627a7a72305820e924ff60d3d3cd9f2d1110fae2963ed5b70307ebe8250c5810d9e4714812fef7002960806040523480156200001157600080fd5b5060405162001f8738038062001f87833981018060405260608110156200003757600080fd5b8101908080516401000000008111156200005057600080fd5b828101905060208101848111156200006757600080fd5b81518560018202830111640100000000821117156200008557600080fd5b50509291906020018051906020019092919080519060200190929190505050336000806101000a81548173ffffffffffffffffffffffffffffffffffffffff021916908373ffffffffffffffffffffffffffffffffffffffff1602179055506000809054906101000a900473ffffffffffffffffffffffffffffffffffffffff1673ffffffffffffffffffffffffffffffffffffffff16600073ffffffffffffffffffffffffffffffffffffffff167f8be0079c531659141344cd1fd0a4f28419497f9722a3daafe3b4186f6b6457e060405160405180910390a382600190805190602001906200017892919062000204565b5081600260006101000a81548173ffffffffffffffffffffffffffffffffffffffff021916908373ffffffffffffffffffffffffffffffffffffffff16021790555080600360006101000a81548173ffffffffffffffffffffffffffffffffffffffff021916908373ffffffffffffffffffffffffffffffffffffffff160217905550505050620002b3565b828054600181600116156101000203166002900490600052602060002090601f016020900481019282601f106200024757805160ff191683800117855562000278565b8280016001018555821562000278579182015b82811115620002775782518255916020019190600101906200025a565b5b5090506200028791906200028b565b5090565b620002b091905b80821115620002ac57600081600090555060010162000292565b5090565b90565b611cc480620002c36000396000f3fe6080604052600436106100c25760003560e01c80638f32d59b1161007f578063cb16d4a211610059578063cb16d4a214610632578063dab0efff146106a5578063e1758bd814610738578063f2fde38b1461078f576100c2565b80638f32d59b146104bd578063ab751f71146104ec578063b756d5a21461057f576100c2565b80631386dc2d146101125780632bf16458146101a2578063715018a614610318578063890ac46c1461032f57806389ae1c901461040f5780638da5cb5b14610466575b3373ffffffffffffffffffffffffffffffffffffffff167ff32a9f77675fd5917534c7746608fd3e309eac68fbdcbf5925e24ca97a704396346040518082815260200191505060405180910390a2005b34801561011e57600080fd5b506101276107e0565b6040518080602001828103825283818151815260200191508051906020019080838360005b8381101561016757808201518184015260208101905061014c565b50505050905090810190601f1680156101945780820380516001836020036101000a031916815260200191505b509250505060405180910390f35b3480156101ae57600080fd5b50610292600480360360608110156101c557600080fd5b81019080803573ffffffffffffffffffffffffffffffffffffffff1690602001909291908035906020019064010000000081111561020257600080fd5b82018360208201111561021457600080fd5b8035906020019184600183028401116401000000008311171561023657600080fd5b91908080601f016020809104026020016040519081016040528093929190818152602001838380828437600081840152601f19601f8201169050808301925050505050505091929192908035906020019092919050505061087e565b604051808315151515815260200180602001828103825283818151815260200191508051906020019080838360005b838110156102dc5780820151818401526020810190506102c1565b50505050905090810190601f1680156103095780820380516001836020036101000a031916815260200191505b50935050505060405180910390f35b34801561032457600080fd5b5061032d610a87565b005b34801561033b57600080fd5b506103f56004803603602081101561035257600080fd5b810190808035906020019064010000000081111561036f57600080fd5b82018360208201111561038157600080fd5b803590602001918460018302840111640100000000831117156103a357600080fd5b91908080601f016020809104026020016040519081016040528093929190818152602001838380828437600081840152601f19601f820116905080830192505050505050509192919290505050610bc0565b604051808215151515815260200191505060405180910390f35b34801561041b57600080fd5b50610424610ce1565b604051808273ffffffffffffffffffffffffffffffffffffffff1673ffffffffffffffffffffffffffffffffffffffff16815260200191505060405180910390f35b34801561047257600080fd5b5061047b610d07565b604051808273ffffffffffffffffffffffffffffffffffffffff1673ffffffffffffffffffffffffffffffffffffffff16815260200191505060405180910390f35b3480156104c957600080fd5b506104d2610d30565b604051808215151515815260200191505060405180910390f35b3480156104f857600080fd5b506105656004803603606081101561050f57600080fd5b81019080803573ffffffffffffffffffffffffffffffffffffffff169060200190929190803573ffffffffffffffffffffffffffffffffffffffff16906020019092919080359060200190929190505050610d87565b604051808215151515815260200191505060405180910390f35b34801561058b57600080fd5b50610618600480360360808110156105a257600080fd5b81019080803573ffffffffffffffffffffffffffffffffffffffff169060200190929190803573ffffffffffffffffffffffffffffffffffffffff169060200190929190803573ffffffffffffffffffffffffffffffffffffffff16906020019092919080359060200190929190505050610ebb565b604051808215151515815260200191505060405180910390f35b34801561063e57600080fd5b5061068b6004803603604081101561065557600080fd5b8101908080359060200190929190803573ffffffffffffffffffffffffffffffffffffffff169060200190929190505050611026565b604051808215151515815260200191505060405180910390f35b3480156106b157600080fd5b5061071e600480360360608110156106c857600080fd5b81019080803573ffffffffffffffffffffffffffffffffffffffff169060200190929190803573ffffffffffffffffffffffffffffffffffffffff16906020019092919080359060200190929190505050611141565b604051808215151515815260200191505060405180910390f35b34801561074457600080fd5b5061074d611258565b604051808273ffffffffffffffffffffffffffffffffffffffff1673ffffffffffffffffffffffffffffffffffffffff16815260200191505060405180910390f35b34801561079b57600080fd5b506107de600480360360208110156107b257600080fd5b81019080803573ffffffffffffffffffffffffffffffffffffffff16906020019092919050505061127e565b005b60018054600181600116156101000203166002900480601f0160208091040260200160405190810160405280929190818152602001828054600181600116156101000203166002900480156108765780601f1061084b57610100808354040283529160200191610876565b820191906000526020600020905b81548152906001019060200180831161085957829003601f168201915b505050505081565b6000606061088a610d30565b6108fc576040517f08c379a00000000000000000000000000000000000000000000000000000000081526004018080602001828103825260208152602001807f4f776e61626c653a2063616c6c6572206973206e6f7420746865206f776e657281525060200191505060405180910390fd5b8473ffffffffffffffffffffffffffffffffffffffff1683856040518082805190602001908083835b602083106109485780518252602082019150602081019050602083039250610925565b6001836020036101000a03801982511681845116808217855250505050505090500191505060006040518083038185875af1925050503d80600081146109aa576040519150601f19603f3d011682016040523d82523d6000602084013e6109af565b606091505b5080925081935050508473ffffffffffffffffffffffffffffffffffffffff167f534b52c783549f909f9e743120524d0b7154058e4a54cdc895c2c0b587a1c7e0858585604051808060200184815260200183151515158152602001828103825285818151815260200191508051906020019080838360005b83811015610a43578082015181840152602081019050610a28565b50505050905090810190601f168015610a705780820380516001836020036101000a031916815260200191505b5094505050505060405180910390a2935093915050565b610a8f610d30565b610b01576040517f08c379a00000000000000000000000000000000000000000000000000000000081526004018080602001828103825260208152602001807f4f776e61626c653a2063616c6c6572206973206e6f7420746865206f776e657281525060200191505060405180910390fd5b600073ffffffffffffffffffffffffffffffffffffffff166000809054906101000a900473ffffffffffffffffffffffffffffffffffffffff1673ffffffffffffffffffffffffffffffffffffffff167f8be0079c531659141344cd1fd0a4f28419497f9722a3daafe3b4186f6b6457e060405160405180910390a360008060006101000a81548173ffffffffffffffffffffffffffffffffffffffff021916908373ffffffffffffffffffffffffffffffffffffffff160217905550565b6000610bca610d30565b610c3c576040517f08c379a00000000000000000000000000000000000000000000000000000000081526004018080602001828103825260208152602001807f4f776e61626c653a2063616c6c6572206973206e6f7420746865206f776e657281525060200191505060405180910390fd5b7ff9deba4938ba20070ec5a45ddf59bccba49cf83124215228ec1232182ef0ba2b826040518080602001828103825283818151815260200191508051906020019080838360005b83811015610c9e578082015181840152602081019050610c83565b50505050905090810190601f168015610ccb5780820380516001836020036101000a031916815260200191505b509250505060405180910390a160019050919050565b600360009054906101000a900473ffffffffffffffffffffffffffffffffffffffff1681565b60008060009054906101000a900473ffffffffffffffffffffffffffffffffffffffff16905090565b60008060009054906101000a900473ffffffffffffffffffffffffffffffffffffffff1673ffffffffffffffffffffffffffffffffffffffff163373ffffffffffffffffffffffffffffffffffffffff1614905090565b6000610d91610d30565b610e03576040517f08c379a00000000000000000000000000000000000000000000000000000000081526004018080602001828103825260208152602001807f4f776e61626c653a2063616c6c6572206973206e6f7420746865206f776e657281525060200191505060405180910390fd5b610e2e83838673ffffffffffffffffffffffffffffffffffffffff166113049092919063ffffffff16565b8373ffffffffffffffffffffffffffffffffffffffff167f3a48a4d6253b30fd10e57a347c1f9bcb0604946481fae0b2fdad6e74f2a9cbb38484604051808373ffffffffffffffffffffffffffffffffffffffff1673ffffffffffffffffffffffffffffffffffffffff1681526020018281526020019250505060405180910390a2600190509392505050565b6000610ec5610d30565b610f37576040517f08c379a00000000000000000000000000000000000000000000000000000000081526004018080602001828103825260208152602001807f4f776e61626c653a2063616c6c6572206973206e6f7420746865206f776e657281525060200191505060405180910390fd5b610f648484848873ffffffffffffffffffffffffffffffffffffffff1661163c909392919063ffffffff16565b8473ffffffffffffffffffffffffffffffffffffffff167f179c15de44aa7ab84896301974328eb40b5b40fe01cfe0fee2924ea712c3e843858585604051808473ffffffffffffffffffffffffffffffffffffffff1673ffffffffffffffffffffffffffffffffffffffff1681526020018373ffffffffffffffffffffffffffffffffffffffff1673ffffffffffffffffffffffffffffffffffffffff168152602001828152602001935050505060405180910390a260019050949350505050565b6000611030610d30565b6110a2576040517f08c379a00000000000000000000000000000000000000000000000000000000081526004018080602001828103825260208152602001807f4f776e61626c653a2063616c6c6572206973206e6f7420746865206f776e657281525060200191505060405180910390fd5b8173ffffffffffffffffffffffffffffffffffffffff166108fc849081150290604051600060405180830381858888f193505050501580156110e8573d6000803e3d6000fd5b508173ffffffffffffffffffffffffffffffffffffffff167f22fca66666089f39bc900dd6605b489df4aae6260cc8ea8257594cfb8c84926c846040518082815260200191505060405180910390a26001905092915050565b600061114b610d30565b6111bd576040517f08c379a00000000000000000000000000000000000000000000000000000000081526004018080602001828103825260208152602001807f4f776e61626c653a2063616c6c6572206973206e6f7420746865206f776e657281525060200191505060405180910390fd5b6111e883838673ffffffffffffffffffffffffffffffffffffffff166118899092919063ffffffff16565b8273ffffffffffffffffffffffffffffffffffffffff168473ffffffffffffffffffffffffffffffffffffffff167f49dc2a60d2599a7b6932d78fb694c30dfc596fe4e0282b5d0fd184b52472c04d846040518082815260200191505060405180910390a3600190509392505050565b600260009054906101000a900473ffffffffffffffffffffffffffffffffffffffff1681565b611286610d30565b6112f8576040517f08c379a00000000000000000000000000000000000000000000000000000000081526004018080602001828103825260208152602001807f4f776e61626c653a2063616c6c6572206973206e6f7420746865206f776e657281525060200191505060405180910390fd5b61130181611abe565b50565b6113238373ffffffffffffffffffffffffffffffffffffffff16611c02565b61132c57600080fd5b6000811480611426575060008373ffffffffffffffffffffffffffffffffffffffff1663dd62ed3e30856040518363ffffffff1660e01b8152600401808373ffffffffffffffffffffffffffffffffffffffff1673ffffffffffffffffffffffffffffffffffffffff1681526020018273ffffffffffffffffffffffffffffffffffffffff1673ffffffffffffffffffffffffffffffffffffffff1681526020019250505060206040518083038186803b1580156113e957600080fd5b505afa1580156113fd573d6000803e3d6000fd5b505050506040513d602081101561141357600080fd5b8101908080519060200190929190505050145b61142f57600080fd5b600060608473ffffffffffffffffffffffffffffffffffffffff166040518060400160405280601881526020017f617070726f766528616464726573732c75696e74323536290000000000000000815250805190602001208585604051602401808373ffffffffffffffffffffffffffffffffffffffff1673ffffffffffffffffffffffffffffffffffffffff16815260200182815260200192505050604051602081830303815290604052907bffffffffffffffffffffffffffffffffffffffffffffffffffffffff19166020820180517bffffffffffffffffffffffffffffffffffffffffffffffffffffffff83818316178352505050506040518082805190602001908083835b6020831061155c5780518252602082019150602081019050602083039250611539565b6001836020036101000a0380198251168184511680821785525050505050509050019150506000604051808303816000865af19150503d80600081146115be576040519150601f19603f3d011682016040523d82523d6000602084013e6115c3565b606091505b5091509150816115d257600080fd5b60008151148061162c57506020815114801561162b5750600060f81b81601f815181106115fb57fe5b602001015160f81c60f81b7effffffffffffffffffffffffffffffffffffffffffffffffffffffffffffff191614155b5b61163557600080fd5b5050505050565b61165b8473ffffffffffffffffffffffffffffffffffffffff16611c02565b61166457600080fd5b600060608573ffffffffffffffffffffffffffffffffffffffff16604051806060016040528060258152602001611c4e6025913980519060200120868686604051602401808473ffffffffffffffffffffffffffffffffffffffff1673ffffffffffffffffffffffffffffffffffffffff1681526020018373ffffffffffffffffffffffffffffffffffffffff1673ffffffffffffffffffffffffffffffffffffffff1681526020018281526020019350505050604051602081830303815290604052907bffffffffffffffffffffffffffffffffffffffffffffffffffffffff19166020820180517bffffffffffffffffffffffffffffffffffffffffffffffffffffffff83818316178352505050506040518082805190602001908083835b602083106117a85780518252602082019150602081019050602083039250611785565b6001836020036101000a0380198251168184511680821785525050505050509050019150506000604051808303816000865af19150503d806000811461180a576040519150601f19603f3d011682016040523d82523d6000602084013e61180f565b606091505b50915091508161181e57600080fd5b6000815114806118785750602081511480156118775750600060f81b81601f8151811061184757fe5b602001015160f81c60f81b7effffffffffffffffffffffffffffffffffffffffffffffffffffffffffffff191614155b5b61188157600080fd5b505050505050565b6118a88373ffffffffffffffffffffffffffffffffffffffff16611c02565b6118b157600080fd5b600060608473ffffffffffffffffffffffffffffffffffffffff166040518060400160405280601981526020017f7472616e7366657228616464726573732c75696e743235362900000000000000815250805190602001208585604051602401808373ffffffffffffffffffffffffffffffffffffffff1673ffffffffffffffffffffffffffffffffffffffff16815260200182815260200192505050604051602081830303815290604052907bffffffffffffffffffffffffffffffffffffffffffffffffffffffff19166020820180517bffffffffffffffffffffffffffffffffffffffffffffffffffffffff83818316178352505050506040518082805190602001908083835b602083106119de57805182526020820191506020810190506020830392506119bb565b6001836020036101000a0380198251168184511680821785525050505050509050019150506000604051808303816000865af19150503d8060008114611a40576040519150601f19603f3d011682016040523d82523d6000602084013e611a45565b606091505b509150915081611a5457600080fd5b600081511480611aae575060208151148015611aad5750600060f81b81601f81518110611a7d57fe5b602001015160f81c60f81b7effffffffffffffffffffffffffffffffffffffffffffffffffffffffffffff191614155b5b611ab757600080fd5b5050505050565b600073ffffffffffffffffffffffffffffffffffffffff168173ffffffffffffffffffffffffffffffffffffffff161415611b44576040517f08c379a0000000000000000000000000000000000000000000000000000000008152600401808060200182810382526026815260200180611c736026913960400191505060405180910390fd5b8073ffffffffffffffffffffffffffffffffffffffff166000809054906101000a900473ffffffffffffffffffffffffffffffffffffffff1673ffffffffffffffffffffffffffffffffffffffff167f8be0079c531659141344cd1fd0a4f28419497f9722a3daafe3b4186f6b6457e060405160405180910390a3806000806101000a81548173ffffffffffffffffffffffffffffffffffffffff021916908373ffffffffffffffffffffffffffffffffffffffff16021790555050565b60008060007fc5d2460186f7233c927e7db2dcc703c0e500b653ca82273b7bfad8045d85a47060001b9050833f91506000801b8214158015611c445750808214155b9250505091905056fe7472616e7366657246726f6d28616464726573732c616464726573732c75696e74323536294f776e61626c653a206e6577206f776e657220697320746865207a65726f2061646472657373a165627a7a7230582007e9e2534c3899ff8feb9eef18831ee97bf39cdba3befd8381fd7b7d11521b320029a165627a7a72305820694348702f7edf068437bc38abe87683c0339935c5ccd4856ab6a0063172a9910029",
  "source": "pragma solidity ^0.5.4;\n\nimport \"./UniversalScheme.sol\";\nimport \"../../Controller/contracts/Controller/UController.sol\";\nimport \"../../Controller/contracts/Controller/Controller.sol\";\n\n\n/**\n * @title ControllerCreator for creating a single controller.\n */\n\ncontract ControllerCreator {\n\n    function create(Avatar _avatar) public returns(address) {\n        Controller controller = new Controller(_avatar);\n        controller.registerScheme(msg.sender, bytes32(0), bytes4(0x0000001f), address(_avatar));\n        controller.unregisterScheme(address(this), address(_avatar));\n        return address(controller);\n    }\n}\n\n/**\n * @title Genesis Scheme that creates organizations\n */\n\n\ncontract DaoCreator {\n\n    mapping(address=>address) public locks;\n\n    event NewOrg (address _avatar);\n    event InitialSchemesSet (address _avatar);\n\n    ControllerCreator private controllerCreator;\n\n    constructor(ControllerCreator _controllerCreator) public {\n        controllerCreator = _controllerCreator;\n    }\n\n    /**\n      * @dev addFounders add founders to the organization.\n      *      this function can be called only after forgeOrg and before setSchemes\n      * @param _avatar the organization avatar\n      * @param _founders An array with the addresses of the founders of the organization\n      * @param _foundersTokenAmount An array of amount of tokens that the founders\n      *  receive in the new organization\n      * @param _foundersReputationAmount An array of amount of reputation that the\n      *   founders receive in the new organization\n      * @return bool true or false\n      */\n    function addFounders (\n        Avatar _avatar,\n        address[] calldata _founders,\n        uint[] calldata _foundersTokenAmount,\n        uint[] calldata _foundersReputationAmount\n    )\n    external\n    returns(bool)\n    {\n        require(_founders.length == _foundersTokenAmount.length);\n        require(_founders.length == _foundersReputationAmount.length);\n        require(_founders.length > 0);\n        require(locks[address(_avatar)] == msg.sender);\n        // Mint token and reputation for founders:\n        for (uint256 i = 0; i < _founders.length; i++) {\n            require(_founders[i] != address(0));\n            if (_foundersTokenAmount[i] > 0) {\n                ControllerInterface(\n                _avatar.owner()).mintTokens(_foundersTokenAmount[i], _founders[i], address(_avatar));\n            }\n            if (_foundersReputationAmount[i] > 0) {\n                ControllerInterface(\n                _avatar.owner()).mintReputation(_foundersReputationAmount[i], _founders[i], address(_avatar));\n            }\n        }\n        return true;\n    }\n\n  /**\n    * @dev Create a new organization\n    * @param _orgName The name of the new organization\n    * @param _tokenName The name of the token associated with the organization\n    * @param _tokenSymbol The symbol of the token\n    * @param _founders An array with the addresses of the founders of the organization\n    * @param _foundersTokenAmount An array of amount of tokens that the founders\n    *  receive in the new organization\n    * @param _foundersReputationAmount An array of amount of reputation that the\n    *   founders receive in the new organization\n    * @param  _uController universal controller instance\n    *         if _uController address equal to zero the organization will use none universal controller.\n    * @param  _cap token cap - 0 for no cap.\n    * @return The address of the avatar of the controller\n    */\n    function forgeOrg (\n        string calldata _orgName,\n        string calldata _tokenName,\n        string calldata _tokenSymbol,\n        address[] calldata _founders,\n        uint[] calldata _foundersTokenAmount,\n        uint[] calldata _foundersReputationAmount,\n        UController _uController,\n        uint256 _cap\n    )\n    external\n    returns(address)\n    {\n        //The call for the private function is needed to bypass a deep stack issues\n        return _forgeOrg(\n            _orgName,\n            _tokenName,\n            _tokenSymbol,\n            _founders,\n            _foundersTokenAmount,\n            _foundersReputationAmount,\n            _uController,\n            _cap);\n    }\n\n     /**\n      * @dev Set initial schemes for the organization.\n      * @param _avatar organization avatar (returns from forgeOrg)\n      * @param _schemes the schemes to register for the organization\n      * @param _params the schemes's params\n      * @param _permissions the schemes permissions.\n      * @param _metaData dao meta data hash\n      */\n    function setSchemes (\n        Avatar _avatar,\n        address[] calldata _schemes,\n        bytes32[] calldata _params,\n        bytes4[] calldata _permissions,\n        string calldata _metaData\n    )\n        external\n    {\n        // this action can only be executed by the account that holds the lock\n        // for this controller\n        require(locks[address(_avatar)] == msg.sender);\n        // register initial schemes:\n        ControllerInterface controller = ControllerInterface(_avatar.owner());\n        for (uint256 i = 0; i < _schemes.length; i++) {\n            controller.registerScheme(_schemes[i], _params[i], _permissions[i], address(_avatar));\n        }\n        controller.metaData(_metaData, _avatar);\n        // Unregister self:\n        controller.unregisterScheme(address(this), address(_avatar));\n        // Remove lock:\n        delete locks[address(_avatar)];\n        emit InitialSchemesSet(address(_avatar));\n    }\n\n    /**\n     * @dev Create a new organization\n     * @param _orgName The name of the new organization\n     * @param _tokenName The name of the token associated with the organization\n     * @param _tokenSymbol The symbol of the token\n     * @param _founders An array with the addresses of the founders of the organization\n     * @param _foundersTokenAmount An array of amount of tokens that the founders\n     *  receive in the new organization\n     * @param _foundersReputationAmount An array of amount of reputation that the\n     *   founders receive in the new organization\n     * @param  _uController universal controller instance\n     *         if _uController address equal to zero the organization will use none universal controller.\n     * @param  _cap token cap - 0 for no cap.\n     * @return The address of the avatar of the controller\n     */\n    function _forgeOrg (\n        string memory _orgName,\n        string memory _tokenName,\n        string memory _tokenSymbol,\n        address[] memory _founders,\n        uint[] memory _foundersTokenAmount,\n        uint[] memory _foundersReputationAmount,\n        UController _uController,\n        uint256 _cap\n    ) private returns(address)\n    {\n        // Create Token, Reputation and Avatar:\n        require(_founders.length == _foundersTokenAmount.length);\n        require(_founders.length == _foundersReputationAmount.length);\n        require(_founders.length > 0);\n        DAOToken  nativeToken = new DAOToken(_tokenName, _tokenSymbol, _cap);\n        Reputation  nativeReputation = new Reputation();\n        Avatar  avatar = new Avatar(_orgName, nativeToken, nativeReputation);\n        ControllerInterface  controller;\n\n        // Mint token and reputation for founders:\n        for (uint256 i = 0; i < _founders.length; i++) {\n            require(_founders[i] != address(0));\n            if (_foundersTokenAmount[i] > 0) {\n                nativeToken.mint(_founders[i], _foundersTokenAmount[i]);\n            }\n            if (_foundersReputationAmount[i] > 0) {\n                nativeReputation.mint(_founders[i], _foundersReputationAmount[i]);\n            }\n        }\n\n        // Create Controller:\n        if (UController(0) == _uController) {\n            controller = ControllerInterface(controllerCreator.create(avatar));\n            avatar.transferOwnership(address(controller));\n            // Transfer ownership:\n            nativeToken.transferOwnership(address(controller));\n            nativeReputation.transferOwnership(address(controller));\n        } else {\n            controller = _uController;\n            avatar.transferOwnership(address(controller));\n            // Transfer ownership:\n            nativeToken.transferOwnership(address(controller));\n            nativeReputation.transferOwnership(address(controller));\n            _uController.newOrganization(avatar);\n        }\n\n        locks[address(avatar)] = msg.sender;\n\n        emit NewOrg (address(avatar));\n        return (address(avatar));\n    }\n}",
  "sourcePath": "C:/Users/Subhan/Desktop/github/betterbrooklyndao/UniversalSchemes/contracts/DAOCreator.sol",
  "compiler": {
    "name": "solc",
    "version": "0.5.8+commit.23d335f2.Emscripten.clang"
  },
  "schemaVersion": "3.0.11",
  "updatedAt": "2019-07-17T22:56:36.989Z",
  "devdoc": {
    "methods": {
      "addFounders(address,address[],uint256[],uint256[])": {
        "details": "addFounders add founders to the organization.     this function can be called only after forgeOrg and before setSchemes",
        "params": {
          "_avatar": "the organization avatar",
          "_founders": "An array with the addresses of the founders of the organization",
          "_foundersReputationAmount": "An array of amount of reputation that the  founders receive in the new organization",
          "_foundersTokenAmount": "An array of amount of tokens that the founders receive in the new organization"
        },
        "return": "bool true or false"
      },
      "forgeOrg(string,string,string,address[],uint256[],uint256[],address,uint256)": {
        "details": "Create a new organization",
        "params": {
          "_cap": "token cap - 0 for no cap.",
          "_founders": "An array with the addresses of the founders of the organization",
          "_foundersReputationAmount": "An array of amount of reputation that the  founders receive in the new organization",
          "_foundersTokenAmount": "An array of amount of tokens that the founders receive in the new organization",
          "_orgName": "The name of the new organization",
          "_tokenName": "The name of the token associated with the organization",
          "_tokenSymbol": "The symbol of the token",
          "_uController": "universal controller instance        if _uController address equal to zero the organization will use none universal controller."
        },
        "return": "The address of the avatar of the controller"
      },
      "setSchemes(address,address[],bytes32[],bytes4[],string)": {
        "details": "Set initial schemes for the organization.",
        "params": {
          "_avatar": "organization avatar (returns from forgeOrg)",
          "_metaData": "dao meta data hash",
          "_params": "the schemes's params",
          "_permissions": "the schemes permissions.",
          "_schemes": "the schemes to register for the organization"
        }
      }
    },
    "title": "Genesis Scheme that creates organizations"
  },
  "userdoc": {
    "methods": {}
  }
}