{
  "contractName": "GenesisProtocol",
  "abi": [
    {
      "constant": true,
      "inputs": [
        {
          "name": "",
          "type": "bytes32"
        }
      ],
      "name": "parameters",
      "outputs": [
        {
          "name": "queuedVoteRequiredPercentage",
          "type": "uint256"
        },
        {
          "name": "queuedVotePeriodLimit",
          "type": "uint256"
        },
        {
          "name": "boostedVotePeriodLimit",
          "type": "uint256"
        },
        {
          "name": "preBoostedVotePeriodLimit",
          "type": "uint256"
        },
        {
          "name": "thresholdConst",
          "type": "uint256"
        },
        {
          "name": "limitExponentValue",
          "type": "uint256"
        },
        {
          "name": "quietEndingPeriod",
          "type": "uint256"
        },
        {
          "name": "proposingRepReward",
          "type": "uint256"
        },
        {
          "name": "votersReputationLossRatio",
          "type": "uint256"
        },
        {
          "name": "minimumDaoBounty",
          "type": "uint256"
        },
        {
          "name": "daoBountyConst",
          "type": "uint256"
        },
        {
          "name": "activationTime",
          "type": "uint256"
        },
        {
          "name": "voteOnBehalf",
          "type": "address"
        }
      ],
      "payable": false,
      "stateMutability": "view",
      "type": "function"
    },
    {
      "constant": true,
      "inputs": [
        {
          "name": "_params",
          "type": "uint256[11]"
        },
        {
          "name": "_voteOnBehalf",
          "type": "address"
        }
      ],
      "name": "getParametersHash",
      "outputs": [
        {
          "name": "",
          "type": "bytes32"
        }
      ],
      "payable": false,
      "stateMutability": "pure",
      "type": "function"
    },
    {
      "constant": true,
      "inputs": [],
      "name": "NO",
      "outputs": [
        {
          "name": "",
          "type": "uint256"
        }
      ],
      "payable": false,
      "stateMutability": "view",
      "type": "function"
    },
    {
      "constant": true,
      "inputs": [],
      "name": "proposalsCnt",
      "outputs": [
        {
          "name": "",
          "type": "uint256"
        }
      ],
      "payable": false,
      "stateMutability": "view",
      "type": "function"
    },
    {
      "constant": true,
      "inputs": [
        {
          "name": "_paramsHash",
          "type": "bytes32"
        },
        {
          "name": "_organizationId",
          "type": "bytes32"
        }
      ],
      "name": "threshold",
      "outputs": [
        {
          "name": "",
          "type": "uint256"
        }
      ],
      "payable": false,
      "stateMutability": "view",
      "type": "function"
    },
    {
      "constant": true,
      "inputs": [],
      "name": "DELEGATION_HASH_EIP712",
      "outputs": [
        {
          "name": "",
          "type": "bytes32"
        }
      ],
      "payable": false,
      "stateMutability": "view",
      "type": "function"
    },
    {
      "constant": true,
      "inputs": [
        {
          "name": "",
          "type": "bytes32"
        }
      ],
      "name": "proposals",
      "outputs": [
        {
          "name": "organizationId",
          "type": "bytes32"
        },
        {
          "name": "callbacks",
          "type": "address"
        },
        {
          "name": "state",
          "type": "uint8"
        },
        {
          "name": "winningVote",
          "type": "uint256"
        },
        {
          "name": "proposer",
          "type": "address"
        },
        {
          "name": "currentBoostedVotePeriodLimit",
          "type": "uint256"
        },
        {
          "name": "paramsHash",
          "type": "bytes32"
        },
        {
          "name": "daoBountyRemain",
          "type": "uint256"
        },
        {
          "name": "daoBounty",
          "type": "uint256"
        },
        {
          "name": "totalStakes",
          "type": "uint256"
        },
        {
          "name": "confidenceThreshold",
          "type": "uint256"
        },
        {
          "name": "secondsFromTimeOutTillExecuteBoosted",
          "type": "uint256"
        },
        {
          "name": "daoRedeemItsWinnings",
          "type": "bool"
        }
      ],
      "payable": false,
      "stateMutability": "view",
      "type": "function"
    },
    {
      "constant": true,
      "inputs": [
        {
          "name": "_proposalId",
          "type": "bytes32"
        }
      ],
      "name": "calcExecuteCallBounty",
      "outputs": [
        {
          "name": "",
          "type": "uint256"
        }
      ],
      "payable": false,
      "stateMutability": "view",
      "type": "function"
    },
    {
      "constant": false,
      "inputs": [
        {
          "name": "_proposalId",
          "type": "bytes32"
        },
        {
          "name": "_beneficiary",
          "type": "address"
        }
      ],
      "name": "redeemDaoBounty",
      "outputs": [
        {
          "name": "redeemedAmount",
          "type": "uint256"
        },
        {
          "name": "potentialAmount",
          "type": "uint256"
        }
      ],
      "payable": false,
      "stateMutability": "nonpayable",
      "type": "function"
    },
    {
      "constant": true,
      "inputs": [],
      "name": "stakingToken",
      "outputs": [
        {
          "name": "",
          "type": "address"
        }
      ],
      "payable": false,
      "stateMutability": "view",
      "type": "function"
    },
    {
      "constant": true,
      "inputs": [
        {
          "name": "_proposalId",
          "type": "bytes32"
        }
      ],
      "name": "shouldBoost",
      "outputs": [
        {
          "name": "",
          "type": "bool"
        }
      ],
      "payable": false,
      "stateMutability": "view",
      "type": "function"
    },
    {
      "constant": false,
      "inputs": [
        {
          "name": "",
          "type": "uint256"
        },
        {
          "name": "_paramsHash",
          "type": "bytes32"
        },
        {
          "name": "_proposer",
          "type": "address"
        },
        {
          "name": "_organization",
          "type": "address"
        }
      ],
      "name": "propose",
      "outputs": [
        {
          "name": "",
          "type": "bytes32"
        }
      ],
      "payable": false,
      "stateMutability": "nonpayable",
      "type": "function"
    },
    {
      "constant": false,
      "inputs": [
        {
          "name": "_params",
          "type": "uint256[11]"
        },
        {
          "name": "_voteOnBehalf",
          "type": "address"
        }
      ],
      "name": "setParameters",
      "outputs": [
        {
          "name": "",
          "type": "bytes32"
        }
      ],
      "payable": false,
      "stateMutability": "nonpayable",
      "type": "function"
    },
    {
      "constant": true,
      "inputs": [],
      "name": "NUM_OF_CHOICES",
      "outputs": [
        {
          "name": "",
          "type": "uint256"
        }
      ],
      "payable": false,
      "stateMutability": "view",
      "type": "function"
    },
    {
      "constant": true,
      "inputs": [
        {
          "name": "",
          "type": "address"
        }
      ],
      "name": "stakesNonce",
      "outputs": [
        {
          "name": "",
          "type": "uint256"
        }
      ],
      "payable": false,
      "stateMutability": "view",
      "type": "function"
    },
    {
      "constant": true,
      "inputs": [],
      "name": "YES",
      "outputs": [
        {
          "name": "",
          "type": "uint256"
        }
      ],
      "payable": false,
      "stateMutability": "view",
      "type": "function"
    },
    {
      "constant": true,
      "inputs": [
        {
          "name": "",
          "type": "bytes32"
        }
      ],
      "name": "organizations",
      "outputs": [
        {
          "name": "",
          "type": "address"
        }
      ],
      "payable": false,
      "stateMutability": "view",
      "type": "function"
    },
    {
      "constant": true,
      "inputs": [
        {
          "name": "",
          "type": "bytes32"
        }
      ],
      "name": "averagesDownstakesOfBoosted",
      "outputs": [
        {
          "name": "",
          "type": "uint256"
        }
      ],
      "payable": false,
      "stateMutability": "view",
      "type": "function"
    },
    {
      "constant": false,
      "inputs": [
        {
          "name": "_proposalId",
          "type": "bytes32"
        }
      ],
      "name": "executeBoosted",
      "outputs": [
        {
          "name": "expirationCallBounty",
          "type": "uint256"
        }
      ],
      "payable": false,
      "stateMutability": "nonpayable",
      "type": "function"
    },
    {
      "constant": false,
      "inputs": [
        {
          "name": "_proposalId",
          "type": "bytes32"
        },
        {
          "name": "_beneficiary",
          "type": "address"
        }
      ],
      "name": "redeem",
      "outputs": [
        {
          "name": "rewards",
          "type": "uint256[3]"
        }
      ],
      "payable": false,
      "stateMutability": "nonpayable",
      "type": "function"
    },
    {
      "constant": true,
      "inputs": [
        {
          "name": "",
          "type": "bytes32"
        }
      ],
      "name": "orgBoostedProposalsCnt",
      "outputs": [
        {
          "name": "",
          "type": "uint256"
        }
      ],
      "payable": false,
      "stateMutability": "view",
      "type": "function"
    },
    {
      "inputs": [
        {
          "name": "_stakingToken",
          "type": "address"
        }
      ],
      "payable": false,
      "stateMutability": "nonpayable",
      "type": "constructor"
    },
    {
      "anonymous": false,
      "inputs": [
        {
          "indexed": true,
          "name": "_proposalId",
          "type": "bytes32"
        },
        {
          "indexed": true,
          "name": "_organization",
          "type": "address"
        },
        {
          "indexed": true,
          "name": "_staker",
          "type": "address"
        },
        {
          "indexed": false,
          "name": "_vote",
          "type": "uint256"
        },
        {
          "indexed": false,
          "name": "_amount",
          "type": "uint256"
        }
      ],
      "name": "Stake",
      "type": "event"
    },
    {
      "anonymous": false,
      "inputs": [
        {
          "indexed": true,
          "name": "_proposalId",
          "type": "bytes32"
        },
        {
          "indexed": true,
          "name": "_organization",
          "type": "address"
        },
        {
          "indexed": true,
          "name": "_beneficiary",
          "type": "address"
        },
        {
          "indexed": false,
          "name": "_amount",
          "type": "uint256"
        }
      ],
      "name": "Redeem",
      "type": "event"
    },
    {
      "anonymous": false,
      "inputs": [
        {
          "indexed": true,
          "name": "_proposalId",
          "type": "bytes32"
        },
        {
          "indexed": true,
          "name": "_organization",
          "type": "address"
        },
        {
          "indexed": true,
          "name": "_beneficiary",
          "type": "address"
        },
        {
          "indexed": false,
          "name": "_amount",
          "type": "uint256"
        }
      ],
      "name": "RedeemDaoBounty",
      "type": "event"
    },
    {
      "anonymous": false,
      "inputs": [
        {
          "indexed": true,
          "name": "_proposalId",
          "type": "bytes32"
        },
        {
          "indexed": true,
          "name": "_organization",
          "type": "address"
        },
        {
          "indexed": true,
          "name": "_beneficiary",
          "type": "address"
        },
        {
          "indexed": false,
          "name": "_amount",
          "type": "uint256"
        }
      ],
      "name": "RedeemReputation",
      "type": "event"
    },
    {
      "anonymous": false,
      "inputs": [
        {
          "indexed": true,
          "name": "_proposalId",
          "type": "bytes32"
        },
        {
          "indexed": false,
          "name": "_proposalState",
          "type": "uint8"
        }
      ],
      "name": "StateChange",
      "type": "event"
    },
    {
      "anonymous": false,
      "inputs": [
        {
          "indexed": true,
          "name": "_proposalId",
          "type": "bytes32"
        },
        {
          "indexed": false,
          "name": "_executionState",
          "type": "uint8"
        }
      ],
      "name": "GPExecuteProposal",
      "type": "event"
    },
    {
      "anonymous": false,
      "inputs": [
        {
          "indexed": true,
          "name": "_proposalId",
          "type": "bytes32"
        },
        {
          "indexed": true,
          "name": "_beneficiary",
          "type": "address"
        },
        {
          "indexed": false,
          "name": "_amount",
          "type": "uint256"
        }
      ],
      "name": "ExpirationCallBounty",
      "type": "event"
    },
    {
      "anonymous": false,
      "inputs": [
        {
          "indexed": true,
          "name": "_proposalId",
          "type": "bytes32"
        },
        {
          "indexed": false,
          "name": "_confidenceThreshold",
          "type": "uint256"
        }
      ],
      "name": "ConfidenceLevelChange",
      "type": "event"
    },
    {
      "anonymous": false,
      "inputs": [
        {
          "indexed": true,
          "name": "_proposalId",
          "type": "bytes32"
        },
        {
          "indexed": true,
          "name": "_organization",
          "type": "address"
        },
        {
          "indexed": false,
          "name": "_numOfChoices",
          "type": "uint256"
        },
        {
          "indexed": false,
          "name": "_proposer",
          "type": "address"
        },
        {
          "indexed": false,
          "name": "_paramsHash",
          "type": "bytes32"
        }
      ],
      "name": "NewProposal",
      "type": "event"
    },
    {
      "anonymous": false,
      "inputs": [
        {
          "indexed": true,
          "name": "_proposalId",
          "type": "bytes32"
        },
        {
          "indexed": true,
          "name": "_organization",
          "type": "address"
        },
        {
          "indexed": false,
          "name": "_decision",
          "type": "uint256"
        },
        {
          "indexed": false,
          "name": "_totalReputation",
          "type": "uint256"
        }
      ],
      "name": "ExecuteProposal",
      "type": "event"
    },
    {
      "anonymous": false,
      "inputs": [
        {
          "indexed": true,
          "name": "_proposalId",
          "type": "bytes32"
        },
        {
          "indexed": true,
          "name": "_organization",
          "type": "address"
        },
        {
          "indexed": true,
          "name": "_voter",
          "type": "address"
        },
        {
          "indexed": false,
          "name": "_vote",
          "type": "uint256"
        },
        {
          "indexed": false,
          "name": "_reputation",
          "type": "uint256"
        }
      ],
      "name": "VoteProposal",
      "type": "event"
    },
    {
      "anonymous": false,
      "inputs": [
        {
          "indexed": true,
          "name": "_proposalId",
          "type": "bytes32"
        },
        {
          "indexed": true,
          "name": "_organization",
          "type": "address"
        }
      ],
      "name": "CancelProposal",
      "type": "event"
    },
    {
      "anonymous": false,
      "inputs": [
        {
          "indexed": true,
          "name": "_proposalId",
          "type": "bytes32"
        },
        {
          "indexed": true,
          "name": "_organization",
          "type": "address"
        },
        {
          "indexed": true,
          "name": "_voter",
          "type": "address"
        }
      ],
      "name": "CancelVoting",
      "type": "event"
    },
    {
      "constant": false,
      "inputs": [
        {
          "name": "_proposalId",
          "type": "bytes32"
        },
        {
          "name": "_vote",
          "type": "uint256"
        },
        {
          "name": "_amount",
          "type": "uint256"
        }
      ],
      "name": "stake",
      "outputs": [
        {
          "name": "",
          "type": "bool"
        }
      ],
      "payable": false,
      "stateMutability": "nonpayable",
      "type": "function"
    },
    {
      "constant": false,
      "inputs": [
        {
          "name": "_proposalId",
          "type": "bytes32"
        },
        {
          "name": "_vote",
          "type": "uint256"
        },
        {
          "name": "_amount",
          "type": "uint256"
        },
        {
          "name": "_nonce",
          "type": "uint256"
        },
        {
          "name": "_signatureType",
          "type": "uint256"
        },
        {
          "name": "_signature",
          "type": "bytes"
        }
      ],
      "name": "stakeWithSignature",
      "outputs": [
        {
          "name": "",
          "type": "bool"
        }
      ],
      "payable": false,
      "stateMutability": "nonpayable",
      "type": "function"
    },
    {
      "constant": false,
      "inputs": [
        {
          "name": "_proposalId",
          "type": "bytes32"
        },
        {
          "name": "_vote",
          "type": "uint256"
        },
        {
          "name": "_amount",
          "type": "uint256"
        },
        {
          "name": "_voter",
          "type": "address"
        }
      ],
      "name": "vote",
      "outputs": [
        {
          "name": "",
          "type": "bool"
        }
      ],
      "payable": false,
      "stateMutability": "nonpayable",
      "type": "function"
    },
    {
      "constant": false,
      "inputs": [
        {
          "name": "_proposalId",
          "type": "bytes32"
        }
      ],
      "name": "cancelVote",
      "outputs": [],
      "payable": false,
      "stateMutability": "nonpayable",
      "type": "function"
    },
    {
      "constant": false,
      "inputs": [
        {
          "name": "_proposalId",
          "type": "bytes32"
        }
      ],
      "name": "execute",
      "outputs": [
        {
          "name": "",
          "type": "bool"
        }
      ],
      "payable": false,
      "stateMutability": "nonpayable",
      "type": "function"
    },
    {
      "constant": true,
      "inputs": [
        {
          "name": "",
          "type": "bytes32"
        }
      ],
      "name": "getNumberOfChoices",
      "outputs": [
        {
          "name": "",
          "type": "uint256"
        }
      ],
      "payable": false,
      "stateMutability": "view",
      "type": "function"
    },
    {
      "constant": true,
      "inputs": [
        {
          "name": "_proposalId",
          "type": "bytes32"
        }
      ],
      "name": "getProposalTimes",
      "outputs": [
        {
          "name": "times",
          "type": "uint256[3]"
        }
      ],
      "payable": false,
      "stateMutability": "view",
      "type": "function"
    },
    {
      "constant": true,
      "inputs": [
        {
          "name": "_proposalId",
          "type": "bytes32"
        },
        {
          "name": "_voter",
          "type": "address"
        }
      ],
      "name": "voteInfo",
      "outputs": [
        {
          "name": "",
          "type": "uint256"
        },
        {
          "name": "",
          "type": "uint256"
        }
      ],
      "payable": false,
      "stateMutability": "view",
      "type": "function"
    },
    {
      "constant": true,
      "inputs": [
        {
          "name": "_proposalId",
          "type": "bytes32"
        },
        {
          "name": "_choice",
          "type": "uint256"
        }
      ],
      "name": "voteStatus",
      "outputs": [
        {
          "name": "",
          "type": "uint256"
        }
      ],
      "payable": false,
      "stateMutability": "view",
      "type": "function"
    },
    {
      "constant": true,
      "inputs": [
        {
          "name": "_proposalId",
          "type": "bytes32"
        }
      ],
      "name": "isVotable",
      "outputs": [
        {
          "name": "",
          "type": "bool"
        }
      ],
      "payable": false,
      "stateMutability": "view",
      "type": "function"
    },
    {
      "constant": true,
      "inputs": [
        {
          "name": "_proposalId",
          "type": "bytes32"
        }
      ],
      "name": "proposalStatus",
      "outputs": [
        {
          "name": "",
          "type": "uint256"
        },
        {
          "name": "",
          "type": "uint256"
        },
        {
          "name": "",
          "type": "uint256"
        },
        {
          "name": "",
          "type": "uint256"
        }
      ],
      "payable": false,
      "stateMutability": "view",
      "type": "function"
    },
    {
      "constant": true,
      "inputs": [
        {
          "name": "_proposalId",
          "type": "bytes32"
        }
      ],
      "name": "getProposalOrganization",
      "outputs": [
        {
          "name": "",
          "type": "bytes32"
        }
      ],
      "payable": false,
      "stateMutability": "view",
      "type": "function"
    },
    {
      "constant": true,
      "inputs": [
        {
          "name": "_proposalId",
          "type": "bytes32"
        },
        {
          "name": "_staker",
          "type": "address"
        }
      ],
      "name": "getStaker",
      "outputs": [
        {
          "name": "",
          "type": "uint256"
        },
        {
          "name": "",
          "type": "uint256"
        }
      ],
      "payable": false,
      "stateMutability": "view",
      "type": "function"
    },
    {
      "constant": true,
      "inputs": [
        {
          "name": "_proposalId",
          "type": "bytes32"
        },
        {
          "name": "_vote",
          "type": "uint256"
        }
      ],
      "name": "voteStake",
      "outputs": [
        {
          "name": "",
          "type": "uint256"
        }
      ],
      "payable": false,
      "stateMutability": "view",
      "type": "function"
    },
    {
      "constant": true,
      "inputs": [
        {
          "name": "_proposalId",
          "type": "bytes32"
        }
      ],
      "name": "winningVote",
      "outputs": [
        {
          "name": "",
          "type": "uint256"
        }
      ],
      "payable": false,
      "stateMutability": "view",
      "type": "function"
    },
    {
      "constant": true,
      "inputs": [
        {
          "name": "_proposalId",
          "type": "bytes32"
        }
      ],
      "name": "state",
      "outputs": [
        {
          "name": "",
          "type": "uint8"
        }
      ],
      "payable": false,
      "stateMutability": "view",
      "type": "function"
    },
    {
      "constant": true,
      "inputs": [],
      "name": "isAbstainAllow",
      "outputs": [
        {
          "name": "",
          "type": "bool"
        }
      ],
      "payable": false,
      "stateMutability": "pure",
      "type": "function"
    },
    {
      "constant": true,
      "inputs": [],
      "name": "getAllowedRangeOfChoices",
      "outputs": [
        {
          "name": "min",
          "type": "uint256"
        },
        {
          "name": "max",
          "type": "uint256"
        }
      ],
      "payable": false,
      "stateMutability": "pure",
      "type": "function"
    },
    {
      "constant": true,
      "inputs": [
        {
          "name": "_proposalId",
          "type": "bytes32"
        }
      ],
      "name": "score",
      "outputs": [
        {
          "name": "",
          "type": "uint256"
        }
      ],
      "payable": false,
      "stateMutability": "view",
      "type": "function"
    }
  ],
  "bytecode": "0x60806040523480156200001157600080fd5b5060405160208062006970833981018060405260208110156200003357600080fd5b8101908080519060200190929190505050806200008573543ff227f64aa17ea132bf9886cab5db55dcaddf73ffffffffffffffffffffffffffffffffffffffff166200013060201b620066981760201c565b15620000e65773543ff227f64aa17ea132bf9886cab5db55dcaddf600660006101000a81548173ffffffffffffffffffffffffffffffffffffffff021916908373ffffffffffffffffffffffffffffffffffffffff16021790555062000128565b80600660006101000a81548173ffffffffffffffffffffffffffffffffffffffff021916908373ffffffffffffffffffffffffffffffffffffffff1602179055505b50506200017c565b60008060007fc5d2460186f7233c927e7db2dcc703c0e500b653ca82273b7bfad8045d85a47060001b9050833f91506000801b8214158015620001735750808214155b92505050919050565b6167e4806200018c6000396000f3fe608060405234801561001057600080fd5b50600436106102485760003560e01c806372f702f31161013b578063b4512913116100b8578063c8f526e81161007c578063c8f526e814610e2a578063cc3bf9e914610e94578063e5af18c514610f1e578063e751f27114610f60578063fb6c0cbb14610fa657610248565b8063b451291314610ca6578063ba51b14e14610cf2578063bb5a05ed14610d60578063beda801514610da2578063c083510614610de457610248565b80639525c0cc116100ff5780639525c0cc14610ba25780639bc5689d14610bd0578063a003651d14610bee578063a05ea6e414610c30578063b2449d6514610c8857610248565b806372f702f3146109cb57806379a1c1f614610a1557806380f5e0a114610a6c57806388737b5e14610ab25780638894c41b14610b3e57610248565b806332ed5b12116101c95780635142bc1e1161018d5780635142bc1e1461087f57806351d997b2146108a457806361d585da146108c65780636359036b14610916578063707437681461097f57610248565b806332ed5b12146105be578063359afa49146106be5780633c13381814610738578063404748731461077a578063488c65fc146107bc57610248565b80631702ef0c116102105780631702ef0c1461049a57806321b4b3dc146104dc5780632d598e58146104fa5780632daedd521461054657806330ca0a53146105a057610248565b8063025068041461024d57806307b4e1e31461030f5780630d483442146103aa578063119ce91b146103c857806316db517214610431575b600080fd5b6102796004803603602081101561026357600080fd5b8101908080359060200190929190505050610fe8565b604051808e81526020018d81526020018c81526020018b81526020018a81526020018981526020018881526020018781526020018681526020018581526020018481526020018381526020018273ffffffffffffffffffffffffffffffffffffffff1673ffffffffffffffffffffffffffffffffffffffff1681526020019d505050505050505050505050505060405180910390f35b610394600480360361018081101561032657600080fd5b81019080806101600190600b806020026040519081016040528092919082600b60200280828437600081840152601f19601f8201169050808301925050505050509192919290803573ffffffffffffffffffffffffffffffffffffffff16906020019092919050505061106e565b6040518082815260200191505060405180910390f35b6103b2611207565b6040518082815260200191505060405180910390f35b610414600480360360408110156103de57600080fd5b8101908080359060200190929190803573ffffffffffffffffffffffffffffffffffffffff16906020019092919050505061120c565b604051808381526020018281526020019250505060405180910390f35b61047d6004803603604081101561044757600080fd5b8101908080359060200190929190803573ffffffffffffffffffffffffffffffffffffffff1690602001909291905050506112bc565b604051808381526020018281526020019250505060405180910390f35b6104c6600480360360208110156104b057600080fd5b8101908080359060200190929190505050611378565b6040518082815260200191505060405180910390f35b6104e4611398565b6040518082815260200191505060405180910390f35b6105306004803603604081101561051057600080fd5b81019080803590602001909291908035906020019092919050505061139e565b6040518082815260200191505060405180910390f35b6105866004803603606081101561055c57600080fd5b81019080803590602001909291908035906020019092919080359060200190929190505050611402565b604051808215151515815260200191505060405180910390f35b6105a8611419565b6040518082815260200191505060405180910390f35b6105ea600480360360208110156105d457600080fd5b8101908080359060200190929190505050611503565b604051808e81526020018d73ffffffffffffffffffffffffffffffffffffffff1673ffffffffffffffffffffffffffffffffffffffff1681526020018c600681111561063257fe5b60ff1681526020018b81526020018a73ffffffffffffffffffffffffffffffffffffffff1673ffffffffffffffffffffffffffffffffffffffff168152602001898152602001888152602001878152602001868152602001858152602001848152602001838152602001821515151581526020019d505050505050505050505050505060405180910390f35b61071e600480360360808110156106d457600080fd5b81019080803590602001909291908035906020019092919080359060200190929190803573ffffffffffffffffffffffffffffffffffffffff1690602001909291905050506115c3565b604051808215151515815260200191505060405180910390f35b6107646004803603602081101561074e57600080fd5b8101908080359060200190929190505050611786565b6040518082815260200191505060405180910390f35b6107a66004803603602081101561079057600080fd5b81019080803590602001909291905050506117a6565b6040518082815260200191505060405180910390f35b610865600480360360c08110156107d257600080fd5b8101908080359060200190929190803590602001909291908035906020019092919080359060200190929190803590602001909291908035906020019064010000000081111561082157600080fd5b82018360208201111561083357600080fd5b8035906020019184600183028401116401000000008311171561085557600080fd5b9091929391929390505050611834565b604051808215151515815260200191505060405180910390f35b610887611c4c565b604051808381526020018281526020019250505060405180910390f35b6108ac611c5b565b604051808215151515815260200191505060405180910390f35b6108f2600480360360208110156108dc57600080fd5b8101908080359060200190929190505050611c63565b6040518082600681111561090257fe5b60ff16815260200191505060405180910390f35b6109626004803603604081101561092c57600080fd5b8101908080359060200190929190803573ffffffffffffffffffffffffffffffffffffffff169060200190929190505050611c90565b604051808381526020018281526020019250505060405180910390f35b6109b56004803603604081101561099557600080fd5b8101908080359060200190929190803590602001909291905050506120d1565b6040518082815260200191505060405180910390f35b6109d3612103565b604051808273ffffffffffffffffffffffffffffffffffffffff1673ffffffffffffffffffffffffffffffffffffffff16815260200191505060405180910390f35b610a4160048036036020811015610a2b57600080fd5b8101908080359060200190929190505050612129565b6040518085815260200184815260200183815260200182815260200194505050505060405180910390f35b610a9860048036036020811015610a8257600080fd5b81019080803590602001909291905050506121e2565b604051808215151515815260200191505060405180910390f35b610b2860048036036080811015610ac857600080fd5b810190808035906020019092919080359060200190929190803573ffffffffffffffffffffffffffffffffffffffff169060200190929190803573ffffffffffffffffffffffffffffffffffffffff1690602001909291905050506123c4565b6040518082815260200191505060405180910390f35b610b8c6004803603610180811015610b5557600080fd5b810190808061016001909192919290803573ffffffffffffffffffffffffffffffffffffffff169060200190929190505050612ab7565b6040518082815260200191505060405180910390f35b610bce60048036036020811015610bb857600080fd5b81019080803590602001909291905050506130fa565b005b610bd8613111565b6040518082815260200191505060405180910390f35b610c1a60048036036020811015610c0457600080fd5b8101908080359060200190929190505050613116565b6040518082815260200191505060405180910390f35b610c7260048036036020811015610c4657600080fd5b81019080803573ffffffffffffffffffffffffffffffffffffffff169060200190929190505050613121565b6040518082815260200191505060405180910390f35b610c90613139565b6040518082815260200191505060405180910390f35b610cdc60048036036040811015610cbc57600080fd5b81019080803590602001909291908035906020019092919050505061313e565b6040518082815260200191505060405180910390f35b610d1e60048036036020811015610d0857600080fd5b8101908080359060200190929190505050613170565b604051808273ffffffffffffffffffffffffffffffffffffffff1673ffffffffffffffffffffffffffffffffffffffff16815260200191505060405180910390f35b610d8c60048036036020811015610d7657600080fd5b81019080803590602001909291905050506131a3565b6040518082815260200191505060405180910390f35b610dce60048036036020811015610db857600080fd5b81019080803590602001909291905050506131bb565b6040518082815260200191505060405180910390f35b610e1060048036036020811015610dfa57600080fd5b8101908080359060200190929190505050613516565b604051808215151515815260200191505060405180910390f35b610e5660048036036020811015610e4057600080fd5b8101908080359060200190929190505050613528565b6040518082600360200280838360005b83811015610e81578082015181840152602081019050610e66565b5050505090500191505060405180910390f35b610ee060048036036040811015610eaa57600080fd5b8101908080359060200190929190803573ffffffffffffffffffffffffffffffffffffffff169060200190929190505050613589565b6040518082600360200280838360005b83811015610f0b578082015181840152602081019050610ef0565b5050505090500191505060405180910390f35b610f4a60048036036020811015610f3457600080fd5b8101908080359060200190929190505050614241565b6040518082815260200191505060405180910390f35b610f8c60048036036020811015610f7657600080fd5b8101908080359060200190929190505050614253565b604051808215151515815260200191505060405180910390f35b610fd260048036036020811015610fbc57600080fd5b8101908080359060200190929190505050614279565b6040518082815260200191505060405180910390f35b600060205280600052604060002060009150905080600001549080600101549080600201549080600301549080600401549080600501549080600601549080600701549080600801549080600901549080600a01549080600b01549080600c0160009054906101000a900473ffffffffffffffffffffffffffffffffffffffff1690508d565b6000826000600b811061107d57fe5b6020020151836001600b811061108f57fe5b6020020151846002600b81106110a157fe5b6020020151856003600b81106110b357fe5b6020020151866004600b81106110c557fe5b6020020151876005600b81106110d757fe5b6020020151886006600b81106110e957fe5b6020020151896007600b81106110fb57fe5b60200201518a6008600b811061110d57fe5b60200201518b6009600b811061111f57fe5b60200201518c600a600b811061113157fe5b6020020151604051602001808c81526020018b81526020018a81526020018981526020018881526020018781526020018681526020018581526020018481526020018381526020018281526020019b5050505050505050505050506040516020818303038152906040528051906020012082604051602001808381526020018273ffffffffffffffffffffffffffffffffffffffff1673ffffffffffffffffffffffffffffffffffffffff1660601b81526014019250505060405160208183030381529060405280519060200120905092915050565b600281565b60008061121761649a565b6001600086815260200190815260200160002060110160008573ffffffffffffffffffffffffffffffffffffffff1673ffffffffffffffffffffffffffffffffffffffff16815260200190815260200160002060405180606001604052908160008201548152602001600182015481526020016002820160009054906101000a900460ff16151515158152505090508060000151816020015192509250509250929050565b6000806001600085815260200190815260200160002060130160008473ffffffffffffffffffffffffffffffffffffffff1673ffffffffffffffffffffffffffffffffffffffff168152602001908152602001600020600001546001600086815260200190815260200160002060130160008573ffffffffffffffffffffffffffffffffffffffff1673ffffffffffffffffffffffffffffffffffffffff16815260200190815260200160002060010154915091509250929050565b600060016000838152602001908152602001600020600001549050919050565b60055481565b600080600260008481526020019081526020016000205490506000806000868152602001908152602001600020905080600501548211156113e157806005015491505b6113f882826004015461429190919063ffffffff16565b9250505092915050565b6000611410848484336142f4565b90509392505050565b60405160200180807f616464726573732047656e6573697350726f746f636f6c416464726573730000815250601e01807f627974657333322050726f706f73616c49640000000000000000000000000000815250601201807f75696e7432353620566f74650000000000000000000000000000000000000000815250600c01807f75696e7432353620416d6f756e74546f5374616b650000000000000000000000815250601501807f75696e74323536204e6f6e636500000000000000000000000000000000000000815250600d0190506040516020818303038152906040528051906020012081565b60016020528060005260406000206000915090508060000154908060010160009054906101000a900473ffffffffffffffffffffffffffffffffffffffff16908060010160149054906101000a900460ff16908060020154908060030160009054906101000a900473ffffffffffffffffffffffffffffffffffffffff169080600401549080600501549080600601549080600701549080600801549080600901549080600a01549080600e0160009054906101000a900460ff1690508d565b6000846115cf81614921565b6115d857600080fd5b60006001600088815260200190815260200160002090506115f76164bd565b60008083600501548152602001908152602001600020604051806101a001604052908160008201548152602001600182015481526020016002820154815260200160038201548152602001600482015481526020016005820154815260200160068201548152602001600782015481526020016008820154815260200160098201548152602001600a8201548152602001600b8201548152602001600c820160009054906101000a900473ffffffffffffffffffffffffffffffffffffffff1673ffffffffffffffffffffffffffffffffffffffff1673ffffffffffffffffffffffffffffffffffffffff1681525050905060008073ffffffffffffffffffffffffffffffffffffffff1682610180015173ffffffffffffffffffffffffffffffffffffffff16146117685781610180015173ffffffffffffffffffffffffffffffffffffffff163373ffffffffffffffffffffffffffffffffffffffff161461176057600080fd5b85905061176c565b3390505b61177889828a8a6149ce565b945050505050949350505050565b600060016000838152602001908152602001600020600201549050919050565b6000806105dc905060006117d960016000868152602001908152602001600020600a01548361535890919063ffffffff16565b905061182b600a830261181d60016000888152602001908152602001600020601201600060018152602001908152602001600020548461537190919063ffffffff16565b6153f790919063ffffffff16565b92505050919050565b60008060028514156119d15760405160200180807f616464726573732047656e6573697350726f746f636f6c416464726573730000815250601e01807f627974657333322050726f706f73616c49640000000000000000000000000000815250601201807f75696e7432353620566f74650000000000000000000000000000000000000000815250600c01807f75696e7432353620416d6f756e74546f5374616b650000000000000000000000815250601501807f75696e74323536204e6f6e636500000000000000000000000000000000000000815250600d01905060405160208183030381529060405280519060200120308a8a8a8a604051602001808673ffffffffffffffffffffffffffffffffffffffff1673ffffffffffffffffffffffffffffffffffffffff1660601b815260140185815260200184815260200183815260200182815260200195505050505050604051602081830303815290604052805190602001206040516020018083815260200182815260200192505050604051602081830303815290604052805190602001209050611a52565b611a4f308a8a8a8a604051602001808673ffffffffffffffffffffffffffffffffffffffff1673ffffffffffffffffffffffffffffffffffffffff1660601b81526014018581526020018481526020018381526020018281526020019550505050505060405160208183030381529060405280519060200120615486565b90505b6000611aab85858080601f016020809104026020016040519081016040528093929190818152602001838380828437600081840152601f19601f82011690508083019250505050505050836154de90919063ffffffff16565b9050600073ffffffffffffffffffffffffffffffffffffffff168173ffffffffffffffffffffffffffffffffffffffff161415611b50576040517f08c379a000000000000000000000000000000000000000000000000000000000815260040180806020018281038252601a8152602001807f7374616b657220616464726573732063616e6e6f74206265203000000000000081525060200191505060405180910390fd5b86600760008373ffffffffffffffffffffffffffffffffffffffff1673ffffffffffffffffffffffffffffffffffffffff1681526020019081526020016000205414611b9b57600080fd5b611bee6001600760008473ffffffffffffffffffffffffffffffffffffffff1673ffffffffffffffffffffffffffffffffffffffff168152602001908152602001600020546155e290919063ffffffff16565b600760008373ffffffffffffffffffffffffffffffffffffffff1673ffffffffffffffffffffffffffffffffffffffff16815260200190815260200160002081905550611c3d8a8a8a846142f4565b92505050979650505050505050565b60008060016002915091509091565b600080905090565b60006001600083815260200190815260200160002060010160149054906101000a900460ff169050919050565b600080600060016000868152602001908152602001600020905060026006811115611cb757fe5b8160010160149054906101000a900460ff166006811115611cd457fe5b14611cde57600080fd5b60008160120160008360020154815260200190815260200160002054905060008260130160008773ffffffffffffffffffffffffffffffffffffffff1673ffffffffffffffffffffffffffffffffffffffff168152602001908152602001600020905060008160020154118015611d5c575082600201548160000154145b8015611d6c575060018360020154145b8015611d79575060008214155b15611d955781836007015482600201540281611d9157fe5b0493505b60008414158015611eab5750838360010160009054906101000a900473ffffffffffffffffffffffffffffffffffffffff1673ffffffffffffffffffffffffffffffffffffffff16636b8eb403600660009054906101000a900473ffffffffffffffffffffffffffffffffffffffff168a6040518363ffffffff1660e01b8152600401808373ffffffffffffffffffffffffffffffffffffffff1673ffffffffffffffffffffffffffffffffffffffff1681526020018281526020019250505060206040518083038186803b158015611e6d57600080fd5b505afa158015611e81573d6000803e3d6000fd5b505050506040513d6020811015611e9757600080fd5b810190808051906020019092919050505010155b156120c75760008160020181905550611ed184846006015461566a90919063ffffffff16565b83600601819055508260010160009054906101000a900473ffffffffffffffffffffffffffffffffffffffff1673ffffffffffffffffffffffffffffffffffffffff1663bea75f28600660009054906101000a900473ffffffffffffffffffffffffffffffffffffffff1688878b6040518563ffffffff1660e01b8152600401808573ffffffffffffffffffffffffffffffffffffffff1673ffffffffffffffffffffffffffffffffffffffff1681526020018473ffffffffffffffffffffffffffffffffffffffff1673ffffffffffffffffffffffffffffffffffffffff168152602001838152602001828152602001945050505050602060405180830381600087803b158015611fe257600080fd5b505af1158015611ff6573d6000803e3d6000fd5b505050506040513d602081101561200c57600080fd5b810190808051906020019092919050505061202657600080fd5b8394508573ffffffffffffffffffffffffffffffffffffffff16600360008560000154815260200190815260200160002060009054906101000a900473ffffffffffffffffffffffffffffffffffffffff1673ffffffffffffffffffffffffffffffffffffffff16887fb4a37163ec93e05e09b62e52f7f2ea8cfde431802edede7dfebe53d2ad969dbb886040518082815260200191505060405180910390a45b5050509250929050565b600060016000848152602001908152602001600020601201600083815260200190815260200160002054905092915050565b600660009054906101000a900473ffffffffffffffffffffffffffffffffffffffff1681565b600080600080600160008681526020019081526020016000206010016000600181526020019081526020016000205460016000878152602001908152602001600020601001600060028152602001908152602001600020546001600088815260200190815260200160002060120160006001815260200190815260200160002054600160008981526020019081526020016000206012016000600281526020019081526020016000205493509350935093509193509193565b60006121ec61653b565b60016000848152602001908152602001600020604051806101c0016040529081600082015481526020016001820160009054906101000a900473ffffffffffffffffffffffffffffffffffffffff1673ffffffffffffffffffffffffffffffffffffffff1673ffffffffffffffffffffffffffffffffffffffff1681526020016001820160149054906101000a900460ff16600681111561228957fe5b600681111561229457fe5b8152602001600282015481526020016003820160009054906101000a900473ffffffffffffffffffffffffffffffffffffffff1673ffffffffffffffffffffffffffffffffffffffff1673ffffffffffffffffffffffffffffffffffffffff168152602001600482015481526020016005820154815260200160068201548152602001600782015481526020016008820154815260200160098201548152602001600a8201548152602001600b820160038060200260405190810160405280929190826003801561237a576020028201915b815481526020019060010190808311612366575b50505050508152602001600e820160009054906101000a900460ff16151515158152505090506123b28160c00151826000015161139e565b6123bb846156f3565b11915050919050565b6000806000858152602001908152602001600020600b01544211612450576040517f08c379a000000000000000000000000000000000000000000000000000000000815260040180806020018281038252600e8152602001807f6e6f74206163746976652079657400000000000000000000000000000000000081525060200191505060405180910390fd5b603260008086815260200190815260200160002060000154101561247357600080fd5b600030600554604051602001808373ffffffffffffffffffffffffffffffffffffffff1673ffffffffffffffffffffffffffffffffffffffff1660601b8152601401828152602001925050506040516020818303038152906040528051906020012090506124ed60016005546155e290919063ffffffff16565b6005819055506124fb61653b565b33816020019073ffffffffffffffffffffffffffffffffffffffff16908173ffffffffffffffffffffffffffffffffffffffff16815250503384604051602001808373ffffffffffffffffffffffffffffffffffffffff1673ffffffffffffffffffffffffffffffffffffffff1660601b81526014018273ffffffffffffffffffffffffffffffffffffffff1673ffffffffffffffffffffffffffffffffffffffff1660601b815260140192505050604051602081830303815290604052805190602001208160000181815250506003816040019060068111156125db57fe5b908160068111156125e857fe5b81525050428161018001516000600381106125ff57fe5b602002018181525050600080878152602001908152602001600020600201548160a001818152505084816080019073ffffffffffffffffffffffffffffffffffffffff16908173ffffffffffffffffffffffffffffffffffffffff16815250506002816060018181525050858160c0018181525050600073ffffffffffffffffffffffffffffffffffffffff16600360008360000151815260200190815260200160002060009054906101000a900473ffffffffffffffffffffffffffffffffffffffff1673ffffffffffffffffffffffffffffffffffffffff1614156127c857600073ffffffffffffffffffffffffffffffffffffffff168473ffffffffffffffffffffffffffffffffffffffff1614156127705733600360008360000151815260200190815260200160002060006101000a81548173ffffffffffffffffffffffffffffffffffffffff021916908373ffffffffffffffffffffffffffffffffffffffff1602179055506127c7565b83600360008360000151815260200190815260200160002060006101000a81548173ffffffffffffffffffffffffffffffffffffffff021916908373ffffffffffffffffffffffffffffffffffffffff1602179055505b5b600061281c606461280e6004600086600001518152602001908152602001600020546000808c8152602001908152602001600020600a015461537190919063ffffffff16565b6153f790919063ffffffff16565b9050612846600080898152602001908152602001600020600901548261576f90919063ffffffff16565b8260e001818152505081600160008581526020019081526020016000206000820151816000015560208201518160010160006101000a81548173ffffffffffffffffffffffffffffffffffffffff021916908373ffffffffffffffffffffffffffffffffffffffff16021790555060408201518160010160146101000a81548160ff021916908360068111156128d857fe5b02179055506060820151816002015560808201518160030160006101000a81548173ffffffffffffffffffffffffffffffffffffffff021916908373ffffffffffffffffffffffffffffffffffffffff16021790555060a0820151816004015560c0820151816005015560e0820151816006015561010082015181600701556101208201518160080155610140820151816009015561016082015181600a015561018082015181600b019060036129909291906165ef565b506101a082015181600e0160006101000a81548160ff0219169083151502179055509050508160e001516001600085815260200190815260200160002060120160006002815260200190815260200160002081905550600360008360000151815260200190815260200160002060009054906101000a900473ffffffffffffffffffffffffffffffffffffffff1673ffffffffffffffffffffffffffffffffffffffff16837f75b4ff136cc5de5957574c797de3334eb1c141271922b825eb071e0487ba2c5c6002898b604051808481526020018373ffffffffffffffffffffffffffffffffffffffff1673ffffffffffffffffffffffffffffffffffffffff168152602001828152602001935050505060405180910390a3829350505050949350505050565b60006064836000600b8110612ac857fe5b602002013511158015612aed57506032836000600b8110612ae557fe5b602002013510155b612b42576040517f08c379a000000000000000000000000000000000000000000000000000000000815260040180806020018281038252602981526020018061673c6029913960400191505060405180910390fd5b613e80836004600b8110612b5257fe5b602002013511158015612b7757506103e8836004600b8110612b7057fe5b6020020135115b612be9576040517f08c379a000000000000000000000000000000000000000000000000000000000815260040180806020018281038252601e8152602001807f31303030203c207468726573686f6c64436f6e7374203c3d203136303030000081525060200191505060405180910390fd5b6064836007600b8110612bf857fe5b60200201351115612c71576040517f08c379a00000000000000000000000000000000000000000000000000000000081526004018080602001828103825260208152602001807f766f7465727352657075746174696f6e4c6f7373526174696f203c3d2031303081525060200191505060405180910390fd5b826005600b8110612c7e57fe5b6020020135836002600b8110612c9057fe5b60200201351015612cec576040517f08c379a000000000000000000000000000000000000000000000000000000000815260040180806020018281038252602b815260200180616711602b913960400191505060405180910390fd5b6000836008600b8110612cfb57fe5b602002013511612d73576040517f08c379a000000000000000000000000000000000000000000000000000000000815260040180806020018281038252601e8152602001807f6d696e696d756d44616f426f756e74792073686f756c64206265203e2030000081525060200191505060405180910390fd5b6000836009600b8110612d8257fe5b602002013511612dfa576040517f08c379a000000000000000000000000000000000000000000000000000000000815260040180806020018281038252601c8152602001807f64616f426f756e7479436f6e73742073686f756c64206265203e20300000000081525060200191505060405180910390fd5b6000612e3d84600b806020026040519081016040528092919082600b60200280828437600081840152601f19601f8201169050808301925050505050508461106e565b9050600060ac905060006002905060006107d090505b613e80811015612eba5780876004600b8110612e6b57fe5b6020020135118015612e91575060028102876004600b8110612e8957fe5b602002013511155b15612ea757818381612e9f57fe5b049250612eba565b8180600101925050600281029050612e53565b50604051806101a00160405280876000600b8110612ed457fe5b60200201358152602001876001600b8110612eeb57fe5b60200201358152602001876002600b8110612f0257fe5b60200201358152602001876003600b8110612f1957fe5b60200201358152602001612f666103e8896004600b8110612f3657fe5b60200201357affffffffffffffffffffffffffffffffffffffffffffffffffffff1661578990919063ffffffff16565b8152602001838152602001876005600b8110612f7e57fe5b60200201358152602001876006600b8110612f9557fe5b60200201358152602001876007600b8110612fac57fe5b60200201358152602001876008600b8110612fc357fe5b60200201358152602001876009600b8110612fda57fe5b6020020135815260200187600a600b8110612ff157fe5b602002013581526020018673ffffffffffffffffffffffffffffffffffffffff16815250600080858152602001908152602001600020600082015181600001556020820151816001015560408201518160020155606082015181600301556080820151816004015560a0820151816005015560c0820151816006015560e082015181600701556101008201518160080155610120820151816009015561014082015181600a015561016082015181600b015561018082015181600c0160006101000a81548173ffffffffffffffffffffffffffffffffffffffff021916908373ffffffffffffffffffffffffffffffffffffffff16021790555090505082935050505092915050565b8061310481614921565b61310d57600080fd5b5050565b600281565b600060029050919050565b60076020528060005260406000206000915090505481565b600181565b600060016000848152602001908152602001600020600f01600083815260200190815260200160002054905092915050565b60036020528060005260406000206000915054906101000a900473ffffffffffffffffffffffffffffffffffffffff1681565b60046020528060005260406000206000915090505481565b600080600160008481526020019081526020016000209050600560068111156131e057fe5b8160010160149054906101000a900460ff1660068111156131fd57fe5b148061322f575060068081111561321057fe5b8160010160149054906101000a900460ff16600681111561322d57fe5b145b613284576040517f08c379a00000000000000000000000000000000000000000000000000000000081526004018080602001828103825260338152602001806167866033913960400191505060405180910390fd5b61328d836157e5565b6132ff576040517f08c379a00000000000000000000000000000000000000000000000000000000081526004018080602001828103825260178152602001807f70726f706f73616c206e65656420746f2065787069726500000000000000000081525060200191505060405180910390fd5b61333961332a82600b0160016003811061331557fe5b015483600401546155e290919063ffffffff16565b4261566a90919063ffffffff16565b81600a018190555061334a836117a6565b915061336382826008015461566a90919063ffffffff16565b8160080181905550600660009054906101000a900473ffffffffffffffffffffffffffffffffffffffff1673ffffffffffffffffffffffffffffffffffffffff1663a9059cbb33846040518363ffffffff1660e01b8152600401808373ffffffffffffffffffffffffffffffffffffffff1673ffffffffffffffffffffffffffffffffffffffff16815260200182815260200192505050602060405180830381600087803b15801561341457600080fd5b505af1158015613428573d6000803e3d6000fd5b505050506040513d602081101561343e57600080fd5b81019080805190602001909291905050506134c1576040517f08c379a000000000000000000000000000000000000000000000000000000000815260040180806020018281038252601d8152602001807f7472616e7366657220746f206d73672e73656e646572206661696c656400000081525060200191505060405180910390fd5b3373ffffffffffffffffffffffffffffffffffffffff16837f7468017f6ff596af88244327e88fe691ac48cc1db88b033d11c335f2c7ccdd03846040518082815260200191505060405180910390a350919050565b600061352182614921565b9050919050565b61353061662f565b60016000838152602001908152602001600020600b0160038060200260405190810160405280929190826003801561357d576020028201915b815481526020019060010190808311613569575b50505050509050919050565b61359161662f565b6000600160008581526020019081526020016000209050600260068111156135b557fe5b8160010160149054906101000a900460ff1660068111156135d257fe5b14806136055750600160068111156135e657fe5b8160010160149054906101000a900460ff16600681111561360357fe5b145b61365a576040517f08c379a000000000000000000000000000000000000000000000000000000000815260040180806020018281038252602d8152602001806166e4602d913960400191505060405180910390fd5b6136626164bd565b60008083600501548152602001908152602001600020604051806101a001604052908160008201548152602001600182015481526020016002820154815260200160038201548152602001600482015481526020016005820154815260200160068201548152602001600782015481526020016008820154815260200160098201548152602001600a8201548152602001600b8201548152602001600c820160009054906101000a900473ffffffffffffffffffffffffffffffffffffffff1673ffffffffffffffffffffffffffffffffffffffff1673ffffffffffffffffffffffffffffffffffffffff1681525050905060008260130160008673ffffffffffffffffffffffffffffffffffffffff1673ffffffffffffffffffffffffffffffffffffffff168152602001908152602001600020905060008360120160008560020154815260200190815260200160002054905060006138126137c5896117a6565b613804876012016000600181526020019081526020016000205488601201600060028152602001908152602001600020546155e290919063ffffffff16565b61566a90919063ffffffff16565b9050600083600101541115613936576001600681111561382e57fe5b8560010160149054906101000a900460ff16600681111561384b57fe5b14156138715782600101548660006003811061386357fe5b60200201818152505061392b565b84600201548360000154141561392a576001836000015414156138f25780856007015410156138ed5760006138b386600701548361566a90919063ffffffff16565b9050826138cd82866001015461537190919063ffffffff16565b816138d457fe5b04876000600381106138e257fe5b602002018181525050505b613929565b8161390a82856001015461537190919063ffffffff16565b8161391157fe5b048660006003811061391f57fe5b6020020181815250505b5b5b600083600101819055505b6000151585600e0160009054906101000a900460ff1615151480156139bd5750600360008660000154815260200190815260200160002060009054906101000a900473ffffffffffffffffffffffffffffffffffffffff1673ffffffffffffffffffffffffffffffffffffffff168773ffffffffffffffffffffffffffffffffffffffff16145b80156139f15750600160068111156139d157fe5b8560010160149054906101000a900460ff1660068111156139ee57fe5b14155b8015613a01575060028560020154145b15613a9357613a5f8560070154613a5184613a29858a6007015461537190919063ffffffff16565b81613a3057fe5b0489600060038110613a3e57fe5b60200201516155e290919063ffffffff16565b61566a90919063ffffffff16565b86600060038110613a6c57fe5b602002018181525050600185600e0160006101000a81548160ff0219169083151502179055505b60008560110160008973ffffffffffffffffffffffffffffffffffffffff1673ffffffffffffffffffffffffffffffffffffffff16815260200190815260200160002090506000816001015414158015613afb57508060020160009054906101000a900460ff165b15613c805760016006811115613b0d57fe5b8660010160149054906101000a900460ff166006811115613b2a57fe5b1415613b71576064613b4e866101000151836001015461537190919063ffffffff16565b81613b5557fe5b0487600160038110613b6357fe5b602002018181525050613c75565b806000015486600201541415613c74576000600187600201541415613bae5786601001600060028152602001908152602001600020549050613bc8565b866010016000600181526020019081526020016000205490505b6064613be28761010001518361537190919063ffffffff16565b81613be957fe5b049050613c5c8760100160008960020154815260200190815260200160002054613c2083856001015461537190919063ffffffff16565b81613c2757fe5b046064613c46896101000151866001015461537190919063ffffffff16565b81613c4d57fe5b046155e290919063ffffffff16565b88600160038110613c6957fe5b602002018181525050505b5b600081600101819055505b8773ffffffffffffffffffffffffffffffffffffffff168660030160009054906101000a900473ffffffffffffffffffffffffffffffffffffffff1673ffffffffffffffffffffffffffffffffffffffff16148015613ce3575060018660020154145b8015613d405750600073ffffffffffffffffffffffffffffffffffffffff168660030160009054906101000a900473ffffffffffffffffffffffffffffffffffffffff1673ffffffffffffffffffffffffffffffffffffffff1614155b15613da5578460e0015187600260038110613d5757fe5b60200201818152505060008660030160006101000a81548173ffffffffffffffffffffffffffffffffffffffff021916908373ffffffffffffffffffffffffffffffffffffffff1602179055505b600087600060038110613db457fe5b60200201511461400457613de687600060038110613dce57fe5b6020020151876008015461566a90919063ffffffff16565b8660080181905550600660009054906101000a900473ffffffffffffffffffffffffffffffffffffffff1673ffffffffffffffffffffffffffffffffffffffff1663a9059cbb8989600060038110613e3a57fe5b60200201516040518363ffffffff1660e01b8152600401808373ffffffffffffffffffffffffffffffffffffffff1673ffffffffffffffffffffffffffffffffffffffff16815260200182815260200192505050602060405180830381600087803b158015613ea857600080fd5b505af1158015613ebc573d6000803e3d6000fd5b505050506040513d6020811015613ed257600080fd5b8101908080519060200190929190505050613f55576040517f08c379a000000000000000000000000000000000000000000000000000000000815260040180806020018281038252601e8152602001807f7472616e7366657220746f2062656e6566696369617279206661696c6564000081525060200191505060405180910390fd5b8773ffffffffffffffffffffffffffffffffffffffff16600360008860000154815260200190815260200160002060009054906101000a900473ffffffffffffffffffffffffffffffffffffffff1673ffffffffffffffffffffffffffffffffffffffff168a7f6d26871c9f457d104b2122485f659f126f7a0cf6938cf20482c03f49794a2fbf8a600060038110613fe957fe5b60200201516040518082815260200191505060405180910390a45b600061403b8860026003811061401657fe5b60200201518960016003811061402857fe5b60200201516155e290919063ffffffff16565b14614235578560010160009054906101000a900473ffffffffffffffffffffffffffffffffffffffff1673ffffffffffffffffffffffffffffffffffffffff1663d29b5d2f6140b58960026003811061409057fe5b60200201518a6001600381106140a257fe5b60200201516155e290919063ffffffff16565b8a8c6040518463ffffffff1660e01b8152600401808481526020018373ffffffffffffffffffffffffffffffffffffffff1673ffffffffffffffffffffffffffffffffffffffff1681526020018281526020019350505050602060405180830381600087803b15801561412757600080fd5b505af115801561413b573d6000803e3d6000fd5b505050506040513d602081101561415157600080fd5b8101908080519060200190929190505050508773ffffffffffffffffffffffffffffffffffffffff16600360008860000154815260200190815260200160002060009054906101000a900473ffffffffffffffffffffffffffffffffffffffff1673ffffffffffffffffffffffffffffffffffffffff168a7f7419b736daacf66d5c1645948c956fca2b83be1e2e02d486d65713f289d683b861421f8b6002600381106141fa57fe5b60200201518c60016003811061420c57fe5b60200201516155e290919063ffffffff16565b6040518082815260200191505060405180910390a45b50505050505092915050565b600061424c826156f3565b9050919050565b60008161425f81614921565b61426857600080fd5b614271836157e5565b915050919050565b60026020528060005260406000206000915090505481565b6000808390506000839050600060286001901b90505b600082146142e857600180831614156142c7576142c481846163eb565b90505b600182901c9150600082146142e3576142e083846163eb565b92505b6142a7565b80935050505092915050565b6000600284111580156143075750600084115b614379576040517f08c379a00000000000000000000000000000000000000000000000000000000081526004018080602001828103825260108152602001807f77726f6e6720766f74652076616c75650000000000000000000000000000000081525060200191505060405180910390fd5b600083116143ef576040517f08c379a000000000000000000000000000000000000000000000000000000000815260040180806020018281038252601b8152602001807f7374616b696e6720616d6f756e742073686f756c64206265203e30000000000081525060200191505060405180910390fd5b6143f8856157e5565b156144065760019050614919565b60006001600087815260200190815260200160002090506004600681111561442a57fe5b8160010160149054906101000a900460ff16600681111561444757fe5b1415801561447d57506003600681111561445d57fe5b8160010160149054906101000a900460ff16600681111561447a57fe5b14155b1561448c576000915050614919565b60008160130160008573ffffffffffffffffffffffffffffffffffffffff1673ffffffffffffffffffffffffffffffffffffffff1681526020019081526020016000209050600081600101541180156144e9575085816000015414155b156144f957600092505050614919565b6000859050600660009054906101000a900473ffffffffffffffffffffffffffffffffffffffff1673ffffffffffffffffffffffffffffffffffffffff166323b872dd8630846040518463ffffffff1660e01b8152600401808473ffffffffffffffffffffffffffffffffffffffff1673ffffffffffffffffffffffffffffffffffffffff1681526020018373ffffffffffffffffffffffffffffffffffffffff1673ffffffffffffffffffffffffffffffffffffffff1681526020018281526020019350505050602060405180830381600087803b1580156145db57600080fd5b505af11580156145ef573d6000803e3d6000fd5b505050506040513d602081101561460557600080fd5b8101908080519060200190929190505050614688576040517f08c379a00000000000000000000000000000000000000000000000000000000081526004018080602001828103825260198152602001807f6661696c207472616e736665722066726f6d207374616b65720000000000000081525060200191505060405180910390fd5b61469f8184600801546155e290919063ffffffff16565b83600801819055506146be8183600101546155e290919063ffffffff16565b826001018190555070010000000000000000000000000000000082600101541115614751576040517f08c379a000000000000000000000000000000000000000000000000000000000815260040180806020018281038252601a8152602001807f7374616b696e6720616d6f756e7420697320746f6f206869676800000000000081525060200191505060405180910390fd5b614779836006015470010000000000000000000000000000000061566a90919063ffffffff16565b836008015411156147f2576040517f08c379a00000000000000000000000000000000000000000000000000000000081526004018080602001828103825260188152602001807f746f74616c207374616b657320697320746f6f2068696768000000000000000081525060200191505060405180910390fd5b600187141561481b576148128183600201546155e290919063ffffffff16565b82600201819055505b86826000018190555061484c83601201600089815260200190815260200160002054826155e290919063ffffffff16565b836012016000898152602001908152602001600020819055508473ffffffffffffffffffffffffffffffffffffffff16600360008560000154815260200190815260200160002060009054906101000a900473ffffffffffffffffffffffffffffffffffffffff1673ffffffffffffffffffffffffffffffffffffffff16897fd0239d7d4acf51def4507fa173be466927de5d75d8b10d840cd6994d6e1023108a8a604051808381526020018281526020019250505060405180910390a4614913886157e5565b93505050505b949350505050565b6000806001600084815260200190815260200160002060010160149054906101000a900460ff1690506004600681111561495757fe5b81600681111561496357fe5b148061498557506005600681111561497757fe5b81600681111561498357fe5b145b806149a5575060068081111561499757fe5b8160068111156149a357fe5b145b806149c65750600360068111156149b857fe5b8160068111156149c457fe5b145b915050919050565b6000600283111580156149e15750600083115b614a53576040517f08c379a000000000000000000000000000000000000000000000000000000000815260040180806020018281038252600e8152602001807f30203c205f766f7465203c3d203200000000000000000000000000000000000081525060200191505060405180910390fd5b614a5c856157e5565b15614a6a5760019050615350565b614a726164bd565b60008060016000898152602001908152602001600020600501548152602001908152602001600020604051806101a001604052908160008201548152602001600182015481526020016002820154815260200160038201548152602001600482015481526020016005820154815260200160068201548152602001600782015481526020016008820154815260200160098201548152602001600a8201548152602001600b8201548152602001600c820160009054906101000a900473ffffffffffffffffffffffffffffffffffffffff1673ffffffffffffffffffffffffffffffffffffffff1673ffffffffffffffffffffffffffffffffffffffff16815250509050600060016000888152602001908152602001600020905060008160010160009054906101000a900473ffffffffffffffffffffffffffffffffffffffff1673ffffffffffffffffffffffffffffffffffffffff16639588378e888a6040518363ffffffff1660e01b8152600401808373ffffffffffffffffffffffffffffffffffffffff1673ffffffffffffffffffffffffffffffffffffffff1681526020018281526020019250505060206040518083038186803b158015614c3857600080fd5b505afa158015614c4c573d6000803e3d6000fd5b505050506040513d6020811015614c6257600080fd5b8101908080519060200190929190505050905060008111614ceb576040517f08c379a000000000000000000000000000000000000000000000000000000000815260040180806020018281038252601b8152602001807f5f766f746572206d75737420686176652072657075746174696f6e000000000081525060200191505060405180910390fd5b84811015614d61576040517f08c379a00000000000000000000000000000000000000000000000000000000081526004018080602001828103825260128152602001807f72657075746174696f6e203e3d205f726570000000000000000000000000000081525060200191505060405180910390fd5b60008590506000811415614d73578190505b60008360110160008a73ffffffffffffffffffffffffffffffffffffffff1673ffffffffffffffffffffffffffffffffffffffff1681526020019081526020016000206001015414614dcc576000945050505050615350565b614df483600f01600089815260200190815260200160002054826155e290919063ffffffff16565b83600f0160008981526020019081526020016000208190555082600f016000846002015481526020019081526020016000205483600f016000898152602001908152602001600020541180614e87575082600f016000846002015481526020019081526020016000205483600f0160006002815260200190815260200160002054148015614e86575060018360020154145b5b15614ff05760056006811115614e9957fe5b8360010160149054906101000a900460ff166006811115614eb657fe5b148015614ee057508360c0015184604001510383600b01600160038110614ed957fe5b0154420310155b80614f115750600680811115614ef257fe5b8360010160149054906101000a900460ff166006811115614f0f57fe5b145b15614fe657600680811115614f2257fe5b8360010160149054906101000a900460ff166006811115614f3f57fe5b14614fcf578360c00151836004018190555060068360010160146101000a81548160ff02191690836006811115614f7257fe5b0217905550887f21aca7f0285ccddeca2935074d3e36b5ab8fea0327f84cbbf12cf1b6d1a749f98460010160149054906101000a900460ff1660405180826006811115614fbb57fe5b60ff16815260200191505060405180910390a25b4283600b01600160038110614fe057fe5b01819055505b8683600201819055505b60405180606001604052808881526020018281526020016004600681111561501457fe5b8560010160149054906101000a900460ff16600681111561503157fe5b148061506457506003600681111561504557fe5b8560010160149054906101000a900460ff16600681111561506257fe5b145b15158152508360110160008a73ffffffffffffffffffffffffffffffffffffffff1673ffffffffffffffffffffffffffffffffffffffff168152602001908152602001600020600082015181600001556020820151816001015560408201518160020160006101000a81548160ff021916908315150217905550905050600460068111156150ee57fe5b8360010160149054906101000a900460ff16600681111561510b57fe5b148061513e57506003600681111561511f57fe5b8360010160149054906101000a900460ff16600681111561513c57fe5b145b1561529b5761516b83601001600089815260200190815260200160002054826155e290919063ffffffff16565b83601001600089815260200190815260200160002081905550600060646151a08387610100015161537190919063ffffffff16565b816151a757fe5b0490508360010160009054906101000a900473ffffffffffffffffffffffffffffffffffffffff1673ffffffffffffffffffffffffffffffffffffffff1663f81f8bf6828b8d6040518463ffffffff1660e01b8152600401808481526020018373ffffffffffffffffffffffffffffffffffffffff1673ffffffffffffffffffffffffffffffffffffffff1681526020018281526020019350505050602060405180830381600087803b15801561525d57600080fd5b505af1158015615271573d6000803e3d6000fd5b505050506040513d602081101561528757600080fd5b810190808051906020019092919050505050505b8773ffffffffffffffffffffffffffffffffffffffff16600360008560000154815260200190815260200160002060009054906101000a900473ffffffffffffffffffffffffffffffffffffffff1673ffffffffffffffffffffffffffffffffffffffff168a7f066c061a3792cb3eb64a441a928655fcbafb4a54b49725fe9cd2951df5e7189e8a85604051808381526020018281526020019250505060405180910390a4615349896157e5565b9450505050505b949350505050565b60008183106153675781615369565b825b905092915050565b60008083141561538457600090506153f1565b600082840290508284828161539557fe5b04146153ec576040517f08c379a00000000000000000000000000000000000000000000000000000000081526004018080602001828103825260218152602001806167656021913960400191505060405180910390fd5b809150505b92915050565b600080821161546e576040517f08c379a000000000000000000000000000000000000000000000000000000000815260040180806020018281038252601a8152602001807f536166654d6174683a206469766973696f6e206279207a65726f00000000000081525060200191505060405180910390fd5b600082848161547957fe5b0490508091505092915050565b60008160405160200180807f19457468657265756d205369676e6564204d6573736167653a0a333200000000815250601c01828152602001915050604051602081830303815290604052805190602001209050919050565b600060418251146154f257600090506155dc565b60008060006020850151925060408501519150606085015160001a90507f7fffffffffffffffffffffffffffffff5d576e7357a4501ddfe92f46681b20a08260001c111561554657600093505050506155dc565b601b8160ff161415801561555e5750601c8160ff1614155b1561556f57600093505050506155dc565b60018682858560405160008152602001604052604051808581526020018460ff1660ff1681526020018381526020018281526020019450505050506020604051602081039080840390855afa1580156155cc573d6000803e3d6000fd5b5050506020604051035193505050505b92915050565b600080828401905083811015615660576040517f08c379a000000000000000000000000000000000000000000000000000000000815260040180806020018281038252601b8152602001807f536166654d6174683a206164646974696f6e206f766572666c6f77000000000081525060200191505060405180910390fd5b8091505092915050565b6000828211156156e2576040517f08c379a000000000000000000000000000000000000000000000000000000000815260040180806020018281038252601e8152602001807f536166654d6174683a207375627472616374696f6e206f766572666c6f77000081525060200191505060405180910390fd5b600082840390508091505092915050565b600080600160008481526020019081526020016000209050615767816012016000600281526020019081526020016000205482601201600060018152602001908152602001600020547affffffffffffffffffffffffffffffffffffffffffffffffffffff1661578990919063ffffffff16565b915050919050565b60008183101561577f5781615781565b825b905092915050565b60006157dd60286001901b847affffffffffffffffffffffffffffffffffffffffffffffffffffff160260286001901b847affffffffffffffffffffffffffffffffffffffffffffffffffffff160261647f565b905092915050565b6000816157f181614921565b6157fa57600080fd5b60006001600085815260200190815260200160002090506158196164bd565b60008083600501548152602001908152602001600020604051806101a001604052908160008201548152602001600182015481526020016002820154815260200160038201548152602001600482015481526020016005820154815260200160068201548152602001600782015481526020016008820154815260200160098201548152602001600a8201548152602001600b8201548152602001600c820160009054906101000a900473ffffffffffffffffffffffffffffffffffffffff1673ffffffffffffffffffffffffffffffffffffffff1673ffffffffffffffffffffffffffffffffffffffff1681525050905061591361653b565b82604051806101c0016040529081600082015481526020016001820160009054906101000a900473ffffffffffffffffffffffffffffffffffffffff1673ffffffffffffffffffffffffffffffffffffffff1673ffffffffffffffffffffffffffffffffffffffff1681526020016001820160149054906101000a900460ff16600681111561599e57fe5b60068111156159a957fe5b8152602001600282015481526020016003820160009054906101000a900473ffffffffffffffffffffffffffffffffffffffff1673ffffffffffffffffffffffffffffffffffffffff1673ffffffffffffffffffffffffffffffffffffffff168152602001600482015481526020016005820154815260200160068201548152602001600782015481526020016008820154815260200160098201548152602001600a8201548152602001600b8201600380602002604051908101604052809291908260038015615a8f576020028201915b815481526020019060010190808311615a7b575b50505050508152602001600e820160009054906101000a900460ff161515151581525050905060008360010160009054906101000a900473ffffffffffffffffffffffffffffffffffffffff1673ffffffffffffffffffffffffffffffffffffffff1663b551c373886040518263ffffffff1660e01b81526004018082815260200191505060206040518083038186803b158015615b2c57600080fd5b505afa158015615b40573d6000803e3d6000fd5b505050506040513d6020811015615b5657600080fd5b810190808051906020019092919050505090506000836000015160648381615b7a57fe5b0402905060008090506000808388600f0160008a600201548152602001908152602001600020541115615c4a5760036006811115615bb457fe5b8860010160149054906101000a900460ff166006811115615bd157fe5b1415615be05760019250615c1f565b60046006811115615bed57fe5b8860010160149054906101000a900460ff166006811115615c0a57fe5b1415615c195760039250615c1e565b600592505b5b60028860010160146101000a81548160ff02191690836006811115615c4057fe5b0217905550615f7d565b60036006811115615c5757fe5b8860010160149054906101000a900460ff166006811115615c7457fe5b1415615d3d57866020015188600b01600060038110615c8f57fe5b0154420310615cd15760018860010160146101000a81548160ff02191690836006811115615cb957fe5b02179055506002886002018190555060029250615d3c565b615ce38860050154896000015461139e565b905080615cef8c6156f3565b1115615d3b5760048860010160146101000a81548160ff02191690836006811115615d1657fe5b02179055504288600b01600260038110615d2c57fe5b01819055508088600901819055505b5b5b60046006811115615d4a57fe5b8860010160149054906101000a900460ff166006811115615d6757fe5b1415615f7c57615d7f8860050154896000015461139e565b9050866060015188600b01600260038110615d9657fe5b0154420310615ed55780615da98c6156f3565b1115615ea957611000600260008a600001548152602001908152602001600020541015615ea45760058860010160146101000a81548160ff02191690836006811115615df157fe5b02179055504288600b01600160038110615e0757fe5b018190555060026000896000015481526020019081526020016000206000815480929190600101919050555060046000896000015481526020019081526020016000205491506002600089600001548152602001908152602001600020548289601201600060028152602001908152602001600020540381615e8557fe5b058201600460008a600001548152602001908152602001600020819055505b615ed0565b60038860010160146101000a81548160ff02191690836006811115615eca57fe5b02179055505b615f7b565b6000615ee08c6156f3565b9050615ef9828a6009015461535890919063ffffffff16565b8111615f2a5760038960010160146101000a81548160ff02191690836006811115615f2057fe5b0217905550615f79565b8089600901541115615f78578189600901819055508b7fad767d61af51c7895fa3cc0497dde01afb610c74e55ee4d8a71fa5e3ee136d54836040518082815260200191505060405180910390a25b5b505b5b5b60056006811115615f8a57fe5b8860010160149054906101000a900460ff166006811115615fa757fe5b1480615fd95750600680811115615fba57fe5b8860010160149054906101000a900460ff166006811115615fd757fe5b145b1561602857876004015488600b01600160038110615ff357fe5b01544203106160275760028860010160146101000a81548160ff0219169083600681111561601d57fe5b0217905550600492505b5b6000600581111561603557fe5b83600581111561604157fe5b14616336576004600581111561605357fe5b83600581111561605f57fe5b1480616080575060058081111561607257fe5b83600581111561607e57fe5b145b15616191576160b0600160026000896000015181526020019081526020016000205461566a90919063ffffffff16565b600260008860000151815260200190815260200160002081905550600060026000886000015181526020019081526020016000205490506000811415616112576000600460008b6000015481526020019081526020016000208190555061618f565b600460008a6000015481526020019081526020016000205492508061616b8a6012016000600281526020019081526020016000205461615d600185018761537190919063ffffffff16565b61566a90919063ffffffff16565b8161617257fe5b04600460008b600001548152602001908152602001600020819055505b505b600360008960000154815260200190815260200160002060009054906101000a900473ffffffffffffffffffffffffffffffffffffffff1673ffffffffffffffffffffffffffffffffffffffff168b7f37471b9c9d295ffb1309ad070b8964700bfb7b555e8e8292d0b6cbc7dba35d108a6002015488604051808381526020018281526020019250505060405180910390a38a7f46a713b994c752c68fbefa9048bec9a0010cc7d933ad95a3c3dbb25931a167e7846040518082600581111561625657fe5b60ff16815260200191505060405180910390a28760010160009054906101000a900473ffffffffffffffffffffffffffffffffffffffff1673ffffffffffffffffffffffffffffffffffffffff16639d4c162d8c8a600201546040518363ffffffff1660e01b81526004018083815260200182815260200192505050602060405180830381600087803b1580156162ec57600080fd5b505af1158015616300573d6000803e3d6000fd5b505050506040513d602081101561631657600080fd5b810190808051906020019092919050505050876006015488600701819055505b8760010160149054906101000a900460ff16600681111561635357fe5b8660400151600681111561636357fe5b146163c0578a7f21aca7f0285ccddeca2935074d3e36b5ab8fea0327f84cbbf12cf1b6d1a749f98960010160149054906101000a900460ff16604051808260068111156163ac57fe5b60ff16815260200191505060405180910390a25b600060058111156163cd57fe5b8360058111156163d957fe5b14159950505050505050505050919050565b6000808284029050828482816163fd57fe5b0414616471576040517f08c379a00000000000000000000000000000000000000000000000000000000081526004018080602001828103825260158152602001807f5265616c4d617468206d756c206f766572666c6f77000000000000000000000081525060200191505060405180910390fd5b602881901c91505092915050565b60008160286001901b84028161649157fe5b04905092915050565b604051806060016040528060008152602001600081526020016000151581525090565b604051806101a00160405280600081526020016000815260200160008152602001600081526020016000815260200160008152602001600081526020016000815260200160008152602001600081526020016000815260200160008152602001600073ffffffffffffffffffffffffffffffffffffffff1681525090565b60405180610200016040528060008019168152602001600073ffffffffffffffffffffffffffffffffffffffff1681526020016000600681111561657b57fe5b815260200160008152602001600073ffffffffffffffffffffffffffffffffffffffff168152602001600081526020016000801916815260200160008152602001600081526020016000815260200160008152602001600081526020016165e0616651565b81526020016000151581525090565b826003810192821561661e579160200282015b8281111561661d578251825591602001919060010190616602565b5b50905061662b9190616673565b5090565b6040518060600160405280600390602082028038833980820191505090505090565b6040518060600160405280600390602082028038833980820191505090505090565b61669591905b80821115616691576000816000905550600101616679565b5090565b90565b60008060007fc5d2460186f7233c927e7db2dcc703c0e500b653ca82273b7bfad8045d85a47060001b9050833f91506000801b82141580156166da5750808214155b9250505091905056fe50726f706f73616c2073686f756c64206265204578656375746564206f722045787069726564496e5175657565626f6f73746564566f7465506572696f644c696d6974203e3d207175696574456e64696e67506572696f643530203c3d20717565756564566f7465526571756972656450657263656e74616765203c3d20313030536166654d6174683a206d756c7469706c69636174696f6e206f766572666c6f7770726f706f73616c20737461746520696e206e6f7420426f6f73746564206e6f72205175696574456e64696e67506572696f64a165627a7a72305820c60aacacd65f3a33081719eaa6e53a50075d5eec94f98397830a6287096355a80029",
  "source": "pragma solidity ^0.5.4;\r\n\r\nimport \"../ECDSA.sol\";\r\nimport \"./GenesisProtocolLogic.sol\";\r\n\r\n\r\n/**\r\n * @title GenesisProtocol implementation -an organization's voting machine scheme.\r\n */\r\ncontract GenesisProtocol is IntVoteInterface, GenesisProtocolLogic {\r\n    using ECDSA for bytes32;\r\n\r\n    // Digest describing the data the user signs according EIP 712.\r\n    // Needs to match what is passed to Metamask.\r\n    bytes32 public constant DELEGATION_HASH_EIP712 =\r\n    keccak256(abi.encodePacked(\r\n    \"address GenesisProtocolAddress\",\r\n    \"bytes32 ProposalId\",\r\n    \"uint256 Vote\",\r\n    \"uint256 AmountToStake\",\r\n    \"uint256 Nonce\"\r\n    ));\r\n\r\n    mapping(address=>uint256) public stakesNonce; //stakes Nonce\r\n\r\n    /**\r\n     * @dev Constructor\r\n     */\r\n    constructor(IERC20 _stakingToken)\r\n    public\r\n    // solhint-disable-next-line no-empty-blocks\r\n    GenesisProtocolLogic(_stakingToken) {\r\n    }\r\n\r\n    /**\r\n     * @dev staking function\r\n     * @param _proposalId id of the proposal\r\n     * @param _vote  NO(2) or YES(1).\r\n     * @param _amount the betting amount\r\n     * @return bool true - the proposal has been executed\r\n     *              false - otherwise.\r\n     */\r\n    function stake(bytes32 _proposalId, uint256 _vote, uint256 _amount) external returns(bool) {\r\n        return _stake(_proposalId, _vote, _amount, msg.sender);\r\n    }\r\n\r\n    /**\r\n     * @dev stakeWithSignature function\r\n     * @param _proposalId id of the proposal\r\n     * @param _vote  NO(2) or YES(1).\r\n     * @param _amount the betting amount\r\n     * @param _nonce nonce value ,it is part of the signature to ensure that\r\n              a signature can be received only once.\r\n     * @param _signatureType signature type\r\n              1 - for web3.eth.sign\r\n              2 - for eth_signTypedData according to EIP #712.\r\n     * @param _signature  - signed data by the staker\r\n     * @return bool true - the proposal has been executed\r\n     *              false - otherwise.\r\n     */\r\n    function stakeWithSignature(\r\n        bytes32 _proposalId,\r\n        uint256 _vote,\r\n        uint256 _amount,\r\n        uint256 _nonce,\r\n        uint256 _signatureType,\r\n        bytes calldata _signature\r\n        )\r\n        external\r\n        returns(bool)\r\n        {\r\n        // Recreate the digest the user signed\r\n        bytes32 delegationDigest;\r\n        if (_signatureType == 2) {\r\n            delegationDigest = keccak256(\r\n                abi.encodePacked(\r\n                    DELEGATION_HASH_EIP712, keccak256(\r\n                        abi.encodePacked(\r\n                        address(this),\r\n                        _proposalId,\r\n                        _vote,\r\n                        _amount,\r\n                        _nonce)\r\n                    )\r\n                )\r\n            );\r\n        } else {\r\n            delegationDigest = keccak256(\r\n                        abi.encodePacked(\r\n                        address(this),\r\n                        _proposalId,\r\n                        _vote,\r\n                        _amount,\r\n                        _nonce)\r\n                    ).toEthSignedMessageHash();\r\n        }\r\n        address staker = delegationDigest.recover(_signature);\r\n        //a garbage staker address due to wrong signature will revert due to lack of approval and funds.\r\n        require(staker != address(0), \"staker address cannot be 0\");\r\n        require(stakesNonce[staker] == _nonce);\r\n        stakesNonce[staker] = stakesNonce[staker].add(1);\r\n        return _stake(_proposalId, _vote, _amount, staker);\r\n    }\r\n\r\n    /**\r\n     * @dev voting function\r\n     * @param _proposalId id of the proposal\r\n     * @param _vote NO(2) or YES(1).\r\n     * @param _amount the reputation amount to vote with . if _amount == 0 it will use all voter reputation.\r\n     * @param _voter voter address\r\n     * @return bool true - the proposal has been executed\r\n     *              false - otherwise.\r\n     */\r\n    function vote(bytes32 _proposalId, uint256 _vote, uint256 _amount, address _voter)\r\n    external\r\n    votable(_proposalId)\r\n    returns(bool) {\r\n        Proposal storage proposal = proposals[_proposalId];\r\n        Parameters memory params = parameters[proposal.paramsHash];\r\n        address voter;\r\n        if (params.voteOnBehalf != address(0)) {\r\n            require(msg.sender == params.voteOnBehalf);\r\n            voter = _voter;\r\n        } else {\r\n            voter = msg.sender;\r\n        }\r\n        return internalVote(_proposalId, voter, _vote, _amount);\r\n    }\r\n\r\n  /**\r\n   * @dev Cancel the vote of the msg.sender.\r\n   * cancel vote is not allow in genesisProtocol so this function doing nothing.\r\n   * This function is here in order to comply to the IntVoteInterface .\r\n   */\r\n    function cancelVote(bytes32 _proposalId) external votable(_proposalId) {\r\n       //this is not allowed\r\n        return;\r\n    }\r\n\r\n    /**\r\n      * @dev execute check if the proposal has been decided, and if so, execute the proposal\r\n      * @param _proposalId the id of the proposal\r\n      * @return bool true - the proposal has been executed\r\n      *              false - otherwise.\r\n     */\r\n    function execute(bytes32 _proposalId) external votable(_proposalId) returns(bool) {\r\n        return _execute(_proposalId);\r\n    }\r\n\r\n  /**\r\n    * @dev getNumberOfChoices returns the number of choices possible in this proposal\r\n    * @return uint256 that contains number of choices\r\n    */\r\n    function getNumberOfChoices(bytes32) external view returns(uint256) {\r\n        return NUM_OF_CHOICES;\r\n    }\r\n\r\n    /**\r\n      * @dev getProposalTimes returns proposals times variables.\r\n      * @param _proposalId id of the proposal\r\n      * @return proposals times array\r\n      */\r\n    function getProposalTimes(bytes32 _proposalId) external view returns(uint[3] memory times) {\r\n        return proposals[_proposalId].times;\r\n    }\r\n\r\n    /**\r\n     * @dev voteInfo returns the vote and the amount of reputation of the user committed to this proposal\r\n     * @param _proposalId the ID of the proposal\r\n     * @param _voter the address of the voter\r\n     * @return uint256 vote - the voters vote\r\n     *        uint256 reputation - amount of reputation committed by _voter to _proposalId\r\n     */\r\n    function voteInfo(bytes32 _proposalId, address _voter) external view returns(uint, uint) {\r\n        Voter memory voter = proposals[_proposalId].voters[_voter];\r\n        return (voter.vote, voter.reputation);\r\n    }\r\n\r\n    /**\r\n    * @dev voteStatus returns the reputation voted for a proposal for a specific voting choice.\r\n    * @param _proposalId the ID of the proposal\r\n    * @param _choice the index in the\r\n    * @return voted reputation for the given choice\r\n    */\r\n    function voteStatus(bytes32 _proposalId, uint256 _choice) external view returns(uint256) {\r\n        return proposals[_proposalId].votes[_choice];\r\n    }\r\n\r\n    /**\r\n    * @dev isVotable check if the proposal is votable\r\n    * @param _proposalId the ID of the proposal\r\n    * @return bool true or false\r\n    */\r\n    function isVotable(bytes32 _proposalId) external view returns(bool) {\r\n        return _isVotable(_proposalId);\r\n    }\r\n\r\n    /**\r\n    * @dev proposalStatus return the total votes and stakes for a given proposal\r\n    * @param _proposalId the ID of the proposal\r\n    * @return uint256 preBoostedVotes YES\r\n    * @return uint256 preBoostedVotes NO\r\n    * @return uint256 total stakes YES\r\n    * @return uint256 total stakes NO\r\n    */\r\n    function proposalStatus(bytes32 _proposalId) external view returns(uint256, uint256, uint256, uint256) {\r\n        return (\r\n                proposals[_proposalId].preBoostedVotes[YES],\r\n                proposals[_proposalId].preBoostedVotes[NO],\r\n                proposals[_proposalId].stakes[YES],\r\n                proposals[_proposalId].stakes[NO]\r\n        );\r\n    }\r\n\r\n  /**\r\n    * @dev getProposalOrganization return the organizationId for a given proposal\r\n    * @param _proposalId the ID of the proposal\r\n    * @return bytes32 organization identifier\r\n    */\r\n    function getProposalOrganization(bytes32 _proposalId) external view returns(bytes32) {\r\n        return (proposals[_proposalId].organizationId);\r\n    }\r\n\r\n    /**\r\n      * @dev getStaker return the vote and stake amount for a given proposal and staker\r\n      * @param _proposalId the ID of the proposal\r\n      * @param _staker staker address\r\n      * @return uint256 vote\r\n      * @return uint256 amount\r\n    */\r\n    function getStaker(bytes32 _proposalId, address _staker) external view returns(uint256, uint256) {\r\n        return (proposals[_proposalId].stakers[_staker].vote, proposals[_proposalId].stakers[_staker].amount);\r\n    }\r\n\r\n    /**\r\n      * @dev voteStake return the amount stakes for a given proposal and vote\r\n      * @param _proposalId the ID of the proposal\r\n      * @param _vote vote number\r\n      * @return uint256 stake amount\r\n    */\r\n    function voteStake(bytes32 _proposalId, uint256 _vote) external view returns(uint256) {\r\n        return proposals[_proposalId].stakes[_vote];\r\n    }\r\n\r\n  /**\r\n    * @dev voteStake return the winningVote for a given proposal\r\n    * @param _proposalId the ID of the proposal\r\n    * @return uint256 winningVote\r\n    */\r\n    function winningVote(bytes32 _proposalId) external view returns(uint256) {\r\n        return proposals[_proposalId].winningVote;\r\n    }\r\n\r\n    /**\r\n      * @dev voteStake return the state for a given proposal\r\n      * @param _proposalId the ID of the proposal\r\n      * @return ProposalState proposal state\r\n    */\r\n    function state(bytes32 _proposalId) external view returns(ProposalState) {\r\n        return proposals[_proposalId].state;\r\n    }\r\n\r\n   /**\r\n    * @dev isAbstainAllow returns if the voting machine allow abstain (0)\r\n    * @return bool true or false\r\n    */\r\n    function isAbstainAllow() external pure returns(bool) {\r\n        return false;\r\n    }\r\n\r\n    /**\r\n     * @dev getAllowedRangeOfChoices returns the allowed range of choices for a voting machine.\r\n     * @return min - minimum number of choices\r\n               max - maximum number of choices\r\n     */\r\n    function getAllowedRangeOfChoices() external pure returns(uint256 min, uint256 max) {\r\n        return (YES, NO);\r\n    }\r\n\r\n    /**\r\n     * @dev score return the proposal score\r\n     * @param _proposalId the ID of the proposal\r\n     * @return uint256 proposal score.\r\n     */\r\n    function score(bytes32 _proposalId) public view returns(uint256) {\r\n        return  _score(_proposalId);\r\n    }\r\n}",
  "sourcePath": "C:\\Users\\Subhan\\Desktop\\github\\betterbrooklyndao\\Voting-Machine\\contracts\\VotingMachine\\GenesisProtocol.sol",
  "compiler": {
    "name": "solc",
    "version": "0.5.8+commit.23d335f2.Emscripten.clang"
  },
  "schemaVersion": "3.0.11",
  "updatedAt": "2019-07-17T22:56:37.097Z",
  "devdoc": {
    "methods": {
      "calcExecuteCallBounty(bytes32)": {
        "details": "calcExecuteCallBounty calculate the execute boosted call bounty\r",
        "params": {
          "_proposalId": "the ID of the proposal\r"
        },
        "return": "uint256 executeCallBounty\r"
      },
      "cancelVote(bytes32)": {
        "details": "Cancel the vote of the msg.sender.\r cancel vote is not allow in genesisProtocol so this function doing nothing.\r This function is here in order to comply to the IntVoteInterface .\r"
      },
      "constructor": {
        "details": "Constructor\r"
      },
      "execute(bytes32)": {
        "details": "execute check if the proposal has been decided, and if so, execute the proposal\r",
        "params": {
          "_proposalId": "the id of the proposal\r"
        },
        "return": "bool true - the proposal has been executed\r             false - otherwise.\r"
      },
      "executeBoosted(bytes32)": {
        "details": "executeBoosted try to execute a boosted or QuietEndingPeriod proposal if it is expired\r it rewards the msg.sender with P % of the proposal's upstakes upon a successful call to this function.\r P = t/150, where t is the number of seconds passed since the the proposal's timeout.\r P is capped by 10%.\r",
        "params": {
          "_proposalId": "the id of the proposal\r"
        },
        "return": "uint256 expirationCallBounty the bounty amount for the expiration call\r"
      },
      "getAllowedRangeOfChoices()": {
        "details": "getAllowedRangeOfChoices returns the allowed range of choices for a voting machine.\r",
        "return": "min - minimum number of choices\r max - maximum number of choices\r"
      },
      "getNumberOfChoices(bytes32)": {
        "details": "getNumberOfChoices returns the number of choices possible in this proposal\r",
        "return": "uint256 that contains number of choices\r"
      },
      "getParametersHash(uint256[11],address)": {
        "details": "hashParameters returns a hash of the given parameters\r"
      },
      "getProposalOrganization(bytes32)": {
        "details": "getProposalOrganization return the organizationId for a given proposal\r",
        "params": {
          "_proposalId": "the ID of the proposal\r"
        },
        "return": "bytes32 organization identifier\r"
      },
      "getProposalTimes(bytes32)": {
        "details": "getProposalTimes returns proposals times variables.\r",
        "params": {
          "_proposalId": "id of the proposal\r"
        },
        "return": "proposals times array\r"
      },
      "getStaker(bytes32,address)": {
        "details": "getStaker return the vote and stake amount for a given proposal and staker\r",
        "params": {
          "_proposalId": "the ID of the proposal\r",
          "_staker": "staker address\r"
        },
        "return": "uint256 vote\ruint256 amount\r"
      },
      "isAbstainAllow()": {
        "details": "isAbstainAllow returns if the voting machine allow abstain (0)\r",
        "return": "bool true or false\r"
      },
      "isVotable(bytes32)": {
        "details": "isVotable check if the proposal is votable\r",
        "params": {
          "_proposalId": "the ID of the proposal\r"
        },
        "return": "bool true or false\r"
      },
      "proposalStatus(bytes32)": {
        "details": "proposalStatus return the total votes and stakes for a given proposal\r",
        "params": {
          "_proposalId": "the ID of the proposal\r"
        },
        "return": "uint256 preBoostedVotes YES\ruint256 preBoostedVotes NO\ruint256 total stakes YES\ruint256 total stakes NO\r"
      },
      "propose(uint256,bytes32,address,address)": {
        "details": "register a new proposal with the given parameters. Every proposal has a unique ID which is being\r generated by calculating keccak256 of a incremented counter.\r",
        "params": {
          "_organization": "address\r",
          "_paramsHash": "parameters hash\r",
          "_proposer": "address\r"
        }
      },
      "redeem(bytes32,address)": {
        "details": "redeem a reward for a successful stake, vote or proposing.\r The function use a beneficiary address as a parameter (and not msg.sender) to enable\r users to redeem on behalf of someone else.\r",
        "params": {
          "_beneficiary": "- the beneficiary address\r",
          "_proposalId": "the ID of the proposal\r"
        },
        "return": "rewards -\r          [0] stakerTokenReward\r          [1] voterReputationReward\r          [2] proposerReputationReward\r"
      },
      "redeemDaoBounty(bytes32,address)": {
        "details": "redeemDaoBounty a reward for a successful stake.\r The function use a beneficiary address as a parameter (and not msg.sender) to enable\r users to redeem on behalf of someone else.\r",
        "params": {
          "_beneficiary": "- the beneficiary address\r",
          "_proposalId": "the ID of the proposal\r"
        },
        "return": "redeemedAmount - redeem token amount\rpotentialAmount - potential redeem token amount(if there is enough tokens bounty at the organization )\r"
      },
      "score(bytes32)": {
        "details": "score return the proposal score\r",
        "params": {
          "_proposalId": "the ID of the proposal\r"
        },
        "return": "uint256 proposal score.\r"
      },
      "setParameters(uint256[11],address)": {
        "details": "hash the parameters, save them if necessary, and return the hash value\r",
        "params": {
          "_params": "a parameters array\r   _params[0] - _queuedVoteRequiredPercentage,\r   _params[1] - _queuedVotePeriodLimit, //the time limit for a proposal to be in an absolute voting mode.\r   _params[2] - _boostedVotePeriodLimit, //the time limit for a proposal to be in an relative voting mode.\r   _params[3] - _preBoostedVotePeriodLimit, //the time limit for a proposal to be in an preparation\r                 state (stable) before boosted.\r   _params[4] -_thresholdConst\r   _params[5] -_quietEndingPeriod\r   _params[6] -_proposingRepReward\r   _params[7] -_votersReputationLossRatio\r   _params[8] -_minimumDaoBounty\r   _params[9] -_daoBountyConst\r   _params[10] -_activationTime\r",
          "_voteOnBehalf": "- authorized to vote on behalf of others.\r"
        }
      },
      "shouldBoost(bytes32)": {
        "details": "shouldBoost check if a proposal should be shifted to boosted phase.\r",
        "params": {
          "_proposalId": "the ID of the proposal\r"
        },
        "return": "bool true or false.\r"
      },
      "stake(bytes32,uint256,uint256)": {
        "details": "staking function\r",
        "params": {
          "_amount": "the betting amount\r",
          "_proposalId": "id of the proposal\r",
          "_vote": "NO(2) or YES(1).\r"
        },
        "return": "bool true - the proposal has been executed\r             false - otherwise.\r"
      },
      "stakeWithSignature(bytes32,uint256,uint256,uint256,uint256,bytes)": {
        "details": "stakeWithSignature function\r",
        "params": {
          "_amount": "the betting amount\r",
          "_nonce": "nonce value ,it is part of the signature to ensure that\r a signature can be received only once.\r",
          "_proposalId": "id of the proposal\r",
          "_signature": "- signed data by the staker\r",
          "_signatureType": "signature type\r 1 - for web3.eth.sign\r 2 - for eth_signTypedData according to EIP #712.\r",
          "_vote": "NO(2) or YES(1).\r"
        },
        "return": "bool true - the proposal has been executed\r             false - otherwise.\r"
      },
      "state(bytes32)": {
        "details": "voteStake return the state for a given proposal\r",
        "params": {
          "_proposalId": "the ID of the proposal\r"
        },
        "return": "ProposalState proposal state\r"
      },
      "threshold(bytes32,bytes32)": {
        "details": "threshold return the organization's score threshold which required by\r a proposal to shift to boosted state.\r This threshold is dynamically set and it depend on the number of boosted proposal.\r",
        "params": {
          "_organizationId": "the organization identifier\r",
          "_paramsHash": "the organization parameters hash\r"
        },
        "return": "uint256 organization's score threshold as real number.\r"
      },
      "vote(bytes32,uint256,uint256,address)": {
        "details": "voting function\r",
        "params": {
          "_amount": "the reputation amount to vote with . if _amount == 0 it will use all voter reputation.\r",
          "_proposalId": "id of the proposal\r",
          "_vote": "NO(2) or YES(1).\r",
          "_voter": "voter address\r"
        },
        "return": "bool true - the proposal has been executed\r             false - otherwise.\r"
      },
      "voteInfo(bytes32,address)": {
        "details": "voteInfo returns the vote and the amount of reputation of the user committed to this proposal\r",
        "params": {
          "_proposalId": "the ID of the proposal\r",
          "_voter": "the address of the voter\r"
        },
        "return": "uint256 vote - the voters vote\r       uint256 reputation - amount of reputation committed by _voter to _proposalId\r"
      },
      "voteStake(bytes32,uint256)": {
        "details": "voteStake return the amount stakes for a given proposal and vote\r",
        "params": {
          "_proposalId": "the ID of the proposal\r",
          "_vote": "vote number\r"
        },
        "return": "uint256 stake amount\r"
      },
      "voteStatus(bytes32,uint256)": {
        "details": "voteStatus returns the reputation voted for a proposal for a specific voting choice.\r",
        "params": {
          "_choice": "the index in the\r",
          "_proposalId": "the ID of the proposal\r"
        },
        "return": "voted reputation for the given choice\r"
      },
      "winningVote(bytes32)": {
        "details": "voteStake return the winningVote for a given proposal\r",
        "params": {
          "_proposalId": "the ID of the proposal\r"
        },
        "return": "uint256 winningVote\r"
      }
    },
    "title": "GenesisProtocol implementation -an organization's voting machine scheme.\r"
  },
  "userdoc": {
    "methods": {}
  }
}