{
  "contractName": "GlobalConstraintRegistrar",
  "abi": [
    {
      "constant": true,
      "inputs": [
        {
          "name": "",
          "type": "bytes32"
        }
      ],
      "name": "parameters",
      "outputs": [
        {
          "name": "voteRegisterParams",
          "type": "bytes32"
        },
        {
          "name": "intVote",
          "type": "address"
        }
      ],
      "payable": false,
      "stateMutability": "view",
      "type": "function"
    },
    {
      "constant": true,
      "inputs": [
        {
          "name": "",
          "type": "address"
        },
        {
          "name": "",
          "type": "bytes32"
        }
      ],
      "name": "organizationsProposals",
      "outputs": [
        {
          "name": "gc",
          "type": "address"
        },
        {
          "name": "addGC",
          "type": "bool"
        },
        {
          "name": "params",
          "type": "bytes32"
        },
        {
          "name": "voteToRemoveParams",
          "type": "bytes32"
        }
      ],
      "payable": false,
      "stateMutability": "view",
      "type": "function"
    },
    {
      "constant": true,
      "inputs": [
        {
          "name": "",
          "type": "address"
        },
        {
          "name": "",
          "type": "bytes32"
        }
      ],
      "name": "proposalsInfo",
      "outputs": [
        {
          "name": "blockNumber",
          "type": "uint256"
        },
        {
          "name": "avatar",
          "type": "address"
        }
      ],
      "payable": false,
      "stateMutability": "view",
      "type": "function"
    },
    {
      "constant": true,
      "inputs": [
        {
          "name": "_stakingToken",
          "type": "address"
        },
        {
          "name": "_proposalId",
          "type": "bytes32"
        }
      ],
      "name": "balanceOfStakingToken",
      "outputs": [
        {
          "name": "",
          "type": "uint256"
        }
      ],
      "payable": false,
      "stateMutability": "view",
      "type": "function"
    },
    {
      "constant": true,
      "inputs": [
        {
          "name": "_owner",
          "type": "address"
        },
        {
          "name": "_proposalId",
          "type": "bytes32"
        }
      ],
      "name": "reputationOf",
      "outputs": [
        {
          "name": "",
          "type": "uint256"
        }
      ],
      "payable": false,
      "stateMutability": "view",
      "type": "function"
    },
    {
      "constant": true,
      "inputs": [
        {
          "name": "",
          "type": "address"
        },
        {
          "name": "",
          "type": "address"
        }
      ],
      "name": "voteToRemoveParams",
      "outputs": [
        {
          "name": "",
          "type": "bytes32"
        }
      ],
      "payable": false,
      "stateMutability": "view",
      "type": "function"
    },
    {
      "constant": true,
      "inputs": [
        {
          "name": "_proposalId",
          "type": "bytes32"
        }
      ],
      "name": "getTotalReputationSupply",
      "outputs": [
        {
          "name": "",
          "type": "uint256"
        }
      ],
      "payable": false,
      "stateMutability": "view",
      "type": "function"
    },
    {
      "constant": false,
      "inputs": [
        {
          "name": "_stakingToken",
          "type": "address"
        },
        {
          "name": "_beneficiary",
          "type": "address"
        },
        {
          "name": "_amount",
          "type": "uint256"
        },
        {
          "name": "_proposalId",
          "type": "bytes32"
        }
      ],
      "name": "stakingTokenTransfer",
      "outputs": [
        {
          "name": "",
          "type": "bool"
        }
      ],
      "payable": false,
      "stateMutability": "nonpayable",
      "type": "function"
    },
    {
      "constant": false,
      "inputs": [
        {
          "name": "_amount",
          "type": "uint256"
        },
        {
          "name": "_beneficiary",
          "type": "address"
        },
        {
          "name": "_proposalId",
          "type": "bytes32"
        }
      ],
      "name": "mintReputation",
      "outputs": [
        {
          "name": "",
          "type": "bool"
        }
      ],
      "payable": false,
      "stateMutability": "nonpayable",
      "type": "function"
    },
    {
      "constant": false,
      "inputs": [
        {
          "name": "_amount",
          "type": "uint256"
        },
        {
          "name": "_beneficiary",
          "type": "address"
        },
        {
          "name": "_proposalId",
          "type": "bytes32"
        }
      ],
      "name": "burnReputation",
      "outputs": [
        {
          "name": "",
          "type": "bool"
        }
      ],
      "payable": false,
      "stateMutability": "nonpayable",
      "type": "function"
    },
    {
      "anonymous": false,
      "inputs": [
        {
          "indexed": true,
          "name": "_avatar",
          "type": "address"
        },
        {
          "indexed": true,
          "name": "_proposalId",
          "type": "bytes32"
        },
        {
          "indexed": true,
          "name": "_intVoteInterface",
          "type": "address"
        },
        {
          "indexed": false,
          "name": "_gc",
          "type": "address"
        },
        {
          "indexed": false,
          "name": "_params",
          "type": "bytes32"
        },
        {
          "indexed": false,
          "name": "_voteToRemoveParams",
          "type": "bytes32"
        },
        {
          "indexed": false,
          "name": "_descriptionHash",
          "type": "string"
        }
      ],
      "name": "NewGlobalConstraintsProposal",
      "type": "event"
    },
    {
      "anonymous": false,
      "inputs": [
        {
          "indexed": true,
          "name": "_avatar",
          "type": "address"
        },
        {
          "indexed": true,
          "name": "_proposalId",
          "type": "bytes32"
        },
        {
          "indexed": true,
          "name": "_intVoteInterface",
          "type": "address"
        },
        {
          "indexed": false,
          "name": "_gc",
          "type": "address"
        },
        {
          "indexed": false,
          "name": "_descriptionHash",
          "type": "string"
        }
      ],
      "name": "RemoveGlobalConstraintsProposal",
      "type": "event"
    },
    {
      "anonymous": false,
      "inputs": [
        {
          "indexed": true,
          "name": "_avatar",
          "type": "address"
        },
        {
          "indexed": true,
          "name": "_proposalId",
          "type": "bytes32"
        },
        {
          "indexed": false,
          "name": "_param",
          "type": "int256"
        }
      ],
      "name": "ProposalExecuted",
      "type": "event"
    },
    {
      "anonymous": false,
      "inputs": [
        {
          "indexed": true,
          "name": "_avatar",
          "type": "address"
        },
        {
          "indexed": true,
          "name": "_proposalId",
          "type": "bytes32"
        }
      ],
      "name": "ProposalDeleted",
      "type": "event"
    },
    {
      "constant": false,
      "inputs": [
        {
          "name": "_proposalId",
          "type": "bytes32"
        },
        {
          "name": "_param",
          "type": "int256"
        }
      ],
      "name": "executeProposal",
      "outputs": [
        {
          "name": "",
          "type": "bool"
        }
      ],
      "payable": false,
      "stateMutability": "nonpayable",
      "type": "function"
    },
    {
      "constant": false,
      "inputs": [
        {
          "name": "_voteRegisterParams",
          "type": "bytes32"
        },
        {
          "name": "_intVote",
          "type": "address"
        }
      ],
      "name": "setParameters",
      "outputs": [
        {
          "name": "",
          "type": "bytes32"
        }
      ],
      "payable": false,
      "stateMutability": "nonpayable",
      "type": "function"
    },
    {
      "constant": true,
      "inputs": [
        {
          "name": "_voteRegisterParams",
          "type": "bytes32"
        },
        {
          "name": "_intVote",
          "type": "address"
        }
      ],
      "name": "getParametersHash",
      "outputs": [
        {
          "name": "",
          "type": "bytes32"
        }
      ],
      "payable": false,
      "stateMutability": "pure",
      "type": "function"
    },
    {
      "constant": false,
      "inputs": [
        {
          "name": "_avatar",
          "type": "address"
        },
        {
          "name": "_gc",
          "type": "address"
        },
        {
          "name": "_params",
          "type": "bytes32"
        },
        {
          "name": "_voteToRemoveParams",
          "type": "bytes32"
        },
        {
          "name": "_descriptionHash",
          "type": "string"
        }
      ],
      "name": "proposeGlobalConstraint",
      "outputs": [
        {
          "name": "",
          "type": "bytes32"
        }
      ],
      "payable": false,
      "stateMutability": "nonpayable",
      "type": "function"
    },
    {
      "constant": false,
      "inputs": [
        {
          "name": "_avatar",
          "type": "address"
        },
        {
          "name": "_gc",
          "type": "address"
        },
        {
          "name": "_descriptionHash",
          "type": "string"
        }
      ],
      "name": "proposeToRemoveGC",
      "outputs": [
        {
          "name": "",
          "type": "bytes32"
        }
      ],
      "payable": false,
      "stateMutability": "nonpayable",
      "type": "function"
    }
  ],
  "bytecode": "0x608060405234801561001057600080fd5b506131f3806100206000396000f3fe608060405234801561001057600080fd5b50600436106100f55760003560e01c80637a35630411610097578063b551c37311610066578063b551c3731461072d578063bea75f281461076f578063d29b5d2f146107ff578063f81f8bf61461086f576100f5565b80637a356304146104f45780639588378e146106035780639d4c162d14610665578063a3379f90146106b5576100f5565b806360bdbb3f116100d357806360bdbb3f1461027857806368e14dac1461030d5780636b8eb4031461036f578063776fdd24146103d1576100f5565b806302506804146100fa57806306e3a9781461016f5780632453732a14610216575b600080fd5b6101266004803603602081101561011057600080fd5b81019080803590602001909291905050506108df565b604051808381526020018273ffffffffffffffffffffffffffffffffffffffff1673ffffffffffffffffffffffffffffffffffffffff1681526020019250505060405180910390f35b6101bb6004803603604081101561018557600080fd5b81019080803573ffffffffffffffffffffffffffffffffffffffff16906020019092919080359060200190929190505050610923565b604051808573ffffffffffffffffffffffffffffffffffffffff1673ffffffffffffffffffffffffffffffffffffffff1681526020018415151515815260200183815260200182815260200194505050505060405180910390f35b6102626004803603604081101561022c57600080fd5b8101908080359060200190929190803573ffffffffffffffffffffffffffffffffffffffff16906020019092919050505061098d565b6040518082815260200191505060405180910390f35b6102c46004803603604081101561028e57600080fd5b81019080803573ffffffffffffffffffffffffffffffffffffffff169060200190929190803590602001909291905050506109f5565b604051808381526020018273ffffffffffffffffffffffffffffffffffffffff1673ffffffffffffffffffffffffffffffffffffffff1681526020019250505060405180910390f35b6103596004803603604081101561032357600080fd5b8101908080359060200190929190803573ffffffffffffffffffffffffffffffffffffffff169060200190929190505050610a46565b6040518082815260200191505060405180910390f35b6103bb6004803603604081101561038557600080fd5b81019080803573ffffffffffffffffffffffffffffffffffffffff16906020019092919080359060200190929190505050610acf565b6040518082815260200191505060405180910390f35b6104de600480360360a08110156103e757600080fd5b81019080803573ffffffffffffffffffffffffffffffffffffffff169060200190929190803573ffffffffffffffffffffffffffffffffffffffff16906020019092919080359060200190929190803590602001909291908035906020019064010000000081111561045857600080fd5b82018360208201111561046a57600080fd5b8035906020019184600183028401116401000000008311171561048c57600080fd5b91908080601f016020809104026020016040519081016040528093929190818152602001838380828437600081840152601f19601f820116905080830192505050505050509192919290505050610cba565b6040518082815260200191505060405180910390f35b6105ed6004803603606081101561050a57600080fd5b81019080803573ffffffffffffffffffffffffffffffffffffffff169060200190929190803573ffffffffffffffffffffffffffffffffffffffff1690602001909291908035906020019064010000000081111561056757600080fd5b82018360208201111561057957600080fd5b8035906020019184600183028401116401000000008311171561059b57600080fd5b91908080601f016020809104026020016040519081016040528093929190818152602001838380828437600081840152601f19601f82011690508083019250505050505050919291929050505061115c565b6040518082815260200191505060405180910390f35b61064f6004803603604081101561061957600080fd5b81019080803573ffffffffffffffffffffffffffffffffffffffff169060200190929190803590602001909291905050506117e3565b6040518082815260200191505060405180910390f35b61069b6004803603604081101561067b57600080fd5b810190808035906020019092919080359060200190929190505050611a3e565b604051808215151515815260200191505060405180910390f35b610717600480360360408110156106cb57600080fd5b81019080803573ffffffffffffffffffffffffffffffffffffffff169060200190929190803573ffffffffffffffffffffffffffffffffffffffff16906020019092919050505061215b565b6040518082815260200191505060405180910390f35b6107596004803603602081101561074357600080fd5b8101908080359060200190929190505050612180565b6040518082815260200191505060405180910390f35b6107e56004803603608081101561078557600080fd5b81019080803573ffffffffffffffffffffffffffffffffffffffff169060200190929190803573ffffffffffffffffffffffffffffffffffffffff16906020019092919080359060200190929190803590602001909291905050506123a6565b604051808215151515815260200191505060405180910390f35b6108556004803603606081101561081557600080fd5b8101908080359060200190929190803573ffffffffffffffffffffffffffffffffffffffff1690602001909291908035906020019092919050505061272b565b604051808215151515815260200191505060405180910390f35b6108c56004803603606081101561088557600080fd5b8101908080359060200190929190803573ffffffffffffffffffffffffffffffffffffffff16906020019092919080359060200190929190505050612a7b565b604051808215151515815260200191505060405180910390f35b60036020528060005260406000206000915090508060000154908060010160009054906101000a900473ffffffffffffffffffffffffffffffffffffffff16905082565b6001602052816000526040600020602052806000526040600020600091509150508060000160009054906101000a900473ffffffffffffffffffffffffffffffffffffffff16908060000160149054906101000a900460ff16908060010154908060020154905084565b60008282604051602001808381526020018273ffffffffffffffffffffffffffffffffffffffff1673ffffffffffffffffffffffffffffffffffffffff1660601b81526014019250505060405160208183030381529060405280519060200120905092915050565b6000602052816000526040600020602052806000526040600020600091509150508060000154908060010160009054906101000a900473ffffffffffffffffffffffffffffffffffffffff16905082565b600080610a53848461098d565b9050836003600083815260200190815260200160002060000181905550826003600083815260200190815260200160002060010160006101000a81548173ffffffffffffffffffffffffffffffffffffffff021916908373ffffffffffffffffffffffffffffffffffffffff1602179055508091505092915050565b6000806000803373ffffffffffffffffffffffffffffffffffffffff1673ffffffffffffffffffffffffffffffffffffffff168152602001908152602001600020600084815260200190815260200160002060010160009054906101000a900473ffffffffffffffffffffffffffffffffffffffff169050600073ffffffffffffffffffffffffffffffffffffffff166000803373ffffffffffffffffffffffffffffffffffffffff1673ffffffffffffffffffffffffffffffffffffffff168152602001908152602001600020600085815260200190815260200160002060010160009054906101000a900473ffffffffffffffffffffffffffffffffffffffff1673ffffffffffffffffffffffffffffffffffffffff161415610bf8576000915050610cb4565b8373ffffffffffffffffffffffffffffffffffffffff166370a08231826040518263ffffffff1660e01b8152600401808273ffffffffffffffffffffffffffffffffffffffff1673ffffffffffffffffffffffffffffffffffffffff16815260200191505060206040518083038186803b158015610c7557600080fd5b505afa158015610c89573d6000803e3d6000fd5b505050506040513d6020811015610c9f57600080fd5b81019080805190602001909291905050509150505b92915050565b6000610cc461311e565b60036000610cd189612dcb565b8152602001908152602001600020604051806040016040529081600082015481526020016001820160009054906101000a900473ffffffffffffffffffffffffffffffffffffffff1673ffffffffffffffffffffffffffffffffffffffff1673ffffffffffffffffffffffffffffffffffffffff1681525050905060008160200151905060008173ffffffffffffffffffffffffffffffffffffffff166388737b5e60028560000151338d6040518563ffffffff1660e01b8152600401808581526020018481526020018373ffffffffffffffffffffffffffffffffffffffff1673ffffffffffffffffffffffffffffffffffffffff1681526020018273ffffffffffffffffffffffffffffffffffffffff1673ffffffffffffffffffffffffffffffffffffffff168152602001945050505050602060405180830381600087803b158015610e1f57600080fd5b505af1158015610e33573d6000803e3d6000fd5b505050506040513d6020811015610e4957600080fd5b81019080805190602001909291905050509050610e64613151565b60405180608001604052808a73ffffffffffffffffffffffffffffffffffffffff16815260200160011515815260200189815260200188815250905080600160008c73ffffffffffffffffffffffffffffffffffffffff1673ffffffffffffffffffffffffffffffffffffffff168152602001908152602001600020600084815260200190815260200160002060008201518160000160006101000a81548173ffffffffffffffffffffffffffffffffffffffff021916908373ffffffffffffffffffffffffffffffffffffffff16021790555060208201518160000160146101000a81548160ff02191690831515021790555060408201518160010155606082015181600201559050508273ffffffffffffffffffffffffffffffffffffffff16828b73ffffffffffffffffffffffffffffffffffffffff167f91844be4872bbec71676ddd1d7a85222f6e62f10f70887042e501b0a7a5e28f28c8c8c8c604051808573ffffffffffffffffffffffffffffffffffffffff1673ffffffffffffffffffffffffffffffffffffffff16815260200184815260200183815260200180602001828103825283818151815260200191508051906020019080838360005b83811015611041578082015181840152602081019050611026565b50505050905090810190601f16801561106e5780820380516001836020036101000a031916815260200191505b509550505050505060405180910390a460405180604001604052804381526020018b73ffffffffffffffffffffffffffffffffffffffff168152506000808573ffffffffffffffffffffffffffffffffffffffff1673ffffffffffffffffffffffffffffffffffffffff16815260200190815260200160002060008481526020019081526020016000206000820151816000015560208201518160010160006101000a81548173ffffffffffffffffffffffffffffffffffffffff021916908373ffffffffffffffffffffffffffffffffffffffff1602179055509050508194505050505095945050505050565b6000808473ffffffffffffffffffffffffffffffffffffffff16638da5cb5b6040518163ffffffff1660e01b815260040160206040518083038186803b1580156111a557600080fd5b505afa1580156111b9573d6000803e3d6000fd5b505050506040513d60208110156111cf57600080fd5b810190808051906020019092919050505090508073ffffffffffffffffffffffffffffffffffffffff1663f76488be85876040518363ffffffff1660e01b8152600401808373ffffffffffffffffffffffffffffffffffffffff1673ffffffffffffffffffffffffffffffffffffffff1681526020018273ffffffffffffffffffffffffffffffffffffffff1673ffffffffffffffffffffffffffffffffffffffff1681526020019250505060206040518083038186803b15801561129357600080fd5b505afa1580156112a7573d6000803e3d6000fd5b505050506040513d60208110156112bd57600080fd5b81019080805190602001909291905050506112d757600080fd5b6112df61311e565b600360006112ec88612dcb565b8152602001908152602001600020604051806040016040529081600082015481526020016001820160009054906101000a900473ffffffffffffffffffffffffffffffffffffffff1673ffffffffffffffffffffffffffffffffffffffff1673ffffffffffffffffffffffffffffffffffffffff1681525050905060008160200151905060008173ffffffffffffffffffffffffffffffffffffffff166388737b5e60028060008c73ffffffffffffffffffffffffffffffffffffffff1673ffffffffffffffffffffffffffffffffffffffff16815260200190815260200160002060008b73ffffffffffffffffffffffffffffffffffffffff1673ffffffffffffffffffffffffffffffffffffffff16815260200190815260200160002054338c6040518563ffffffff1660e01b8152600401808581526020018481526020018373ffffffffffffffffffffffffffffffffffffffff1673ffffffffffffffffffffffffffffffffffffffff1681526020018273ffffffffffffffffffffffffffffffffffffffff1673ffffffffffffffffffffffffffffffffffffffff168152602001945050505050602060405180830381600087803b1580156114b157600080fd5b505af11580156114c5573d6000803e3d6000fd5b505050506040513d60208110156114db57600080fd5b810190808051906020019092919050505090506114f6613151565b60405180608001604052808973ffffffffffffffffffffffffffffffffffffffff1681526020016000151581526020016000801b81526020016000801b815250905080600160008b73ffffffffffffffffffffffffffffffffffffffff1673ffffffffffffffffffffffffffffffffffffffff168152602001908152602001600020600084815260200190815260200160002060008201518160000160006101000a81548173ffffffffffffffffffffffffffffffffffffffff021916908373ffffffffffffffffffffffffffffffffffffffff16021790555060208201518160000160146101000a81548160ff02191690831515021790555060408201518160010155606082015181600201559050508273ffffffffffffffffffffffffffffffffffffffff16828a73ffffffffffffffffffffffffffffffffffffffff167f4adc38b95e17c3b3410caa223e957ebc5cfdae71c60f1801e8fd328ca82858138b8b604051808373ffffffffffffffffffffffffffffffffffffffff1673ffffffffffffffffffffffffffffffffffffffff16815260200180602001828103825283818151815260200191508051906020019080838360005b838110156116cb5780820151818401526020810190506116b0565b50505050905090810190601f1680156116f85780820380516001836020036101000a031916815260200191505b50935050505060405180910390a460405180604001604052804381526020018a73ffffffffffffffffffffffffffffffffffffffff168152506000808573ffffffffffffffffffffffffffffffffffffffff1673ffffffffffffffffffffffffffffffffffffffff16815260200190815260200160002060008481526020019081526020016000206000820151816000015560208201518160010160006101000a81548173ffffffffffffffffffffffffffffffffffffffff021916908373ffffffffffffffffffffffffffffffffffffffff16021790555090505081955050505050509392505050565b60006117ed613197565b6000803373ffffffffffffffffffffffffffffffffffffffff1673ffffffffffffffffffffffffffffffffffffffff1681526020019081526020016000206000848152602001908152602001600020604051806040016040529081600082015481526020016001820160009054906101000a900473ffffffffffffffffffffffffffffffffffffffff1673ffffffffffffffffffffffffffffffffffffffff1673ffffffffffffffffffffffffffffffffffffffff16815250509050600073ffffffffffffffffffffffffffffffffffffffff16816020015173ffffffffffffffffffffffffffffffffffffffff1614156118ec576000915050611a38565b806020015173ffffffffffffffffffffffffffffffffffffffff166389ae1c906040518163ffffffff1660e01b815260040160206040518083038186803b15801561193657600080fd5b505afa15801561194a573d6000803e3d6000fd5b505050506040513d602081101561196057600080fd5b810190808051906020019092919050505073ffffffffffffffffffffffffffffffffffffffff16634ee2cd7e8583600001516040518363ffffffff1660e01b8152600401808373ffffffffffffffffffffffffffffffffffffffff1673ffffffffffffffffffffffffffffffffffffffff1681526020018281526020019250505060206040518083038186803b1580156119f957600080fd5b505afa158015611a0d573d6000803e3d6000fd5b505050506040513d6020811015611a2357600080fd5b81019080805190602001909291905050509150505b92915050565b600082600073ffffffffffffffffffffffffffffffffffffffff166000803373ffffffffffffffffffffffffffffffffffffffff1673ffffffffffffffffffffffffffffffffffffffff168152602001908152602001600020600083815260200190815260200160002060010160009054906101000a900473ffffffffffffffffffffffffffffffffffffffff1673ffffffffffffffffffffffffffffffffffffffff161415611b56576040517f08c379a00000000000000000000000000000000000000000000000000000000081526004018080602001828103825260128152602001807f6f6e6c7920566f74696e674d616368696e65000000000000000000000000000081525060200191505060405180910390fd5b60008060003373ffffffffffffffffffffffffffffffffffffffff1673ffffffffffffffffffffffffffffffffffffffff168152602001908152602001600020600086815260200190815260200160002060010160009054906101000a900473ffffffffffffffffffffffffffffffffffffffff169050600060019050611bdb613151565b600160008473ffffffffffffffffffffffffffffffffffffffff1673ffffffffffffffffffffffffffffffffffffffff16815260200190815260200160002060008881526020019081526020016000206040518060800160405290816000820160009054906101000a900473ffffffffffffffffffffffffffffffffffffffff1673ffffffffffffffffffffffffffffffffffffffff1673ffffffffffffffffffffffffffffffffffffffff1681526020016000820160149054906101000a900460ff16151515158152602001600182015481526020016002820154815250509050600073ffffffffffffffffffffffffffffffffffffffff16816000015173ffffffffffffffffffffffffffffffffffffffff161415611cfb57600080fd5b600160008473ffffffffffffffffffffffffffffffffffffffff1673ffffffffffffffffffffffffffffffffffffffff1681526020019081526020016000206000888152602001908152602001600020600080820160006101000a81549073ffffffffffffffffffffffffffffffffffffffff02191690556000820160146101000a81549060ff0219169055600182016000905560028201600090555050868373ffffffffffffffffffffffffffffffffffffffff167f6bc0cb9e9967b59a69ace442598e1df4368d38661bd5c0800fbcbc9fe855fbbe60405160405180910390a360018614156120ff5760008373ffffffffffffffffffffffffffffffffffffffff16638da5cb5b6040518163ffffffff1660e01b815260040160206040518083038186803b158015611e2e57600080fd5b505afa158015611e42573d6000803e3d6000fd5b505050506040513d6020811015611e5857600080fd5b81019080805190602001909291905050509050816020015115611fff578073ffffffffffffffffffffffffffffffffffffffff1663e4537a7483600001518460400151876040518463ffffffff1660e01b8152600401808473ffffffffffffffffffffffffffffffffffffffff1673ffffffffffffffffffffffffffffffffffffffff1681526020018381526020018273ffffffffffffffffffffffffffffffffffffffff1673ffffffffffffffffffffffffffffffffffffffff1681526020019350505050602060405180830381600087803b158015611f3857600080fd5b505af1158015611f4c573d6000803e3d6000fd5b505050506040513d6020811015611f6257600080fd5b810190808051906020019092919050505092508160600151600260008673ffffffffffffffffffffffffffffffffffffffff1673ffffffffffffffffffffffffffffffffffffffff1681526020019081526020016000206000846000015173ffffffffffffffffffffffffffffffffffffffff1673ffffffffffffffffffffffffffffffffffffffff168152602001908152602001600020819055505b81602001516120fd578073ffffffffffffffffffffffffffffffffffffffff16634f52b5be8360000151866040518363ffffffff1660e01b8152600401808373ffffffffffffffffffffffffffffffffffffffff1673ffffffffffffffffffffffffffffffffffffffff1681526020018273ffffffffffffffffffffffffffffffffffffffff1673ffffffffffffffffffffffffffffffffffffffff16815260200192505050602060405180830381600087803b1580156120bf57600080fd5b505af11580156120d3573d6000803e3d6000fd5b505050506040513d60208110156120e957600080fd5b810190808051906020019092919050505092505b505b868373ffffffffffffffffffffffffffffffffffffffff167fd2632e80f5364f02aded1c64e8a04637b7c8bb9c2db2bedf4b6ac47c013acbc0886040518082815260200191505060405180910390a38194505050505092915050565b6002602052816000526040600020602052806000526040600020600091509150505481565b600061218a613197565b6000803373ffffffffffffffffffffffffffffffffffffffff1673ffffffffffffffffffffffffffffffffffffffff1681526020019081526020016000206000848152602001908152602001600020604051806040016040529081600082015481526020016001820160009054906101000a900473ffffffffffffffffffffffffffffffffffffffff1673ffffffffffffffffffffffffffffffffffffffff1673ffffffffffffffffffffffffffffffffffffffff16815250509050600073ffffffffffffffffffffffffffffffffffffffff16816020015173ffffffffffffffffffffffffffffffffffffffff1614156122895760009150506123a1565b806020015173ffffffffffffffffffffffffffffffffffffffff166389ae1c906040518163ffffffff1660e01b815260040160206040518083038186803b1580156122d357600080fd5b505afa1580156122e7573d6000803e3d6000fd5b505050506040513d60208110156122fd57600080fd5b810190808051906020019092919050505073ffffffffffffffffffffffffffffffffffffffff1663981b24d082600001516040518263ffffffff1660e01b81526004018082815260200191505060206040518083038186803b15801561236257600080fd5b505afa158015612376573d6000803e3d6000fd5b505050506040513d602081101561238c57600080fd5b81019080805190602001909291905050509150505b919050565b600081600073ffffffffffffffffffffffffffffffffffffffff166000803373ffffffffffffffffffffffffffffffffffffffff1673ffffffffffffffffffffffffffffffffffffffff168152602001908152602001600020600083815260200190815260200160002060010160009054906101000a900473ffffffffffffffffffffffffffffffffffffffff1673ffffffffffffffffffffffffffffffffffffffff1614156124be576040517f08c379a00000000000000000000000000000000000000000000000000000000081526004018080602001828103825260128152602001807f6f6e6c7920566f74696e674d616368696e65000000000000000000000000000081525060200191505060405180910390fd5b60008060003373ffffffffffffffffffffffffffffffffffffffff1673ffffffffffffffffffffffffffffffffffffffff168152602001908152602001600020600085815260200190815260200160002060010160009054906101000a900473ffffffffffffffffffffffffffffffffffffffff169050600073ffffffffffffffffffffffffffffffffffffffff168173ffffffffffffffffffffffffffffffffffffffff161415612574576000925050612722565b8073ffffffffffffffffffffffffffffffffffffffff16638da5cb5b6040518163ffffffff1660e01b815260040160206040518083038186803b1580156125ba57600080fd5b505afa1580156125ce573d6000803e3d6000fd5b505050506040513d60208110156125e457600080fd5b810190808051906020019092919050505073ffffffffffffffffffffffffffffffffffffffff1663b9a04cdd888888856040518563ffffffff1660e01b8152600401808573ffffffffffffffffffffffffffffffffffffffff1673ffffffffffffffffffffffffffffffffffffffff1681526020018473ffffffffffffffffffffffffffffffffffffffff1673ffffffffffffffffffffffffffffffffffffffff1681526020018381526020018273ffffffffffffffffffffffffffffffffffffffff1673ffffffffffffffffffffffffffffffffffffffff168152602001945050505050602060405180830381600087803b1580156126e357600080fd5b505af11580156126f7573d6000803e3d6000fd5b505050506040513d602081101561270d57600080fd5b81019080805190602001909291905050509250505b50949350505050565b600081600073ffffffffffffffffffffffffffffffffffffffff166000803373ffffffffffffffffffffffffffffffffffffffff1673ffffffffffffffffffffffffffffffffffffffff168152602001908152602001600020600083815260200190815260200160002060010160009054906101000a900473ffffffffffffffffffffffffffffffffffffffff1673ffffffffffffffffffffffffffffffffffffffff161415612843576040517f08c379a00000000000000000000000000000000000000000000000000000000081526004018080602001828103825260128152602001807f6f6e6c7920566f74696e674d616368696e65000000000000000000000000000081525060200191505060405180910390fd5b60008060003373ffffffffffffffffffffffffffffffffffffffff1673ffffffffffffffffffffffffffffffffffffffff168152602001908152602001600020600085815260200190815260200160002060010160009054906101000a900473ffffffffffffffffffffffffffffffffffffffff169050600073ffffffffffffffffffffffffffffffffffffffff168173ffffffffffffffffffffffffffffffffffffffff1614156128f9576000925050612a73565b8073ffffffffffffffffffffffffffffffffffffffff16638da5cb5b6040518163ffffffff1660e01b815260040160206040518083038186803b15801561293f57600080fd5b505afa158015612953573d6000803e3d6000fd5b505050506040513d602081101561296957600080fd5b810190808051906020019092919050505073ffffffffffffffffffffffffffffffffffffffff1663eaf994b28787846040518463ffffffff1660e01b8152600401808481526020018373ffffffffffffffffffffffffffffffffffffffff1673ffffffffffffffffffffffffffffffffffffffff1681526020018273ffffffffffffffffffffffffffffffffffffffff1673ffffffffffffffffffffffffffffffffffffffff1681526020019350505050602060405180830381600087803b158015612a3457600080fd5b505af1158015612a48573d6000803e3d6000fd5b505050506040513d6020811015612a5e57600080fd5b81019080805190602001909291905050509250505b509392505050565b600081600073ffffffffffffffffffffffffffffffffffffffff166000803373ffffffffffffffffffffffffffffffffffffffff1673ffffffffffffffffffffffffffffffffffffffff168152602001908152602001600020600083815260200190815260200160002060010160009054906101000a900473ffffffffffffffffffffffffffffffffffffffff1673ffffffffffffffffffffffffffffffffffffffff161415612b93576040517f08c379a00000000000000000000000000000000000000000000000000000000081526004018080602001828103825260128152602001807f6f6e6c7920566f74696e674d616368696e65000000000000000000000000000081525060200191505060405180910390fd5b60008060003373ffffffffffffffffffffffffffffffffffffffff1673ffffffffffffffffffffffffffffffffffffffff168152602001908152602001600020600085815260200190815260200160002060010160009054906101000a900473ffffffffffffffffffffffffffffffffffffffff169050600073ffffffffffffffffffffffffffffffffffffffff168173ffffffffffffffffffffffffffffffffffffffff161415612c49576000925050612dc3565b8073ffffffffffffffffffffffffffffffffffffffff16638da5cb5b6040518163ffffffff1660e01b815260040160206040518083038186803b158015612c8f57600080fd5b505afa158015612ca3573d6000803e3d6000fd5b505050506040513d6020811015612cb957600080fd5b810190808051906020019092919050505073ffffffffffffffffffffffffffffffffffffffff16636e94d2788787846040518463ffffffff1660e01b8152600401808481526020018373ffffffffffffffffffffffffffffffffffffffff1673ffffffffffffffffffffffffffffffffffffffff1681526020018273ffffffffffffffffffffffffffffffffffffffff1673ffffffffffffffffffffffffffffffffffffffff1681526020019350505050602060405180830381600087803b158015612d8457600080fd5b505af1158015612d98573d6000803e3d6000fd5b505050506040513d6020811015612dae57600080fd5b81019080805190602001909291905050509250505b509392505050565b60008173ffffffffffffffffffffffffffffffffffffffff16638da5cb5b6040518163ffffffff1660e01b815260040160206040518083038186803b158015612e1357600080fd5b505afa158015612e27573d6000803e3d6000fd5b505050506040513d6020811015612e3d57600080fd5b810190808051906020019092919050505073ffffffffffffffffffffffffffffffffffffffff16639be2faed30846040518363ffffffff1660e01b8152600401808373ffffffffffffffffffffffffffffffffffffffff1673ffffffffffffffffffffffffffffffffffffffff1681526020018273ffffffffffffffffffffffffffffffffffffffff1673ffffffffffffffffffffffffffffffffffffffff1681526020019250505060206040518083038186803b158015612efe57600080fd5b505afa158015612f12573d6000803e3d6000fd5b505050506040513d6020811015612f2857600080fd5b8101908080519060200190929190505050612fab576040517f08c379a00000000000000000000000000000000000000000000000000000000081526004018080602001828103825260188152602001807f736368656d65206973206e6f742072656769737465726564000000000000000081525060200191505060405180910390fd5b8173ffffffffffffffffffffffffffffffffffffffff16638da5cb5b6040518163ffffffff1660e01b815260040160206040518083038186803b158015612ff157600080fd5b505afa158015613005573d6000803e3d6000fd5b505050506040513d602081101561301b57600080fd5b810190808051906020019092919050505073ffffffffffffffffffffffffffffffffffffffff16631c4d560830846040518363ffffffff1660e01b8152600401808373ffffffffffffffffffffffffffffffffffffffff1673ffffffffffffffffffffffffffffffffffffffff1681526020018273ffffffffffffffffffffffffffffffffffffffff1673ffffffffffffffffffffffffffffffffffffffff1681526020019250505060206040518083038186803b1580156130dc57600080fd5b505afa1580156130f0573d6000803e3d6000fd5b505050506040513d602081101561310657600080fd5b81019080805190602001909291905050509050919050565b604051806040016040528060008019168152602001600073ffffffffffffffffffffffffffffffffffffffff1681525090565b6040518060800160405280600073ffffffffffffffffffffffffffffffffffffffff16815260200160001515815260200160008019168152602001600080191681525090565b604051806040016040528060008152602001600073ffffffffffffffffffffffffffffffffffffffff168152509056fea165627a7a72305820f580d6e5d9bf6b0f05673c8cb9b414d968cbf5ab905bd7769f07f3b7ab56942d0029",
  "source": "pragma solidity ^0.5.4;\n\nimport \"../../Voting-Machine/contracts/VotingMachine/IntVoteInterface.sol\";\nimport \"../../Voting-Machine/contracts/VotingMachine/VotingMachineCallbacksInterface.sol\";\nimport \"./UniversalScheme.sol\";\nimport \"../../Voting-Machine/contracts/VotingMachine/VotingMachineCallbacks.sol\";\n\n\n\n/**\n * @title A scheme to manage global constraint for organizations\n * @dev The scheme is used to register or remove new global constraints\n */\ncontract GlobalConstraintRegistrar is UniversalScheme, VotingMachineCallbacks, ProposalExecuteInterface {\n    event NewGlobalConstraintsProposal(\n        address indexed _avatar,\n        bytes32 indexed _proposalId,\n        address indexed _intVoteInterface,\n        address _gc,\n        bytes32 _params,\n        bytes32 _voteToRemoveParams,\n        string _descriptionHash\n    );\n\n    event RemoveGlobalConstraintsProposal(\n        address indexed _avatar,\n        bytes32 indexed _proposalId,\n        address indexed _intVoteInterface,\n        address _gc,\n        string _descriptionHash\n    );\n\n    event ProposalExecuted(address indexed _avatar, bytes32 indexed _proposalId, int256 _param);\n    event ProposalDeleted(address indexed _avatar, bytes32 indexed _proposalId);\n\n    // The struct that holds the information of a global constraint proposed to be added or removed.\n    struct GCProposal {\n        address gc; // The address of the global constraint contract.\n        bool addGC; // true: add a GC, false: remove a GC.\n        bytes32 params; // Parameters for global constraint.\n        bytes32 voteToRemoveParams; // Voting parameters for removing this GC.\n    }\n\n    // GCProposal by avatar and proposalId\n    mapping(address=>mapping(bytes32=>GCProposal)) public organizationsProposals;\n\n    // voteToRemoveParams hash by avatar and proposal.gc\n    mapping(address=>mapping(address=>bytes32)) public voteToRemoveParams;\n\n    // A mapping from hashes to parameters (use to store a particular configuration on the controller)\n    struct Parameters {\n        bytes32 voteRegisterParams;\n        IntVoteInterface intVote;\n    }\n\n    mapping(bytes32=>Parameters) public parameters;\n\n    /**\n    * @dev execution of proposals, can only be called by the voting machine in which the vote is held.\n    * @param _proposalId the ID of the voting in the voting machine\n    * @param _param a parameter of the voting result, 1 yes and 2 is no.\n    * @return bool which represents a successful of the function.\n    */\n    function executeProposal(bytes32 _proposalId, int256 _param) external onlyVotingMachine(_proposalId) returns(bool) {\n        Avatar avatar = proposalsInfo[msg.sender][_proposalId].avatar;\n        bool retVal = true;\n        // Check if vote was successful:\n        GCProposal memory proposal = organizationsProposals[address(avatar)][_proposalId];\n        require(proposal.gc != address(0));\n        delete organizationsProposals[address(avatar)][_proposalId];\n        emit ProposalDeleted(address(avatar), _proposalId);\n\n        if (_param == 1) {\n\n        // Define controller and get the params:\n            ControllerInterface controller = ControllerInterface(avatar.owner());\n\n        // Adding a GC\n            if (proposal.addGC) {\n                retVal = controller.addGlobalConstraint(proposal.gc, proposal.params, address(avatar));\n                voteToRemoveParams[address(avatar)][proposal.gc] = proposal.voteToRemoveParams;\n            }\n        // Removing a GC\n            if (!proposal.addGC) {\n                retVal = controller.removeGlobalConstraint(proposal.gc, address(avatar));\n            }\n        }\n        emit ProposalExecuted(address(avatar), _proposalId, _param);\n        return retVal;\n    }\n\n    /**\n    * @dev Hash the parameters, save them if necessary, and return the hash value\n    * @param _voteRegisterParams -  voting parameters for register global constraint\n    * @param _intVote  - voting machine contract.\n    * @return bytes32 -the parameters hash\n    */\n    function setParameters(\n        bytes32 _voteRegisterParams,\n        IntVoteInterface _intVote\n    ) public returns(bytes32)\n    {\n        bytes32 paramsHash = getParametersHash(_voteRegisterParams, _intVote);\n        parameters[paramsHash].voteRegisterParams = _voteRegisterParams;\n        parameters[paramsHash].intVote = _intVote;\n        return paramsHash;\n    }\n\n    /**\n    * @dev Hash the parameters and return the hash value\n    * @param _voteRegisterParams -  voting parameters\n    * @param _intVote  - voting machine contract.\n    * @return bytes32 -the parameters hash\n    */\n    function getParametersHash(\n        bytes32 _voteRegisterParams,\n        IntVoteInterface _intVote\n    ) public pure returns(bytes32)\n    {\n        return (keccak256(abi.encodePacked(_voteRegisterParams, _intVote)));\n    }\n\n    /**\n    * @dev propose to add a new global constraint:\n    * @param _avatar the avatar of the organization that the constraint is proposed for\n    * @param _gc the address of the global constraint that is being proposed\n    * @param _params the parameters for the global constraint\n    * @param _voteToRemoveParams the conditions (on the voting machine) for removing this global constraint\n    * @param _descriptionHash proposal's description hash\n    * @return bytes32 -the proposal id\n    */\n    // TODO: do some checks on _voteToRemoveParams - it is very easy to make a mistake and not be able to remove the GC\n    function proposeGlobalConstraint(\n    Avatar _avatar,\n    address _gc,\n    bytes32 _params,\n    bytes32 _voteToRemoveParams,\n    string memory _descriptionHash)\n    public\n    returns(bytes32)\n    {\n        Parameters memory votingParams = parameters[getParametersFromController(_avatar)];\n\n        IntVoteInterface intVote = votingParams.intVote;\n        bytes32 proposalId = intVote.propose(2, votingParams.voteRegisterParams, msg.sender, address(_avatar));\n\n        GCProposal memory proposal = GCProposal({\n            gc: _gc,\n            params: _params,\n            addGC: true,\n            voteToRemoveParams: _voteToRemoveParams\n        });\n\n        organizationsProposals[address(_avatar)][proposalId] = proposal;\n        emit NewGlobalConstraintsProposal(\n            address(_avatar),\n            proposalId,\n            address(intVote),\n            _gc,\n            _params,\n            _voteToRemoveParams,\n            _descriptionHash\n        );\n        proposalsInfo[address(intVote)][proposalId] = ProposalInfo({\n            blockNumber:block.number,\n            avatar:_avatar\n        });\n        return proposalId;\n    }\n\n    /**\n    * @dev propose to remove a global constraint:\n    * @param _avatar the avatar of the organization that the constraint is proposed for\n    * @param _gc the address of the global constraint that is being proposed\n    * @param _descriptionHash proposal's description hash\n    * @return bytes32 -the proposal id\n    */\n    function proposeToRemoveGC(Avatar _avatar, address _gc, string memory _descriptionHash) public returns(bytes32) {\n        ControllerInterface controller = ControllerInterface(_avatar.owner());\n        require(controller.isGlobalConstraintRegistered(_gc, address(_avatar)));\n        Parameters memory params = parameters[getParametersFromController(_avatar)];\n        IntVoteInterface intVote = params.intVote;\n        bytes32 proposalId = intVote.propose(\n        2,\n        voteToRemoveParams[address(_avatar)][_gc],\n        msg.sender,\n        address(_avatar)\n        );\n\n        GCProposal memory proposal = GCProposal({\n            gc: _gc,\n            params: 0,\n            addGC: false,\n            voteToRemoveParams: 0\n        });\n\n        organizationsProposals[address(_avatar)][proposalId] = proposal;\n        emit RemoveGlobalConstraintsProposal(address(_avatar), proposalId, address(intVote), _gc, _descriptionHash);\n        proposalsInfo[address(intVote)][proposalId] = ProposalInfo({\n            blockNumber: block.number,\n            avatar: _avatar\n        });\n        return proposalId;\n    }\n}",
  "sourcePath": "C:/Users/Subhan/Desktop/github/betterbrooklyndao/UniversalSchemes/contracts/GlobalConstraintRegistrar.sol",
  "compiler": {
    "name": "solc",
    "version": "0.5.8+commit.23d335f2.Emscripten.clang"
  },
  "schemaVersion": "3.0.11",
  "updatedAt": "2019-07-17T22:56:37.011Z",
  "devdoc": {
    "details": "The scheme is used to register or remove new global constraints",
    "methods": {
      "executeProposal(bytes32,int256)": {
        "details": "execution of proposals, can only be called by the voting machine in which the vote is held.",
        "params": {
          "_param": "a parameter of the voting result, 1 yes and 2 is no.",
          "_proposalId": "the ID of the voting in the voting machine"
        },
        "return": "bool which represents a successful of the function."
      },
      "getParametersHash(bytes32,address)": {
        "details": "Hash the parameters and return the hash value",
        "params": {
          "_intVote": "- voting machine contract.",
          "_voteRegisterParams": "-  voting parameters"
        },
        "return": "bytes32 -the parameters hash"
      },
      "proposeGlobalConstraint(address,address,bytes32,bytes32,string)": {
        "details": "propose to add a new global constraint:",
        "params": {
          "_avatar": "the avatar of the organization that the constraint is proposed for",
          "_descriptionHash": "proposal's description hash",
          "_gc": "the address of the global constraint that is being proposed",
          "_params": "the parameters for the global constraint",
          "_voteToRemoveParams": "the conditions (on the voting machine) for removing this global constraint"
        },
        "return": "bytes32 -the proposal id"
      },
      "proposeToRemoveGC(address,address,string)": {
        "details": "propose to remove a global constraint:",
        "params": {
          "_avatar": "the avatar of the organization that the constraint is proposed for",
          "_descriptionHash": "proposal's description hash",
          "_gc": "the address of the global constraint that is being proposed"
        },
        "return": "bytes32 -the proposal id"
      },
      "setParameters(bytes32,address)": {
        "details": "Hash the parameters, save them if necessary, and return the hash value",
        "params": {
          "_intVote": "- voting machine contract.",
          "_voteRegisterParams": "-  voting parameters for register global constraint"
        },
        "return": "bytes32 -the parameters hash"
      }
    },
    "title": "A scheme to manage global constraint for organizations"
  },
  "userdoc": {
    "methods": {}
  }
}