{
  "contractName": "OrganizationRegister",
  "abi": [
    {
      "constant": true,
      "inputs": [
        {
          "name": "",
          "type": "bytes32"
        }
      ],
      "name": "parameters",
      "outputs": [
        {
          "name": "fee",
          "type": "uint256"
        },
        {
          "name": "token",
          "type": "address"
        },
        {
          "name": "beneficiary",
          "type": "address"
        }
      ],
      "payable": false,
      "stateMutability": "view",
      "type": "function"
    },
    {
      "constant": true,
      "inputs": [
        {
          "name": "",
          "type": "address"
        },
        {
          "name": "",
          "type": "address"
        }
      ],
      "name": "organizationsRegistry",
      "outputs": [
        {
          "name": "",
          "type": "uint256"
        }
      ],
      "payable": false,
      "stateMutability": "view",
      "type": "function"
    },
    {
      "anonymous": false,
      "inputs": [
        {
          "indexed": true,
          "name": "_registry",
          "type": "address"
        },
        {
          "indexed": true,
          "name": "_org",
          "type": "address"
        }
      ],
      "name": "OrgAdded",
      "type": "event"
    },
    {
      "anonymous": false,
      "inputs": [
        {
          "indexed": true,
          "name": "_registry",
          "type": "address"
        },
        {
          "indexed": true,
          "name": "_org",
          "type": "address"
        },
        {
          "indexed": false,
          "name": "_amount",
          "type": "uint256"
        }
      ],
      "name": "Promotion",
      "type": "event"
    },
    {
      "constant": false,
      "inputs": [
        {
          "name": "_token",
          "type": "address"
        },
        {
          "name": "_fee",
          "type": "uint256"
        },
        {
          "name": "_beneficiary",
          "type": "address"
        }
      ],
      "name": "setParameters",
      "outputs": [
        {
          "name": "",
          "type": "bytes32"
        }
      ],
      "payable": false,
      "stateMutability": "nonpayable",
      "type": "function"
    },
    {
      "constant": true,
      "inputs": [
        {
          "name": "_token",
          "type": "address"
        },
        {
          "name": "_fee",
          "type": "uint256"
        },
        {
          "name": "_beneficiary",
          "type": "address"
        }
      ],
      "name": "getParametersHash",
      "outputs": [
        {
          "name": "",
          "type": "bytes32"
        }
      ],
      "payable": false,
      "stateMutability": "pure",
      "type": "function"
    },
    {
      "constant": false,
      "inputs": [
        {
          "name": "_avatar",
          "type": "address"
        },
        {
          "name": "_record",
          "type": "address"
        },
        {
          "name": "_amount",
          "type": "uint256"
        }
      ],
      "name": "addOrPromoteAddress",
      "outputs": [],
      "payable": false,
      "stateMutability": "nonpayable",
      "type": "function"
    }
  ],
  "bytecode": "0x608060405234801561001057600080fd5b50611083806100206000396000f3fe608060405234801561001057600080fd5b50600436106100575760003560e01c8063025068041461005c578063197275f11461010457806343cfe6b2146101725780638fd631af146101ea57806399cc9e731461026c575b600080fd5b6100886004803603602081101561007257600080fd5b81019080803590602001909291905050506102ee565b604051808481526020018373ffffffffffffffffffffffffffffffffffffffff1673ffffffffffffffffffffffffffffffffffffffff1681526020018273ffffffffffffffffffffffffffffffffffffffff1673ffffffffffffffffffffffffffffffffffffffff168152602001935050505060405180910390f35b6101706004803603606081101561011a57600080fd5b81019080803573ffffffffffffffffffffffffffffffffffffffff169060200190929190803573ffffffffffffffffffffffffffffffffffffffff16906020019092919080359060200190929190505050610358565b005b6101d46004803603604081101561018857600080fd5b81019080803573ffffffffffffffffffffffffffffffffffffffff169060200190929190803573ffffffffffffffffffffffffffffffffffffffff169060200190929190505050610761565b6040518082815260200191505060405180910390f35b6102566004803603606081101561020057600080fd5b81019080803573ffffffffffffffffffffffffffffffffffffffff16906020019092919080359060200190929190803573ffffffffffffffffffffffffffffffffffffffff169060200190929190505050610786565b6040518082815260200191505060405180910390f35b6102d86004803603606081101561028257600080fd5b81019080803573ffffffffffffffffffffffffffffffffffffffff16906020019092919080359060200190929190803573ffffffffffffffffffffffffffffffffffffffff1690602001909291905050506108d2565b6040518082815260200191505060405180910390f35b60016020528060005260406000206000915090508060000154908060010160009054906101000a900473ffffffffffffffffffffffffffffffffffffffff16908060020160009054906101000a900473ffffffffffffffffffffffffffffffffffffffff16905083565b610360610fe5565b6001600061036d86610972565b8152602001908152602001600020604051806060016040529081600082015481526020016001820160009054906101000a900473ffffffffffffffffffffffffffffffffffffffff1673ffffffffffffffffffffffffffffffffffffffff1673ffffffffffffffffffffffffffffffffffffffff1681526020016002820160009054906101000a900473ffffffffffffffffffffffffffffffffffffffff1673ffffffffffffffffffffffffffffffffffffffff1673ffffffffffffffffffffffffffffffffffffffff1681525050905060008060008673ffffffffffffffffffffffffffffffffffffffff1673ffffffffffffffffffffffffffffffffffffffff16815260200190815260200160002060008573ffffffffffffffffffffffffffffffffffffffff1673ffffffffffffffffffffffffffffffffffffffff1681526020019081526020016000205411806104cc575080600001518210155b6104d557600080fd5b61050a33826040015184846020015173ffffffffffffffffffffffffffffffffffffffff16610cc5909392919063ffffffff16565b60008060008673ffffffffffffffffffffffffffffffffffffffff1673ffffffffffffffffffffffffffffffffffffffff16815260200190815260200160002060008573ffffffffffffffffffffffffffffffffffffffff1673ffffffffffffffffffffffffffffffffffffffff1681526020019081526020016000205414156105e9578273ffffffffffffffffffffffffffffffffffffffff168473ffffffffffffffffffffffffffffffffffffffff167fbb755c25de622371a070056e89daca3dffb2591e14bfeaf5a22a5ff538f6430460405160405180910390a35b610677826000808773ffffffffffffffffffffffffffffffffffffffff1673ffffffffffffffffffffffffffffffffffffffff16815260200190815260200160002060008673ffffffffffffffffffffffffffffffffffffffff1673ffffffffffffffffffffffffffffffffffffffff16815260200190815260200160002054610f1290919063ffffffff16565b6000808673ffffffffffffffffffffffffffffffffffffffff1673ffffffffffffffffffffffffffffffffffffffff16815260200190815260200160002060008573ffffffffffffffffffffffffffffffffffffffff1673ffffffffffffffffffffffffffffffffffffffff168152602001908152602001600020819055508273ffffffffffffffffffffffffffffffffffffffff168473ffffffffffffffffffffffffffffffffffffffff167fbd26cf001a8e3be5dc9ac9f95c5e8fef2258c1ded9c61814e107db3ce9bbf2ca846040518082815260200191505060405180910390a350505050565b6000602052816000526040600020602052806000526040600020600091509150505481565b6000806107948585856108d2565b9050600073ffffffffffffffffffffffffffffffffffffffff166001600083815260200190815260200160002060010160009054906101000a900473ffffffffffffffffffffffffffffffffffffffff1673ffffffffffffffffffffffffffffffffffffffff1614156108c757846001600083815260200190815260200160002060010160006101000a81548173ffffffffffffffffffffffffffffffffffffffff021916908373ffffffffffffffffffffffffffffffffffffffff160217905550836001600083815260200190815260200160002060000181905550826001600083815260200190815260200160002060020160006101000a81548173ffffffffffffffffffffffffffffffffffffffff021916908373ffffffffffffffffffffffffffffffffffffffff1602179055505b809150509392505050565b6000838383604051602001808473ffffffffffffffffffffffffffffffffffffffff1673ffffffffffffffffffffffffffffffffffffffff1660601b81526014018381526020018273ffffffffffffffffffffffffffffffffffffffff1673ffffffffffffffffffffffffffffffffffffffff1660601b815260140193505050506040516020818303038152906040528051906020012090509392505050565b60008173ffffffffffffffffffffffffffffffffffffffff16638da5cb5b6040518163ffffffff1660e01b815260040160206040518083038186803b1580156109ba57600080fd5b505afa1580156109ce573d6000803e3d6000fd5b505050506040513d60208110156109e457600080fd5b810190808051906020019092919050505073ffffffffffffffffffffffffffffffffffffffff16639be2faed30846040518363ffffffff1660e01b8152600401808373ffffffffffffffffffffffffffffffffffffffff1673ffffffffffffffffffffffffffffffffffffffff1681526020018273ffffffffffffffffffffffffffffffffffffffff1673ffffffffffffffffffffffffffffffffffffffff1681526020019250505060206040518083038186803b158015610aa557600080fd5b505afa158015610ab9573d6000803e3d6000fd5b505050506040513d6020811015610acf57600080fd5b8101908080519060200190929190505050610b52576040517f08c379a00000000000000000000000000000000000000000000000000000000081526004018080602001828103825260188152602001807f736368656d65206973206e6f742072656769737465726564000000000000000081525060200191505060405180910390fd5b8173ffffffffffffffffffffffffffffffffffffffff16638da5cb5b6040518163ffffffff1660e01b815260040160206040518083038186803b158015610b9857600080fd5b505afa158015610bac573d6000803e3d6000fd5b505050506040513d6020811015610bc257600080fd5b810190808051906020019092919050505073ffffffffffffffffffffffffffffffffffffffff16631c4d560830846040518363ffffffff1660e01b8152600401808373ffffffffffffffffffffffffffffffffffffffff1673ffffffffffffffffffffffffffffffffffffffff1681526020018273ffffffffffffffffffffffffffffffffffffffff1673ffffffffffffffffffffffffffffffffffffffff1681526020019250505060206040518083038186803b158015610c8357600080fd5b505afa158015610c97573d6000803e3d6000fd5b505050506040513d6020811015610cad57600080fd5b81019080805190602001909291905050509050919050565b610ce48473ffffffffffffffffffffffffffffffffffffffff16610f9a565b610ced57600080fd5b600060608573ffffffffffffffffffffffffffffffffffffffff166040518060600160405280602581526020016110336025913980519060200120868686604051602401808473ffffffffffffffffffffffffffffffffffffffff1673ffffffffffffffffffffffffffffffffffffffff1681526020018373ffffffffffffffffffffffffffffffffffffffff1673ffffffffffffffffffffffffffffffffffffffff1681526020018281526020019350505050604051602081830303815290604052907bffffffffffffffffffffffffffffffffffffffffffffffffffffffff19166020820180517bffffffffffffffffffffffffffffffffffffffffffffffffffffffff83818316178352505050506040518082805190602001908083835b60208310610e315780518252602082019150602081019050602083039250610e0e565b6001836020036101000a0380198251168184511680821785525050505050509050019150506000604051808303816000865af19150503d8060008114610e93576040519150601f19603f3d011682016040523d82523d6000602084013e610e98565b606091505b509150915081610ea757600080fd5b600081511480610f01575060208151148015610f005750600060f81b81601f81518110610ed057fe5b602001015160f81c60f81b7effffffffffffffffffffffffffffffffffffffffffffffffffffffffffffff191614155b5b610f0a57600080fd5b505050505050565b600080828401905083811015610f90576040517f08c379a000000000000000000000000000000000000000000000000000000000815260040180806020018281038252601b8152602001807f536166654d6174683a206164646974696f6e206f766572666c6f77000000000081525060200191505060405180910390fd5b8091505092915050565b60008060007fc5d2460186f7233c927e7db2dcc703c0e500b653ca82273b7bfad8045d85a47060001b9050833f91506000801b8214158015610fdc5750808214155b92505050919050565b604051806060016040528060008152602001600073ffffffffffffffffffffffffffffffffffffffff168152602001600073ffffffffffffffffffffffffffffffffffffffff168152509056fe7472616e7366657246726f6d28616464726573732c616464726573732c75696e7432353629a165627a7a7230582037a58d5b0ba5c64a903e22b18a0635b8ec1dbb988854ac85106894a2c28c72130029",
  "source": "pragma solidity ^0.5.4;\n\nimport \"./UniversalScheme.sol\";\nimport \"../../Controller/contracts/SafeERC20.sol\";\n\n/**\n * @title A universal organization registry.\n * @dev Organizations can use this scheme to open a registry.\n * Other organizations can then add and promote themselves on this registry.\n */\n\ncontract OrganizationRegister is UniversalScheme {\n    using SafeMath for uint;\n    using SafeERC20 for address;\n\n    struct Parameters {\n        uint256 fee;\n        IERC20 token;\n        address beneficiary;\n    }\n\n    // A mapping from the organization (Avatar) address to the saved data of the organization:\n    mapping(address=>mapping(address=>uint)) public organizationsRegistry;\n\n    mapping(bytes32=>Parameters) public parameters;\n\n    event OrgAdded( address indexed _registry, address indexed _org);\n    event Promotion( address indexed _registry, address indexed _org, uint256 _amount);\n\n    /**\n    * @dev Hash the parameters, save if needed and return the hash value\n    * @param _token -  the token to pay for register or promotion an address.\n    * @param _fee  - fee needed for register an address.\n    * @param _beneficiary  - the beneficiary payment address\n    * @return bytes32 -the parameters hash\n    */\n    function setParameters(IERC20 _token, uint256 _fee, address _beneficiary) public returns(bytes32) {\n        bytes32 paramsHash = getParametersHash(_token, _fee, _beneficiary);\n        if (parameters[paramsHash].token == ERC20(0)) {\n            parameters[paramsHash].token = _token;\n            parameters[paramsHash].fee = _fee;\n            parameters[paramsHash].beneficiary = _beneficiary;\n        }\n        return paramsHash;\n    }\n\n    /**\n    * @dev Hash the parameters ,and return the hash value\n    * @param _token -  the token to pay for register or promotion an address.\n    * @param _fee  - fee needed for register an address.\n    * @param _beneficiary  - the beneficiary payment address\n    * @return bytes32 -the parameters hash\n    */\n    function getParametersHash(IERC20 _token, uint256 _fee, address _beneficiary)\n    public pure returns(bytes32)\n    {\n        return (keccak256(abi.encodePacked(_token, _fee, _beneficiary)));\n    }\n\n    /**\n     * @dev Adding or promoting an address on the registry.\n     *      An address(record) to add or promote can be organization address or any contract address.\n     *      Adding a record is done by paying at least the minimum required by the registry params.\n     *      Promoting a record is done by paying(adding)amount of token to the registry beneficiary.\n     * @param _avatar The _avatar of the organization which own the registry.\n     * @param _record The address to add or promote.\n     * @param _amount amount to pay for adding or promoting\n     */\n    function addOrPromoteAddress(Avatar _avatar, address _record, uint256 _amount)\n    public\n    {\n        Parameters memory params = parameters[getParametersFromController(_avatar)];\n        // Pay promotion, if the org was not listed the minimum is the fee:\n        require((organizationsRegistry[address(_avatar)][_record] > 0) || (_amount >= params.fee));\n\n        address(params.token).safeTransferFrom(msg.sender, params.beneficiary, _amount);\n        if (organizationsRegistry[address(_avatar)][_record] == 0) {\n            emit OrgAdded(address(_avatar), _record);\n        }\n        organizationsRegistry[address(_avatar)][_record] =\n        organizationsRegistry[address(_avatar)][_record].add(_amount);\n        emit Promotion(address(_avatar), _record, _amount);\n    }\n}",
  "sourcePath": "C:/Users/Subhan/Desktop/github/betterbrooklyndao/UniversalSchemes/contracts/OrganizationRegister.sol",
  "compiler": {
    "name": "solc",
    "version": "0.5.8+commit.23d335f2.Emscripten.clang"
  },
  "schemaVersion": "3.0.11",
  "updatedAt": "2019-07-17T22:56:37.021Z",
  "devdoc": {
    "details": "Organizations can use this scheme to open a registry. Other organizations can then add and promote themselves on this registry.",
    "methods": {
      "addOrPromoteAddress(address,address,uint256)": {
        "details": "Adding or promoting an address on the registry.     An address(record) to add or promote can be organization address or any contract address.     Adding a record is done by paying at least the minimum required by the registry params.     Promoting a record is done by paying(adding)amount of token to the registry beneficiary.",
        "params": {
          "_amount": "amount to pay for adding or promoting",
          "_avatar": "The _avatar of the organization which own the registry.",
          "_record": "The address to add or promote."
        }
      },
      "getParametersHash(address,uint256,address)": {
        "details": "Hash the parameters ,and return the hash value",
        "params": {
          "_beneficiary": "- the beneficiary payment address",
          "_fee": "- fee needed for register an address.",
          "_token": "-  the token to pay for register or promotion an address."
        },
        "return": "bytes32 -the parameters hash"
      },
      "setParameters(address,uint256,address)": {
        "details": "Hash the parameters, save if needed and return the hash value",
        "params": {
          "_beneficiary": "- the beneficiary payment address",
          "_fee": "- fee needed for register an address.",
          "_token": "-  the token to pay for register or promotion an address."
        },
        "return": "bytes32 -the parameters hash"
      }
    },
    "title": "A universal organization registry."
  },
  "userdoc": {
    "methods": {}
  }
}