{
  "contractName": "SchemeRegistrar",
  "abi": [
    {
      "constant": true,
      "inputs": [
        {
          "name": "",
          "type": "bytes32"
        }
      ],
      "name": "parameters",
      "outputs": [
        {
          "name": "voteRegisterParams",
          "type": "bytes32"
        },
        {
          "name": "voteRemoveParams",
          "type": "bytes32"
        },
        {
          "name": "intVote",
          "type": "address"
        }
      ],
      "payable": false,
      "stateMutability": "view",
      "type": "function"
    },
    {
      "constant": true,
      "inputs": [
        {
          "name": "",
          "type": "address"
        },
        {
          "name": "",
          "type": "bytes32"
        }
      ],
      "name": "organizationsProposals",
      "outputs": [
        {
          "name": "scheme",
          "type": "address"
        },
        {
          "name": "addScheme",
          "type": "bool"
        },
        {
          "name": "parametersHash",
          "type": "bytes32"
        },
        {
          "name": "permissions",
          "type": "bytes4"
        }
      ],
      "payable": false,
      "stateMutability": "view",
      "type": "function"
    },
    {
      "constant": true,
      "inputs": [
        {
          "name": "",
          "type": "address"
        },
        {
          "name": "",
          "type": "bytes32"
        }
      ],
      "name": "proposalsInfo",
      "outputs": [
        {
          "name": "blockNumber",
          "type": "uint256"
        },
        {
          "name": "avatar",
          "type": "address"
        }
      ],
      "payable": false,
      "stateMutability": "view",
      "type": "function"
    },
    {
      "constant": true,
      "inputs": [
        {
          "name": "_stakingToken",
          "type": "address"
        },
        {
          "name": "_proposalId",
          "type": "bytes32"
        }
      ],
      "name": "balanceOfStakingToken",
      "outputs": [
        {
          "name": "",
          "type": "uint256"
        }
      ],
      "payable": false,
      "stateMutability": "view",
      "type": "function"
    },
    {
      "constant": true,
      "inputs": [
        {
          "name": "_owner",
          "type": "address"
        },
        {
          "name": "_proposalId",
          "type": "bytes32"
        }
      ],
      "name": "reputationOf",
      "outputs": [
        {
          "name": "",
          "type": "uint256"
        }
      ],
      "payable": false,
      "stateMutability": "view",
      "type": "function"
    },
    {
      "constant": true,
      "inputs": [
        {
          "name": "_proposalId",
          "type": "bytes32"
        }
      ],
      "name": "getTotalReputationSupply",
      "outputs": [
        {
          "name": "",
          "type": "uint256"
        }
      ],
      "payable": false,
      "stateMutability": "view",
      "type": "function"
    },
    {
      "constant": false,
      "inputs": [
        {
          "name": "_stakingToken",
          "type": "address"
        },
        {
          "name": "_beneficiary",
          "type": "address"
        },
        {
          "name": "_amount",
          "type": "uint256"
        },
        {
          "name": "_proposalId",
          "type": "bytes32"
        }
      ],
      "name": "stakingTokenTransfer",
      "outputs": [
        {
          "name": "",
          "type": "bool"
        }
      ],
      "payable": false,
      "stateMutability": "nonpayable",
      "type": "function"
    },
    {
      "constant": false,
      "inputs": [
        {
          "name": "_amount",
          "type": "uint256"
        },
        {
          "name": "_beneficiary",
          "type": "address"
        },
        {
          "name": "_proposalId",
          "type": "bytes32"
        }
      ],
      "name": "mintReputation",
      "outputs": [
        {
          "name": "",
          "type": "bool"
        }
      ],
      "payable": false,
      "stateMutability": "nonpayable",
      "type": "function"
    },
    {
      "constant": false,
      "inputs": [
        {
          "name": "_amount",
          "type": "uint256"
        },
        {
          "name": "_beneficiary",
          "type": "address"
        },
        {
          "name": "_proposalId",
          "type": "bytes32"
        }
      ],
      "name": "burnReputation",
      "outputs": [
        {
          "name": "",
          "type": "bool"
        }
      ],
      "payable": false,
      "stateMutability": "nonpayable",
      "type": "function"
    },
    {
      "anonymous": false,
      "inputs": [
        {
          "indexed": true,
          "name": "_avatar",
          "type": "address"
        },
        {
          "indexed": true,
          "name": "_proposalId",
          "type": "bytes32"
        },
        {
          "indexed": true,
          "name": "_intVoteInterface",
          "type": "address"
        },
        {
          "indexed": false,
          "name": "_scheme",
          "type": "address"
        },
        {
          "indexed": false,
          "name": "_parametersHash",
          "type": "bytes32"
        },
        {
          "indexed": false,
          "name": "_permissions",
          "type": "bytes4"
        },
        {
          "indexed": false,
          "name": "_descriptionHash",
          "type": "string"
        }
      ],
      "name": "NewSchemeProposal",
      "type": "event"
    },
    {
      "anonymous": false,
      "inputs": [
        {
          "indexed": true,
          "name": "_avatar",
          "type": "address"
        },
        {
          "indexed": true,
          "name": "_proposalId",
          "type": "bytes32"
        },
        {
          "indexed": true,
          "name": "_intVoteInterface",
          "type": "address"
        },
        {
          "indexed": false,
          "name": "_scheme",
          "type": "address"
        },
        {
          "indexed": false,
          "name": "_descriptionHash",
          "type": "string"
        }
      ],
      "name": "RemoveSchemeProposal",
      "type": "event"
    },
    {
      "anonymous": false,
      "inputs": [
        {
          "indexed": true,
          "name": "_avatar",
          "type": "address"
        },
        {
          "indexed": true,
          "name": "_proposalId",
          "type": "bytes32"
        },
        {
          "indexed": false,
          "name": "_param",
          "type": "int256"
        }
      ],
      "name": "ProposalExecuted",
      "type": "event"
    },
    {
      "anonymous": false,
      "inputs": [
        {
          "indexed": true,
          "name": "_avatar",
          "type": "address"
        },
        {
          "indexed": true,
          "name": "_proposalId",
          "type": "bytes32"
        }
      ],
      "name": "ProposalDeleted",
      "type": "event"
    },
    {
      "constant": false,
      "inputs": [
        {
          "name": "_proposalId",
          "type": "bytes32"
        },
        {
          "name": "_param",
          "type": "int256"
        }
      ],
      "name": "executeProposal",
      "outputs": [
        {
          "name": "",
          "type": "bool"
        }
      ],
      "payable": false,
      "stateMutability": "nonpayable",
      "type": "function"
    },
    {
      "constant": false,
      "inputs": [
        {
          "name": "_voteRegisterParams",
          "type": "bytes32"
        },
        {
          "name": "_voteRemoveParams",
          "type": "bytes32"
        },
        {
          "name": "_intVote",
          "type": "address"
        }
      ],
      "name": "setParameters",
      "outputs": [
        {
          "name": "",
          "type": "bytes32"
        }
      ],
      "payable": false,
      "stateMutability": "nonpayable",
      "type": "function"
    },
    {
      "constant": true,
      "inputs": [
        {
          "name": "_voteRegisterParams",
          "type": "bytes32"
        },
        {
          "name": "_voteRemoveParams",
          "type": "bytes32"
        },
        {
          "name": "_intVote",
          "type": "address"
        }
      ],
      "name": "getParametersHash",
      "outputs": [
        {
          "name": "",
          "type": "bytes32"
        }
      ],
      "payable": false,
      "stateMutability": "pure",
      "type": "function"
    },
    {
      "constant": false,
      "inputs": [
        {
          "name": "_avatar",
          "type": "address"
        },
        {
          "name": "_scheme",
          "type": "address"
        },
        {
          "name": "_parametersHash",
          "type": "bytes32"
        },
        {
          "name": "_permissions",
          "type": "bytes4"
        },
        {
          "name": "_descriptionHash",
          "type": "string"
        }
      ],
      "name": "proposeScheme",
      "outputs": [
        {
          "name": "",
          "type": "bytes32"
        }
      ],
      "payable": false,
      "stateMutability": "nonpayable",
      "type": "function"
    },
    {
      "constant": false,
      "inputs": [
        {
          "name": "_avatar",
          "type": "address"
        },
        {
          "name": "_scheme",
          "type": "address"
        },
        {
          "name": "_descriptionHash",
          "type": "string"
        }
      ],
      "name": "proposeToRemoveScheme",
      "outputs": [
        {
          "name": "",
          "type": "bytes32"
        }
      ],
      "payable": false,
      "stateMutability": "nonpayable",
      "type": "function"
    }
  ],
  "bytecode": "0x608060405234801561001057600080fd5b506131a7806100206000396000f3fe608060405234801561001057600080fd5b50600436106100ea5760003560e01c80639588378e1161008c578063bea75f2811610066578063bea75f2814610655578063d29b5d2f146106e5578063e7ac593e14610755578063f81f8bf614610864576100ea565b80639588378e146105615780639d4c162d146105c3578063b551c37314610613576100ea565b80635099e006116100c85780635099e006146102bc57806360bdbb3f146103fe5780636b8eb4031461049357806377182261146104f5576100ea565b806302506804146100ef57806306e3a9781461016b5780630a6687fd14610250575b600080fd5b61011b6004803603602081101561010557600080fd5b81019080803590602001909291905050506108d4565b604051808481526020018381526020018273ffffffffffffffffffffffffffffffffffffffff1673ffffffffffffffffffffffffffffffffffffffff168152602001935050505060405180910390f35b6101b76004803603604081101561018157600080fd5b81019080803573ffffffffffffffffffffffffffffffffffffffff1690602001909291908035906020019092919050505061091e565b604051808573ffffffffffffffffffffffffffffffffffffffff1673ffffffffffffffffffffffffffffffffffffffff16815260200184151515158152602001838152602001827bffffffffffffffffffffffffffffffffffffffffffffffffffffffff19167bffffffffffffffffffffffffffffffffffffffffffffffffffffffff1916815260200194505050505060405180910390f35b6102a66004803603606081101561026657600080fd5b810190808035906020019092919080359060200190929190803573ffffffffffffffffffffffffffffffffffffffff169060200190929190505050610995565b6040518082815260200191505060405180910390f35b6103e8600480360360a08110156102d257600080fd5b81019080803573ffffffffffffffffffffffffffffffffffffffff169060200190929190803573ffffffffffffffffffffffffffffffffffffffff1690602001909291908035906020019092919080357bffffffffffffffffffffffffffffffffffffffffffffffffffffffff191690602001909291908035906020019064010000000081111561036257600080fd5b82018360208201111561037457600080fd5b8035906020019184600183028401116401000000008311171561039657600080fd5b91908080601f016020809104026020016040519081016040528093929190818152602001838380828437600081840152601f19601f820116905080830192505050505050509192919290505050610a3b565b6040518082815260200191505060405180910390f35b61044a6004803603604081101561041457600080fd5b81019080803573ffffffffffffffffffffffffffffffffffffffff16906020019092919080359060200190929190505050611002565b604051808381526020018273ffffffffffffffffffffffffffffffffffffffff1673ffffffffffffffffffffffffffffffffffffffff1681526020019250505060405180910390f35b6104df600480360360408110156104a957600080fd5b81019080803573ffffffffffffffffffffffffffffffffffffffff16906020019092919080359060200190929190505050611053565b6040518082815260200191505060405180910390f35b61054b6004803603606081101561050b57600080fd5b810190808035906020019092919080359060200190929190803573ffffffffffffffffffffffffffffffffffffffff16906020019092919050505061123e565b6040518082815260200191505060405180910390f35b6105ad6004803603604081101561057757600080fd5b81019080803573ffffffffffffffffffffffffffffffffffffffff169060200190929190803590602001909291905050506112af565b6040518082815260200191505060405180910390f35b6105f9600480360360408110156105d957600080fd5b81019080803590602001909291908035906020019092919050505061150a565b604051808215151515815260200191505060405180910390f35b61063f6004803603602081101561062957600080fd5b8101908080359060200190929190505050611c4a565b6040518082815260200191505060405180910390f35b6106cb6004803603608081101561066b57600080fd5b81019080803573ffffffffffffffffffffffffffffffffffffffff169060200190929190803573ffffffffffffffffffffffffffffffffffffffff1690602001909291908035906020019092919080359060200190929190505050611e70565b604051808215151515815260200191505060405180910390f35b61073b600480360360608110156106fb57600080fd5b8101908080359060200190929190803573ffffffffffffffffffffffffffffffffffffffff169060200190929190803590602001909291905050506121f5565b604051808215151515815260200191505060405180910390f35b61084e6004803603606081101561076b57600080fd5b81019080803573ffffffffffffffffffffffffffffffffffffffff169060200190929190803573ffffffffffffffffffffffffffffffffffffffff169060200190929190803590602001906401000000008111156107c857600080fd5b8201836020820111156107da57600080fd5b803590602001918460018302840111640100000000831117156107fc57600080fd5b91908080601f016020809104026020016040519081016040528093929190818152602001838380828437600081840152601f19601f820116905080830192505050505050509192919290505050612545565b6040518082815260200191505060405180910390f35b6108ba6004803603606081101561087a57600080fd5b8101908080359060200190929190803573ffffffffffffffffffffffffffffffffffffffff16906020019092919080359060200190929190505050612a09565b604051808215151515815260200191505060405180910390f35b60026020528060005260406000206000915090508060000154908060010154908060020160009054906101000a900473ffffffffffffffffffffffffffffffffffffffff16905083565b6001602052816000526040600020602052806000526040600020600091509150508060000160009054906101000a900473ffffffffffffffffffffffffffffffffffffffff16908060000160149054906101000a900460ff16908060010154908060020160009054906101000a900460e01b905084565b6000806109a385858561123e565b9050846002600083815260200190815260200160002060000181905550836002600083815260200190815260200160002060010181905550826002600083815260200190815260200160002060020160006101000a81548173ffffffffffffffffffffffffffffffffffffffff021916908373ffffffffffffffffffffffffffffffffffffffff160217905550809150509392505050565b60008073ffffffffffffffffffffffffffffffffffffffff168573ffffffffffffffffffffffffffffffffffffffff161415610adf576040517f08c379a00000000000000000000000000000000000000000000000000000000081526004018080602001828103825260158152602001807f736368656d652063616e6e6f74206265207a65726f000000000000000000000081525060200191505060405180910390fd5b610ae76130ac565b60026000610af489612d59565b815260200190815260200160002060405180606001604052908160008201548152602001600182015481526020016002820160009054906101000a900473ffffffffffffffffffffffffffffffffffffffff1673ffffffffffffffffffffffffffffffffffffffff1673ffffffffffffffffffffffffffffffffffffffff168152505090506000816040015173ffffffffffffffffffffffffffffffffffffffff166388737b5e60028460000151338c6040518563ffffffff1660e01b8152600401808581526020018481526020018373ffffffffffffffffffffffffffffffffffffffff1673ffffffffffffffffffffffffffffffffffffffff1681526020018273ffffffffffffffffffffffffffffffffffffffff1673ffffffffffffffffffffffffffffffffffffffff168152602001945050505050602060405180830381600087803b158015610c4757600080fd5b505af1158015610c5b573d6000803e3d6000fd5b505050506040513d6020811015610c7157600080fd5b81019080805190602001909291905050509050610c8c6130e9565b60405180608001604052808973ffffffffffffffffffffffffffffffffffffffff168152602001600115158152602001888152602001877bffffffffffffffffffffffffffffffffffffffffffffffffffffffff19168152509050826040015173ffffffffffffffffffffffffffffffffffffffff16828a73ffffffffffffffffffffffffffffffffffffffff167fcc9180a05805acc3615b472c3ba00cdc9cd2c6e0e0b3648d60eb58f2c1001b848b8b8b8b604051808573ffffffffffffffffffffffffffffffffffffffff1673ffffffffffffffffffffffffffffffffffffffff168152602001848152602001837bffffffffffffffffffffffffffffffffffffffffffffffffffffffff19167bffffffffffffffffffffffffffffffffffffffffffffffffffffffff1916815260200180602001828103825283818151815260200191508051906020019080838360005b83811015610dfb578082015181840152602081019050610de0565b50505050905090810190601f168015610e285780820380516001836020036101000a031916815260200191505b509550505050505060405180910390a480600160008b73ffffffffffffffffffffffffffffffffffffffff1673ffffffffffffffffffffffffffffffffffffffff168152602001908152602001600020600084815260200190815260200160002060008201518160000160006101000a81548173ffffffffffffffffffffffffffffffffffffffff021916908373ffffffffffffffffffffffffffffffffffffffff16021790555060208201518160000160146101000a81548160ff0219169083151502179055506040820151816001015560608201518160020160006101000a81548163ffffffff021916908360e01c021790555090505060405180604001604052804381526020018a73ffffffffffffffffffffffffffffffffffffffff16815250600080856040015173ffffffffffffffffffffffffffffffffffffffff1673ffffffffffffffffffffffffffffffffffffffff16815260200190815260200160002060008481526020019081526020016000206000820151816000015560208201518160010160006101000a81548173ffffffffffffffffffffffffffffffffffffffff021916908373ffffffffffffffffffffffffffffffffffffffff16021790555090505081935050505095945050505050565b6000602052816000526040600020602052806000526040600020600091509150508060000154908060010160009054906101000a900473ffffffffffffffffffffffffffffffffffffffff16905082565b6000806000803373ffffffffffffffffffffffffffffffffffffffff1673ffffffffffffffffffffffffffffffffffffffff168152602001908152602001600020600084815260200190815260200160002060010160009054906101000a900473ffffffffffffffffffffffffffffffffffffffff169050600073ffffffffffffffffffffffffffffffffffffffff166000803373ffffffffffffffffffffffffffffffffffffffff1673ffffffffffffffffffffffffffffffffffffffff168152602001908152602001600020600085815260200190815260200160002060010160009054906101000a900473ffffffffffffffffffffffffffffffffffffffff1673ffffffffffffffffffffffffffffffffffffffff16141561117c576000915050611238565b8373ffffffffffffffffffffffffffffffffffffffff166370a08231826040518263ffffffff1660e01b8152600401808273ffffffffffffffffffffffffffffffffffffffff1673ffffffffffffffffffffffffffffffffffffffff16815260200191505060206040518083038186803b1580156111f957600080fd5b505afa15801561120d573d6000803e3d6000fd5b505050506040513d602081101561122357600080fd5b81019080805190602001909291905050509150505b92915050565b6000838383604051602001808481526020018381526020018273ffffffffffffffffffffffffffffffffffffffff1673ffffffffffffffffffffffffffffffffffffffff1660601b815260140193505050506040516020818303038152906040528051906020012090509392505050565b60006112b961314b565b6000803373ffffffffffffffffffffffffffffffffffffffff1673ffffffffffffffffffffffffffffffffffffffff1681526020019081526020016000206000848152602001908152602001600020604051806040016040529081600082015481526020016001820160009054906101000a900473ffffffffffffffffffffffffffffffffffffffff1673ffffffffffffffffffffffffffffffffffffffff1673ffffffffffffffffffffffffffffffffffffffff16815250509050600073ffffffffffffffffffffffffffffffffffffffff16816020015173ffffffffffffffffffffffffffffffffffffffff1614156113b8576000915050611504565b806020015173ffffffffffffffffffffffffffffffffffffffff166389ae1c906040518163ffffffff1660e01b815260040160206040518083038186803b15801561140257600080fd5b505afa158015611416573d6000803e3d6000fd5b505050506040513d602081101561142c57600080fd5b810190808051906020019092919050505073ffffffffffffffffffffffffffffffffffffffff16634ee2cd7e8583600001516040518363ffffffff1660e01b8152600401808373ffffffffffffffffffffffffffffffffffffffff1673ffffffffffffffffffffffffffffffffffffffff1681526020018281526020019250505060206040518083038186803b1580156114c557600080fd5b505afa1580156114d9573d6000803e3d6000fd5b505050506040513d60208110156114ef57600080fd5b81019080805190602001909291905050509150505b92915050565b600082600073ffffffffffffffffffffffffffffffffffffffff166000803373ffffffffffffffffffffffffffffffffffffffff1673ffffffffffffffffffffffffffffffffffffffff168152602001908152602001600020600083815260200190815260200160002060010160009054906101000a900473ffffffffffffffffffffffffffffffffffffffff1673ffffffffffffffffffffffffffffffffffffffff161415611622576040517f08c379a00000000000000000000000000000000000000000000000000000000081526004018080602001828103825260128152602001807f6f6e6c7920566f74696e674d616368696e65000000000000000000000000000081525060200191505060405180910390fd5b60008060003373ffffffffffffffffffffffffffffffffffffffff1673ffffffffffffffffffffffffffffffffffffffff168152602001908152602001600020600086815260200190815260200160002060010160009054906101000a900473ffffffffffffffffffffffffffffffffffffffff1690506116a16130e9565b600160008373ffffffffffffffffffffffffffffffffffffffff1673ffffffffffffffffffffffffffffffffffffffff16815260200190815260200160002060008781526020019081526020016000206040518060800160405290816000820160009054906101000a900473ffffffffffffffffffffffffffffffffffffffff1673ffffffffffffffffffffffffffffffffffffffff1673ffffffffffffffffffffffffffffffffffffffff1681526020016000820160149054906101000a900460ff16151515158152602001600182015481526020016002820160009054906101000a900460e01b7bffffffffffffffffffffffffffffffffffffffffffffffffffffffff19167bffffffffffffffffffffffffffffffffffffffffffffffffffffffff1916815250509050600073ffffffffffffffffffffffffffffffffffffffff16816000015173ffffffffffffffffffffffffffffffffffffffff16141561180c57600080fd5b600160008373ffffffffffffffffffffffffffffffffffffffff1673ffffffffffffffffffffffffffffffffffffffff1681526020019081526020016000206000878152602001908152602001600020600080820160006101000a81549073ffffffffffffffffffffffffffffffffffffffff02191690556000820160146101000a81549060ff021916905560018201600090556002820160006101000a81549063ffffffff02191690555050858273ffffffffffffffffffffffffffffffffffffffff167f6bc0cb9e9967b59a69ace442598e1df4368d38661bd5c0800fbcbc9fe855fbbe60405160405180910390a36001851415611bee5760008273ffffffffffffffffffffffffffffffffffffffff16638da5cb5b6040518163ffffffff1660e01b815260040160206040518083038186803b15801561194e57600080fd5b505afa158015611962573d6000803e3d6000fd5b505050506040513d602081101561197857600080fd5b81019080805190602001909291905050509050816020015115611ae7578073ffffffffffffffffffffffffffffffffffffffff1663e869d45f836000015184604001518560600151876040518563ffffffff1660e01b8152600401808573ffffffffffffffffffffffffffffffffffffffff1673ffffffffffffffffffffffffffffffffffffffff168152602001848152602001837bffffffffffffffffffffffffffffffffffffffffffffffffffffffff19167bffffffffffffffffffffffffffffffffffffffffffffffffffffffff191681526020018273ffffffffffffffffffffffffffffffffffffffff1673ffffffffffffffffffffffffffffffffffffffff168152602001945050505050602060405180830381600087803b158015611aa257600080fd5b505af1158015611ab6573d6000803e3d6000fd5b505050506040513d6020811015611acc57600080fd5b8101908080519060200190929190505050611ae657600080fd5b5b8160200151611bec578073ffffffffffffffffffffffffffffffffffffffff1663039de01d8360000151856040518363ffffffff1660e01b8152600401808373ffffffffffffffffffffffffffffffffffffffff1673ffffffffffffffffffffffffffffffffffffffff1681526020018273ffffffffffffffffffffffffffffffffffffffff1673ffffffffffffffffffffffffffffffffffffffff16815260200192505050602060405180830381600087803b158015611ba757600080fd5b505af1158015611bbb573d6000803e3d6000fd5b505050506040513d6020811015611bd157600080fd5b8101908080519060200190929190505050611beb57600080fd5b5b505b858273ffffffffffffffffffffffffffffffffffffffff167fd2632e80f5364f02aded1c64e8a04637b7c8bb9c2db2bedf4b6ac47c013acbc0876040518082815260200191505060405180910390a36001935050505092915050565b6000611c5461314b565b6000803373ffffffffffffffffffffffffffffffffffffffff1673ffffffffffffffffffffffffffffffffffffffff1681526020019081526020016000206000848152602001908152602001600020604051806040016040529081600082015481526020016001820160009054906101000a900473ffffffffffffffffffffffffffffffffffffffff1673ffffffffffffffffffffffffffffffffffffffff1673ffffffffffffffffffffffffffffffffffffffff16815250509050600073ffffffffffffffffffffffffffffffffffffffff16816020015173ffffffffffffffffffffffffffffffffffffffff161415611d53576000915050611e6b565b806020015173ffffffffffffffffffffffffffffffffffffffff166389ae1c906040518163ffffffff1660e01b815260040160206040518083038186803b158015611d9d57600080fd5b505afa158015611db1573d6000803e3d6000fd5b505050506040513d6020811015611dc757600080fd5b810190808051906020019092919050505073ffffffffffffffffffffffffffffffffffffffff1663981b24d082600001516040518263ffffffff1660e01b81526004018082815260200191505060206040518083038186803b158015611e2c57600080fd5b505afa158015611e40573d6000803e3d6000fd5b505050506040513d6020811015611e5657600080fd5b81019080805190602001909291905050509150505b919050565b600081600073ffffffffffffffffffffffffffffffffffffffff166000803373ffffffffffffffffffffffffffffffffffffffff1673ffffffffffffffffffffffffffffffffffffffff168152602001908152602001600020600083815260200190815260200160002060010160009054906101000a900473ffffffffffffffffffffffffffffffffffffffff1673ffffffffffffffffffffffffffffffffffffffff161415611f88576040517f08c379a00000000000000000000000000000000000000000000000000000000081526004018080602001828103825260128152602001807f6f6e6c7920566f74696e674d616368696e65000000000000000000000000000081525060200191505060405180910390fd5b60008060003373ffffffffffffffffffffffffffffffffffffffff1673ffffffffffffffffffffffffffffffffffffffff168152602001908152602001600020600085815260200190815260200160002060010160009054906101000a900473ffffffffffffffffffffffffffffffffffffffff169050600073ffffffffffffffffffffffffffffffffffffffff168173ffffffffffffffffffffffffffffffffffffffff16141561203e5760009250506121ec565b8073ffffffffffffffffffffffffffffffffffffffff16638da5cb5b6040518163ffffffff1660e01b815260040160206040518083038186803b15801561208457600080fd5b505afa158015612098573d6000803e3d6000fd5b505050506040513d60208110156120ae57600080fd5b810190808051906020019092919050505073ffffffffffffffffffffffffffffffffffffffff1663b9a04cdd888888856040518563ffffffff1660e01b8152600401808573ffffffffffffffffffffffffffffffffffffffff1673ffffffffffffffffffffffffffffffffffffffff1681526020018473ffffffffffffffffffffffffffffffffffffffff1673ffffffffffffffffffffffffffffffffffffffff1681526020018381526020018273ffffffffffffffffffffffffffffffffffffffff1673ffffffffffffffffffffffffffffffffffffffff168152602001945050505050602060405180830381600087803b1580156121ad57600080fd5b505af11580156121c1573d6000803e3d6000fd5b505050506040513d60208110156121d757600080fd5b81019080805190602001909291905050509250505b50949350505050565b600081600073ffffffffffffffffffffffffffffffffffffffff166000803373ffffffffffffffffffffffffffffffffffffffff1673ffffffffffffffffffffffffffffffffffffffff168152602001908152602001600020600083815260200190815260200160002060010160009054906101000a900473ffffffffffffffffffffffffffffffffffffffff1673ffffffffffffffffffffffffffffffffffffffff16141561230d576040517f08c379a00000000000000000000000000000000000000000000000000000000081526004018080602001828103825260128152602001807f6f6e6c7920566f74696e674d616368696e65000000000000000000000000000081525060200191505060405180910390fd5b60008060003373ffffffffffffffffffffffffffffffffffffffff1673ffffffffffffffffffffffffffffffffffffffff168152602001908152602001600020600085815260200190815260200160002060010160009054906101000a900473ffffffffffffffffffffffffffffffffffffffff169050600073ffffffffffffffffffffffffffffffffffffffff168173ffffffffffffffffffffffffffffffffffffffff1614156123c357600092505061253d565b8073ffffffffffffffffffffffffffffffffffffffff16638da5cb5b6040518163ffffffff1660e01b815260040160206040518083038186803b15801561240957600080fd5b505afa15801561241d573d6000803e3d6000fd5b505050506040513d602081101561243357600080fd5b810190808051906020019092919050505073ffffffffffffffffffffffffffffffffffffffff1663eaf994b28787846040518463ffffffff1660e01b8152600401808481526020018373ffffffffffffffffffffffffffffffffffffffff1673ffffffffffffffffffffffffffffffffffffffff1681526020018273ffffffffffffffffffffffffffffffffffffffff1673ffffffffffffffffffffffffffffffffffffffff1681526020019350505050602060405180830381600087803b1580156124fe57600080fd5b505af1158015612512573d6000803e3d6000fd5b505050506040513d602081101561252857600080fd5b81019080805190602001909291905050509250505b509392505050565b60008073ffffffffffffffffffffffffffffffffffffffff168373ffffffffffffffffffffffffffffffffffffffff1614156125e9576040517f08c379a00000000000000000000000000000000000000000000000000000000081526004018080602001828103825260158152602001807f736368656d652063616e6e6f74206265207a65726f000000000000000000000081525060200191505060405180910390fd5b60006125f485612d59565b90506125fe6130ac565b6002600083815260200190815260200160002060405180606001604052908160008201548152602001600182015481526020016002820160009054906101000a900473ffffffffffffffffffffffffffffffffffffffff1673ffffffffffffffffffffffffffffffffffffffff1673ffffffffffffffffffffffffffffffffffffffff1681525050905060008160400151905060008173ffffffffffffffffffffffffffffffffffffffff166388737b5e60028560200151338c6040518563ffffffff1660e01b8152600401808581526020018481526020018373ffffffffffffffffffffffffffffffffffffffff1673ffffffffffffffffffffffffffffffffffffffff1681526020018273ffffffffffffffffffffffffffffffffffffffff1673ffffffffffffffffffffffffffffffffffffffff168152602001945050505050602060405180830381600087803b15801561275b57600080fd5b505af115801561276f573d6000803e3d6000fd5b505050506040513d602081101561278557600080fd5b8101908080519060200190929190505050905086600160008a73ffffffffffffffffffffffffffffffffffffffff1673ffffffffffffffffffffffffffffffffffffffff168152602001908152602001600020600083815260200190815260200160002060000160006101000a81548173ffffffffffffffffffffffffffffffffffffffff021916908373ffffffffffffffffffffffffffffffffffffffff1602179055508173ffffffffffffffffffffffffffffffffffffffff16818973ffffffffffffffffffffffffffffffffffffffff167f504b6bd2558241a5f0532c970f3444e1fc24e1f7cf3d7c49a8d213bd612e90558a8a604051808373ffffffffffffffffffffffffffffffffffffffff1673ffffffffffffffffffffffffffffffffffffffff16815260200180602001828103825283818151815260200191508051906020019080838360005b838110156128ee5780820151818401526020810190506128d3565b50505050905090810190601f16801561291b5780820380516001836020036101000a031916815260200191505b50935050505060405180910390a460405180604001604052804381526020018973ffffffffffffffffffffffffffffffffffffffff16815250600080856040015173ffffffffffffffffffffffffffffffffffffffff1673ffffffffffffffffffffffffffffffffffffffff16815260200190815260200160002060008381526020019081526020016000206000820151816000015560208201518160010160006101000a81548173ffffffffffffffffffffffffffffffffffffffff021916908373ffffffffffffffffffffffffffffffffffffffff160217905550905050809450505050509392505050565b600081600073ffffffffffffffffffffffffffffffffffffffff166000803373ffffffffffffffffffffffffffffffffffffffff1673ffffffffffffffffffffffffffffffffffffffff168152602001908152602001600020600083815260200190815260200160002060010160009054906101000a900473ffffffffffffffffffffffffffffffffffffffff1673ffffffffffffffffffffffffffffffffffffffff161415612b21576040517f08c379a00000000000000000000000000000000000000000000000000000000081526004018080602001828103825260128152602001807f6f6e6c7920566f74696e674d616368696e65000000000000000000000000000081525060200191505060405180910390fd5b60008060003373ffffffffffffffffffffffffffffffffffffffff1673ffffffffffffffffffffffffffffffffffffffff168152602001908152602001600020600085815260200190815260200160002060010160009054906101000a900473ffffffffffffffffffffffffffffffffffffffff169050600073ffffffffffffffffffffffffffffffffffffffff168173ffffffffffffffffffffffffffffffffffffffff161415612bd7576000925050612d51565b8073ffffffffffffffffffffffffffffffffffffffff16638da5cb5b6040518163ffffffff1660e01b815260040160206040518083038186803b158015612c1d57600080fd5b505afa158015612c31573d6000803e3d6000fd5b505050506040513d6020811015612c4757600080fd5b810190808051906020019092919050505073ffffffffffffffffffffffffffffffffffffffff16636e94d2788787846040518463ffffffff1660e01b8152600401808481526020018373ffffffffffffffffffffffffffffffffffffffff1673ffffffffffffffffffffffffffffffffffffffff1681526020018273ffffffffffffffffffffffffffffffffffffffff1673ffffffffffffffffffffffffffffffffffffffff1681526020019350505050602060405180830381600087803b158015612d1257600080fd5b505af1158015612d26573d6000803e3d6000fd5b505050506040513d6020811015612d3c57600080fd5b81019080805190602001909291905050509250505b509392505050565b60008173ffffffffffffffffffffffffffffffffffffffff16638da5cb5b6040518163ffffffff1660e01b815260040160206040518083038186803b158015612da157600080fd5b505afa158015612db5573d6000803e3d6000fd5b505050506040513d6020811015612dcb57600080fd5b810190808051906020019092919050505073ffffffffffffffffffffffffffffffffffffffff16639be2faed30846040518363ffffffff1660e01b8152600401808373ffffffffffffffffffffffffffffffffffffffff1673ffffffffffffffffffffffffffffffffffffffff1681526020018273ffffffffffffffffffffffffffffffffffffffff1673ffffffffffffffffffffffffffffffffffffffff1681526020019250505060206040518083038186803b158015612e8c57600080fd5b505afa158015612ea0573d6000803e3d6000fd5b505050506040513d6020811015612eb657600080fd5b8101908080519060200190929190505050612f39576040517f08c379a00000000000000000000000000000000000000000000000000000000081526004018080602001828103825260188152602001807f736368656d65206973206e6f742072656769737465726564000000000000000081525060200191505060405180910390fd5b8173ffffffffffffffffffffffffffffffffffffffff16638da5cb5b6040518163ffffffff1660e01b815260040160206040518083038186803b158015612f7f57600080fd5b505afa158015612f93573d6000803e3d6000fd5b505050506040513d6020811015612fa957600080fd5b810190808051906020019092919050505073ffffffffffffffffffffffffffffffffffffffff16631c4d560830846040518363ffffffff1660e01b8152600401808373ffffffffffffffffffffffffffffffffffffffff1673ffffffffffffffffffffffffffffffffffffffff1681526020018273ffffffffffffffffffffffffffffffffffffffff1673ffffffffffffffffffffffffffffffffffffffff1681526020019250505060206040518083038186803b15801561306a57600080fd5b505afa15801561307e573d6000803e3d6000fd5b505050506040513d602081101561309457600080fd5b81019080805190602001909291905050509050919050565b60405180606001604052806000801916815260200160008019168152602001600073ffffffffffffffffffffffffffffffffffffffff1681525090565b6040518060800160405280600073ffffffffffffffffffffffffffffffffffffffff1681526020016000151581526020016000801916815260200160007bffffffffffffffffffffffffffffffffffffffffffffffffffffffff191681525090565b604051806040016040528060008152602001600073ffffffffffffffffffffffffffffffffffffffff168152509056fea165627a7a7230582097472fa8d96f3e3865e0d1f41efaf325af11366493a02e5ef5dc89517e69912c0029",
  "source": "pragma solidity ^0.5.4;\n\nimport \"../../Voting-Machine/contracts/VotingMachine/IntVoteInterface.sol\";\nimport \"../../Voting-Machine/contracts/VotingMachine/VotingMachineCallbacksInterface.sol\";\nimport \"./UniversalScheme.sol\";\nimport \"../../Voting-Machine/contracts/VotingMachine/VotingMachineCallbacks.sol\";\n\n\n/**\n * @title A registrar for Schemes for organizations\n * @dev The SchemeRegistrar is used for registering and unregistering schemes in the DAO. \n */\n\ncontract SchemeRegistrar is UniversalScheme, VotingMachineCallbacks, ProposalExecuteInterface {\n    event NewSchemeProposal(\n        address indexed _avatar,\n        bytes32 indexed _proposalId,\n        address indexed _intVoteInterface,\n        address _scheme,\n        bytes32 _parametersHash,\n        bytes4 _permissions,\n        string _descriptionHash\n    );\n\n    event RemoveSchemeProposal(address indexed _avatar,\n        bytes32 indexed _proposalId,\n        address indexed _intVoteInterface,\n        address _scheme,\n        string _descriptionHash\n    );\n\n    event ProposalExecuted(address indexed _avatar, bytes32 indexed _proposalId, int256 _param);\n    event ProposalDeleted(address indexed _avatar, bytes32 indexed _proposalId);\n\n    // a SchemeProposal is a  proposal to add or remove a scheme to/from the an organization\n    struct SchemeProposal {\n        address scheme; //\n        bool addScheme; // true: add a scheme, false: remove a scheme.\n        bytes32 parametersHash;\n        bytes4 permissions;\n    }\n\n    // A mapping from the organization (Avatar) address to the saved data of the organization:\n    mapping(address=>mapping(bytes32=>SchemeProposal)) public organizationsProposals;\n\n    // A mapping from hashes to parameters (use to store a particular configuration on the controller)\n    struct Parameters {\n        bytes32 voteRegisterParams;\n        bytes32 voteRemoveParams;\n        IntVoteInterface intVote;\n    }\n\n    mapping(bytes32=>Parameters) public parameters;\n\n    /**\n    * @dev execution of proposals, can only be called by the voting machine in which the vote is held.\n    * @param _proposalId the ID of the voting in the voting machine\n    * @param _param a parameter of the voting result, 1 yes and 2 is no.\n    */\n    function executeProposal(bytes32 _proposalId, int256 _param) external onlyVotingMachine(_proposalId) returns(bool) {\n        Avatar avatar = proposalsInfo[msg.sender][_proposalId].avatar;\n        SchemeProposal memory proposal = organizationsProposals[address(avatar)][_proposalId];\n        require(proposal.scheme != address(0));\n        delete organizationsProposals[address(avatar)][_proposalId];\n        emit ProposalDeleted(address(avatar), _proposalId);\n        if (_param == 1) {\n\n          // Define controller and get the params:\n            ControllerInterface controller = ControllerInterface(avatar.owner());\n\n          // Add a scheme:\n            if (proposal.addScheme) {\n                require(controller.registerScheme(\n                        proposal.scheme,\n                        proposal.parametersHash,\n                        proposal.permissions,\n                        address(avatar))\n                );\n            }\n          // Remove a scheme:\n            if (!proposal.addScheme) {\n                require(controller.unregisterScheme(proposal.scheme, address(avatar)));\n            }\n        }\n        emit ProposalExecuted(address(avatar), _proposalId, _param);\n        return true;\n    }\n\n    /**\n    * @dev hash the parameters, save them if necessary, and return the hash value\n    */\n    function setParameters(\n        bytes32 _voteRegisterParams,\n        bytes32 _voteRemoveParams,\n        IntVoteInterface _intVote\n    ) public returns(bytes32)\n    {\n        bytes32 paramsHash = getParametersHash(_voteRegisterParams, _voteRemoveParams, _intVote);\n        parameters[paramsHash].voteRegisterParams = _voteRegisterParams;\n        parameters[paramsHash].voteRemoveParams = _voteRemoveParams;\n        parameters[paramsHash].intVote = _intVote;\n        return paramsHash;\n    }\n\n    function getParametersHash(\n        bytes32 _voteRegisterParams,\n        bytes32 _voteRemoveParams,\n        IntVoteInterface _intVote\n    ) public pure returns(bytes32)\n    {\n        return keccak256(abi.encodePacked(_voteRegisterParams, _voteRemoveParams, _intVote));\n    }\n\n    /**\n    * @dev create a proposal to register a scheme\n    * @param _avatar the address of the organization the scheme will be registered for\n    * @param _scheme the address of the scheme to be registered\n    * @param _parametersHash a hash of the configuration of the _scheme\n    * @param _permissions the permission of the scheme to be registered\n    * @param _descriptionHash proposal's description hash\n    * @return a proposal Id\n    * @dev NB: not only proposes the vote, but also votes for it\n    */\n    function proposeScheme(\n        Avatar _avatar,\n        address _scheme,\n        bytes32 _parametersHash,\n        bytes4 _permissions,\n        string memory _descriptionHash\n    )\n    public\n    returns(bytes32)\n    {\n        // propose\n        require(_scheme != address(0), \"scheme cannot be zero\");\n        Parameters memory controllerParams = parameters[getParametersFromController(_avatar)];\n\n        bytes32 proposalId = controllerParams.intVote.propose(\n            2,\n            controllerParams.voteRegisterParams,\n            msg.sender,\n            address(_avatar)\n        );\n\n        SchemeProposal memory proposal = SchemeProposal({\n            scheme: _scheme,\n            parametersHash: _parametersHash,\n            addScheme: true,\n            permissions: _permissions\n        });\n        emit NewSchemeProposal(\n            address(_avatar),\n            proposalId,\n            address(controllerParams.intVote),\n            _scheme, _parametersHash,\n            _permissions,\n            _descriptionHash\n        );\n        organizationsProposals[address(_avatar)][proposalId] = proposal;\n        proposalsInfo[address(controllerParams.intVote)][proposalId] = ProposalInfo({\n            blockNumber:block.number,\n            avatar:_avatar\n        });\n        return proposalId;\n    }\n\n    /**\n    * @dev propose to remove a scheme for a controller\n    * @param _avatar the address of the controller from which we want to remove a scheme\n    * @param _scheme the address of the scheme we want to remove\n    * @param _descriptionHash proposal description hash\n    * NB: not only registers the proposal, but also votes for it\n    */\n    function proposeToRemoveScheme(Avatar _avatar, address _scheme, string memory _descriptionHash)\n    public\n    returns(bytes32)\n    {\n        require(_scheme != address(0), \"scheme cannot be zero\");\n        bytes32 paramsHash = getParametersFromController(_avatar);\n        Parameters memory params = parameters[paramsHash];\n\n        IntVoteInterface intVote = params.intVote;\n        bytes32 proposalId = intVote.propose(2, params.voteRemoveParams, msg.sender, address(_avatar));\n        organizationsProposals[address(_avatar)][proposalId].scheme = _scheme;\n        emit RemoveSchemeProposal(address(_avatar), proposalId, address(intVote), _scheme, _descriptionHash);\n        proposalsInfo[address(params.intVote)][proposalId] = ProposalInfo({\n            blockNumber:block.number,\n            avatar:_avatar\n        });\n        return proposalId;\n    }\n}",
  "sourcePath": "C:/Users/Subhan/Desktop/github/betterbrooklyndao/UniversalSchemes/contracts/SchemeRegistrar.sol",
  "compiler": {
    "name": "solc",
    "version": "0.5.8+commit.23d335f2.Emscripten.clang"
  },
  "schemaVersion": "3.0.11",
  "updatedAt": "2019-07-17T22:56:37.036Z",
  "devdoc": {
    "details": "The SchemeRegistrar is used for registering and unregistering schemes in the DAO. ",
    "methods": {
      "executeProposal(bytes32,int256)": {
        "details": "execution of proposals, can only be called by the voting machine in which the vote is held.",
        "params": {
          "_param": "a parameter of the voting result, 1 yes and 2 is no.",
          "_proposalId": "the ID of the voting in the voting machine"
        }
      },
      "proposeScheme(address,address,bytes32,bytes4,string)": {
        "details": "create a proposal to register a schemeNB: not only proposes the vote, but also votes for it",
        "params": {
          "_avatar": "the address of the organization the scheme will be registered for",
          "_descriptionHash": "proposal's description hash",
          "_parametersHash": "a hash of the configuration of the _scheme",
          "_permissions": "the permission of the scheme to be registered",
          "_scheme": "the address of the scheme to be registered"
        },
        "return": "a proposal Id"
      },
      "proposeToRemoveScheme(address,address,string)": {
        "details": "propose to remove a scheme for a controller",
        "params": {
          "_avatar": "the address of the controller from which we want to remove a scheme",
          "_descriptionHash": "proposal description hash NB: not only registers the proposal, but also votes for it",
          "_scheme": "the address of the scheme we want to remove"
        }
      },
      "setParameters(bytes32,bytes32,address)": {
        "details": "hash the parameters, save them if necessary, and return the hash value"
      }
    },
    "title": "A registrar for Schemes for organizations"
  },
  "userdoc": {
    "methods": {}
  }
}