{
  "contractName": "UController",
  "abi": [
    {
      "constant": true,
      "inputs": [
        {
          "name": "",
          "type": "address"
        }
      ],
      "name": "newControllers",
      "outputs": [
        {
          "name": "",
          "type": "address"
        }
      ],
      "payable": false,
      "stateMutability": "view",
      "type": "function"
    },
    {
      "constant": true,
      "inputs": [
        {
          "name": "",
          "type": "address"
        }
      ],
      "name": "organizations",
      "outputs": [
        {
          "name": "nativeToken",
          "type": "address"
        },
        {
          "name": "nativeReputation",
          "type": "address"
        }
      ],
      "payable": false,
      "stateMutability": "view",
      "type": "function"
    },
    {
      "constant": true,
      "inputs": [
        {
          "name": "",
          "type": "address"
        }
      ],
      "name": "actors",
      "outputs": [
        {
          "name": "",
          "type": "bool"
        }
      ],
      "payable": false,
      "stateMutability": "view",
      "type": "function"
    },
    {
      "anonymous": false,
      "inputs": [
        {
          "indexed": true,
          "name": "_sender",
          "type": "address"
        },
        {
          "indexed": true,
          "name": "_to",
          "type": "address"
        },
        {
          "indexed": false,
          "name": "_amount",
          "type": "uint256"
        },
        {
          "indexed": true,
          "name": "_avatar",
          "type": "address"
        }
      ],
      "name": "MintReputation",
      "type": "event"
    },
    {
      "anonymous": false,
      "inputs": [
        {
          "indexed": true,
          "name": "_sender",
          "type": "address"
        },
        {
          "indexed": true,
          "name": "_from",
          "type": "address"
        },
        {
          "indexed": false,
          "name": "_amount",
          "type": "uint256"
        },
        {
          "indexed": true,
          "name": "_avatar",
          "type": "address"
        }
      ],
      "name": "BurnReputation",
      "type": "event"
    },
    {
      "anonymous": false,
      "inputs": [
        {
          "indexed": true,
          "name": "_sender",
          "type": "address"
        },
        {
          "indexed": true,
          "name": "_beneficiary",
          "type": "address"
        },
        {
          "indexed": false,
          "name": "_amount",
          "type": "uint256"
        },
        {
          "indexed": true,
          "name": "_avatar",
          "type": "address"
        }
      ],
      "name": "MintTokens",
      "type": "event"
    },
    {
      "anonymous": false,
      "inputs": [
        {
          "indexed": true,
          "name": "_sender",
          "type": "address"
        },
        {
          "indexed": true,
          "name": "_scheme",
          "type": "address"
        },
        {
          "indexed": true,
          "name": "_avatar",
          "type": "address"
        }
      ],
      "name": "RegisterScheme",
      "type": "event"
    },
    {
      "anonymous": false,
      "inputs": [
        {
          "indexed": true,
          "name": "_sender",
          "type": "address"
        },
        {
          "indexed": true,
          "name": "_scheme",
          "type": "address"
        },
        {
          "indexed": true,
          "name": "_avatar",
          "type": "address"
        }
      ],
      "name": "UnregisterScheme",
      "type": "event"
    },
    {
      "anonymous": false,
      "inputs": [
        {
          "indexed": true,
          "name": "_oldController",
          "type": "address"
        },
        {
          "indexed": false,
          "name": "_newController",
          "type": "address"
        },
        {
          "indexed": false,
          "name": "_avatar",
          "type": "address"
        }
      ],
      "name": "UpgradeController",
      "type": "event"
    },
    {
      "anonymous": false,
      "inputs": [
        {
          "indexed": true,
          "name": "_globalConstraint",
          "type": "address"
        },
        {
          "indexed": false,
          "name": "_params",
          "type": "bytes32"
        },
        {
          "indexed": false,
          "name": "_when",
          "type": "uint8"
        },
        {
          "indexed": true,
          "name": "_avatar",
          "type": "address"
        }
      ],
      "name": "AddGlobalConstraint",
      "type": "event"
    },
    {
      "anonymous": false,
      "inputs": [
        {
          "indexed": true,
          "name": "_globalConstraint",
          "type": "address"
        },
        {
          "indexed": false,
          "name": "_index",
          "type": "uint256"
        },
        {
          "indexed": false,
          "name": "_isPre",
          "type": "bool"
        },
        {
          "indexed": true,
          "name": "_avatar",
          "type": "address"
        }
      ],
      "name": "RemoveGlobalConstraint",
      "type": "event"
    },
    {
      "constant": false,
      "inputs": [
        {
          "name": "_avatar",
          "type": "address"
        }
      ],
      "name": "newOrganization",
      "outputs": [],
      "payable": false,
      "stateMutability": "nonpayable",
      "type": "function"
    },
    {
      "constant": false,
      "inputs": [
        {
          "name": "_amount",
          "type": "uint256"
        },
        {
          "name": "_to",
          "type": "address"
        },
        {
          "name": "_avatar",
          "type": "address"
        }
      ],
      "name": "mintReputation",
      "outputs": [
        {
          "name": "",
          "type": "bool"
        }
      ],
      "payable": false,
      "stateMutability": "nonpayable",
      "type": "function"
    },
    {
      "constant": false,
      "inputs": [
        {
          "name": "_amount",
          "type": "uint256"
        },
        {
          "name": "_from",
          "type": "address"
        },
        {
          "name": "_avatar",
          "type": "address"
        }
      ],
      "name": "burnReputation",
      "outputs": [
        {
          "name": "",
          "type": "bool"
        }
      ],
      "payable": false,
      "stateMutability": "nonpayable",
      "type": "function"
    },
    {
      "constant": false,
      "inputs": [
        {
          "name": "_amount",
          "type": "uint256"
        },
        {
          "name": "_beneficiary",
          "type": "address"
        },
        {
          "name": "_avatar",
          "type": "address"
        }
      ],
      "name": "mintTokens",
      "outputs": [
        {
          "name": "",
          "type": "bool"
        }
      ],
      "payable": false,
      "stateMutability": "nonpayable",
      "type": "function"
    },
    {
      "constant": false,
      "inputs": [
        {
          "name": "_scheme",
          "type": "address"
        },
        {
          "name": "_paramsHash",
          "type": "bytes32"
        },
        {
          "name": "_permissions",
          "type": "bytes4"
        },
        {
          "name": "_avatar",
          "type": "address"
        }
      ],
      "name": "registerScheme",
      "outputs": [
        {
          "name": "",
          "type": "bool"
        }
      ],
      "payable": false,
      "stateMutability": "nonpayable",
      "type": "function"
    },
    {
      "constant": false,
      "inputs": [
        {
          "name": "_scheme",
          "type": "address"
        },
        {
          "name": "_avatar",
          "type": "address"
        }
      ],
      "name": "unregisterScheme",
      "outputs": [
        {
          "name": "",
          "type": "bool"
        }
      ],
      "payable": false,
      "stateMutability": "nonpayable",
      "type": "function"
    },
    {
      "constant": false,
      "inputs": [
        {
          "name": "_avatar",
          "type": "address"
        }
      ],
      "name": "unregisterSelf",
      "outputs": [
        {
          "name": "",
          "type": "bool"
        }
      ],
      "payable": false,
      "stateMutability": "nonpayable",
      "type": "function"
    },
    {
      "constant": false,
      "inputs": [
        {
          "name": "_globalConstraint",
          "type": "address"
        },
        {
          "name": "_params",
          "type": "bytes32"
        },
        {
          "name": "_avatar",
          "type": "address"
        }
      ],
      "name": "addGlobalConstraint",
      "outputs": [
        {
          "name": "",
          "type": "bool"
        }
      ],
      "payable": false,
      "stateMutability": "nonpayable",
      "type": "function"
    },
    {
      "constant": false,
      "inputs": [
        {
          "name": "_globalConstraint",
          "type": "address"
        },
        {
          "name": "_avatar",
          "type": "address"
        }
      ],
      "name": "removeGlobalConstraint",
      "outputs": [
        {
          "name": "",
          "type": "bool"
        }
      ],
      "payable": false,
      "stateMutability": "nonpayable",
      "type": "function"
    },
    {
      "constant": false,
      "inputs": [
        {
          "name": "_newController",
          "type": "address"
        },
        {
          "name": "_avatar",
          "type": "address"
        }
      ],
      "name": "upgradeController",
      "outputs": [
        {
          "name": "",
          "type": "bool"
        }
      ],
      "payable": false,
      "stateMutability": "nonpayable",
      "type": "function"
    },
    {
      "constant": false,
      "inputs": [
        {
          "name": "_contract",
          "type": "address"
        },
        {
          "name": "_data",
          "type": "bytes"
        },
        {
          "name": "_avatar",
          "type": "address"
        },
        {
          "name": "_value",
          "type": "uint256"
        }
      ],
      "name": "genericCall",
      "outputs": [
        {
          "name": "",
          "type": "bool"
        },
        {
          "name": "",
          "type": "bytes"
        }
      ],
      "payable": false,
      "stateMutability": "nonpayable",
      "type": "function"
    },
    {
      "constant": false,
      "inputs": [
        {
          "name": "_amountInWei",
          "type": "uint256"
        },
        {
          "name": "_to",
          "type": "address"
        },
        {
          "name": "_avatar",
          "type": "address"
        }
      ],
      "name": "sendEther",
      "outputs": [
        {
          "name": "",
          "type": "bool"
        }
      ],
      "payable": false,
      "stateMutability": "nonpayable",
      "type": "function"
    },
    {
      "constant": false,
      "inputs": [
        {
          "name": "_externalToken",
          "type": "address"
        },
        {
          "name": "_to",
          "type": "address"
        },
        {
          "name": "_value",
          "type": "uint256"
        },
        {
          "name": "_avatar",
          "type": "address"
        }
      ],
      "name": "externalTokenTransfer",
      "outputs": [
        {
          "name": "",
          "type": "bool"
        }
      ],
      "payable": false,
      "stateMutability": "nonpayable",
      "type": "function"
    },
    {
      "constant": false,
      "inputs": [
        {
          "name": "_externalToken",
          "type": "address"
        },
        {
          "name": "_from",
          "type": "address"
        },
        {
          "name": "_to",
          "type": "address"
        },
        {
          "name": "_value",
          "type": "uint256"
        },
        {
          "name": "_avatar",
          "type": "address"
        }
      ],
      "name": "externalTokenTransferFrom",
      "outputs": [
        {
          "name": "",
          "type": "bool"
        }
      ],
      "payable": false,
      "stateMutability": "nonpayable",
      "type": "function"
    },
    {
      "constant": false,
      "inputs": [
        {
          "name": "_externalToken",
          "type": "address"
        },
        {
          "name": "_spender",
          "type": "address"
        },
        {
          "name": "_value",
          "type": "uint256"
        },
        {
          "name": "_avatar",
          "type": "address"
        }
      ],
      "name": "externalTokenApproval",
      "outputs": [
        {
          "name": "",
          "type": "bool"
        }
      ],
      "payable": false,
      "stateMutability": "nonpayable",
      "type": "function"
    },
    {
      "constant": false,
      "inputs": [
        {
          "name": "_metaData",
          "type": "string"
        },
        {
          "name": "_avatar",
          "type": "address"
        }
      ],
      "name": "metaData",
      "outputs": [
        {
          "name": "",
          "type": "bool"
        }
      ],
      "payable": false,
      "stateMutability": "nonpayable",
      "type": "function"
    },
    {
      "constant": true,
      "inputs": [
        {
          "name": "_scheme",
          "type": "address"
        },
        {
          "name": "_avatar",
          "type": "address"
        }
      ],
      "name": "isSchemeRegistered",
      "outputs": [
        {
          "name": "",
          "type": "bool"
        }
      ],
      "payable": false,
      "stateMutability": "view",
      "type": "function"
    },
    {
      "constant": true,
      "inputs": [
        {
          "name": "_scheme",
          "type": "address"
        },
        {
          "name": "_avatar",
          "type": "address"
        }
      ],
      "name": "getSchemeParameters",
      "outputs": [
        {
          "name": "",
          "type": "bytes32"
        }
      ],
      "payable": false,
      "stateMutability": "view",
      "type": "function"
    },
    {
      "constant": true,
      "inputs": [
        {
          "name": "_scheme",
          "type": "address"
        },
        {
          "name": "_avatar",
          "type": "address"
        }
      ],
      "name": "getSchemePermissions",
      "outputs": [
        {
          "name": "",
          "type": "bytes4"
        }
      ],
      "payable": false,
      "stateMutability": "view",
      "type": "function"
    },
    {
      "constant": true,
      "inputs": [
        {
          "name": "_globalConstraint",
          "type": "address"
        },
        {
          "name": "_avatar",
          "type": "address"
        }
      ],
      "name": "getGlobalConstraintParameters",
      "outputs": [
        {
          "name": "",
          "type": "bytes32"
        }
      ],
      "payable": false,
      "stateMutability": "view",
      "type": "function"
    },
    {
      "constant": true,
      "inputs": [
        {
          "name": "_avatar",
          "type": "address"
        }
      ],
      "name": "globalConstraintsCount",
      "outputs": [
        {
          "name": "",
          "type": "uint256"
        },
        {
          "name": "",
          "type": "uint256"
        }
      ],
      "payable": false,
      "stateMutability": "view",
      "type": "function"
    },
    {
      "constant": true,
      "inputs": [
        {
          "name": "_globalConstraint",
          "type": "address"
        },
        {
          "name": "_avatar",
          "type": "address"
        }
      ],
      "name": "isGlobalConstraintRegistered",
      "outputs": [
        {
          "name": "",
          "type": "bool"
        }
      ],
      "payable": false,
      "stateMutability": "view",
      "type": "function"
    },
    {
      "constant": true,
      "inputs": [
        {
          "name": "_avatar",
          "type": "address"
        }
      ],
      "name": "getNativeReputation",
      "outputs": [
        {
          "name": "",
          "type": "address"
        }
      ],
      "payable": false,
      "stateMutability": "view",
      "type": "function"
    }
  ],
  "bytecode": "0x60806040523480156200001157600080fd5b5061826e80620000226000396000f3fe608060405234801561001057600080fd5b506004361061018e5760003560e01c80639b51e35a116100de578063e08738da11610097578063eaa66a3c11610071578063eaa66a3c14610df2578063eaf994b214610e4e578063f76488be14610ed4578063fb4856a214610f505761018e565b8063e08738da14610c45578063e4537a7414610cbd578063e869d45f14610d435761018e565b80639b51e35a146108315780639be2faed146108e7578063b998136414610963578063b9a04cdd146109a7578063c9b62eb114610a4d578063d1b7089a14610afe5761018e565b80635a1f74061161014b5780636c525b13116101255780636c525b131461066c5780636e94d278146106c8578063824f2f1f1461074e5780638da03997146107ad5761018e565b80635a1f7406146104a9578063634965da146105605780636407e432146105e65761018e565b8063039de01d146101935780631c4d56081461020f57806342427bf8146102875780634f52b5be146103035780634fe125a31461037f57806351803cd814610403575b600080fd5b6101f5600480360360408110156101a957600080fd5b81019080803573ffffffffffffffffffffffffffffffffffffffff169060200190929190803573ffffffffffffffffffffffffffffffffffffffff169060200190929190505050611016565b604051808215151515815260200191505060405180910390f35b6102716004803603604081101561022557600080fd5b81019080803573ffffffffffffffffffffffffffffffffffffffff169060200190929190803573ffffffffffffffffffffffffffffffffffffffff169060200190929190505050611842565b6040518082815260200191505060405180910390f35b6102e96004803603604081101561029d57600080fd5b81019080803573ffffffffffffffffffffffffffffffffffffffff169060200190929190803573ffffffffffffffffffffffffffffffffffffffff1690602001909291905050506118ce565b604051808215151515815260200191505060405180910390f35b6103656004803603604081101561031957600080fd5b81019080803573ffffffffffffffffffffffffffffffffffffffff169060200190929190803573ffffffffffffffffffffffffffffffffffffffff169060200190929190505050612359565b604051808215151515815260200191505060405180910390f35b6103c16004803603602081101561039557600080fd5b81019080803573ffffffffffffffffffffffffffffffffffffffff169060200190929190505050612567565b604051808273ffffffffffffffffffffffffffffffffffffffff1673ffffffffffffffffffffffffffffffffffffffff16815260200191505060405180910390f35b61048f6004803603608081101561041957600080fd5b81019080803573ffffffffffffffffffffffffffffffffffffffff169060200190929190803573ffffffffffffffffffffffffffffffffffffffff16906020019092919080359060200190929190803573ffffffffffffffffffffffffffffffffffffffff16906020019092919050505061259a565b604051808215151515815260200191505060405180910390f35b6104eb600480360360208110156104bf57600080fd5b81019080803573ffffffffffffffffffffffffffffffffffffffff169060200190929190505050612bd7565b604051808373ffffffffffffffffffffffffffffffffffffffff1673ffffffffffffffffffffffffffffffffffffffff1681526020018273ffffffffffffffffffffffffffffffffffffffff1673ffffffffffffffffffffffffffffffffffffffff1681526020019250505060405180910390f35b6105cc6004803603606081101561057657600080fd5b8101908080359060200190929190803573ffffffffffffffffffffffffffffffffffffffff169060200190929190803573ffffffffffffffffffffffffffffffffffffffff169060200190929190505050612c3b565b604051808215151515815260200191505060405180910390f35b610652600480360360608110156105fc57600080fd5b8101908080359060200190929190803573ffffffffffffffffffffffffffffffffffffffff169060200190929190803573ffffffffffffffffffffffffffffffffffffffff169060200190929190505050613243565b604051808215151515815260200191505060405180910390f35b6106ae6004803603602081101561068257600080fd5b81019080803573ffffffffffffffffffffffffffffffffffffffff169060200190929190505050613928565b604051808215151515815260200191505060405180910390f35b610734600480360360608110156106de57600080fd5b8101908080359060200190929190803573ffffffffffffffffffffffffffffffffffffffff169060200190929190803573ffffffffffffffffffffffffffffffffffffffff169060200190929190505050613a63565b604051808215151515815260200191505060405180910390f35b6107906004803603602081101561076457600080fd5b81019080803573ffffffffffffffffffffffffffffffffffffffff169060200190929190505050614148565b604051808381526020018281526020019250505060405180910390f35b6107ef600480360360208110156107c357600080fd5b81019080803573ffffffffffffffffffffffffffffffffffffffff1690602001909291905050506141de565b604051808273ffffffffffffffffffffffffffffffffffffffff1673ffffffffffffffffffffffffffffffffffffffff16815260200191505060405180910390f35b6108936004803603604081101561084757600080fd5b81019080803573ffffffffffffffffffffffffffffffffffffffff169060200190929190803573ffffffffffffffffffffffffffffffffffffffff169060200190929190505050614249565b60405180827bffffffffffffffffffffffffffffffffffffffffffffffffffffffff19167bffffffffffffffffffffffffffffffffffffffffffffffffffffffff1916815260200191505060405180910390f35b610949600480360360408110156108fd57600080fd5b81019080803573ffffffffffffffffffffffffffffffffffffffff169060200190929190803573ffffffffffffffffffffffffffffffffffffffff1690602001909291905050506142e2565b604051808215151515815260200191505060405180910390f35b6109a56004803603602081101561097957600080fd5b81019080803573ffffffffffffffffffffffffffffffffffffffff1690602001909291905050506142f6565b005b610a33600480360360808110156109bd57600080fd5b81019080803573ffffffffffffffffffffffffffffffffffffffff169060200190929190803573ffffffffffffffffffffffffffffffffffffffff16906020019092919080359060200190929190803573ffffffffffffffffffffffffffffffffffffffff169060200190929190505050614a95565b604051808215151515815260200191505060405180910390f35b610ae460048036036040811015610a6357600080fd5b8101908080359060200190640100000000811115610a8057600080fd5b820183602082011115610a9257600080fd5b80359060200191846001830284011164010000000083111715610ab457600080fd5b9091929391929390803573ffffffffffffffffffffffffffffffffffffffff1690602001909291905050506150d2565b604051808215151515815260200191505060405180910390f35b610bbf60048036036080811015610b1457600080fd5b81019080803573ffffffffffffffffffffffffffffffffffffffff16906020019092919080359060200190640100000000811115610b5157600080fd5b820183602082011115610b6357600080fd5b80359060200191846001830284011164010000000083111715610b8557600080fd5b9091929391929390803573ffffffffffffffffffffffffffffffffffffffff1690602001909291908035906020019092919050505061527b565b604051808315151515815260200180602001828103825283818151815260200191508051906020019080838360005b83811015610c09578082015181840152602081019050610bee565b50505050905090810190601f168015610c365780820380516001836020036101000a031916815260200191505b50935050505060405180910390f35b610ca760048036036040811015610c5b57600080fd5b81019080803573ffffffffffffffffffffffffffffffffffffffff169060200190929190803573ffffffffffffffffffffffffffffffffffffffff16906020019092919050505061591e565b6040518082815260200191505060405180910390f35b610d2960048036036060811015610cd357600080fd5b81019080803573ffffffffffffffffffffffffffffffffffffffff16906020019092919080359060200190929190803573ffffffffffffffffffffffffffffffffffffffff169060200190929190505050615ac8565b604051808215151515815260200191505060405180910390f35b610dd860048036036080811015610d5957600080fd5b81019080803573ffffffffffffffffffffffffffffffffffffffff1690602001909291908035906020019092919080357bffffffffffffffffffffffffffffffffffffffffffffffffffffffff19169060200190929190803573ffffffffffffffffffffffffffffffffffffffff169060200190929190505050616185565b604051808215151515815260200191505060405180910390f35b610e3460048036036020811015610e0857600080fd5b81019080803573ffffffffffffffffffffffffffffffffffffffff169060200190929190505050616a00565b604051808215151515815260200191505060405180910390f35b610eba60048036036060811015610e6457600080fd5b8101908080359060200190929190803573ffffffffffffffffffffffffffffffffffffffff169060200190929190803573ffffffffffffffffffffffffffffffffffffffff169060200190929190505050616a20565b604051808215151515815260200191505060405180910390f35b610f3660048036036040811015610eea57600080fd5b81019080803573ffffffffffffffffffffffffffffffffffffffff169060200190929190803573ffffffffffffffffffffffffffffffffffffffff169060200190929190505050617105565b604051808215151515815260200191505060405180910390f35b610ffc600480360360a0811015610f6657600080fd5b81019080803573ffffffffffffffffffffffffffffffffffffffff169060200190929190803573ffffffffffffffffffffffffffffffffffffffff169060200190929190803573ffffffffffffffffffffffffffffffffffffffff16906020019092919080359060200190929190803573ffffffffffffffffffffffffffffffffffffffff169060200190929190505050617234565b604051808215151515815260200191505060405180910390f35b600081600260e01b7bffffffffffffffffffffffffffffffffffffffffffffffffffffffff1916600260e01b6000808473ffffffffffffffffffffffffffffffffffffffff1673ffffffffffffffffffffffffffffffffffffffff16815260200190815260200160002060020160003373ffffffffffffffffffffffffffffffffffffffff1673ffffffffffffffffffffffffffffffffffffffff16815260200190815260200160002060010160009054906101000a900460e01b167bffffffffffffffffffffffffffffffffffffffffffffffffffffffff1916146110fb57600080fd5b7f756e7265676973746572536368656d650000000000000000000000000000000083600060606000808473ffffffffffffffffffffffffffffffffffffffff1673ffffffffffffffffffffffffffffffffffffffff168152602001908152602001600020600301805480602002602001604051908101604052809291908181526020016000905b8282101561121457838290600052602060002090600202016040518060400160405290816000820160009054906101000a900473ffffffffffffffffffffffffffffffffffffffff1673ffffffffffffffffffffffffffffffffffffffff1673ffffffffffffffffffffffffffffffffffffffff16815260200160018201548152505081526020019060010190611182565b50505050905060606000808573ffffffffffffffffffffffffffffffffffffffff1673ffffffffffffffffffffffffffffffffffffffff168152602001908152602001600020600401805480602002602001604051908101604052809291908181526020016000905b8282101561130f57838290600052602060002090600202016040518060400160405290816000820160009054906101000a900473ffffffffffffffffffffffffffffffffffffffff1673ffffffffffffffffffffffffffffffffffffffff1673ffffffffffffffffffffffffffffffffffffffff1681526020016001820154815250508152602001906001019061127d565b505050509050600092505b81518310156114315781838151811061132f57fe5b60200260200101516000015173ffffffffffffffffffffffffffffffffffffffff1663c1786ab23384868151811061136357fe5b602002602001015160200151886040518463ffffffff1660e01b8152600401808473ffffffffffffffffffffffffffffffffffffffff1673ffffffffffffffffffffffffffffffffffffffff1681526020018381526020018281526020019350505050602060405180830381600087803b1580156113e057600080fd5b505af11580156113f4573d6000803e3d6000fd5b505050506040513d602081101561140a57600080fd5b810190808051906020019092919050505061142457600080fd5b828060010193505061131a565b60008060008a73ffffffffffffffffffffffffffffffffffffffff1673ffffffffffffffffffffffffffffffffffffffff16815260200190815260200160002060020160008b73ffffffffffffffffffffffffffffffffffffffff1673ffffffffffffffffffffffffffffffffffffffff16815260200190815260200160002060010160009054906101000a900460e01b9050600060e01b7bffffffffffffffffffffffffffffffffffffffffffffffffffffffff1916600160e01b82167bffffffffffffffffffffffffffffffffffffffffffffffffffffffff1916141561151e57600097505061171a565b600060e01b7bffffffffffffffffffffffffffffffffffffffffffffffffffffffff19166000808b73ffffffffffffffffffffffffffffffffffffffff1673ffffffffffffffffffffffffffffffffffffffff16815260200190815260200160002060020160003373ffffffffffffffffffffffffffffffffffffffff1673ffffffffffffffffffffffffffffffffffffffff16815260200190815260200160002060010160009054906101000a900460e01b198216601f60e01b167bffffffffffffffffffffffffffffffffffffffffffffffffffffffff19161461160357600080fd5b8873ffffffffffffffffffffffffffffffffffffffff168a73ffffffffffffffffffffffffffffffffffffffff163373ffffffffffffffffffffffffffffffffffffffff167f6c6acccb2a8bdecd133efe43bc929b25f75255a88da20af641c9ba4acc0e0e5b60405160405180910390a46000808a73ffffffffffffffffffffffffffffffffffffffff1673ffffffffffffffffffffffffffffffffffffffff16815260200190815260200160002060020160008b73ffffffffffffffffffffffffffffffffffffffff1673ffffffffffffffffffffffffffffffffffffffff1681526020019081526020016000206000808201600090556001820160006101000a81549063ffffffff0219169055505060019750505b600092505b80518310156118365780838151811061173457fe5b60200260200101516000015173ffffffffffffffffffffffffffffffffffffffff16638043154d3383868151811061176857fe5b602002602001015160200151886040518463ffffffff1660e01b8152600401808473ffffffffffffffffffffffffffffffffffffffff1673ffffffffffffffffffffffffffffffffffffffff1681526020018381526020018281526020019350505050602060405180830381600087803b1580156117e557600080fd5b505af11580156117f9573d6000803e3d6000fd5b505050506040513d602081101561180f57600080fd5b810190808051906020019092919050505061182957600080fd5b828060010193505061171f565b50505050505092915050565b60008060008373ffffffffffffffffffffffffffffffffffffffff1673ffffffffffffffffffffffffffffffffffffffff16815260200190815260200160002060020160008473ffffffffffffffffffffffffffffffffffffffff1673ffffffffffffffffffffffffffffffffffffffff16815260200190815260200160002060000154905092915050565b600081600860e01b7bffffffffffffffffffffffffffffffffffffffffffffffffffffffff1916600860e01b6000808473ffffffffffffffffffffffffffffffffffffffff1673ffffffffffffffffffffffffffffffffffffffff16815260200190815260200160002060020160003373ffffffffffffffffffffffffffffffffffffffff1673ffffffffffffffffffffffffffffffffffffffff16815260200190815260200160002060010160009054906101000a900460e01b167bffffffffffffffffffffffffffffffffffffffffffffffffffffffff1916146119b357600080fd5b600073ffffffffffffffffffffffffffffffffffffffff16600160008573ffffffffffffffffffffffffffffffffffffffff1673ffffffffffffffffffffffffffffffffffffffff16815260200190815260200160002060009054906101000a900473ffffffffffffffffffffffffffffffffffffffff1673ffffffffffffffffffffffffffffffffffffffff1614611a4b57600080fd5b600073ffffffffffffffffffffffffffffffffffffffff168473ffffffffffffffffffffffffffffffffffffffff161415611a8557600080fd5b83600160008573ffffffffffffffffffffffffffffffffffffffff1673ffffffffffffffffffffffffffffffffffffffff16815260200190815260200160002060006101000a81548173ffffffffffffffffffffffffffffffffffffffff021916908373ffffffffffffffffffffffffffffffffffffffff1602179055508273ffffffffffffffffffffffffffffffffffffffff1663f2fde38b856040518263ffffffff1660e01b8152600401808273ffffffffffffffffffffffffffffffffffffffff1673ffffffffffffffffffffffffffffffffffffffff168152602001915050600060405180830381600087803b158015611b8257600080fd5b505af1158015611b96573d6000803e3d6000fd5b505050508373ffffffffffffffffffffffffffffffffffffffff168373ffffffffffffffffffffffffffffffffffffffff16638da5cb5b6040518163ffffffff1660e01b815260040160206040518083038186803b158015611bf757600080fd5b505afa158015611c0b573d6000803e3d6000fd5b505050506040513d6020811015611c2157600080fd5b810190808051906020019092919050505073ffffffffffffffffffffffffffffffffffffffff1614611c5257600080fd5b3073ffffffffffffffffffffffffffffffffffffffff166000808573ffffffffffffffffffffffffffffffffffffffff1673ffffffffffffffffffffffffffffffffffffffff16815260200190815260200160002060000160009054906101000a900473ffffffffffffffffffffffffffffffffffffffff1673ffffffffffffffffffffffffffffffffffffffff16638da5cb5b6040518163ffffffff1660e01b815260040160206040518083038186803b158015611d1057600080fd5b505afa158015611d24573d6000803e3d6000fd5b505050506040513d6020811015611d3a57600080fd5b810190808051906020019092919050505073ffffffffffffffffffffffffffffffffffffffff161415611f79576000808473ffffffffffffffffffffffffffffffffffffffff1673ffffffffffffffffffffffffffffffffffffffff16815260200190815260200160002060000160009054906101000a900473ffffffffffffffffffffffffffffffffffffffff1673ffffffffffffffffffffffffffffffffffffffff1663f2fde38b856040518263ffffffff1660e01b8152600401808273ffffffffffffffffffffffffffffffffffffffff1673ffffffffffffffffffffffffffffffffffffffff168152602001915050600060405180830381600087803b158015611e4757600080fd5b505af1158015611e5b573d6000803e3d6000fd5b505050508373ffffffffffffffffffffffffffffffffffffffff166000808573ffffffffffffffffffffffffffffffffffffffff1673ffffffffffffffffffffffffffffffffffffffff16815260200190815260200160002060000160009054906101000a900473ffffffffffffffffffffffffffffffffffffffff1673ffffffffffffffffffffffffffffffffffffffff16638da5cb5b6040518163ffffffff1660e01b815260040160206040518083038186803b158015611f1d57600080fd5b505afa158015611f31573d6000803e3d6000fd5b505050506040513d6020811015611f4757600080fd5b810190808051906020019092919050505073ffffffffffffffffffffffffffffffffffffffff1614611f7857600080fd5b5b3073ffffffffffffffffffffffffffffffffffffffff166000808573ffffffffffffffffffffffffffffffffffffffff1673ffffffffffffffffffffffffffffffffffffffff16815260200190815260200160002060010160009054906101000a900473ffffffffffffffffffffffffffffffffffffffff1673ffffffffffffffffffffffffffffffffffffffff16638da5cb5b6040518163ffffffff1660e01b815260040160206040518083038186803b15801561203757600080fd5b505afa15801561204b573d6000803e3d6000fd5b505050506040513d602081101561206157600080fd5b810190808051906020019092919050505073ffffffffffffffffffffffffffffffffffffffff1614156122a0576000808473ffffffffffffffffffffffffffffffffffffffff1673ffffffffffffffffffffffffffffffffffffffff16815260200190815260200160002060010160009054906101000a900473ffffffffffffffffffffffffffffffffffffffff1673ffffffffffffffffffffffffffffffffffffffff1663f2fde38b856040518263ffffffff1660e01b8152600401808273ffffffffffffffffffffffffffffffffffffffff1673ffffffffffffffffffffffffffffffffffffffff168152602001915050600060405180830381600087803b15801561216e57600080fd5b505af1158015612182573d6000803e3d6000fd5b505050508373ffffffffffffffffffffffffffffffffffffffff166000808573ffffffffffffffffffffffffffffffffffffffff1673ffffffffffffffffffffffffffffffffffffffff16815260200190815260200160002060010160009054906101000a900473ffffffffffffffffffffffffffffffffffffffff1673ffffffffffffffffffffffffffffffffffffffff16638da5cb5b6040518163ffffffff1660e01b815260040160206040518083038186803b15801561224457600080fd5b505afa158015612258573d6000803e3d6000fd5b505050506040513d602081101561226e57600080fd5b810190808051906020019092919050505073ffffffffffffffffffffffffffffffffffffffff161461229f57600080fd5b5b3073ffffffffffffffffffffffffffffffffffffffff167f8206909fdb23a8ad42188f753026bc9082758d85e20dce9bc8c4b34f2ec3db328585604051808373ffffffffffffffffffffffffffffffffffffffff1673ffffffffffffffffffffffffffffffffffffffff1681526020018273ffffffffffffffffffffffffffffffffffffffff1673ffffffffffffffffffffffffffffffffffffffff1681526020019250505060405180910390a2600191505092915050565b600081600460e01b7bffffffffffffffffffffffffffffffffffffffffffffffffffffffff1916600460e01b6000808473ffffffffffffffffffffffffffffffffffffffff1673ffffffffffffffffffffffffffffffffffffffff16815260200190815260200160002060020160003373ffffffffffffffffffffffffffffffffffffffff1673ffffffffffffffffffffffffffffffffffffffff16815260200190815260200160002060010160009054906101000a900460e01b167bffffffffffffffffffffffffffffffffffffffffffffffffffffffff19161461243e57600080fd5b60008473ffffffffffffffffffffffffffffffffffffffff1663e2b0caef6040518163ffffffff1660e01b8152600401602060405180830381600087803b15801561248857600080fd5b505af115801561249c573d6000803e3d6000fd5b505050506040513d60208110156124b257600080fd5b81019080805190602001909291905050509050600060028111156124d257fe5b8160028111156124de57fe5b14806124ff57506002808111156124f157fe5b8160028111156124fd57fe5b145b156125105761250e85856178a6565b505b6001600281111561251d57fe5b81600281111561252957fe5b148061254a575060028081111561253c57fe5b81600281111561254857fe5b145b1561255b576125598585617c9b565b505b60019250505092915050565b60016020528060005260406000206000915054906101000a900473ffffffffffffffffffffffffffffffffffffffff1681565b600081600160e01b7bffffffffffffffffffffffffffffffffffffffffffffffffffffffff1916600160e01b6000808473ffffffffffffffffffffffffffffffffffffffff1673ffffffffffffffffffffffffffffffffffffffff16815260200190815260200160002060020160003373ffffffffffffffffffffffffffffffffffffffff1673ffffffffffffffffffffffffffffffffffffffff16815260200190815260200160002060010160009054906101000a900460e01b167bffffffffffffffffffffffffffffffffffffffffffffffffffffffff19161461267f57600080fd5b7f65787465726e616c546f6b656e417070726f76616c000000000000000000000083600060606000808473ffffffffffffffffffffffffffffffffffffffff1673ffffffffffffffffffffffffffffffffffffffff168152602001908152602001600020600301805480602002602001604051908101604052809291908181526020016000905b8282101561279857838290600052602060002090600202016040518060400160405290816000820160009054906101000a900473ffffffffffffffffffffffffffffffffffffffff1673ffffffffffffffffffffffffffffffffffffffff1673ffffffffffffffffffffffffffffffffffffffff16815260200160018201548152505081526020019060010190612706565b50505050905060606000808573ffffffffffffffffffffffffffffffffffffffff1673ffffffffffffffffffffffffffffffffffffffff168152602001908152602001600020600401805480602002602001604051908101604052809291908181526020016000905b8282101561289357838290600052602060002090600202016040518060400160405290816000820160009054906101000a900473ffffffffffffffffffffffffffffffffffffffff1673ffffffffffffffffffffffffffffffffffffffff1673ffffffffffffffffffffffffffffffffffffffff16815260200160018201548152505081526020019060010190612801565b505050509050600092505b81518310156129b5578183815181106128b357fe5b60200260200101516000015173ffffffffffffffffffffffffffffffffffffffff1663c1786ab2338486815181106128e757fe5b602002602001015160200151886040518463ffffffff1660e01b8152600401808473ffffffffffffffffffffffffffffffffffffffff1673ffffffffffffffffffffffffffffffffffffffff1681526020018381526020018281526020019350505050602060405180830381600087803b15801561296457600080fd5b505af1158015612978573d6000803e3d6000fd5b505050506040513d602081101561298e57600080fd5b81019080805190602001909291905050506129a857600080fd5b828060010193505061289e565b8773ffffffffffffffffffffffffffffffffffffffff1663ab751f718c8c8c6040518463ffffffff1660e01b8152600401808473ffffffffffffffffffffffffffffffffffffffff1673ffffffffffffffffffffffffffffffffffffffff1681526020018373ffffffffffffffffffffffffffffffffffffffff1673ffffffffffffffffffffffffffffffffffffffff1681526020018281526020019350505050602060405180830381600087803b158015612a7057600080fd5b505af1158015612a84573d6000803e3d6000fd5b505050506040513d6020811015612a9a57600080fd5b81019080805190602001909291905050509650600092505b8051831015612bc957808381518110612ac757fe5b60200260200101516000015173ffffffffffffffffffffffffffffffffffffffff16638043154d33838681518110612afb57fe5b602002602001015160200151886040518463ffffffff1660e01b8152600401808473ffffffffffffffffffffffffffffffffffffffff1673ffffffffffffffffffffffffffffffffffffffff1681526020018381526020018281526020019350505050602060405180830381600087803b158015612b7857600080fd5b505af1158015612b8c573d6000803e3d6000fd5b505050506040513d6020811015612ba257600080fd5b8101908080519060200190929190505050612bbc57600080fd5b8280600101935050612ab2565b505050505050949350505050565b60006020528060005260406000206000915090508060000160009054906101000a900473ffffffffffffffffffffffffffffffffffffffff16908060010160009054906101000a900473ffffffffffffffffffffffffffffffffffffffff16905082565b600081600160e01b7bffffffffffffffffffffffffffffffffffffffffffffffffffffffff1916600160e01b6000808473ffffffffffffffffffffffffffffffffffffffff1673ffffffffffffffffffffffffffffffffffffffff16815260200190815260200160002060020160003373ffffffffffffffffffffffffffffffffffffffff1673ffffffffffffffffffffffffffffffffffffffff16815260200190815260200160002060010160009054906101000a900460e01b167bffffffffffffffffffffffffffffffffffffffffffffffffffffffff191614612d2057600080fd5b7f73656e644574686572000000000000000000000000000000000000000000000083600060606000808473ffffffffffffffffffffffffffffffffffffffff1673ffffffffffffffffffffffffffffffffffffffff168152602001908152602001600020600301805480602002602001604051908101604052809291908181526020016000905b82821015612e3957838290600052602060002090600202016040518060400160405290816000820160009054906101000a900473ffffffffffffffffffffffffffffffffffffffff1673ffffffffffffffffffffffffffffffffffffffff1673ffffffffffffffffffffffffffffffffffffffff16815260200160018201548152505081526020019060010190612da7565b50505050905060606000808573ffffffffffffffffffffffffffffffffffffffff1673ffffffffffffffffffffffffffffffffffffffff168152602001908152602001600020600401805480602002602001604051908101604052809291908181526020016000905b82821015612f3457838290600052602060002090600202016040518060400160405290816000820160009054906101000a900473ffffffffffffffffffffffffffffffffffffffff1673ffffffffffffffffffffffffffffffffffffffff1673ffffffffffffffffffffffffffffffffffffffff16815260200160018201548152505081526020019060010190612ea2565b505050509050600092505b815183101561305657818381518110612f5457fe5b60200260200101516000015173ffffffffffffffffffffffffffffffffffffffff1663c1786ab233848681518110612f8857fe5b602002602001015160200151886040518463ffffffff1660e01b8152600401808473ffffffffffffffffffffffffffffffffffffffff1673ffffffffffffffffffffffffffffffffffffffff1681526020018381526020018281526020019350505050602060405180830381600087803b15801561300557600080fd5b505af1158015613019573d6000803e3d6000fd5b505050506040513d602081101561302f57600080fd5b810190808051906020019092919050505061304957600080fd5b8280600101935050612f3f565b8773ffffffffffffffffffffffffffffffffffffffff1663cb16d4a28b8b6040518363ffffffff1660e01b8152600401808381526020018273ffffffffffffffffffffffffffffffffffffffff1673ffffffffffffffffffffffffffffffffffffffff16815260200192505050602060405180830381600087803b1580156130dd57600080fd5b505af11580156130f1573d6000803e3d6000fd5b505050506040513d602081101561310757600080fd5b81019080805190602001909291905050509650600092505b80518310156132365780838151811061313457fe5b60200260200101516000015173ffffffffffffffffffffffffffffffffffffffff16638043154d3383868151811061316857fe5b602002602001015160200151886040518463ffffffff1660e01b8152600401808473ffffffffffffffffffffffffffffffffffffffff1673ffffffffffffffffffffffffffffffffffffffff1681526020018381526020018281526020019350505050602060405180830381600087803b1580156131e557600080fd5b505af11580156131f9573d6000803e3d6000fd5b505050506040513d602081101561320f57600080fd5b810190808051906020019092919050505061322957600080fd5b828060010193505061311f565b5050505050509392505050565b600081600160e01b7bffffffffffffffffffffffffffffffffffffffffffffffffffffffff1916600160e01b6000808473ffffffffffffffffffffffffffffffffffffffff1673ffffffffffffffffffffffffffffffffffffffff16815260200190815260200160002060020160003373ffffffffffffffffffffffffffffffffffffffff1673ffffffffffffffffffffffffffffffffffffffff16815260200190815260200160002060010160009054906101000a900460e01b167bffffffffffffffffffffffffffffffffffffffffffffffffffffffff19161461332857600080fd5b7f6d696e74546f6b656e730000000000000000000000000000000000000000000083600060606000808473ffffffffffffffffffffffffffffffffffffffff1673ffffffffffffffffffffffffffffffffffffffff168152602001908152602001600020600301805480602002602001604051908101604052809291908181526020016000905b8282101561344157838290600052602060002090600202016040518060400160405290816000820160009054906101000a900473ffffffffffffffffffffffffffffffffffffffff1673ffffffffffffffffffffffffffffffffffffffff1673ffffffffffffffffffffffffffffffffffffffff168152602001600182015481525050815260200190600101906133af565b50505050905060606000808573ffffffffffffffffffffffffffffffffffffffff1673ffffffffffffffffffffffffffffffffffffffff168152602001908152602001600020600401805480602002602001604051908101604052809291908181526020016000905b8282101561353c57838290600052602060002090600202016040518060400160405290816000820160009054906101000a900473ffffffffffffffffffffffffffffffffffffffff1673ffffffffffffffffffffffffffffffffffffffff1673ffffffffffffffffffffffffffffffffffffffff168152602001600182015481525050815260200190600101906134aa565b505050509050600092505b815183101561365e5781838151811061355c57fe5b60200260200101516000015173ffffffffffffffffffffffffffffffffffffffff1663c1786ab23384868151811061359057fe5b602002602001015160200151886040518463ffffffff1660e01b8152600401808473ffffffffffffffffffffffffffffffffffffffff1673ffffffffffffffffffffffffffffffffffffffff1681526020018381526020018281526020019350505050602060405180830381600087803b15801561360d57600080fd5b505af1158015613621573d6000803e3d6000fd5b505050506040513d602081101561363757600080fd5b810190808051906020019092919050505061365157600080fd5b8280600101935050613547565b8773ffffffffffffffffffffffffffffffffffffffff168973ffffffffffffffffffffffffffffffffffffffff163373ffffffffffffffffffffffffffffffffffffffff167f5f31335b49d4d41584177ece651b9e2bb48565b82a1dfbf1b75eec6343215e4c8d6040518082815260200191505060405180910390a46000808973ffffffffffffffffffffffffffffffffffffffff1673ffffffffffffffffffffffffffffffffffffffff16815260200190815260200160002060000160009054906101000a900473ffffffffffffffffffffffffffffffffffffffff1673ffffffffffffffffffffffffffffffffffffffff166340c10f198a8c6040518363ffffffff1660e01b8152600401808373ffffffffffffffffffffffffffffffffffffffff1673ffffffffffffffffffffffffffffffffffffffff16815260200182815260200192505050602060405180830381600087803b1580156137c257600080fd5b505af11580156137d6573d6000803e3d6000fd5b505050506040513d60208110156137ec57600080fd5b81019080805190602001909291905050509650600092505b805183101561391b5780838151811061381957fe5b60200260200101516000015173ffffffffffffffffffffffffffffffffffffffff16638043154d3383868151811061384d57fe5b602002602001015160200151886040518463ffffffff1660e01b8152600401808473ffffffffffffffffffffffffffffffffffffffff1673ffffffffffffffffffffffffffffffffffffffff1681526020018381526020018281526020019350505050602060405180830381600087803b1580156138ca57600080fd5b505af11580156138de573d6000803e3d6000fd5b505050506040513d60208110156138f457600080fd5b810190808051906020019092919050505061390e57600080fd5b8280600101935050613804565b5050505050509392505050565b60008015156139373384618090565b151514156139485760009050613a5e565b6000808373ffffffffffffffffffffffffffffffffffffffff1673ffffffffffffffffffffffffffffffffffffffff16815260200190815260200160002060020160003373ffffffffffffffffffffffffffffffffffffffff1673ffffffffffffffffffffffffffffffffffffffff1681526020019081526020016000206000808201600090556001820160006101000a81549063ffffffff021916905550508173ffffffffffffffffffffffffffffffffffffffff163373ffffffffffffffffffffffffffffffffffffffff163373ffffffffffffffffffffffffffffffffffffffff167f6c6acccb2a8bdecd133efe43bc929b25f75255a88da20af641c9ba4acc0e0e5b60405160405180910390a4600190505b919050565b600081600160e01b7bffffffffffffffffffffffffffffffffffffffffffffffffffffffff1916600160e01b6000808473ffffffffffffffffffffffffffffffffffffffff1673ffffffffffffffffffffffffffffffffffffffff16815260200190815260200160002060020160003373ffffffffffffffffffffffffffffffffffffffff1673ffffffffffffffffffffffffffffffffffffffff16815260200190815260200160002060010160009054906101000a900460e01b167bffffffffffffffffffffffffffffffffffffffffffffffffffffffff191614613b4857600080fd5b7f6275726e52657075746174696f6e00000000000000000000000000000000000083600060606000808473ffffffffffffffffffffffffffffffffffffffff1673ffffffffffffffffffffffffffffffffffffffff168152602001908152602001600020600301805480602002602001604051908101604052809291908181526020016000905b82821015613c6157838290600052602060002090600202016040518060400160405290816000820160009054906101000a900473ffffffffffffffffffffffffffffffffffffffff1673ffffffffffffffffffffffffffffffffffffffff1673ffffffffffffffffffffffffffffffffffffffff16815260200160018201548152505081526020019060010190613bcf565b50505050905060606000808573ffffffffffffffffffffffffffffffffffffffff1673ffffffffffffffffffffffffffffffffffffffff168152602001908152602001600020600401805480602002602001604051908101604052809291908181526020016000905b82821015613d5c57838290600052602060002090600202016040518060400160405290816000820160009054906101000a900473ffffffffffffffffffffffffffffffffffffffff1673ffffffffffffffffffffffffffffffffffffffff1673ffffffffffffffffffffffffffffffffffffffff16815260200160018201548152505081526020019060010190613cca565b505050509050600092505b8151831015613e7e57818381518110613d7c57fe5b60200260200101516000015173ffffffffffffffffffffffffffffffffffffffff1663c1786ab233848681518110613db057fe5b602002602001015160200151886040518463ffffffff1660e01b8152600401808473ffffffffffffffffffffffffffffffffffffffff1673ffffffffffffffffffffffffffffffffffffffff1681526020018381526020018281526020019350505050602060405180830381600087803b158015613e2d57600080fd5b505af1158015613e41573d6000803e3d6000fd5b505050506040513d6020811015613e5757600080fd5b8101908080519060200190929190505050613e7157600080fd5b8280600101935050613d67565b8773ffffffffffffffffffffffffffffffffffffffff168973ffffffffffffffffffffffffffffffffffffffff163373ffffffffffffffffffffffffffffffffffffffff167fc9d509efc43bbd833bfbc3d7031bf2c4b4a7c30c53ba374bc9d5ec44661dbf878d6040518082815260200191505060405180910390a46000808973ffffffffffffffffffffffffffffffffffffffff1673ffffffffffffffffffffffffffffffffffffffff16815260200190815260200160002060010160009054906101000a900473ffffffffffffffffffffffffffffffffffffffff1673ffffffffffffffffffffffffffffffffffffffff16639dc29fac8a8c6040518363ffffffff1660e01b8152600401808373ffffffffffffffffffffffffffffffffffffffff1673ffffffffffffffffffffffffffffffffffffffff16815260200182815260200192505050602060405180830381600087803b158015613fe257600080fd5b505af1158015613ff6573d6000803e3d6000fd5b505050506040513d602081101561400c57600080fd5b81019080805190602001909291905050509650600092505b805183101561413b5780838151811061403957fe5b60200260200101516000015173ffffffffffffffffffffffffffffffffffffffff16638043154d3383868151811061406d57fe5b602002602001015160200151886040518463ffffffff1660e01b8152600401808473ffffffffffffffffffffffffffffffffffffffff1673ffffffffffffffffffffffffffffffffffffffff1681526020018381526020018281526020019350505050602060405180830381600087803b1580156140ea57600080fd5b505af11580156140fe573d6000803e3d6000fd5b505050506040513d602081101561411457600080fd5b810190808051906020019092919050505061412e57600080fd5b8280600101935050614024565b5050505050509392505050565b6000806000808473ffffffffffffffffffffffffffffffffffffffff1673ffffffffffffffffffffffffffffffffffffffff168152602001908152602001600020600301805490506000808573ffffffffffffffffffffffffffffffffffffffff1673ffffffffffffffffffffffffffffffffffffffff1681526020019081526020016000206004018054905091509150915091565b60008060008373ffffffffffffffffffffffffffffffffffffffff1673ffffffffffffffffffffffffffffffffffffffff16815260200190815260200160002060010160009054906101000a900473ffffffffffffffffffffffffffffffffffffffff169050919050565b60008060008373ffffffffffffffffffffffffffffffffffffffff1673ffffffffffffffffffffffffffffffffffffffff16815260200190815260200160002060020160008473ffffffffffffffffffffffffffffffffffffffff1673ffffffffffffffffffffffffffffffffffffffff16815260200190815260200160002060010160009054906101000a900460e01b905092915050565b60006142ee8383618090565b905092915050565b600260008273ffffffffffffffffffffffffffffffffffffffff1673ffffffffffffffffffffffffffffffffffffffff16815260200190815260200160002060009054906101000a900460ff161561434d57600080fd5b6001600260008373ffffffffffffffffffffffffffffffffffffffff1673ffffffffffffffffffffffffffffffffffffffff16815260200190815260200160002060006101000a81548160ff0219169083151502179055503073ffffffffffffffffffffffffffffffffffffffff168173ffffffffffffffffffffffffffffffffffffffff16638da5cb5b6040518163ffffffff1660e01b815260040160206040518083038186803b15801561440257600080fd5b505afa158015614416573d6000803e3d6000fd5b505050506040513d602081101561442c57600080fd5b810190808051906020019092919050505073ffffffffffffffffffffffffffffffffffffffff161461445d57600080fd5b60008173ffffffffffffffffffffffffffffffffffffffff1663e1758bd86040518163ffffffff1660e01b815260040160206040518083038186803b1580156144a557600080fd5b505afa1580156144b9573d6000803e3d6000fd5b505050506040513d60208110156144cf57600080fd5b8101908080519060200190929190505050905060008273ffffffffffffffffffffffffffffffffffffffff166389ae1c906040518163ffffffff1660e01b815260040160206040518083038186803b15801561452a57600080fd5b505afa15801561453e573d6000803e3d6000fd5b505050506040513d602081101561455457600080fd5b810190808051906020019092919050505090503073ffffffffffffffffffffffffffffffffffffffff168273ffffffffffffffffffffffffffffffffffffffff16638da5cb5b6040518163ffffffff1660e01b815260040160206040518083038186803b1580156145c457600080fd5b505afa1580156145d8573d6000803e3d6000fd5b505050506040513d60208110156145ee57600080fd5b810190808051906020019092919050505073ffffffffffffffffffffffffffffffffffffffff161461461f57600080fd5b3073ffffffffffffffffffffffffffffffffffffffff168173ffffffffffffffffffffffffffffffffffffffff16638da5cb5b6040518163ffffffff1660e01b815260040160206040518083038186803b15801561467c57600080fd5b505afa158015614690573d6000803e3d6000fd5b505050506040513d60208110156146a657600080fd5b810190808051906020019092919050505073ffffffffffffffffffffffffffffffffffffffff16146146d757600080fd5b600260008273ffffffffffffffffffffffffffffffffffffffff1673ffffffffffffffffffffffffffffffffffffffff16815260200190815260200160002060009054906101000a900460ff161561472e57600080fd5b6001600260008373ffffffffffffffffffffffffffffffffffffffff1673ffffffffffffffffffffffffffffffffffffffff16815260200190815260200160002060006101000a81548160ff021916908315150217905550600260008373ffffffffffffffffffffffffffffffffffffffff1673ffffffffffffffffffffffffffffffffffffffff16815260200190815260200160002060009054906101000a900460ff16156147dd57600080fd5b6001600260008473ffffffffffffffffffffffffffffffffffffffff1673ffffffffffffffffffffffffffffffffffffffff16815260200190815260200160002060006101000a81548160ff021916908315150217905550816000808573ffffffffffffffffffffffffffffffffffffffff1673ffffffffffffffffffffffffffffffffffffffff16815260200190815260200160002060000160006101000a81548173ffffffffffffffffffffffffffffffffffffffff021916908373ffffffffffffffffffffffffffffffffffffffff160217905550806000808573ffffffffffffffffffffffffffffffffffffffff1673ffffffffffffffffffffffffffffffffffffffff16815260200190815260200160002060010160006101000a81548173ffffffffffffffffffffffffffffffffffffffff021916908373ffffffffffffffffffffffffffffffffffffffff16021790555060405180604001604052806000801b8152602001601f60e01b7bffffffffffffffffffffffffffffffffffffffffffffffffffffffff19168152506000808573ffffffffffffffffffffffffffffffffffffffff1673ffffffffffffffffffffffffffffffffffffffff16815260200190815260200160002060020160003373ffffffffffffffffffffffffffffffffffffffff1673ffffffffffffffffffffffffffffffffffffffff1681526020019081526020016000206000820151816000015560208201518160010160006101000a81548163ffffffff021916908360e01c02179055509050508273ffffffffffffffffffffffffffffffffffffffff163373ffffffffffffffffffffffffffffffffffffffff163373ffffffffffffffffffffffffffffffffffffffff167f521230fe5fa463e77907aa7d9653b8cf93661e82561e966af8aa0a99910554c160405160405180910390a4505050565b600081600160e01b7bffffffffffffffffffffffffffffffffffffffffffffffffffffffff1916600160e01b6000808473ffffffffffffffffffffffffffffffffffffffff1673ffffffffffffffffffffffffffffffffffffffff16815260200190815260200160002060020160003373ffffffffffffffffffffffffffffffffffffffff1673ffffffffffffffffffffffffffffffffffffffff16815260200190815260200160002060010160009054906101000a900460e01b167bffffffffffffffffffffffffffffffffffffffffffffffffffffffff191614614b7a57600080fd5b7f65787465726e616c546f6b656e5472616e73666572000000000000000000000083600060606000808473ffffffffffffffffffffffffffffffffffffffff1673ffffffffffffffffffffffffffffffffffffffff168152602001908152602001600020600301805480602002602001604051908101604052809291908181526020016000905b82821015614c9357838290600052602060002090600202016040518060400160405290816000820160009054906101000a900473ffffffffffffffffffffffffffffffffffffffff1673ffffffffffffffffffffffffffffffffffffffff1673ffffffffffffffffffffffffffffffffffffffff16815260200160018201548152505081526020019060010190614c01565b50505050905060606000808573ffffffffffffffffffffffffffffffffffffffff1673ffffffffffffffffffffffffffffffffffffffff168152602001908152602001600020600401805480602002602001604051908101604052809291908181526020016000905b82821015614d8e57838290600052602060002090600202016040518060400160405290816000820160009054906101000a900473ffffffffffffffffffffffffffffffffffffffff1673ffffffffffffffffffffffffffffffffffffffff1673ffffffffffffffffffffffffffffffffffffffff16815260200160018201548152505081526020019060010190614cfc565b505050509050600092505b8151831015614eb057818381518110614dae57fe5b60200260200101516000015173ffffffffffffffffffffffffffffffffffffffff1663c1786ab233848681518110614de257fe5b602002602001015160200151886040518463ffffffff1660e01b8152600401808473ffffffffffffffffffffffffffffffffffffffff1673ffffffffffffffffffffffffffffffffffffffff1681526020018381526020018281526020019350505050602060405180830381600087803b158015614e5f57600080fd5b505af1158015614e73573d6000803e3d6000fd5b505050506040513d6020811015614e8957600080fd5b8101908080519060200190929190505050614ea357600080fd5b8280600101935050614d99565b8773ffffffffffffffffffffffffffffffffffffffff1663dab0efff8c8c8c6040518463ffffffff1660e01b8152600401808473ffffffffffffffffffffffffffffffffffffffff1673ffffffffffffffffffffffffffffffffffffffff1681526020018373ffffffffffffffffffffffffffffffffffffffff1673ffffffffffffffffffffffffffffffffffffffff1681526020018281526020019350505050602060405180830381600087803b158015614f6b57600080fd5b505af1158015614f7f573d6000803e3d6000fd5b505050506040513d6020811015614f9557600080fd5b81019080805190602001909291905050509650600092505b80518310156150c457808381518110614fc257fe5b60200260200101516000015173ffffffffffffffffffffffffffffffffffffffff16638043154d33838681518110614ff657fe5b602002602001015160200151886040518463ffffffff1660e01b8152600401808473ffffffffffffffffffffffffffffffffffffffff1673ffffffffffffffffffffffffffffffffffffffff1681526020018381526020018281526020019350505050602060405180830381600087803b15801561507357600080fd5b505af1158015615087573d6000803e3d6000fd5b505050506040513d602081101561509d57600080fd5b81019080805190602001909291905050506150b757600080fd5b8280600101935050614fad565b505050505050949350505050565b600081601060e01b7bffffffffffffffffffffffffffffffffffffffffffffffffffffffff1916601060e01b6000808473ffffffffffffffffffffffffffffffffffffffff1673ffffffffffffffffffffffffffffffffffffffff16815260200190815260200160002060020160003373ffffffffffffffffffffffffffffffffffffffff1673ffffffffffffffffffffffffffffffffffffffff16815260200190815260200160002060010160009054906101000a900460e01b167bffffffffffffffffffffffffffffffffffffffffffffffffffffffff1916146151b757600080fd5b8273ffffffffffffffffffffffffffffffffffffffff1663890ac46c86866040518363ffffffff1660e01b815260040180806020018281038252848482818152602001925080828437600081840152601f19601f8201169050808301925050509350505050602060405180830381600087803b15801561523657600080fd5b505af115801561524a573d6000803e3d6000fd5b505050506040513d602081101561526057600080fd5b81019080805190602001909291905050509150509392505050565b6000606083601060e01b7bffffffffffffffffffffffffffffffffffffffffffffffffffffffff1916601060e01b6000808473ffffffffffffffffffffffffffffffffffffffff1673ffffffffffffffffffffffffffffffffffffffff16815260200190815260200160002060020160003373ffffffffffffffffffffffffffffffffffffffff1673ffffffffffffffffffffffffffffffffffffffff16815260200190815260200160002060010160009054906101000a900460e01b167bffffffffffffffffffffffffffffffffffffffffffffffffffffffff19161461536257600080fd5b7f67656e6572696343616c6c00000000000000000000000000000000000000000085600060606000808473ffffffffffffffffffffffffffffffffffffffff1673ffffffffffffffffffffffffffffffffffffffff168152602001908152602001600020600301805480602002602001604051908101604052809291908181526020016000905b8282101561547b57838290600052602060002090600202016040518060400160405290816000820160009054906101000a900473ffffffffffffffffffffffffffffffffffffffff1673ffffffffffffffffffffffffffffffffffffffff1673ffffffffffffffffffffffffffffffffffffffff168152602001600182015481525050815260200190600101906153e9565b50505050905060606000808573ffffffffffffffffffffffffffffffffffffffff1673ffffffffffffffffffffffffffffffffffffffff168152602001908152602001600020600401805480602002602001604051908101604052809291908181526020016000905b8282101561557657838290600052602060002090600202016040518060400160405290816000820160009054906101000a900473ffffffffffffffffffffffffffffffffffffffff1673ffffffffffffffffffffffffffffffffffffffff1673ffffffffffffffffffffffffffffffffffffffff168152602001600182015481525050815260200190600101906154e4565b505050509050600092505b81518310156156985781838151811061559657fe5b60200260200101516000015173ffffffffffffffffffffffffffffffffffffffff1663c1786ab2338486815181106155ca57fe5b602002602001015160200151886040518463ffffffff1660e01b8152600401808473ffffffffffffffffffffffffffffffffffffffff1673ffffffffffffffffffffffffffffffffffffffff1681526020018381526020018281526020019350505050602060405180830381600087803b15801561564757600080fd5b505af115801561565b573d6000803e3d6000fd5b505050506040513d602081101561567157600080fd5b810190808051906020019092919050505061568b57600080fd5b8280600101935050615581565b8973ffffffffffffffffffffffffffffffffffffffff16632bf164588e8e8e8d6040518563ffffffff1660e01b8152600401808573ffffffffffffffffffffffffffffffffffffffff1673ffffffffffffffffffffffffffffffffffffffff168152602001806020018381526020018281038252858582818152602001925080828437600081840152601f19601f82011690508083019250505095505050505050600060405180830381600087803b15801561575357600080fd5b505af1158015615767573d6000803e3d6000fd5b505050506040513d6000823e3d601f19601f82011682018060405250604081101561579157600080fd5b810190808051906020019092919080516401000000008111156157b357600080fd5b828101905060208101848111156157c957600080fd5b81518560018202830111640100000000821117156157e657600080fd5b505092919050505097509750600092505b805183101561590e5780838151811061580c57fe5b60200260200101516000015173ffffffffffffffffffffffffffffffffffffffff16638043154d3383868151811061584057fe5b602002602001015160200151886040518463ffffffff1660e01b8152600401808473ffffffffffffffffffffffffffffffffffffffff1673ffffffffffffffffffffffffffffffffffffffff1681526020018381526020018281526020019350505050602060405180830381600087803b1580156158bd57600080fd5b505af11580156158d1573d6000803e3d6000fd5b505050506040513d60208110156158e757600080fd5b810190808051906020019092919050505061590157600080fd5b82806001019350506157f7565b5050505050509550959350505050565b6000806000808473ffffffffffffffffffffffffffffffffffffffff1673ffffffffffffffffffffffffffffffffffffffff1681526020019081526020016000209050615969618173565b8160050160008673ffffffffffffffffffffffffffffffffffffffff1673ffffffffffffffffffffffffffffffffffffffff1681526020019081526020016000206040518060400160405290816000820160009054906101000a900460ff161515151581526020016001820154815250509050806000015115615a1457816003018160200151815481106159f957fe5b90600052602060002090600202016001015492505050615ac2565b8160060160008673ffffffffffffffffffffffffffffffffffffffff1673ffffffffffffffffffffffffffffffffffffffff1681526020019081526020016000206040518060400160405290816000820160009054906101000a900460ff161515151581526020016001820154815250509050806000015115615abf5781600401816020015181548110615aa457fe5b90600052602060002090600202016001015492505050615ac2565b50505b92915050565b600081600460e01b7bffffffffffffffffffffffffffffffffffffffffffffffffffffffff1916600460e01b6000808473ffffffffffffffffffffffffffffffffffffffff1673ffffffffffffffffffffffffffffffffffffffff16815260200190815260200160002060020160003373ffffffffffffffffffffffffffffffffffffffff1673ffffffffffffffffffffffffffffffffffffffff16815260200190815260200160002060010160009054906101000a900460e01b167bffffffffffffffffffffffffffffffffffffffffffffffffffffffff191614615bad57600080fd5b60008060008573ffffffffffffffffffffffffffffffffffffffff1673ffffffffffffffffffffffffffffffffffffffff168152602001908152602001600020905060008673ffffffffffffffffffffffffffffffffffffffff1663e2b0caef6040518163ffffffff1660e01b8152600401602060405180830381600087803b158015615c3957600080fd5b505af1158015615c4d573d6000803e3d6000fd5b505050506040513d6020811015615c6357600080fd5b8101908080519060200190929190505050905060006002811115615c8357fe5b816002811115615c8f57fe5b1480615cb05750600280811115615ca257fe5b816002811115615cae57fe5b145b15615eb9578160050160008873ffffffffffffffffffffffffffffffffffffffff1673ffffffffffffffffffffffffffffffffffffffff16815260200190815260200160002060000160009054906101000a900460ff16615e4e578160030160405180604001604052808973ffffffffffffffffffffffffffffffffffffffff168152602001888152509080600181540180825580915050906001820390600052602060002090600202016000909192909190915060008201518160000160006101000a81548173ffffffffffffffffffffffffffffffffffffffff021916908373ffffffffffffffffffffffffffffffffffffffff16021790555060208201518160010155505050604051806040016040528060011515815260200160018460030180549050038152508260050160008973ffffffffffffffffffffffffffffffffffffffff1673ffffffffffffffffffffffffffffffffffffffff16815260200190815260200160002060008201518160000160006101000a81548160ff02191690831515021790555060208201518160010155905050615eb8565b85826003018360050160008a73ffffffffffffffffffffffffffffffffffffffff1673ffffffffffffffffffffffffffffffffffffffff1681526020019081526020016000206001015481548110615ea257fe5b9060005260206000209060020201600101819055505b5b60016002811115615ec657fe5b816002811115615ed257fe5b1480615ef35750600280811115615ee557fe5b816002811115615ef157fe5b145b156160fc578160060160008873ffffffffffffffffffffffffffffffffffffffff1673ffffffffffffffffffffffffffffffffffffffff16815260200190815260200160002060000160009054906101000a900460ff16616091578160040160405180604001604052808973ffffffffffffffffffffffffffffffffffffffff168152602001888152509080600181540180825580915050906001820390600052602060002090600202016000909192909190915060008201518160000160006101000a81548173ffffffffffffffffffffffffffffffffffffffff021916908373ffffffffffffffffffffffffffffffffffffffff16021790555060208201518160010155505050604051806040016040528060011515815260200160018460040180549050038152508260060160008973ffffffffffffffffffffffffffffffffffffffff1673ffffffffffffffffffffffffffffffffffffffff16815260200190815260200160002060008201518160000160006101000a81548160ff021916908315150217905550602082015181600101559050506160fb565b85826004018360060160008a73ffffffffffffffffffffffffffffffffffffffff1673ffffffffffffffffffffffffffffffffffffffff16815260200190815260200160002060010154815481106160e557fe5b9060005260206000209060020201600101819055505b5b8473ffffffffffffffffffffffffffffffffffffffff168773ffffffffffffffffffffffffffffffffffffffff167ffc47a21fc3b2a989787e5778a52ac976fa54ccfecf6fda51089ffa95b699b90a88846040518083815260200182600281111561616357fe5b60ff1681526020019250505060405180910390a3600193505050509392505050565b600081600260e01b7bffffffffffffffffffffffffffffffffffffffffffffffffffffffff1916600260e01b6000808473ffffffffffffffffffffffffffffffffffffffff1673ffffffffffffffffffffffffffffffffffffffff16815260200190815260200160002060020160003373ffffffffffffffffffffffffffffffffffffffff1673ffffffffffffffffffffffffffffffffffffffff16815260200190815260200160002060010160009054906101000a900460e01b167bffffffffffffffffffffffffffffffffffffffffffffffffffffffff19161461626a57600080fd5b7f7265676973746572536368656d6500000000000000000000000000000000000083600060606000808473ffffffffffffffffffffffffffffffffffffffff1673ffffffffffffffffffffffffffffffffffffffff168152602001908152602001600020600301805480602002602001604051908101604052809291908181526020016000905b8282101561638357838290600052602060002090600202016040518060400160405290816000820160009054906101000a900473ffffffffffffffffffffffffffffffffffffffff1673ffffffffffffffffffffffffffffffffffffffff1673ffffffffffffffffffffffffffffffffffffffff168152602001600182015481525050815260200190600101906162f1565b50505050905060606000808573ffffffffffffffffffffffffffffffffffffffff1673ffffffffffffffffffffffffffffffffffffffff168152602001908152602001600020600401805480602002602001604051908101604052809291908181526020016000905b8282101561647e57838290600052602060002090600202016040518060400160405290816000820160009054906101000a900473ffffffffffffffffffffffffffffffffffffffff1673ffffffffffffffffffffffffffffffffffffffff1673ffffffffffffffffffffffffffffffffffffffff168152602001600182015481525050815260200190600101906163ec565b505050509050600092505b81518310156165a05781838151811061649e57fe5b60200260200101516000015173ffffffffffffffffffffffffffffffffffffffff1663c1786ab2338486815181106164d257fe5b602002602001015160200151886040518463ffffffff1660e01b8152600401808473ffffffffffffffffffffffffffffffffffffffff1673ffffffffffffffffffffffffffffffffffffffff1681526020018381526020018281526020019350505050602060405180830381600087803b15801561654f57600080fd5b505af1158015616563573d6000803e3d6000fd5b505050506040513d602081101561657957600080fd5b810190808051906020019092919050505061659357600080fd5b8280600101935050616489565b60008060008a73ffffffffffffffffffffffffffffffffffffffff1673ffffffffffffffffffffffffffffffffffffffff16815260200190815260200160002060020160008d73ffffffffffffffffffffffffffffffffffffffff1673ffffffffffffffffffffffffffffffffffffffff16815260200190815260200160002060010160009054906101000a900460e01b905060008060008b73ffffffffffffffffffffffffffffffffffffffff1673ffffffffffffffffffffffffffffffffffffffff16815260200190815260200160002060020160003373ffffffffffffffffffffffffffffffffffffffff1673ffffffffffffffffffffffffffffffffffffffff16815260200190815260200160002060010160009054906101000a900460e01b9050600060e01b7bffffffffffffffffffffffffffffffffffffffffffffffffffffffff19168119838d18601f60e01b16167bffffffffffffffffffffffffffffffffffffffffffffffffffffffff19161461671f57600080fd5b600060e01b7bffffffffffffffffffffffffffffffffffffffffffffffffffffffff191681198316601f60e01b167bffffffffffffffffffffffffffffffffffffffffffffffffffffffff19161461677657600080fd5b60405180604001604052808d8152602001600160e01b8d177bffffffffffffffffffffffffffffffffffffffffffffffffffffffff19168152506000808c73ffffffffffffffffffffffffffffffffffffffff1673ffffffffffffffffffffffffffffffffffffffff16815260200190815260200160002060020160008f73ffffffffffffffffffffffffffffffffffffffff1673ffffffffffffffffffffffffffffffffffffffff1681526020019081526020016000206000820151816000015560208201518160010160006101000a81548163ffffffff021916908360e01c02179055509050508973ffffffffffffffffffffffffffffffffffffffff168d73ffffffffffffffffffffffffffffffffffffffff163373ffffffffffffffffffffffffffffffffffffffff167f521230fe5fa463e77907aa7d9653b8cf93661e82561e966af8aa0a99910554c160405160405180910390a4600198505050600092505b80518310156169f2578083815181106168f057fe5b60200260200101516000015173ffffffffffffffffffffffffffffffffffffffff16638043154d3383868151811061692457fe5b602002602001015160200151886040518463ffffffff1660e01b8152600401808473ffffffffffffffffffffffffffffffffffffffff1673ffffffffffffffffffffffffffffffffffffffff1681526020018381526020018281526020019350505050602060405180830381600087803b1580156169a157600080fd5b505af11580156169b5573d6000803e3d6000fd5b505050506040513d60208110156169cb57600080fd5b81019080805190602001909291905050506169e557600080fd5b82806001019350506168db565b505050505050949350505050565b60026020528060005260406000206000915054906101000a900460ff1681565b600081600160e01b7bffffffffffffffffffffffffffffffffffffffffffffffffffffffff1916600160e01b6000808473ffffffffffffffffffffffffffffffffffffffff1673ffffffffffffffffffffffffffffffffffffffff16815260200190815260200160002060020160003373ffffffffffffffffffffffffffffffffffffffff1673ffffffffffffffffffffffffffffffffffffffff16815260200190815260200160002060010160009054906101000a900460e01b167bffffffffffffffffffffffffffffffffffffffffffffffffffffffff191614616b0557600080fd5b7f6d696e7452657075746174696f6e00000000000000000000000000000000000083600060606000808473ffffffffffffffffffffffffffffffffffffffff1673ffffffffffffffffffffffffffffffffffffffff168152602001908152602001600020600301805480602002602001604051908101604052809291908181526020016000905b82821015616c1e57838290600052602060002090600202016040518060400160405290816000820160009054906101000a900473ffffffffffffffffffffffffffffffffffffffff1673ffffffffffffffffffffffffffffffffffffffff1673ffffffffffffffffffffffffffffffffffffffff16815260200160018201548152505081526020019060010190616b8c565b50505050905060606000808573ffffffffffffffffffffffffffffffffffffffff1673ffffffffffffffffffffffffffffffffffffffff168152602001908152602001600020600401805480602002602001604051908101604052809291908181526020016000905b82821015616d1957838290600052602060002090600202016040518060400160405290816000820160009054906101000a900473ffffffffffffffffffffffffffffffffffffffff1673ffffffffffffffffffffffffffffffffffffffff1673ffffffffffffffffffffffffffffffffffffffff16815260200160018201548152505081526020019060010190616c87565b505050509050600092505b8151831015616e3b57818381518110616d3957fe5b60200260200101516000015173ffffffffffffffffffffffffffffffffffffffff1663c1786ab233848681518110616d6d57fe5b602002602001015160200151886040518463ffffffff1660e01b8152600401808473ffffffffffffffffffffffffffffffffffffffff1673ffffffffffffffffffffffffffffffffffffffff1681526020018381526020018281526020019350505050602060405180830381600087803b158015616dea57600080fd5b505af1158015616dfe573d6000803e3d6000fd5b505050506040513d6020811015616e1457600080fd5b8101908080519060200190929190505050616e2e57600080fd5b8280600101935050616d24565b8773ffffffffffffffffffffffffffffffffffffffff168973ffffffffffffffffffffffffffffffffffffffff163373ffffffffffffffffffffffffffffffffffffffff167feb0f295d539be95eb3777b524f7bff44ed3505db2e2795382482bb1a9cd1dae08d6040518082815260200191505060405180910390a46000808973ffffffffffffffffffffffffffffffffffffffff1673ffffffffffffffffffffffffffffffffffffffff16815260200190815260200160002060010160009054906101000a900473ffffffffffffffffffffffffffffffffffffffff1673ffffffffffffffffffffffffffffffffffffffff166340c10f198a8c6040518363ffffffff1660e01b8152600401808373ffffffffffffffffffffffffffffffffffffffff1673ffffffffffffffffffffffffffffffffffffffff16815260200182815260200192505050602060405180830381600087803b158015616f9f57600080fd5b505af1158015616fb3573d6000803e3d6000fd5b505050506040513d6020811015616fc957600080fd5b81019080805190602001909291905050509650600092505b80518310156170f857808381518110616ff657fe5b60200260200101516000015173ffffffffffffffffffffffffffffffffffffffff16638043154d3383868151811061702a57fe5b602002602001015160200151886040518463ffffffff1660e01b8152600401808473ffffffffffffffffffffffffffffffffffffffff1673ffffffffffffffffffffffffffffffffffffffff1681526020018381526020018281526020019350505050602060405180830381600087803b1580156170a757600080fd5b505af11580156170bb573d6000803e3d6000fd5b505050506040513d60208110156170d157600080fd5b81019080805190602001909291905050506170eb57600080fd5b8280600101935050616fe1565b5050505050509392505050565b60008060008373ffffffffffffffffffffffffffffffffffffffff1673ffffffffffffffffffffffffffffffffffffffff16815260200190815260200160002060050160008473ffffffffffffffffffffffffffffffffffffffff1673ffffffffffffffffffffffffffffffffffffffff16815260200190815260200160002060000160009054906101000a900460ff168061722c57506000808373ffffffffffffffffffffffffffffffffffffffff1673ffffffffffffffffffffffffffffffffffffffff16815260200190815260200160002060060160008473ffffffffffffffffffffffffffffffffffffffff1673ffffffffffffffffffffffffffffffffffffffff16815260200190815260200160002060000160009054906101000a900460ff165b905092915050565b600081600160e01b7bffffffffffffffffffffffffffffffffffffffffffffffffffffffff1916600160e01b6000808473ffffffffffffffffffffffffffffffffffffffff1673ffffffffffffffffffffffffffffffffffffffff16815260200190815260200160002060020160003373ffffffffffffffffffffffffffffffffffffffff1673ffffffffffffffffffffffffffffffffffffffff16815260200190815260200160002060010160009054906101000a900460e01b167bffffffffffffffffffffffffffffffffffffffffffffffffffffffff19161461731957600080fd5b7f65787465726e616c546f6b656e5472616e7366657246726f6d0000000000000083600060606000808473ffffffffffffffffffffffffffffffffffffffff1673ffffffffffffffffffffffffffffffffffffffff168152602001908152602001600020600301805480602002602001604051908101604052809291908181526020016000905b8282101561743257838290600052602060002090600202016040518060400160405290816000820160009054906101000a900473ffffffffffffffffffffffffffffffffffffffff1673ffffffffffffffffffffffffffffffffffffffff1673ffffffffffffffffffffffffffffffffffffffff168152602001600182015481525050815260200190600101906173a0565b50505050905060606000808573ffffffffffffffffffffffffffffffffffffffff1673ffffffffffffffffffffffffffffffffffffffff168152602001908152602001600020600401805480602002602001604051908101604052809291908181526020016000905b8282101561752d57838290600052602060002090600202016040518060400160405290816000820160009054906101000a900473ffffffffffffffffffffffffffffffffffffffff1673ffffffffffffffffffffffffffffffffffffffff1673ffffffffffffffffffffffffffffffffffffffff1681526020016001820154815250508152602001906001019061749b565b505050509050600092505b815183101561764f5781838151811061754d57fe5b60200260200101516000015173ffffffffffffffffffffffffffffffffffffffff1663c1786ab23384868151811061758157fe5b602002602001015160200151886040518463ffffffff1660e01b8152600401808473ffffffffffffffffffffffffffffffffffffffff1673ffffffffffffffffffffffffffffffffffffffff1681526020018381526020018281526020019350505050602060405180830381600087803b1580156175fe57600080fd5b505af1158015617612573d6000803e3d6000fd5b505050506040513d602081101561762857600080fd5b810190808051906020019092919050505061764257600080fd5b8280600101935050617538565b8773ffffffffffffffffffffffffffffffffffffffff1663b756d5a28d8d8d8d6040518563ffffffff1660e01b8152600401808573ffffffffffffffffffffffffffffffffffffffff1673ffffffffffffffffffffffffffffffffffffffff1681526020018473ffffffffffffffffffffffffffffffffffffffff1673ffffffffffffffffffffffffffffffffffffffff1681526020018373ffffffffffffffffffffffffffffffffffffffff1673ffffffffffffffffffffffffffffffffffffffff168152602001828152602001945050505050602060405180830381600087803b15801561773e57600080fd5b505af1158015617752573d6000803e3d6000fd5b505050506040513d602081101561776857600080fd5b81019080805190602001909291905050509650600092505b80518310156178975780838151811061779557fe5b60200260200101516000015173ffffffffffffffffffffffffffffffffffffffff16638043154d338386815181106177c957fe5b602002602001015160200151886040518463ffffffff1660e01b8152600401808473ffffffffffffffffffffffffffffffffffffffff1673ffffffffffffffffffffffffffffffffffffffff1681526020018381526020018281526020019350505050602060405180830381600087803b15801561784657600080fd5b505af115801561785a573d6000803e3d6000fd5b505050506040513d602081101561787057600080fd5b810190808051906020019092919050505061788a57600080fd5b8280600101935050617780565b50505050505095945050505050565b60006178b0618173565b6000808473ffffffffffffffffffffffffffffffffffffffff1673ffffffffffffffffffffffffffffffffffffffff16815260200190815260200160002060050160008573ffffffffffffffffffffffffffffffffffffffff1673ffffffffffffffffffffffffffffffffffffffff1681526020019081526020016000206040518060400160405290816000820160009054906101000a900460ff16151515158152602001600182015481525050905060008060008573ffffffffffffffffffffffffffffffffffffffff1673ffffffffffffffffffffffffffffffffffffffff1681526020019081526020016000206003019050816000015115617c8e57600181805490500382602001511015617b5b576179ca61818f565b816001838054905003815481106179dd57fe5b90600052602060002090600202016040518060400160405290816000820160009054906101000a900473ffffffffffffffffffffffffffffffffffffffff1673ffffffffffffffffffffffffffffffffffffffff1673ffffffffffffffffffffffffffffffffffffffff16815260200160018201548152505090508082846020015181548110617a6957fe5b906000526020600020906002020160008201518160000160006101000a81548173ffffffffffffffffffffffffffffffffffffffff021916908373ffffffffffffffffffffffffffffffffffffffff1602179055506020820151816001015590505082602001516000808773ffffffffffffffffffffffffffffffffffffffff1673ffffffffffffffffffffffffffffffffffffffff1681526020019081526020016000206005016000836000015173ffffffffffffffffffffffffffffffffffffffff1673ffffffffffffffffffffffffffffffffffffffff16815260200190815260200160002060010181905550505b80805480919060019003617b6f91906181c2565b506000808573ffffffffffffffffffffffffffffffffffffffff1673ffffffffffffffffffffffffffffffffffffffff16815260200190815260200160002060050160008673ffffffffffffffffffffffffffffffffffffffff1673ffffffffffffffffffffffffffffffffffffffff168152602001908152602001600020600080820160006101000a81549060ff0219169055600182016000905550508373ffffffffffffffffffffffffffffffffffffffff168573ffffffffffffffffffffffffffffffffffffffff167f16e52dc226f9b9f6729d31340ecff10d85e6f9c0a8f21b07ec74a2c58c485a228460200151600160405180838152602001821515151581526020019250505060405180910390a3600192505050617c95565b6000925050505b92915050565b6000617ca5618173565b6000808473ffffffffffffffffffffffffffffffffffffffff1673ffffffffffffffffffffffffffffffffffffffff16815260200190815260200160002060060160008573ffffffffffffffffffffffffffffffffffffffff1673ffffffffffffffffffffffffffffffffffffffff1681526020019081526020016000206040518060400160405290816000820160009054906101000a900460ff16151515158152602001600182015481525050905060008060008573ffffffffffffffffffffffffffffffffffffffff1673ffffffffffffffffffffffffffffffffffffffff168152602001908152602001600020600401905081600001511561808357600181805490500382602001511015617f5057617dbf61818f565b81600183805490500381548110617dd257fe5b90600052602060002090600202016040518060400160405290816000820160009054906101000a900473ffffffffffffffffffffffffffffffffffffffff1673ffffffffffffffffffffffffffffffffffffffff1673ffffffffffffffffffffffffffffffffffffffff16815260200160018201548152505090508082846020015181548110617e5e57fe5b906000526020600020906002020160008201518160000160006101000a81548173ffffffffffffffffffffffffffffffffffffffff021916908373ffffffffffffffffffffffffffffffffffffffff1602179055506020820151816001015590505082602001516000808773ffffffffffffffffffffffffffffffffffffffff1673ffffffffffffffffffffffffffffffffffffffff1681526020019081526020016000206006016000836000015173ffffffffffffffffffffffffffffffffffffffff1673ffffffffffffffffffffffffffffffffffffffff16815260200190815260200160002060010181905550505b80805480919060019003617f6491906181c2565b506000808573ffffffffffffffffffffffffffffffffffffffff1673ffffffffffffffffffffffffffffffffffffffff16815260200190815260200160002060060160008673ffffffffffffffffffffffffffffffffffffffff1673ffffffffffffffffffffffffffffffffffffffff168152602001908152602001600020600080820160006101000a81549060ff0219169055600182016000905550508373ffffffffffffffffffffffffffffffffffffffff168573ffffffffffffffffffffffffffffffffffffffff167f16e52dc226f9b9f6729d31340ecff10d85e6f9c0a8f21b07ec74a2c58c485a228460200151600060405180838152602001821515151581526020019250505060405180910390a360019250505061808a565b6000925050505b92915050565b60008060e01b7bffffffffffffffffffffffffffffffffffffffffffffffffffffffff1916600160e01b6000808573ffffffffffffffffffffffffffffffffffffffff1673ffffffffffffffffffffffffffffffffffffffff16815260200190815260200160002060020160008673ffffffffffffffffffffffffffffffffffffffff1673ffffffffffffffffffffffffffffffffffffffff16815260200190815260200160002060010160009054906101000a900460e01b167bffffffffffffffffffffffffffffffffffffffffffffffffffffffff19161415905092915050565b6040518060400160405280600015158152602001600081525090565b6040518060400160405280600073ffffffffffffffffffffffffffffffffffffffff168152602001600080191681525090565b8154818355818111156181ef576002028160020283600052602060002091820191016181ee91906181f4565b5b505050565b61823f91905b8082111561823b57600080820160006101000a81549073ffffffffffffffffffffffffffffffffffffffff02191690556001820160009055506002016181fa565b5090565b9056fea165627a7a7230582047c3911510610f1e1fa1214111b015b8a665dcfab4692727baa9dcadf3863f0d0029",
  "source": "pragma solidity ^0.5.4;\n\nimport \"./Avatar.sol\";\nimport \"../GlobalConstraintInterface.sol\";\nimport \"./ControllerInterface.sol\";\n\n\n/**\n * @title Universal Controller contract\n * @dev A universal controller hold organizations and controls their tokens ,reputations\n *       and avatar.\n * It is subject to a set of schemes and constraints that determine its behavior.\n * Each scheme has it own parameters and operation permissions.\n */\ncontract UController is ControllerInterface {\n\n    struct Scheme {\n        bytes32 paramsHash;  // a hash \"configuration\" of the scheme\n        bytes4  permissions; // A bitwise flags of permissions,\n                            // All 0: Not registered,\n                            // 1st bit: Flag if the scheme is registered,\n                            // 2nd bit: Scheme can register other schemes\n                            // 3th bit: Scheme can add/remove global constraints\n                            // 4rd bit: Scheme can upgrade the controller\n                            // 5th bit: Scheme can call delegatecall\n    }\n\n    struct GlobalConstraint {\n        address gcAddress;\n        bytes32 params;\n    }\n\n    struct GlobalConstraintRegister {\n        bool isRegistered; //is registered\n        uint256 index;    //index at globalConstraints\n    }\n\n    struct Organization {\n        DAOToken                  nativeToken;\n        Reputation                nativeReputation;\n        mapping(address=>Scheme)  schemes;\n      // globalConstraintsPre that determine pre- conditions for all actions on the controller\n        GlobalConstraint[] globalConstraintsPre;\n        // globalConstraintsPost that determine post-conditions for all actions on the controller\n        GlobalConstraint[] globalConstraintsPost;\n      // globalConstraintsRegisterPre indicate if a globalConstraints is registered as a Pre global constraint.\n        mapping(address=>GlobalConstraintRegister) globalConstraintsRegisterPre;\n      // globalConstraintsRegisterPost indicate if a globalConstraints is registered as a Post global constraint.\n        mapping(address=>GlobalConstraintRegister) globalConstraintsRegisterPost;\n    }\n\n    //mapping between organization's avatar address to Organization\n    mapping(address=>Organization) public organizations;\n    // newController will point to the new controller after the present controller is upgraded\n    //  address external newController;\n    mapping(address=>address) public newControllers;//mapping between avatar address and newController address\n    //mapping for all reputation system and tokens addresses registered.\n    mapping(address=>bool) public actors;\n\n    event MintReputation (address indexed _sender, address indexed _to, uint256 _amount, address indexed _avatar);\n    event BurnReputation (address indexed _sender, address indexed _from, uint256 _amount, address indexed _avatar);\n    event MintTokens (address indexed _sender, address indexed _beneficiary, uint256 _amount, address indexed _avatar);\n    event RegisterScheme (address indexed _sender, address indexed _scheme, address indexed _avatar);\n    event UnregisterScheme (address indexed _sender, address indexed _scheme, address indexed _avatar);\n    event UpgradeController(address indexed _oldController, address _newController, address _avatar);\n\n    event AddGlobalConstraint(\n        address indexed _globalConstraint,\n        bytes32 _params,\n        GlobalConstraintInterface.CallPhase _when,\n        address indexed _avatar\n    );\n\n    event RemoveGlobalConstraint(\n        address indexed _globalConstraint,\n        uint256 _index,\n        bool _isPre,\n        address indexed _avatar\n    );\n\n   /**\n    * @dev newOrganization set up a new organization with default daoCreator.\n    * @param _avatar the organization avatar\n    */\n    function newOrganization(\n        Avatar _avatar\n    ) external\n    {\n        require(!actors[address(_avatar)]);\n        actors[address(_avatar)] = true;\n        require(_avatar.owner() == address(this));\n        DAOToken nativeToken = _avatar.nativeToken();\n        Reputation nativeReputation = _avatar.nativeReputation();\n        require(nativeToken.owner() == address(this));\n        require(nativeReputation.owner() == address(this));\n        //To guaranty uniqueness for the reputation systems.\n        require(!actors[address(nativeReputation)]);\n        actors[address(nativeReputation)] = true;\n        //To guaranty uniqueness for the nativeToken.\n        require(!actors[address(nativeToken)]);\n        actors[address(nativeToken)] = true;\n        organizations[address(_avatar)].nativeToken = nativeToken;\n        organizations[address(_avatar)].nativeReputation = nativeReputation;\n        organizations[address(_avatar)].schemes[msg.sender] =\n        Scheme({paramsHash: bytes32(0), permissions: bytes4(0x0000001f)});\n        emit RegisterScheme(msg.sender, msg.sender, address(_avatar));\n    }\n\n  // Modifiers:\n    modifier onlyRegisteredScheme(address avatar) {\n        require(organizations[avatar].schemes[msg.sender].permissions&bytes4(0x00000001) == bytes4(0x00000001));\n        _;\n    }\n\n    modifier onlyRegisteringSchemes(address avatar) {\n        require(organizations[avatar].schemes[msg.sender].permissions&bytes4(0x00000002) == bytes4(0x00000002));\n        _;\n    }\n\n    modifier onlyGlobalConstraintsScheme(address avatar) {\n        require(organizations[avatar].schemes[msg.sender].permissions&bytes4(0x00000004) == bytes4(0x00000004));\n        _;\n    }\n\n    modifier onlyUpgradingScheme(address _avatar) {\n        require(organizations[_avatar].schemes[msg.sender].permissions&bytes4(0x00000008) == bytes4(0x00000008));\n        _;\n    }\n\n    modifier onlyGenericCallScheme(address _avatar) {\n        require(organizations[_avatar].schemes[msg.sender].permissions&bytes4(0x00000010) == bytes4(0x00000010));\n        _;\n    }\n\n    modifier onlyMetaDataScheme(address _avatar) {\n        require(organizations[_avatar].schemes[msg.sender].permissions&bytes4(0x00000010) == bytes4(0x00000010));\n        _;\n    }\n\n    modifier onlySubjectToConstraint(bytes32 func, address _avatar) {\n        uint256 idx;\n        GlobalConstraint[] memory globalConstraintsPre = organizations[_avatar].globalConstraintsPre;\n        GlobalConstraint[] memory globalConstraintsPost = organizations[_avatar].globalConstraintsPost;\n        for (idx = 0; idx < globalConstraintsPre.length; idx++) {\n            require(\n            (GlobalConstraintInterface(globalConstraintsPre[idx].gcAddress))\n            .pre(msg.sender, globalConstraintsPre[idx].params, func));\n        }\n        _;\n        for (idx = 0; idx < globalConstraintsPost.length; idx++) {\n            require(\n            (GlobalConstraintInterface(globalConstraintsPost[idx].gcAddress))\n            .post(msg.sender, globalConstraintsPost[idx].params, func));\n        }\n    }\n\n    /**\n     * @dev Mint `_amount` of reputation that are assigned to `_to` .\n     * @param  _amount amount of reputation to mint\n     * @param _to beneficiary address\n     * @param _avatar the address of the organization's avatar\n     * @return bool which represents a success\n     */\n    function mintReputation(uint256 _amount, address _to, address _avatar)\n    external\n    onlyRegisteredScheme(_avatar)\n    onlySubjectToConstraint(\"mintReputation\", _avatar)\n    returns(bool)\n    {\n        emit MintReputation(msg.sender, _to, _amount, _avatar);\n        return organizations[_avatar].nativeReputation.mint(_to, _amount);\n    }\n\n    /**\n     * @dev Burns `_amount` of reputation from `_from`\n     * @param _amount amount of reputation to burn\n     * @param _from The address that will lose the reputation\n     * @return bool which represents a success\n     */\n    function burnReputation(uint256 _amount, address _from, address _avatar)\n    external\n    onlyRegisteredScheme(_avatar)\n    onlySubjectToConstraint(\"burnReputation\", _avatar)\n    returns(bool)\n    {\n        emit BurnReputation(msg.sender, _from, _amount, _avatar);\n        return organizations[_avatar].nativeReputation.burn(_from, _amount);\n    }\n\n    /**\n     * @dev mint tokens .\n     * @param  _amount amount of token to mint\n     * @param _beneficiary beneficiary address\n     * @param _avatar the organization avatar.\n     * @return bool which represents a success\n     */\n    function mintTokens(uint256 _amount, address _beneficiary, address _avatar)\n    external\n    onlyRegisteredScheme(_avatar)\n    onlySubjectToConstraint(\"mintTokens\", _avatar)\n    returns(bool)\n    {\n        emit MintTokens(msg.sender, _beneficiary, _amount, _avatar);\n        return organizations[_avatar].nativeToken.mint(_beneficiary, _amount);\n    }\n\n  /**\n   * @dev register or update a scheme\n   * @param _scheme the address of the scheme\n   * @param _paramsHash a hashed configuration of the usage of the scheme\n   * @param _permissions the permissions the new scheme will have\n   * @param _avatar the organization avatar.\n   * @return bool which represents a success\n   */\n    function registerScheme(address _scheme, bytes32 _paramsHash, bytes4 _permissions, address _avatar)\n    external\n    onlyRegisteringSchemes(_avatar)\n    onlySubjectToConstraint(\"registerScheme\", _avatar)\n    returns(bool)\n    {\n        bytes4 schemePermission = organizations[_avatar].schemes[_scheme].permissions;\n        bytes4 senderPermission = organizations[_avatar].schemes[msg.sender].permissions;\n    // Check scheme has at least the permissions it is changing, and at least the current permissions:\n    // Implementation is a bit messy. One must recall logic-circuits ^^\n\n    // produces non-zero if sender does not have all of the perms that are changing between old and new\n        require(bytes4(0x0000001f)&(_permissions^schemePermission)&(~senderPermission) == bytes4(0));\n\n    // produces non-zero if sender does not have all of the perms in the old scheme\n        require(bytes4(0x0000001f)&(schemePermission&(~senderPermission)) == bytes4(0));\n\n    // Add or change the scheme:\n        organizations[_avatar].schemes[_scheme] =\n        Scheme({paramsHash:_paramsHash, permissions:_permissions|bytes4(0x00000001)});\n        emit RegisterScheme(msg.sender, _scheme, _avatar);\n        return true;\n    }\n\n    /**\n     * @dev unregister a scheme\n     * @param _scheme the address of the scheme\n     * @param _avatar the organization avatar.\n     * @return bool which represents a success\n     */\n    function unregisterScheme(address _scheme, address _avatar)\n    external\n    onlyRegisteringSchemes(_avatar)\n    onlySubjectToConstraint(\"unregisterScheme\", _avatar)\n    returns(bool)\n    {\n        bytes4 schemePermission = organizations[_avatar].schemes[_scheme].permissions;\n    //check if the scheme is registered\n        if (schemePermission&bytes4(0x00000001) == bytes4(0)) {\n            return false;\n        }\n    // Check the unregistering scheme has enough permissions:\n        require(\n        bytes4(0x0000001f)&(schemePermission&(~organizations[_avatar].schemes[msg.sender].permissions)) == bytes4(0));\n\n    // Unregister:\n        emit UnregisterScheme(msg.sender, _scheme, _avatar);\n        delete organizations[_avatar].schemes[_scheme];\n        return true;\n    }\n\n    /**\n     * @dev unregister the caller's scheme\n     * @param _avatar the organization avatar.\n     * @return bool which represents a success\n     */\n    function unregisterSelf(address _avatar) external returns(bool) {\n        if (_isSchemeRegistered(msg.sender, _avatar) == false) {\n            return false;\n        }\n        delete organizations[_avatar].schemes[msg.sender];\n        emit UnregisterScheme(msg.sender, msg.sender, _avatar);\n        return true;\n    }\n\n    /**\n     * @dev add or update Global Constraint\n     * @param _globalConstraint the address of the global constraint to be added.\n     * @param _params the constraint parameters hash.\n     * @param _avatar the avatar of the organization\n     * @return bool which represents a success\n     */\n    function addGlobalConstraint(address _globalConstraint, bytes32 _params, address _avatar)\n    external onlyGlobalConstraintsScheme(_avatar) returns(bool)\n    {\n        Organization storage organization = organizations[_avatar];\n        GlobalConstraintInterface.CallPhase when = GlobalConstraintInterface(_globalConstraint).when();\n        if ((when == GlobalConstraintInterface.CallPhase.Pre)||\n            (when == GlobalConstraintInterface.CallPhase.PreAndPost)) {\n            if (!organization.globalConstraintsRegisterPre[_globalConstraint].isRegistered) {\n                organization.globalConstraintsPre.push(GlobalConstraint(_globalConstraint, _params));\n                organization.globalConstraintsRegisterPre[_globalConstraint] =\n                GlobalConstraintRegister(true, organization.globalConstraintsPre.length-1);\n            }else {\n                organization\n                .globalConstraintsPre[organization.globalConstraintsRegisterPre[_globalConstraint].index]\n                .params = _params;\n            }\n        }\n\n        if ((when == GlobalConstraintInterface.CallPhase.Post)||\n            (when == GlobalConstraintInterface.CallPhase.PreAndPost)) {\n            if (!organization.globalConstraintsRegisterPost[_globalConstraint].isRegistered) {\n                organization.globalConstraintsPost.push(GlobalConstraint(_globalConstraint, _params));\n                organization.globalConstraintsRegisterPost[_globalConstraint] =\n                GlobalConstraintRegister(true, organization.globalConstraintsPost.length-1);\n            } else {\n                organization\n                .globalConstraintsPost[organization.globalConstraintsRegisterPost[_globalConstraint].index]\n                .params = _params;\n            }\n        }\n        emit AddGlobalConstraint(_globalConstraint, _params, when, _avatar);\n        return true;\n    }\n\n    /**\n     * @dev remove Global Constraint\n     * @param _globalConstraint the address of the global constraint to be remove.\n     * @param _avatar the organization avatar.\n     * @return bool which represents a success\n     */\n    function removeGlobalConstraint (address _globalConstraint, address _avatar)\n    external onlyGlobalConstraintsScheme(_avatar) returns(bool)\n    {\n        GlobalConstraintInterface.CallPhase when = GlobalConstraintInterface(_globalConstraint).when();\n        if ((when == GlobalConstraintInterface.CallPhase.Pre)||\n            (when == GlobalConstraintInterface.CallPhase.PreAndPost)) {\n            removeGlobalConstraintPre(_globalConstraint, _avatar);\n        }\n        if ((when == GlobalConstraintInterface.CallPhase.Post)||\n            (when == GlobalConstraintInterface.CallPhase.PreAndPost)) {\n            removeGlobalConstraintPost(_globalConstraint, _avatar);\n        }\n        return true;\n    }\n\n  /**\n    * @dev upgrade the Controller\n    *      The function will trigger an event 'UpgradeController'.\n    * @param  _newController the address of the new controller.\n    * @param _avatar the organization avatar.\n    * @return bool which represents a success\n    */\n    function upgradeController(address _newController, Avatar _avatar)\n    external onlyUpgradingScheme(address(_avatar)) returns(bool)\n    {\n        require(newControllers[address(_avatar)] == address(0));   // so the upgrade could be done once for a contract.\n        require(_newController != address(0));\n        newControllers[address(_avatar)] = _newController;\n        _avatar.transferOwnership(_newController);\n        require(_avatar.owner() == _newController);\n        if (organizations[address(_avatar)].nativeToken.owner() == address(this)) {\n            organizations[address(_avatar)].nativeToken.transferOwnership(_newController);\n            require(organizations[address(_avatar)].nativeToken.owner() == _newController);\n        }\n        if (organizations[address(_avatar)].nativeReputation.owner() == address(this)) {\n            organizations[address(_avatar)].nativeReputation.transferOwnership(_newController);\n            require(organizations[address(_avatar)].nativeReputation.owner() == _newController);\n        }\n        emit UpgradeController(address(this), _newController, address(_avatar));\n        return true;\n    }\n\n    /**\n    * @dev perform a generic call to an arbitrary contract\n    * @param _contract  the contract's address to call\n    * @param _data ABI-encoded contract call to call `_contract` address.\n    * @param _avatar the controller's avatar address\n    * @param _value value (ETH) to transfer with the transaction\n    * @return bool -success\n    *         bytes  - the return value of the called _contract's function.\n    */\n    function genericCall(address _contract, bytes calldata _data, Avatar _avatar, uint256 _value)\n    external\n    onlyGenericCallScheme(address(_avatar))\n    onlySubjectToConstraint(\"genericCall\", address(_avatar))\n    returns (bool, bytes memory)\n    {\n        return _avatar.genericCall(_contract, _data, _value);\n    }\n\n  /**\n   * @dev send some ether\n   * @param _amountInWei the amount of ether (in Wei) to send\n   * @param _to address of the beneficiary\n   * @param _avatar the organization avatar.\n   * @return bool which represents a success\n   */\n    function sendEther(uint256 _amountInWei, address payable _to, Avatar _avatar)\n    external\n    onlyRegisteredScheme(address(_avatar))\n    onlySubjectToConstraint(\"sendEther\", address(_avatar))\n    returns(bool)\n    {\n        return _avatar.sendEther(_amountInWei, _to);\n    }\n\n    /**\n    * @dev send some amount of arbitrary ERC20 Tokens\n    * @param _externalToken the address of the Token Contract\n    * @param _to address of the beneficiary\n    * @param _value the amount of ether (in Wei) to send\n    * @param _avatar the organization avatar.\n    * @return bool which represents a success\n    */\n    function externalTokenTransfer(IERC20 _externalToken, address _to, uint256 _value, Avatar _avatar)\n    external\n    onlyRegisteredScheme(address(_avatar))\n    onlySubjectToConstraint(\"externalTokenTransfer\", address(_avatar))\n    returns(bool)\n    {\n        return _avatar.externalTokenTransfer(_externalToken, _to, _value);\n    }\n\n    /**\n    * @dev transfer token \"from\" address \"to\" address\n    *      One must to approve the amount of tokens which can be spend from the\n    *      \"from\" account.This can be done using externalTokenApprove.\n    * @param _externalToken the address of the Token Contract\n    * @param _from address of the account to send from\n    * @param _to address of the beneficiary\n    * @param _value the amount of ether (in Wei) to send\n    * @param _avatar the organization avatar.\n    * @return bool which represents a success\n    */\n    function externalTokenTransferFrom(\n    IERC20 _externalToken,\n    address _from,\n    address _to,\n    uint256 _value,\n    Avatar _avatar)\n    external\n    onlyRegisteredScheme(address(_avatar))\n    onlySubjectToConstraint(\"externalTokenTransferFrom\", address(_avatar))\n    returns(bool)\n    {\n        return _avatar.externalTokenTransferFrom(_externalToken, _from, _to, _value);\n    }\n\n    /**\n    * @dev externalTokenApproval approve the spender address to spend a specified amount of tokens\n    *      on behalf of msg.sender.\n    * @param _externalToken the address of the Token Contract\n    * @param _spender address\n    * @param _value the amount of ether (in Wei) which the approval is referring to.\n    * @return bool which represents a success\n    */\n    function externalTokenApproval(IERC20 _externalToken, address _spender, uint256 _value, Avatar _avatar)\n    external\n    onlyRegisteredScheme(address(_avatar))\n    onlySubjectToConstraint(\"externalTokenApproval\", address(_avatar))\n    returns(bool)\n    {\n        return _avatar.externalTokenApproval(_externalToken, _spender, _value);\n    }\n\n    /**\n    * @dev metaData emits an event with a string, should contain the hash of some meta data.\n    * @param _metaData a string representing a hash of the meta data\n    * @param _avatar Avatar\n    * @return bool which represents a success\n    */\n    function metaData(string calldata _metaData, Avatar _avatar)\n        external\n        onlyMetaDataScheme(address(_avatar))\n        returns(bool)\n        {\n        return _avatar.metaData(_metaData);\n    }\n\n    function isSchemeRegistered( address _scheme, address _avatar) external view returns(bool) {\n        return _isSchemeRegistered(_scheme, _avatar);\n    }\n\n    function getSchemeParameters(address _scheme, address _avatar) external view returns(bytes32) {\n        return organizations[_avatar].schemes[_scheme].paramsHash;\n    }\n\n    function getSchemePermissions(address _scheme, address _avatar) external view returns(bytes4) {\n        return organizations[_avatar].schemes[_scheme].permissions;\n    }\n\n    function getGlobalConstraintParameters(address _globalConstraint, address _avatar) external view returns(bytes32) {\n\n        Organization storage organization = organizations[_avatar];\n\n        GlobalConstraintRegister memory register = organization.globalConstraintsRegisterPre[_globalConstraint];\n\n        if (register.isRegistered) {\n            return organization.globalConstraintsPre[register.index].params;\n        }\n\n        register = organization.globalConstraintsRegisterPost[_globalConstraint];\n\n        if (register.isRegistered) {\n            return organization.globalConstraintsPost[register.index].params;\n        }\n    }\n\n   /**\n   * @dev globalConstraintsCount return the global constraint pre and post count\n   * @return uint256 globalConstraintsPre count.\n   * @return uint256 globalConstraintsPost count.\n   */\n    function globalConstraintsCount(address _avatar) external view returns(uint, uint) {\n        return (\n        organizations[_avatar].globalConstraintsPre.length,\n        organizations[_avatar].globalConstraintsPost.length\n        );\n    }\n\n    function isGlobalConstraintRegistered(address _globalConstraint, address _avatar) external view returns(bool) {\n        return (organizations[_avatar].globalConstraintsRegisterPre[_globalConstraint].isRegistered ||\n        organizations[_avatar].globalConstraintsRegisterPost[_globalConstraint].isRegistered);\n    }\n\n    /**\n     * @dev getNativeReputation\n     * @param _avatar the organization avatar.\n     * @return organization native reputation\n     */\n    function getNativeReputation(address _avatar) external view returns(address) {\n        return address(organizations[_avatar].nativeReputation);\n    }\n\n    /**\n     * @dev removeGlobalConstraintPre\n     * @param _globalConstraint the address of the global constraint to be remove.\n     * @param _avatar the organization avatar.\n     * @return bool which represents a success\n     */\n    function removeGlobalConstraintPre(address _globalConstraint, address _avatar)\n    private returns(bool)\n    {\n        GlobalConstraintRegister memory globalConstraintRegister =\n        organizations[_avatar].globalConstraintsRegisterPre[_globalConstraint];\n        GlobalConstraint[] storage globalConstraints = organizations[_avatar].globalConstraintsPre;\n\n        if (globalConstraintRegister.isRegistered) {\n            if (globalConstraintRegister.index < globalConstraints.length-1) {\n                GlobalConstraint memory globalConstraint = globalConstraints[globalConstraints.length-1];\n                globalConstraints[globalConstraintRegister.index] = globalConstraint;\n                organizations[_avatar].globalConstraintsRegisterPre[globalConstraint.gcAddress].index =\n                globalConstraintRegister.index;\n            }\n            globalConstraints.length--;\n            delete organizations[_avatar].globalConstraintsRegisterPre[_globalConstraint];\n            emit RemoveGlobalConstraint(_globalConstraint, globalConstraintRegister.index, true, _avatar);\n            return true;\n        }\n        return false;\n    }\n\n    /**\n     * @dev removeGlobalConstraintPost\n     * @param _globalConstraint the address of the global constraint to be remove.\n     * @param _avatar the organization avatar.\n     * @return bool which represents a success\n     */\n    function removeGlobalConstraintPost(address _globalConstraint, address _avatar)\n    private returns(bool)\n    {\n        GlobalConstraintRegister memory globalConstraintRegister =\n        organizations[_avatar].globalConstraintsRegisterPost[_globalConstraint];\n        GlobalConstraint[] storage globalConstraints = organizations[_avatar].globalConstraintsPost;\n\n        if (globalConstraintRegister.isRegistered) {\n            if (globalConstraintRegister.index < globalConstraints.length-1) {\n                GlobalConstraint memory globalConstraint = globalConstraints[globalConstraints.length-1];\n                globalConstraints[globalConstraintRegister.index] = globalConstraint;\n                organizations[_avatar].globalConstraintsRegisterPost[globalConstraint.gcAddress].index =\n                globalConstraintRegister.index;\n            }\n            globalConstraints.length--;\n            delete organizations[_avatar].globalConstraintsRegisterPost[_globalConstraint];\n            emit RemoveGlobalConstraint(_globalConstraint, globalConstraintRegister.index, false, _avatar);\n            return true;\n        }\n        return false;\n    }\n\n    function _isSchemeRegistered( address _scheme, address _avatar) private view returns(bool) {\n        return (organizations[_avatar].schemes[_scheme].permissions&bytes4(0x00000001) != bytes4(0));\n    }\n}",
  "sourcePath": "C:\\Users\\Subhan\\Desktop\\github\\betterbrooklyndao\\Controller\\contracts\\Controller\\UController.sol",
  "compiler": {
    "name": "solc",
    "version": "0.5.8+commit.23d335f2.Emscripten.clang"
  },
  "schemaVersion": "3.0.11",
  "updatedAt": "2019-07-17T22:56:36.902Z",
  "devdoc": {
    "details": "A universal controller hold organizations and controls their tokens ,reputations      and avatar. It is subject to a set of schemes and constraints that determine its behavior. Each scheme has it own parameters and operation permissions.",
    "methods": {
      "addGlobalConstraint(address,bytes32,address)": {
        "details": "add or update Global Constraint",
        "params": {
          "_avatar": "the avatar of the organization",
          "_globalConstraint": "the address of the global constraint to be added.",
          "_params": "the constraint parameters hash."
        },
        "return": "bool which represents a success"
      },
      "burnReputation(uint256,address,address)": {
        "details": "Burns `_amount` of reputation from `_from`",
        "params": {
          "_amount": "amount of reputation to burn",
          "_from": "The address that will lose the reputation"
        },
        "return": "bool which represents a success"
      },
      "externalTokenApproval(address,address,uint256,address)": {
        "details": "externalTokenApproval approve the spender address to spend a specified amount of tokens     on behalf of msg.sender.",
        "params": {
          "_externalToken": "the address of the Token Contract",
          "_spender": "address",
          "_value": "the amount of ether (in Wei) which the approval is referring to."
        },
        "return": "bool which represents a success"
      },
      "externalTokenTransfer(address,address,uint256,address)": {
        "details": "send some amount of arbitrary ERC20 Tokens",
        "params": {
          "_avatar": "the organization avatar.",
          "_externalToken": "the address of the Token Contract",
          "_to": "address of the beneficiary",
          "_value": "the amount of ether (in Wei) to send"
        },
        "return": "bool which represents a success"
      },
      "externalTokenTransferFrom(address,address,address,uint256,address)": {
        "details": "transfer token \"from\" address \"to\" address     One must to approve the amount of tokens which can be spend from the     \"from\" account.This can be done using externalTokenApprove.",
        "params": {
          "_avatar": "the organization avatar.",
          "_externalToken": "the address of the Token Contract",
          "_from": "address of the account to send from",
          "_to": "address of the beneficiary",
          "_value": "the amount of ether (in Wei) to send"
        },
        "return": "bool which represents a success"
      },
      "genericCall(address,bytes,address,uint256)": {
        "details": "perform a generic call to an arbitrary contract",
        "params": {
          "_avatar": "the controller's avatar address",
          "_contract": "the contract's address to call",
          "_data": "ABI-encoded contract call to call `_contract` address.",
          "_value": "value (ETH) to transfer with the transaction"
        },
        "return": "bool -success        bytes  - the return value of the called _contract's function."
      },
      "getNativeReputation(address)": {
        "details": "getNativeReputation",
        "params": {
          "_avatar": "the organization avatar."
        },
        "return": "organization native reputation"
      },
      "globalConstraintsCount(address)": {
        "details": "globalConstraintsCount return the global constraint pre and post count",
        "return": "uint256 globalConstraintsPre count.uint256 globalConstraintsPost count."
      },
      "metaData(string,address)": {
        "details": "metaData emits an event with a string, should contain the hash of some meta data.",
        "params": {
          "_avatar": "Avatar",
          "_metaData": "a string representing a hash of the meta data"
        },
        "return": "bool which represents a success"
      },
      "mintReputation(uint256,address,address)": {
        "details": "Mint `_amount` of reputation that are assigned to `_to` .",
        "params": {
          "_amount": "amount of reputation to mint",
          "_avatar": "the address of the organization's avatar",
          "_to": "beneficiary address"
        },
        "return": "bool which represents a success"
      },
      "mintTokens(uint256,address,address)": {
        "details": "mint tokens .",
        "params": {
          "_amount": "amount of token to mint",
          "_avatar": "the organization avatar.",
          "_beneficiary": "beneficiary address"
        },
        "return": "bool which represents a success"
      },
      "newOrganization(address)": {
        "details": "newOrganization set up a new organization with default daoCreator.",
        "params": {
          "_avatar": "the organization avatar"
        }
      },
      "registerScheme(address,bytes32,bytes4,address)": {
        "details": "register or update a scheme",
        "params": {
          "_avatar": "the organization avatar.",
          "_paramsHash": "a hashed configuration of the usage of the scheme",
          "_permissions": "the permissions the new scheme will have",
          "_scheme": "the address of the scheme"
        },
        "return": "bool which represents a success"
      },
      "removeGlobalConstraint(address,address)": {
        "details": "remove Global Constraint",
        "params": {
          "_avatar": "the organization avatar.",
          "_globalConstraint": "the address of the global constraint to be remove."
        },
        "return": "bool which represents a success"
      },
      "sendEther(uint256,address,address)": {
        "details": "send some ether",
        "params": {
          "_amountInWei": "the amount of ether (in Wei) to send",
          "_avatar": "the organization avatar.",
          "_to": "address of the beneficiary"
        },
        "return": "bool which represents a success"
      },
      "unregisterScheme(address,address)": {
        "details": "unregister a scheme",
        "params": {
          "_avatar": "the organization avatar.",
          "_scheme": "the address of the scheme"
        },
        "return": "bool which represents a success"
      },
      "unregisterSelf(address)": {
        "details": "unregister the caller's scheme",
        "params": {
          "_avatar": "the organization avatar."
        },
        "return": "bool which represents a success"
      },
      "upgradeController(address,address)": {
        "details": "upgrade the Controller     The function will trigger an event 'UpgradeController'.",
        "params": {
          "_avatar": "the organization avatar.",
          "_newController": "the address of the new controller."
        },
        "return": "bool which represents a success"
      }
    },
    "title": "Universal Controller contract"
  },
  "userdoc": {
    "methods": {}
  }
}