{
  "contractName": "UpgradeScheme",
  "abi": [
    {
      "constant": true,
      "inputs": [
        {
          "name": "",
          "type": "bytes32"
        }
      ],
      "name": "parameters",
      "outputs": [
        {
          "name": "voteParams",
          "type": "bytes32"
        },
        {
          "name": "intVote",
          "type": "address"
        }
      ],
      "payable": false,
      "stateMutability": "view",
      "type": "function"
    },
    {
      "constant": true,
      "inputs": [
        {
          "name": "",
          "type": "address"
        },
        {
          "name": "",
          "type": "bytes32"
        }
      ],
      "name": "organizationsProposals",
      "outputs": [
        {
          "name": "upgradeContract",
          "type": "address"
        },
        {
          "name": "params",
          "type": "bytes32"
        },
        {
          "name": "proposalType",
          "type": "uint256"
        }
      ],
      "payable": false,
      "stateMutability": "view",
      "type": "function"
    },
    {
      "constant": true,
      "inputs": [
        {
          "name": "",
          "type": "address"
        },
        {
          "name": "",
          "type": "bytes32"
        }
      ],
      "name": "proposalsInfo",
      "outputs": [
        {
          "name": "blockNumber",
          "type": "uint256"
        },
        {
          "name": "avatar",
          "type": "address"
        }
      ],
      "payable": false,
      "stateMutability": "view",
      "type": "function"
    },
    {
      "constant": true,
      "inputs": [
        {
          "name": "_stakingToken",
          "type": "address"
        },
        {
          "name": "_proposalId",
          "type": "bytes32"
        }
      ],
      "name": "balanceOfStakingToken",
      "outputs": [
        {
          "name": "",
          "type": "uint256"
        }
      ],
      "payable": false,
      "stateMutability": "view",
      "type": "function"
    },
    {
      "constant": true,
      "inputs": [
        {
          "name": "_owner",
          "type": "address"
        },
        {
          "name": "_proposalId",
          "type": "bytes32"
        }
      ],
      "name": "reputationOf",
      "outputs": [
        {
          "name": "",
          "type": "uint256"
        }
      ],
      "payable": false,
      "stateMutability": "view",
      "type": "function"
    },
    {
      "constant": true,
      "inputs": [
        {
          "name": "_proposalId",
          "type": "bytes32"
        }
      ],
      "name": "getTotalReputationSupply",
      "outputs": [
        {
          "name": "",
          "type": "uint256"
        }
      ],
      "payable": false,
      "stateMutability": "view",
      "type": "function"
    },
    {
      "constant": false,
      "inputs": [
        {
          "name": "_stakingToken",
          "type": "address"
        },
        {
          "name": "_beneficiary",
          "type": "address"
        },
        {
          "name": "_amount",
          "type": "uint256"
        },
        {
          "name": "_proposalId",
          "type": "bytes32"
        }
      ],
      "name": "stakingTokenTransfer",
      "outputs": [
        {
          "name": "",
          "type": "bool"
        }
      ],
      "payable": false,
      "stateMutability": "nonpayable",
      "type": "function"
    },
    {
      "constant": false,
      "inputs": [
        {
          "name": "_amount",
          "type": "uint256"
        },
        {
          "name": "_beneficiary",
          "type": "address"
        },
        {
          "name": "_proposalId",
          "type": "bytes32"
        }
      ],
      "name": "mintReputation",
      "outputs": [
        {
          "name": "",
          "type": "bool"
        }
      ],
      "payable": false,
      "stateMutability": "nonpayable",
      "type": "function"
    },
    {
      "constant": false,
      "inputs": [
        {
          "name": "_amount",
          "type": "uint256"
        },
        {
          "name": "_beneficiary",
          "type": "address"
        },
        {
          "name": "_proposalId",
          "type": "bytes32"
        }
      ],
      "name": "burnReputation",
      "outputs": [
        {
          "name": "",
          "type": "bool"
        }
      ],
      "payable": false,
      "stateMutability": "nonpayable",
      "type": "function"
    },
    {
      "anonymous": false,
      "inputs": [
        {
          "indexed": true,
          "name": "_avatar",
          "type": "address"
        },
        {
          "indexed": true,
          "name": "_proposalId",
          "type": "bytes32"
        },
        {
          "indexed": true,
          "name": "_intVoteInterface",
          "type": "address"
        },
        {
          "indexed": false,
          "name": "_newController",
          "type": "address"
        },
        {
          "indexed": false,
          "name": "_descriptionHash",
          "type": "string"
        }
      ],
      "name": "NewUpgradeProposal",
      "type": "event"
    },
    {
      "anonymous": false,
      "inputs": [
        {
          "indexed": true,
          "name": "_avatar",
          "type": "address"
        },
        {
          "indexed": true,
          "name": "_proposalId",
          "type": "bytes32"
        },
        {
          "indexed": true,
          "name": "_intVoteInterface",
          "type": "address"
        },
        {
          "indexed": false,
          "name": "_newUpgradeScheme",
          "type": "address"
        },
        {
          "indexed": false,
          "name": "_params",
          "type": "bytes32"
        },
        {
          "indexed": false,
          "name": "_descriptionHash",
          "type": "string"
        }
      ],
      "name": "ChangeUpgradeSchemeProposal",
      "type": "event"
    },
    {
      "anonymous": false,
      "inputs": [
        {
          "indexed": true,
          "name": "_avatar",
          "type": "address"
        },
        {
          "indexed": true,
          "name": "_proposalId",
          "type": "bytes32"
        },
        {
          "indexed": false,
          "name": "_param",
          "type": "int256"
        }
      ],
      "name": "ProposalExecuted",
      "type": "event"
    },
    {
      "anonymous": false,
      "inputs": [
        {
          "indexed": true,
          "name": "_avatar",
          "type": "address"
        },
        {
          "indexed": true,
          "name": "_proposalId",
          "type": "bytes32"
        }
      ],
      "name": "ProposalDeleted",
      "type": "event"
    },
    {
      "constant": false,
      "inputs": [
        {
          "name": "_proposalId",
          "type": "bytes32"
        },
        {
          "name": "_param",
          "type": "int256"
        }
      ],
      "name": "executeProposal",
      "outputs": [
        {
          "name": "",
          "type": "bool"
        }
      ],
      "payable": false,
      "stateMutability": "nonpayable",
      "type": "function"
    },
    {
      "constant": false,
      "inputs": [
        {
          "name": "_voteParams",
          "type": "bytes32"
        },
        {
          "name": "_intVote",
          "type": "address"
        }
      ],
      "name": "setParameters",
      "outputs": [
        {
          "name": "",
          "type": "bytes32"
        }
      ],
      "payable": false,
      "stateMutability": "nonpayable",
      "type": "function"
    },
    {
      "constant": true,
      "inputs": [
        {
          "name": "_voteParams",
          "type": "bytes32"
        },
        {
          "name": "_intVote",
          "type": "address"
        }
      ],
      "name": "getParametersHash",
      "outputs": [
        {
          "name": "",
          "type": "bytes32"
        }
      ],
      "payable": false,
      "stateMutability": "pure",
      "type": "function"
    },
    {
      "constant": false,
      "inputs": [
        {
          "name": "_avatar",
          "type": "address"
        },
        {
          "name": "_newController",
          "type": "address"
        },
        {
          "name": "_descriptionHash",
          "type": "string"
        }
      ],
      "name": "proposeUpgrade",
      "outputs": [
        {
          "name": "",
          "type": "bytes32"
        }
      ],
      "payable": false,
      "stateMutability": "nonpayable",
      "type": "function"
    },
    {
      "constant": false,
      "inputs": [
        {
          "name": "_avatar",
          "type": "address"
        },
        {
          "name": "_scheme",
          "type": "address"
        },
        {
          "name": "_params",
          "type": "bytes32"
        },
        {
          "name": "_descriptionHash",
          "type": "string"
        }
      ],
      "name": "proposeChangeUpgradingScheme",
      "outputs": [
        {
          "name": "",
          "type": "bytes32"
        }
      ],
      "payable": false,
      "stateMutability": "nonpayable",
      "type": "function"
    }
  ],
  "bytecode": "0x608060405234801561001057600080fd5b5061308d806100206000396000f3fe608060405234801561001057600080fd5b50600436106100ea5760003560e01c80639588378e1161008c578063bea75f2811610066578063bea75f28146105be578063d29b5d2f1461064e578063da816894146106be578063f81f8bf6146107d7576100ea565b80639588378e146104ca5780639d4c162d1461052c578063b551c3731461057c576100ea565b806360bdbb3f116100c857806360bdbb3f1461026257806368e14dac146102f75780636b8eb4031461035957806374ad5c33146103bb576100ea565b806302506804146100ef57806306e3a978146101645780632453732a14610200575b600080fd5b61011b6004803603602081101561010557600080fd5b8101908080359060200190929190505050610847565b604051808381526020018273ffffffffffffffffffffffffffffffffffffffff1673ffffffffffffffffffffffffffffffffffffffff1681526020019250505060405180910390f35b6101b06004803603604081101561017a57600080fd5b81019080803573ffffffffffffffffffffffffffffffffffffffff1690602001909291908035906020019092919050505061088b565b604051808473ffffffffffffffffffffffffffffffffffffffff1673ffffffffffffffffffffffffffffffffffffffff168152602001838152602001828152602001935050505060405180910390f35b61024c6004803603604081101561021657600080fd5b8101908080359060200190929190803573ffffffffffffffffffffffffffffffffffffffff1690602001909291905050506108e2565b6040518082815260200191505060405180910390f35b6102ae6004803603604081101561027857600080fd5b81019080803573ffffffffffffffffffffffffffffffffffffffff1690602001909291908035906020019092919050505061094a565b604051808381526020018273ffffffffffffffffffffffffffffffffffffffff1673ffffffffffffffffffffffffffffffffffffffff1681526020019250505060405180910390f35b6103436004803603604081101561030d57600080fd5b8101908080359060200190929190803573ffffffffffffffffffffffffffffffffffffffff16906020019092919050505061099b565b6040518082815260200191505060405180910390f35b6103a56004803603604081101561036f57600080fd5b81019080803573ffffffffffffffffffffffffffffffffffffffff16906020019092919080359060200190929190505050610a24565b6040518082815260200191505060405180910390f35b6104b4600480360360608110156103d157600080fd5b81019080803573ffffffffffffffffffffffffffffffffffffffff169060200190929190803573ffffffffffffffffffffffffffffffffffffffff1690602001909291908035906020019064010000000081111561042e57600080fd5b82018360208201111561044057600080fd5b8035906020019184600183028401116401000000008311171561046257600080fd5b91908080601f016020809104026020016040519081016040528093929190818152602001838380828437600081840152601f19601f820116905080830192505050505050509192919290505050610c0f565b6040518082815260200191505060405180910390f35b610516600480360360408110156104e057600080fd5b81019080803573ffffffffffffffffffffffffffffffffffffffff1690602001909291908035906020019092919050505061107c565b6040518082815260200191505060405180910390f35b6105626004803603604081101561054257600080fd5b8101908080359060200190929190803590602001909291905050506112d7565b604051808215151515815260200191505060405180910390f35b6105a86004803603602081101561059257600080fd5b8101908080359060200190929190505050611b51565b6040518082815260200191505060405180910390f35b610634600480360360808110156105d457600080fd5b81019080803573ffffffffffffffffffffffffffffffffffffffff169060200190929190803573ffffffffffffffffffffffffffffffffffffffff1690602001909291908035906020019092919080359060200190929190505050611d77565b604051808215151515815260200191505060405180910390f35b6106a46004803603606081101561066457600080fd5b8101908080359060200190929190803573ffffffffffffffffffffffffffffffffffffffff169060200190929190803590602001909291905050506120fc565b604051808215151515815260200191505060405180910390f35b6107c1600480360360808110156106d457600080fd5b81019080803573ffffffffffffffffffffffffffffffffffffffff169060200190929190803573ffffffffffffffffffffffffffffffffffffffff169060200190929190803590602001909291908035906020019064010000000081111561073b57600080fd5b82018360208201111561074d57600080fd5b8035906020019184600183028401116401000000008311171561076f57600080fd5b91908080601f016020809104026020016040519081016040528093929190818152602001838380828437600081840152601f19601f82011690508083019250505050505050919291929050505061244c565b6040518082815260200191505060405180910390f35b61082d600480360360608110156107ed57600080fd5b8101908080359060200190929190803573ffffffffffffffffffffffffffffffffffffffff16906020019092919080359060200190929190505050612921565b604051808215151515815260200191505060405180910390f35b60026020528060005260406000206000915090508060000154908060010160009054906101000a900473ffffffffffffffffffffffffffffffffffffffff16905082565b6001602052816000526040600020602052806000526040600020600091509150508060000160009054906101000a900473ffffffffffffffffffffffffffffffffffffffff16908060010154908060020154905083565b60008282604051602001808381526020018273ffffffffffffffffffffffffffffffffffffffff1673ffffffffffffffffffffffffffffffffffffffff1660601b81526014019250505060405160208183030381529060405280519060200120905092915050565b6000602052816000526040600020602052806000526040600020600091509150508060000154908060010160009054906101000a900473ffffffffffffffffffffffffffffffffffffffff16905082565b6000806109a884846108e2565b9050836002600083815260200190815260200160002060000181905550826002600083815260200190815260200160002060010160006101000a81548173ffffffffffffffffffffffffffffffffffffffff021916908373ffffffffffffffffffffffffffffffffffffffff1602179055508091505092915050565b6000806000803373ffffffffffffffffffffffffffffffffffffffff1673ffffffffffffffffffffffffffffffffffffffff168152602001908152602001600020600084815260200190815260200160002060010160009054906101000a900473ffffffffffffffffffffffffffffffffffffffff169050600073ffffffffffffffffffffffffffffffffffffffff166000803373ffffffffffffffffffffffffffffffffffffffff1673ffffffffffffffffffffffffffffffffffffffff168152602001908152602001600020600085815260200190815260200160002060010160009054906101000a900473ffffffffffffffffffffffffffffffffffffffff1673ffffffffffffffffffffffffffffffffffffffff161415610b4d576000915050610c09565b8373ffffffffffffffffffffffffffffffffffffffff166370a08231826040518263ffffffff1660e01b8152600401808273ffffffffffffffffffffffffffffffffffffffff1673ffffffffffffffffffffffffffffffffffffffff16815260200191505060206040518083038186803b158015610bca57600080fd5b505afa158015610bde573d6000803e3d6000fd5b505050506040513d6020811015610bf457600080fd5b81019080805190602001909291905050509150505b92915050565b6000610c19612fc4565b60026000610c2687612c71565b8152602001908152602001600020604051806040016040529081600082015481526020016001820160009054906101000a900473ffffffffffffffffffffffffffffffffffffffff1673ffffffffffffffffffffffffffffffffffffffff1673ffffffffffffffffffffffffffffffffffffffff168152505090506000816020015173ffffffffffffffffffffffffffffffffffffffff166388737b5e60028460000151338a6040518563ffffffff1660e01b8152600401808581526020018481526020018373ffffffffffffffffffffffffffffffffffffffff1673ffffffffffffffffffffffffffffffffffffffff1681526020018273ffffffffffffffffffffffffffffffffffffffff1673ffffffffffffffffffffffffffffffffffffffff168152602001945050505050602060405180830381600087803b158015610d6f57600080fd5b505af1158015610d83573d6000803e3d6000fd5b505050506040513d6020811015610d9957600080fd5b81019080805190602001909291905050509050610db4612ff7565b60405180606001604052808773ffffffffffffffffffffffffffffffffffffffff1681526020016000801b81526020016001815250905080600160008973ffffffffffffffffffffffffffffffffffffffff1673ffffffffffffffffffffffffffffffffffffffff168152602001908152602001600020600084815260200190815260200160002060008201518160000160006101000a81548173ffffffffffffffffffffffffffffffffffffffff021916908373ffffffffffffffffffffffffffffffffffffffff1602179055506020820151816001015560408201518160020155905050826020015173ffffffffffffffffffffffffffffffffffffffff16828873ffffffffffffffffffffffffffffffffffffffff167f5378fb6111ece3f1032a0e9b60cb0caa886ec384da4300631570473ae5a4fbc08989604051808373ffffffffffffffffffffffffffffffffffffffff1673ffffffffffffffffffffffffffffffffffffffff16815260200180602001828103825283818151815260200191508051906020019080838360005b83811015610f62578082015181840152602081019050610f47565b50505050905090810190601f168015610f8f5780820380516001836020036101000a031916815260200191505b50935050505060405180910390a460405180604001604052804381526020018873ffffffffffffffffffffffffffffffffffffffff16815250600080856020015173ffffffffffffffffffffffffffffffffffffffff1673ffffffffffffffffffffffffffffffffffffffff16815260200190815260200160002060008481526020019081526020016000206000820151816000015560208201518160010160006101000a81548173ffffffffffffffffffffffffffffffffffffffff021916908373ffffffffffffffffffffffffffffffffffffffff1602179055509050508193505050509392505050565b6000611086613031565b6000803373ffffffffffffffffffffffffffffffffffffffff1673ffffffffffffffffffffffffffffffffffffffff1681526020019081526020016000206000848152602001908152602001600020604051806040016040529081600082015481526020016001820160009054906101000a900473ffffffffffffffffffffffffffffffffffffffff1673ffffffffffffffffffffffffffffffffffffffff1673ffffffffffffffffffffffffffffffffffffffff16815250509050600073ffffffffffffffffffffffffffffffffffffffff16816020015173ffffffffffffffffffffffffffffffffffffffff1614156111855760009150506112d1565b806020015173ffffffffffffffffffffffffffffffffffffffff166389ae1c906040518163ffffffff1660e01b815260040160206040518083038186803b1580156111cf57600080fd5b505afa1580156111e3573d6000803e3d6000fd5b505050506040513d60208110156111f957600080fd5b810190808051906020019092919050505073ffffffffffffffffffffffffffffffffffffffff16634ee2cd7e8583600001516040518363ffffffff1660e01b8152600401808373ffffffffffffffffffffffffffffffffffffffff1673ffffffffffffffffffffffffffffffffffffffff1681526020018281526020019250505060206040518083038186803b15801561129257600080fd5b505afa1580156112a6573d6000803e3d6000fd5b505050506040513d60208110156112bc57600080fd5b81019080805190602001909291905050509150505b92915050565b600082600073ffffffffffffffffffffffffffffffffffffffff166000803373ffffffffffffffffffffffffffffffffffffffff1673ffffffffffffffffffffffffffffffffffffffff168152602001908152602001600020600083815260200190815260200160002060010160009054906101000a900473ffffffffffffffffffffffffffffffffffffffff1673ffffffffffffffffffffffffffffffffffffffff1614156113ef576040517f08c379a00000000000000000000000000000000000000000000000000000000081526004018080602001828103825260128152602001807f6f6e6c7920566f74696e674d616368696e65000000000000000000000000000081525060200191505060405180910390fd5b60008060003373ffffffffffffffffffffffffffffffffffffffff1673ffffffffffffffffffffffffffffffffffffffff168152602001908152602001600020600086815260200190815260200160002060010160009054906101000a900473ffffffffffffffffffffffffffffffffffffffff16905061146e612ff7565b600160008373ffffffffffffffffffffffffffffffffffffffff1673ffffffffffffffffffffffffffffffffffffffff16815260200190815260200160002060008781526020019081526020016000206040518060600160405290816000820160009054906101000a900473ffffffffffffffffffffffffffffffffffffffff1673ffffffffffffffffffffffffffffffffffffffff1673ffffffffffffffffffffffffffffffffffffffff16815260200160018201548152602001600282015481525050905060008160400151141561154757600080fd5b600160008373ffffffffffffffffffffffffffffffffffffffff1673ffffffffffffffffffffffffffffffffffffffff1681526020019081526020016000206000878152602001908152602001600020600080820160006101000a81549073ffffffffffffffffffffffffffffffffffffffff0219169055600182016000905560028201600090555050858273ffffffffffffffffffffffffffffffffffffffff167f6bc0cb9e9967b59a69ace442598e1df4368d38661bd5c0800fbcbc9fe855fbbe60405160405180910390a36001851415611af55760008273ffffffffffffffffffffffffffffffffffffffff16638da5cb5b6040518163ffffffff1660e01b815260040160206040518083038186803b15801561166657600080fd5b505afa15801561167a573d6000803e3d6000fd5b505050506040513d602081101561169057600080fd5b810190808051906020019092919050505090506001826040015114156117ac578073ffffffffffffffffffffffffffffffffffffffff166342427bf88360000151856040518363ffffffff1660e01b8152600401808373ffffffffffffffffffffffffffffffffffffffff1673ffffffffffffffffffffffffffffffffffffffff1681526020018273ffffffffffffffffffffffffffffffffffffffff1673ffffffffffffffffffffffffffffffffffffffff16815260200192505050602060405180830381600087803b15801561176757600080fd5b505af115801561177b573d6000803e3d6000fd5b505050506040513d602081101561179157600080fd5b81019080805190602001909291905050506117ab57600080fd5b5b600282604001511415611af35760008173ffffffffffffffffffffffffffffffffffffffff16639b51e35a30866040518363ffffffff1660e01b8152600401808373ffffffffffffffffffffffffffffffffffffffff1673ffffffffffffffffffffffffffffffffffffffff1681526020018273ffffffffffffffffffffffffffffffffffffffff1673ffffffffffffffffffffffffffffffffffffffff1681526020019250505060206040518083038186803b15801561186c57600080fd5b505afa158015611880573d6000803e3d6000fd5b505050506040513d602081101561189657600080fd5b810190808051906020019092919050505090508173ffffffffffffffffffffffffffffffffffffffff1663e869d45f8460000151856020015184886040518563ffffffff1660e01b8152600401808573ffffffffffffffffffffffffffffffffffffffff1673ffffffffffffffffffffffffffffffffffffffff168152602001848152602001837bffffffffffffffffffffffffffffffffffffffffffffffffffffffff19167bffffffffffffffffffffffffffffffffffffffffffffffffffffffff191681526020018273ffffffffffffffffffffffffffffffffffffffff1673ffffffffffffffffffffffffffffffffffffffff168152602001945050505050602060405180830381600087803b1580156119b257600080fd5b505af11580156119c6573d6000803e3d6000fd5b505050506040513d60208110156119dc57600080fd5b81019080805190602001909291905050506119f657600080fd5b3073ffffffffffffffffffffffffffffffffffffffff16836000015173ffffffffffffffffffffffffffffffffffffffff1614611af1578173ffffffffffffffffffffffffffffffffffffffff16636c525b13856040518263ffffffff1660e01b8152600401808273ffffffffffffffffffffffffffffffffffffffff1673ffffffffffffffffffffffffffffffffffffffff168152602001915050602060405180830381600087803b158015611aac57600080fd5b505af1158015611ac0573d6000803e3d6000fd5b505050506040513d6020811015611ad657600080fd5b8101908080519060200190929190505050611af057600080fd5b5b505b505b858273ffffffffffffffffffffffffffffffffffffffff167fd2632e80f5364f02aded1c64e8a04637b7c8bb9c2db2bedf4b6ac47c013acbc0876040518082815260200191505060405180910390a36001935050505092915050565b6000611b5b613031565b6000803373ffffffffffffffffffffffffffffffffffffffff1673ffffffffffffffffffffffffffffffffffffffff1681526020019081526020016000206000848152602001908152602001600020604051806040016040529081600082015481526020016001820160009054906101000a900473ffffffffffffffffffffffffffffffffffffffff1673ffffffffffffffffffffffffffffffffffffffff1673ffffffffffffffffffffffffffffffffffffffff16815250509050600073ffffffffffffffffffffffffffffffffffffffff16816020015173ffffffffffffffffffffffffffffffffffffffff161415611c5a576000915050611d72565b806020015173ffffffffffffffffffffffffffffffffffffffff166389ae1c906040518163ffffffff1660e01b815260040160206040518083038186803b158015611ca457600080fd5b505afa158015611cb8573d6000803e3d6000fd5b505050506040513d6020811015611cce57600080fd5b810190808051906020019092919050505073ffffffffffffffffffffffffffffffffffffffff1663981b24d082600001516040518263ffffffff1660e01b81526004018082815260200191505060206040518083038186803b158015611d3357600080fd5b505afa158015611d47573d6000803e3d6000fd5b505050506040513d6020811015611d5d57600080fd5b81019080805190602001909291905050509150505b919050565b600081600073ffffffffffffffffffffffffffffffffffffffff166000803373ffffffffffffffffffffffffffffffffffffffff1673ffffffffffffffffffffffffffffffffffffffff168152602001908152602001600020600083815260200190815260200160002060010160009054906101000a900473ffffffffffffffffffffffffffffffffffffffff1673ffffffffffffffffffffffffffffffffffffffff161415611e8f576040517f08c379a00000000000000000000000000000000000000000000000000000000081526004018080602001828103825260128152602001807f6f6e6c7920566f74696e674d616368696e65000000000000000000000000000081525060200191505060405180910390fd5b60008060003373ffffffffffffffffffffffffffffffffffffffff1673ffffffffffffffffffffffffffffffffffffffff168152602001908152602001600020600085815260200190815260200160002060010160009054906101000a900473ffffffffffffffffffffffffffffffffffffffff169050600073ffffffffffffffffffffffffffffffffffffffff168173ffffffffffffffffffffffffffffffffffffffff161415611f455760009250506120f3565b8073ffffffffffffffffffffffffffffffffffffffff16638da5cb5b6040518163ffffffff1660e01b815260040160206040518083038186803b158015611f8b57600080fd5b505afa158015611f9f573d6000803e3d6000fd5b505050506040513d6020811015611fb557600080fd5b810190808051906020019092919050505073ffffffffffffffffffffffffffffffffffffffff1663b9a04cdd888888856040518563ffffffff1660e01b8152600401808573ffffffffffffffffffffffffffffffffffffffff1673ffffffffffffffffffffffffffffffffffffffff1681526020018473ffffffffffffffffffffffffffffffffffffffff1673ffffffffffffffffffffffffffffffffffffffff1681526020018381526020018273ffffffffffffffffffffffffffffffffffffffff1673ffffffffffffffffffffffffffffffffffffffff168152602001945050505050602060405180830381600087803b1580156120b457600080fd5b505af11580156120c8573d6000803e3d6000fd5b505050506040513d60208110156120de57600080fd5b81019080805190602001909291905050509250505b50949350505050565b600081600073ffffffffffffffffffffffffffffffffffffffff166000803373ffffffffffffffffffffffffffffffffffffffff1673ffffffffffffffffffffffffffffffffffffffff168152602001908152602001600020600083815260200190815260200160002060010160009054906101000a900473ffffffffffffffffffffffffffffffffffffffff1673ffffffffffffffffffffffffffffffffffffffff161415612214576040517f08c379a00000000000000000000000000000000000000000000000000000000081526004018080602001828103825260128152602001807f6f6e6c7920566f74696e674d616368696e65000000000000000000000000000081525060200191505060405180910390fd5b60008060003373ffffffffffffffffffffffffffffffffffffffff1673ffffffffffffffffffffffffffffffffffffffff168152602001908152602001600020600085815260200190815260200160002060010160009054906101000a900473ffffffffffffffffffffffffffffffffffffffff169050600073ffffffffffffffffffffffffffffffffffffffff168173ffffffffffffffffffffffffffffffffffffffff1614156122ca576000925050612444565b8073ffffffffffffffffffffffffffffffffffffffff16638da5cb5b6040518163ffffffff1660e01b815260040160206040518083038186803b15801561231057600080fd5b505afa158015612324573d6000803e3d6000fd5b505050506040513d602081101561233a57600080fd5b810190808051906020019092919050505073ffffffffffffffffffffffffffffffffffffffff1663eaf994b28787846040518463ffffffff1660e01b8152600401808481526020018373ffffffffffffffffffffffffffffffffffffffff1673ffffffffffffffffffffffffffffffffffffffff1681526020018273ffffffffffffffffffffffffffffffffffffffff1673ffffffffffffffffffffffffffffffffffffffff1681526020019350505050602060405180830381600087803b15801561240557600080fd5b505af1158015612419573d6000803e3d6000fd5b505050506040513d602081101561242f57600080fd5b81019080805190602001909291905050509250505b509392505050565b6000612456612fc4565b6002600061246388612c71565b8152602001908152602001600020604051806040016040529081600082015481526020016001820160009054906101000a900473ffffffffffffffffffffffffffffffffffffffff1673ffffffffffffffffffffffffffffffffffffffff1673ffffffffffffffffffffffffffffffffffffffff1681525050905060008160200151905060008173ffffffffffffffffffffffffffffffffffffffff166388737b5e60028560000151338c6040518563ffffffff1660e01b8152600401808581526020018481526020018373ffffffffffffffffffffffffffffffffffffffff1673ffffffffffffffffffffffffffffffffffffffff1681526020018273ffffffffffffffffffffffffffffffffffffffff1673ffffffffffffffffffffffffffffffffffffffff168152602001945050505050602060405180830381600087803b1580156125b157600080fd5b505af11580156125c5573d6000803e3d6000fd5b505050506040513d60208110156125db57600080fd5b810190808051906020019092919050505090506000600160008a73ffffffffffffffffffffffffffffffffffffffff1673ffffffffffffffffffffffffffffffffffffffff1681526020019081526020016000206000838152602001908152602001600020600201541461264e57600080fd5b612656612ff7565b60405180606001604052808973ffffffffffffffffffffffffffffffffffffffff1681526020018881526020016002815250905080600160008b73ffffffffffffffffffffffffffffffffffffffff1673ffffffffffffffffffffffffffffffffffffffff168152602001908152602001600020600084815260200190815260200160002060008201518160000160006101000a81548173ffffffffffffffffffffffffffffffffffffffff021916908373ffffffffffffffffffffffffffffffffffffffff1602179055506020820151816001015560408201518160020155905050836020015173ffffffffffffffffffffffffffffffffffffffff16828a73ffffffffffffffffffffffffffffffffffffffff167f54db9b1773952b7528e7872ab8f8411827fe4d14f722aecf6dc0f0fd59de99b88b8b8b604051808473ffffffffffffffffffffffffffffffffffffffff1673ffffffffffffffffffffffffffffffffffffffff16815260200183815260200180602001828103825283818151815260200191508051906020019080838360005b838110156128085780820151818401526020810190506127ed565b50505050905090810190601f1680156128355780820380516001836020036101000a031916815260200191505b5094505050505060405180910390a460405180604001604052804381526020018a73ffffffffffffffffffffffffffffffffffffffff168152506000808573ffffffffffffffffffffffffffffffffffffffff1673ffffffffffffffffffffffffffffffffffffffff16815260200190815260200160002060008481526020019081526020016000206000820151816000015560208201518160010160006101000a81548173ffffffffffffffffffffffffffffffffffffffff021916908373ffffffffffffffffffffffffffffffffffffffff16021790555090505081945050505050949350505050565b600081600073ffffffffffffffffffffffffffffffffffffffff166000803373ffffffffffffffffffffffffffffffffffffffff1673ffffffffffffffffffffffffffffffffffffffff168152602001908152602001600020600083815260200190815260200160002060010160009054906101000a900473ffffffffffffffffffffffffffffffffffffffff1673ffffffffffffffffffffffffffffffffffffffff161415612a39576040517f08c379a00000000000000000000000000000000000000000000000000000000081526004018080602001828103825260128152602001807f6f6e6c7920566f74696e674d616368696e65000000000000000000000000000081525060200191505060405180910390fd5b60008060003373ffffffffffffffffffffffffffffffffffffffff1673ffffffffffffffffffffffffffffffffffffffff168152602001908152602001600020600085815260200190815260200160002060010160009054906101000a900473ffffffffffffffffffffffffffffffffffffffff169050600073ffffffffffffffffffffffffffffffffffffffff168173ffffffffffffffffffffffffffffffffffffffff161415612aef576000925050612c69565b8073ffffffffffffffffffffffffffffffffffffffff16638da5cb5b6040518163ffffffff1660e01b815260040160206040518083038186803b158015612b3557600080fd5b505afa158015612b49573d6000803e3d6000fd5b505050506040513d6020811015612b5f57600080fd5b810190808051906020019092919050505073ffffffffffffffffffffffffffffffffffffffff16636e94d2788787846040518463ffffffff1660e01b8152600401808481526020018373ffffffffffffffffffffffffffffffffffffffff1673ffffffffffffffffffffffffffffffffffffffff1681526020018273ffffffffffffffffffffffffffffffffffffffff1673ffffffffffffffffffffffffffffffffffffffff1681526020019350505050602060405180830381600087803b158015612c2a57600080fd5b505af1158015612c3e573d6000803e3d6000fd5b505050506040513d6020811015612c5457600080fd5b81019080805190602001909291905050509250505b509392505050565b60008173ffffffffffffffffffffffffffffffffffffffff16638da5cb5b6040518163ffffffff1660e01b815260040160206040518083038186803b158015612cb957600080fd5b505afa158015612ccd573d6000803e3d6000fd5b505050506040513d6020811015612ce357600080fd5b810190808051906020019092919050505073ffffffffffffffffffffffffffffffffffffffff16639be2faed30846040518363ffffffff1660e01b8152600401808373ffffffffffffffffffffffffffffffffffffffff1673ffffffffffffffffffffffffffffffffffffffff1681526020018273ffffffffffffffffffffffffffffffffffffffff1673ffffffffffffffffffffffffffffffffffffffff1681526020019250505060206040518083038186803b158015612da457600080fd5b505afa158015612db8573d6000803e3d6000fd5b505050506040513d6020811015612dce57600080fd5b8101908080519060200190929190505050612e51576040517f08c379a00000000000000000000000000000000000000000000000000000000081526004018080602001828103825260188152602001807f736368656d65206973206e6f742072656769737465726564000000000000000081525060200191505060405180910390fd5b8173ffffffffffffffffffffffffffffffffffffffff16638da5cb5b6040518163ffffffff1660e01b815260040160206040518083038186803b158015612e9757600080fd5b505afa158015612eab573d6000803e3d6000fd5b505050506040513d6020811015612ec157600080fd5b810190808051906020019092919050505073ffffffffffffffffffffffffffffffffffffffff16631c4d560830846040518363ffffffff1660e01b8152600401808373ffffffffffffffffffffffffffffffffffffffff1673ffffffffffffffffffffffffffffffffffffffff1681526020018273ffffffffffffffffffffffffffffffffffffffff1673ffffffffffffffffffffffffffffffffffffffff1681526020019250505060206040518083038186803b158015612f8257600080fd5b505afa158015612f96573d6000803e3d6000fd5b505050506040513d6020811015612fac57600080fd5b81019080805190602001909291905050509050919050565b604051806040016040528060008019168152602001600073ffffffffffffffffffffffffffffffffffffffff1681525090565b6040518060600160405280600073ffffffffffffffffffffffffffffffffffffffff16815260200160008019168152602001600081525090565b604051806040016040528060008152602001600073ffffffffffffffffffffffffffffffffffffffff168152509056fea165627a7a72305820ba9d63360095f6988d763c9c1948d3f69b157f0a20d15124726ee32b5c5f41370029",
  "source": "pragma solidity ^0.5.4;\n\nimport \"../../Voting-Machine/contracts/VotingMachine/IntVoteInterface.sol\";\nimport \"../../Voting-Machine/contracts/VotingMachine/ProposalExecuteInterface.sol\";\nimport \"./UniversalScheme.sol\";\nimport \"../../Voting-Machine/contracts/VotingMachine/VotingMachineCallbacks.sol\";\n\n\n\n/**\n * @title A scheme to manage the upgrade of an organization.\n * @dev The scheme is used to upgrade the controller of an organization to a new controller.\n */\n\ncontract UpgradeScheme is UniversalScheme, VotingMachineCallbacks, ProposalExecuteInterface {\n\n    event NewUpgradeProposal(\n        address indexed _avatar,\n        bytes32 indexed _proposalId,\n        address indexed _intVoteInterface,\n        address _newController,\n        string _descriptionHash\n    );\n\n    event ChangeUpgradeSchemeProposal(\n        address indexed _avatar,\n        bytes32 indexed _proposalId,\n        address indexed _intVoteInterface,\n        address _newUpgradeScheme,\n        bytes32 _params,\n        string _descriptionHash\n    );\n\n    event ProposalExecuted(address indexed _avatar, bytes32 indexed _proposalId, int256 _param);\n    event ProposalDeleted(address indexed _avatar, bytes32 indexed _proposalId);\n\n    // Details of an upgrade proposal:\n    struct UpgradeProposal {\n        address upgradeContract; // Either the new controller we upgrade to, or the new upgrading scheme.\n        bytes32 params; // Params for the new upgrading scheme.\n        uint256 proposalType; // 1: Upgrade controller, 2: change upgrade scheme.\n    }\n\n    // A mapping from the organization's (Avatar) address to the saved data of the organization:\n    mapping(address=>mapping(bytes32=>UpgradeProposal)) public organizationsProposals;\n\n    // A mapping from hashes to parameters (use to store a particular configuration on the controller)\n    struct Parameters {\n        bytes32 voteParams;\n        IntVoteInterface intVote;\n    }\n\n    mapping(bytes32=>Parameters) public parameters;\n\n    /**\n    * @dev execution of proposals, can only be called by the voting machine in which the vote is held.\n    * @param _proposalId the ID of the voting in the voting machine\n    * @param _param a parameter of the voting result, 1 yes and 2 is no.\n    */\n    function executeProposal(bytes32 _proposalId, int256 _param) external onlyVotingMachine(_proposalId) returns(bool) {\n        Avatar avatar = proposalsInfo[msg.sender][_proposalId].avatar;\n        UpgradeProposal memory proposal = organizationsProposals[address(avatar)][_proposalId];\n        require(proposal.proposalType != 0);\n        delete organizationsProposals[address(avatar)][_proposalId];\n        emit ProposalDeleted(address(avatar), _proposalId);\n        // Check if vote was successful:\n        if (_param == 1) {\n\n        // Define controller and get the params:\n            ControllerInterface controller = ControllerInterface(avatar.owner());\n        // Upgrading controller:\n            if (proposal.proposalType == 1) {\n                require(controller.upgradeController(proposal.upgradeContract, avatar));\n            }\n\n        // Changing upgrade scheme:\n            if (proposal.proposalType == 2) {\n                bytes4 permissions = controller.getSchemePermissions(address(this), address(avatar));\n                require(\n                controller.registerScheme(proposal.upgradeContract, proposal.params, permissions, address(avatar))\n                );\n                if (proposal.upgradeContract != address(this)) {\n                    require(controller.unregisterSelf(address(avatar)));\n                }\n            }\n        }\n        emit ProposalExecuted(address(avatar), _proposalId, _param);\n        return true;\n    }\n\n    /**\n    * @dev hash the parameters, save them if necessary, and return the hash value\n    */\n    function setParameters(\n        bytes32 _voteParams,\n        IntVoteInterface _intVote\n    ) public returns(bytes32)\n    {\n        bytes32 paramsHash = getParametersHash(_voteParams, _intVote);\n        parameters[paramsHash].voteParams = _voteParams;\n        parameters[paramsHash].intVote = _intVote;\n        return paramsHash;\n    }\n\n    /**\n    * @dev return a hash of the given parameters\n    */\n    function getParametersHash(\n        bytes32 _voteParams,\n        IntVoteInterface _intVote\n    ) public pure returns(bytes32)\n    {\n        return  (keccak256(abi.encodePacked(_voteParams, _intVote)));\n    }\n\n    /**\n    * @dev propose an upgrade of the organization's controller\n    * @param _avatar avatar of the organization\n    * @param _newController address of the new controller that is being proposed\n    * @param _descriptionHash proposal description hash\n    * @return an id which represents the proposal\n    */\n    function proposeUpgrade(Avatar _avatar, address _newController, string memory _descriptionHash)\n        public\n        returns(bytes32)\n    {\n        Parameters memory params = parameters[getParametersFromController(_avatar)];\n        bytes32 proposalId = params.intVote.propose(2, params.voteParams, msg.sender, address(_avatar));\n        UpgradeProposal memory proposal = UpgradeProposal({\n            proposalType: 1,\n            upgradeContract: _newController,\n            params: bytes32(0)\n        });\n        organizationsProposals[address(_avatar)][proposalId] = proposal;\n        emit NewUpgradeProposal(\n        address(_avatar),\n        proposalId,\n        address(params.intVote),\n        _newController,\n        _descriptionHash\n        );\n        proposalsInfo[address(params.intVote)][proposalId] = ProposalInfo({\n            blockNumber:block.number,\n            avatar:_avatar\n        });\n        return proposalId;\n    }\n\n    /**\n    * @dev propose to replace this scheme by another upgrading scheme\n    * @param _avatar avatar of the organization\n    * @param _scheme address of the new upgrading scheme\n    * @param _params the parameters of the new upgrading scheme\n    * @param _descriptionHash proposal description hash\n    * @return an id which represents the proposal\n    */\n    function proposeChangeUpgradingScheme(\n        Avatar _avatar,\n        address _scheme,\n        bytes32 _params,\n        string memory _descriptionHash\n    )\n        public\n        returns(bytes32)\n    {\n        Parameters memory params = parameters[getParametersFromController(_avatar)];\n        IntVoteInterface intVote = params.intVote;\n        bytes32 proposalId = intVote.propose(2, params.voteParams, msg.sender, address(_avatar));\n        require(organizationsProposals[address(_avatar)][proposalId].proposalType == 0);\n\n        UpgradeProposal memory proposal = UpgradeProposal({\n            proposalType: 2,\n            upgradeContract: _scheme,\n            params: _params\n        });\n        organizationsProposals[address(_avatar)][proposalId] = proposal;\n\n        emit ChangeUpgradeSchemeProposal(\n            address(_avatar),\n            proposalId,\n            address(params.intVote),\n            _scheme,\n            _params,\n            _descriptionHash\n        );\n        proposalsInfo[address(intVote)][proposalId] = ProposalInfo({\n            blockNumber:block.number,\n            avatar:_avatar\n        });\n        return proposalId;\n    }\n}",
  "sourcePath": "C:/Users/Subhan/Desktop/github/betterbrooklyndao/UniversalSchemes/contracts/UpgradeScheme.sol",
  "compiler": {
    "name": "solc",
    "version": "0.5.8+commit.23d335f2.Emscripten.clang"
  },
  "schemaVersion": "3.0.11",
  "updatedAt": "2019-07-17T22:56:37.051Z",
  "devdoc": {
    "details": "The scheme is used to upgrade the controller of an organization to a new controller.",
    "methods": {
      "executeProposal(bytes32,int256)": {
        "details": "execution of proposals, can only be called by the voting machine in which the vote is held.",
        "params": {
          "_param": "a parameter of the voting result, 1 yes and 2 is no.",
          "_proposalId": "the ID of the voting in the voting machine"
        }
      },
      "getParametersHash(bytes32,address)": {
        "details": "return a hash of the given parameters"
      },
      "proposeChangeUpgradingScheme(address,address,bytes32,string)": {
        "details": "propose to replace this scheme by another upgrading scheme",
        "params": {
          "_avatar": "avatar of the organization",
          "_descriptionHash": "proposal description hash",
          "_params": "the parameters of the new upgrading scheme",
          "_scheme": "address of the new upgrading scheme"
        },
        "return": "an id which represents the proposal"
      },
      "proposeUpgrade(address,address,string)": {
        "details": "propose an upgrade of the organization's controller",
        "params": {
          "_avatar": "avatar of the organization",
          "_descriptionHash": "proposal description hash",
          "_newController": "address of the new controller that is being proposed"
        },
        "return": "an id which represents the proposal"
      },
      "setParameters(bytes32,address)": {
        "details": "hash the parameters, save them if necessary, and return the hash value"
      }
    },
    "title": "A scheme to manage the upgrade of an organization."
  },
  "userdoc": {
    "methods": {}
  }
}