{
  "contractName": "VoteInOrganizationScheme",
  "abi": [
    {
      "constant": true,
      "inputs": [
        {
          "name": "",
          "type": "bytes32"
        }
      ],
      "name": "parameters",
      "outputs": [
        {
          "name": "intVote",
          "type": "address"
        },
        {
          "name": "voteParams",
          "type": "bytes32"
        }
      ],
      "payable": false,
      "stateMutability": "view",
      "type": "function"
    },
    {
      "constant": true,
      "inputs": [
        {
          "name": "",
          "type": "address"
        },
        {
          "name": "",
          "type": "bytes32"
        }
      ],
      "name": "organizationsProposals",
      "outputs": [
        {
          "name": "originalIntVote",
          "type": "address"
        },
        {
          "name": "originalProposalId",
          "type": "bytes32"
        },
        {
          "name": "vote",
          "type": "uint256"
        },
        {
          "name": "exist",
          "type": "bool"
        }
      ],
      "payable": false,
      "stateMutability": "view",
      "type": "function"
    },
    {
      "constant": true,
      "inputs": [
        {
          "name": "",
          "type": "address"
        },
        {
          "name": "",
          "type": "bytes32"
        }
      ],
      "name": "proposalsInfo",
      "outputs": [
        {
          "name": "blockNumber",
          "type": "uint256"
        },
        {
          "name": "avatar",
          "type": "address"
        }
      ],
      "payable": false,
      "stateMutability": "view",
      "type": "function"
    },
    {
      "constant": true,
      "inputs": [
        {
          "name": "_stakingToken",
          "type": "address"
        },
        {
          "name": "_proposalId",
          "type": "bytes32"
        }
      ],
      "name": "balanceOfStakingToken",
      "outputs": [
        {
          "name": "",
          "type": "uint256"
        }
      ],
      "payable": false,
      "stateMutability": "view",
      "type": "function"
    },
    {
      "constant": true,
      "inputs": [
        {
          "name": "_owner",
          "type": "address"
        },
        {
          "name": "_proposalId",
          "type": "bytes32"
        }
      ],
      "name": "reputationOf",
      "outputs": [
        {
          "name": "",
          "type": "uint256"
        }
      ],
      "payable": false,
      "stateMutability": "view",
      "type": "function"
    },
    {
      "constant": true,
      "inputs": [
        {
          "name": "_proposalId",
          "type": "bytes32"
        }
      ],
      "name": "getTotalReputationSupply",
      "outputs": [
        {
          "name": "",
          "type": "uint256"
        }
      ],
      "payable": false,
      "stateMutability": "view",
      "type": "function"
    },
    {
      "constant": false,
      "inputs": [
        {
          "name": "_stakingToken",
          "type": "address"
        },
        {
          "name": "_beneficiary",
          "type": "address"
        },
        {
          "name": "_amount",
          "type": "uint256"
        },
        {
          "name": "_proposalId",
          "type": "bytes32"
        }
      ],
      "name": "stakingTokenTransfer",
      "outputs": [
        {
          "name": "",
          "type": "bool"
        }
      ],
      "payable": false,
      "stateMutability": "nonpayable",
      "type": "function"
    },
    {
      "constant": false,
      "inputs": [
        {
          "name": "_amount",
          "type": "uint256"
        },
        {
          "name": "_beneficiary",
          "type": "address"
        },
        {
          "name": "_proposalId",
          "type": "bytes32"
        }
      ],
      "name": "mintReputation",
      "outputs": [
        {
          "name": "",
          "type": "bool"
        }
      ],
      "payable": false,
      "stateMutability": "nonpayable",
      "type": "function"
    },
    {
      "constant": false,
      "inputs": [
        {
          "name": "_amount",
          "type": "uint256"
        },
        {
          "name": "_beneficiary",
          "type": "address"
        },
        {
          "name": "_proposalId",
          "type": "bytes32"
        }
      ],
      "name": "burnReputation",
      "outputs": [
        {
          "name": "",
          "type": "bool"
        }
      ],
      "payable": false,
      "stateMutability": "nonpayable",
      "type": "function"
    },
    {
      "anonymous": false,
      "inputs": [
        {
          "indexed": true,
          "name": "_avatar",
          "type": "address"
        },
        {
          "indexed": true,
          "name": "_proposalId",
          "type": "bytes32"
        },
        {
          "indexed": true,
          "name": "_intVoteInterface",
          "type": "address"
        },
        {
          "indexed": false,
          "name": "_originalIntVote",
          "type": "address"
        },
        {
          "indexed": false,
          "name": "_originalProposalId",
          "type": "bytes32"
        },
        {
          "indexed": false,
          "name": "_vote",
          "type": "uint256"
        },
        {
          "indexed": false,
          "name": "_descriptionHash",
          "type": "string"
        }
      ],
      "name": "NewVoteProposal",
      "type": "event"
    },
    {
      "anonymous": false,
      "inputs": [
        {
          "indexed": true,
          "name": "_avatar",
          "type": "address"
        },
        {
          "indexed": true,
          "name": "_proposalId",
          "type": "bytes32"
        },
        {
          "indexed": false,
          "name": "_param",
          "type": "int256"
        },
        {
          "indexed": false,
          "name": "_callReturnValue",
          "type": "bytes"
        }
      ],
      "name": "ProposalExecuted",
      "type": "event"
    },
    {
      "anonymous": false,
      "inputs": [
        {
          "indexed": true,
          "name": "_avatar",
          "type": "address"
        },
        {
          "indexed": true,
          "name": "_proposalId",
          "type": "bytes32"
        }
      ],
      "name": "ProposalDeleted",
      "type": "event"
    },
    {
      "constant": false,
      "inputs": [
        {
          "name": "_proposalId",
          "type": "bytes32"
        },
        {
          "name": "_param",
          "type": "int256"
        }
      ],
      "name": "executeProposal",
      "outputs": [
        {
          "name": "",
          "type": "bool"
        }
      ],
      "payable": false,
      "stateMutability": "nonpayable",
      "type": "function"
    },
    {
      "constant": false,
      "inputs": [
        {
          "name": "_voteParams",
          "type": "bytes32"
        },
        {
          "name": "_intVote",
          "type": "address"
        }
      ],
      "name": "setParameters",
      "outputs": [
        {
          "name": "",
          "type": "bytes32"
        }
      ],
      "payable": false,
      "stateMutability": "nonpayable",
      "type": "function"
    },
    {
      "constant": true,
      "inputs": [
        {
          "name": "_voteParams",
          "type": "bytes32"
        },
        {
          "name": "_intVote",
          "type": "address"
        }
      ],
      "name": "getParametersHash",
      "outputs": [
        {
          "name": "",
          "type": "bytes32"
        }
      ],
      "payable": false,
      "stateMutability": "pure",
      "type": "function"
    },
    {
      "constant": false,
      "inputs": [
        {
          "name": "_avatar",
          "type": "address"
        },
        {
          "name": "_originalIntVote",
          "type": "address"
        },
        {
          "name": "_originalProposalId",
          "type": "bytes32"
        },
        {
          "name": "_vote",
          "type": "uint256"
        },
        {
          "name": "_descriptionHash",
          "type": "string"
        }
      ],
      "name": "proposeVote",
      "outputs": [
        {
          "name": "",
          "type": "bytes32"
        }
      ],
      "payable": false,
      "stateMutability": "nonpayable",
      "type": "function"
    }
  ],
  "bytecode": "0x608060405234801561001057600080fd5b50612c25806100206000396000f3fe608060405234801561001057600080fd5b50600436106100cf5760003560e01c80636b8eb4031161008c578063b551c37311610066578063b551c37314610580578063bea75f28146105c2578063d29b5d2f14610652578063f81f8bf6146106c2576100cf565b80636b8eb4031461046c5780639588378e146104ce5780639d4c162d14610530576100cf565b806302506804146100d457806306e3a9781461014957806319910699146101f05780632453732a1461031357806360bdbb3f1461037557806368e14dac1461040a575b600080fd5b610100600480360360208110156100ea57600080fd5b8101908080359060200190929190505050610732565b604051808373ffffffffffffffffffffffffffffffffffffffff1673ffffffffffffffffffffffffffffffffffffffff1681526020018281526020019250505060405180910390f35b6101956004803603604081101561015f57600080fd5b81019080803573ffffffffffffffffffffffffffffffffffffffff16906020019092919080359060200190929190505050610776565b604051808573ffffffffffffffffffffffffffffffffffffffff1673ffffffffffffffffffffffffffffffffffffffff1681526020018481526020018381526020018215151515815260200194505050505060405180910390f35b6102fd600480360360a081101561020657600080fd5b81019080803573ffffffffffffffffffffffffffffffffffffffff169060200190929190803573ffffffffffffffffffffffffffffffffffffffff16906020019092919080359060200190929190803590602001909291908035906020019064010000000081111561027757600080fd5b82018360208201111561028957600080fd5b803590602001918460018302840111640100000000831117156102ab57600080fd5b91908080601f016020809104026020016040519081016040528093929190818152602001838380828437600081840152601f19601f8201169050808301925050505050505091929192905050506107e0565b6040518082815260200191505060405180910390f35b61035f6004803603604081101561032957600080fd5b8101908080359060200190929190803573ffffffffffffffffffffffffffffffffffffffff169060200190929190505050610e56565b6040518082815260200191505060405180910390f35b6103c16004803603604081101561038b57600080fd5b81019080803573ffffffffffffffffffffffffffffffffffffffff16906020019092919080359060200190929190505050610ebe565b604051808381526020018273ffffffffffffffffffffffffffffffffffffffff1673ffffffffffffffffffffffffffffffffffffffff1681526020019250505060405180910390f35b6104566004803603604081101561042057600080fd5b8101908080359060200190929190803573ffffffffffffffffffffffffffffffffffffffff169060200190929190505050610f0f565b6040518082815260200191505060405180910390f35b6104b86004803603604081101561048257600080fd5b81019080803573ffffffffffffffffffffffffffffffffffffffff16906020019092919080359060200190929190505050610f98565b6040518082815260200191505060405180910390f35b61051a600480360360408110156104e457600080fd5b81019080803573ffffffffffffffffffffffffffffffffffffffff16906020019092919080359060200190929190505050611183565b6040518082815260200191505060405180910390f35b6105666004803603604081101561054657600080fd5b8101908080359060200190929190803590602001909291905050506113de565b604051808215151515815260200191505060405180910390f35b6105ac6004803603602081101561059657600080fd5b8101908080359060200190929190505050611b5d565b6040518082815260200191505060405180910390f35b610638600480360360808110156105d857600080fd5b81019080803573ffffffffffffffffffffffffffffffffffffffff169060200190929190803573ffffffffffffffffffffffffffffffffffffffff1690602001909291908035906020019092919080359060200190929190505050611d83565b604051808215151515815260200191505060405180910390f35b6106a86004803603606081101561066857600080fd5b8101908080359060200190929190803573ffffffffffffffffffffffffffffffffffffffff16906020019092919080359060200190929190505050612108565b604051808215151515815260200191505060405180910390f35b610718600480360360608110156106d857600080fd5b8101908080359060200190929190803573ffffffffffffffffffffffffffffffffffffffff16906020019092919080359060200190929190505050612458565b604051808215151515815260200191505060405180910390f35b60026020528060005260406000206000915090508060000160009054906101000a900473ffffffffffffffffffffffffffffffffffffffff16908060010154905082565b6001602052816000526040600020602052806000526040600020600091509150508060000160009054906101000a900473ffffffffffffffffffffffffffffffffffffffff16908060010154908060020154908060030160009054906101000a900460ff16905084565b60006107ea612afb565b600260006107f7896127a8565b81526020019081526020016000206040518060400160405290816000820160009054906101000a900473ffffffffffffffffffffffffffffffffffffffff1673ffffffffffffffffffffffffffffffffffffffff1673ffffffffffffffffffffffffffffffffffffffff16815260200160018201548152505090506000816000015190506000808873ffffffffffffffffffffffffffffffffffffffff16635142bc1e6040518163ffffffff1660e01b8152600401604080518083038186803b1580156108c357600080fd5b505afa1580156108d7573d6000803e3d6000fd5b505050506040513d60408110156108ed57600080fd5b8101908080519060200190929190805190602001909291905050509150915080871115801561091c5750818710155b610971576040517f08c379a0000000000000000000000000000000000000000000000000000000008152600401808060200182810382526023815260200180612ba26023913960400191505060405180910390fd5b8873ffffffffffffffffffffffffffffffffffffffff1663a003651d896040518263ffffffff1660e01b81526004018082815260200191505060206040518083038186803b1580156109c257600080fd5b505afa1580156109d6573d6000803e3d6000fd5b505050506040513d60208110156109ec57600080fd5b8101908080519060200190929190505050871115610a55576040517f08c379a0000000000000000000000000000000000000000000000000000000008152600401808060200182810382526035815260200180612bc56035913960400191505060405180910390fd5b60008373ffffffffffffffffffffffffffffffffffffffff166388737b5e60028760200151338f6040518563ffffffff1660e01b8152600401808581526020018481526020018373ffffffffffffffffffffffffffffffffffffffff1673ffffffffffffffffffffffffffffffffffffffff1681526020018273ffffffffffffffffffffffffffffffffffffffff1673ffffffffffffffffffffffffffffffffffffffff168152602001945050505050602060405180830381600087803b158015610b1f57600080fd5b505af1158015610b33573d6000803e3d6000fd5b505050506040513d6020811015610b4957600080fd5b8101908080519060200190929190505050905060405180608001604052808b73ffffffffffffffffffffffffffffffffffffffff1681526020018a815260200189815260200160011515815250600160008d73ffffffffffffffffffffffffffffffffffffffff1673ffffffffffffffffffffffffffffffffffffffff168152602001908152602001600020600083815260200190815260200160002060008201518160000160006101000a81548173ffffffffffffffffffffffffffffffffffffffff021916908373ffffffffffffffffffffffffffffffffffffffff160217905550602082015181600101556040820151816002015560608201518160030160006101000a81548160ff021916908315150217905550905050846000015173ffffffffffffffffffffffffffffffffffffffff16818c73ffffffffffffffffffffffffffffffffffffffff167f612d055dc0e586b349ae636d1de3fc64fbcf367d8c8c7406bd1823267cfe7e208d8d8d8d604051808573ffffffffffffffffffffffffffffffffffffffff1673ffffffffffffffffffffffffffffffffffffffff16815260200184815260200183815260200180602001828103825283818151815260200191508051906020019080838360005b83811015610d3a578082015181840152602081019050610d1f565b50505050905090810190601f168015610d675780820380516001836020036101000a031916815260200191505b509550505050505060405180910390a460405180604001604052804381526020018c73ffffffffffffffffffffffffffffffffffffffff168152506000808673ffffffffffffffffffffffffffffffffffffffff1673ffffffffffffffffffffffffffffffffffffffff16815260200190815260200160002060008381526020019081526020016000206000820151816000015560208201518160010160006101000a81548173ffffffffffffffffffffffffffffffffffffffff021916908373ffffffffffffffffffffffffffffffffffffffff160217905550905050809550505050505095945050505050565b60008282604051602001808381526020018273ffffffffffffffffffffffffffffffffffffffff1673ffffffffffffffffffffffffffffffffffffffff1660601b81526014019250505060405160208183030381529060405280519060200120905092915050565b6000602052816000526040600020602052806000526040600020600091509150508060000154908060010160009054906101000a900473ffffffffffffffffffffffffffffffffffffffff16905082565b600080610f1c8484610e56565b9050836002600083815260200190815260200160002060010181905550826002600083815260200190815260200160002060000160006101000a81548173ffffffffffffffffffffffffffffffffffffffff021916908373ffffffffffffffffffffffffffffffffffffffff1602179055508091505092915050565b6000806000803373ffffffffffffffffffffffffffffffffffffffff1673ffffffffffffffffffffffffffffffffffffffff168152602001908152602001600020600084815260200190815260200160002060010160009054906101000a900473ffffffffffffffffffffffffffffffffffffffff169050600073ffffffffffffffffffffffffffffffffffffffff166000803373ffffffffffffffffffffffffffffffffffffffff1673ffffffffffffffffffffffffffffffffffffffff168152602001908152602001600020600085815260200190815260200160002060010160009054906101000a900473ffffffffffffffffffffffffffffffffffffffff1673ffffffffffffffffffffffffffffffffffffffff1614156110c157600091505061117d565b8373ffffffffffffffffffffffffffffffffffffffff166370a08231826040518263ffffffff1660e01b8152600401808273ffffffffffffffffffffffffffffffffffffffff1673ffffffffffffffffffffffffffffffffffffffff16815260200191505060206040518083038186803b15801561113e57600080fd5b505afa158015611152573d6000803e3d6000fd5b505050506040513d602081101561116857600080fd5b81019080805190602001909291905050509150505b92915050565b600061118d612b2e565b6000803373ffffffffffffffffffffffffffffffffffffffff1673ffffffffffffffffffffffffffffffffffffffff1681526020019081526020016000206000848152602001908152602001600020604051806040016040529081600082015481526020016001820160009054906101000a900473ffffffffffffffffffffffffffffffffffffffff1673ffffffffffffffffffffffffffffffffffffffff1673ffffffffffffffffffffffffffffffffffffffff16815250509050600073ffffffffffffffffffffffffffffffffffffffff16816020015173ffffffffffffffffffffffffffffffffffffffff16141561128c5760009150506113d8565b806020015173ffffffffffffffffffffffffffffffffffffffff166389ae1c906040518163ffffffff1660e01b815260040160206040518083038186803b1580156112d657600080fd5b505afa1580156112ea573d6000803e3d6000fd5b505050506040513d602081101561130057600080fd5b810190808051906020019092919050505073ffffffffffffffffffffffffffffffffffffffff16634ee2cd7e8583600001516040518363ffffffff1660e01b8152600401808373ffffffffffffffffffffffffffffffffffffffff1673ffffffffffffffffffffffffffffffffffffffff1681526020018281526020019250505060206040518083038186803b15801561139957600080fd5b505afa1580156113ad573d6000803e3d6000fd5b505050506040513d60208110156113c357600080fd5b81019080805190602001909291905050509150505b92915050565b600082600073ffffffffffffffffffffffffffffffffffffffff166000803373ffffffffffffffffffffffffffffffffffffffff1673ffffffffffffffffffffffffffffffffffffffff168152602001908152602001600020600083815260200190815260200160002060010160009054906101000a900473ffffffffffffffffffffffffffffffffffffffff1673ffffffffffffffffffffffffffffffffffffffff1614156114f6576040517f08c379a00000000000000000000000000000000000000000000000000000000081526004018080602001828103825260128152602001807f6f6e6c7920566f74696e674d616368696e65000000000000000000000000000081525060200191505060405180910390fd5b60008060003373ffffffffffffffffffffffffffffffffffffffff1673ffffffffffffffffffffffffffffffffffffffff168152602001908152602001600020600086815260200190815260200160002060010160009054906101000a900473ffffffffffffffffffffffffffffffffffffffff169050611575612b5e565b600160008373ffffffffffffffffffffffffffffffffffffffff1673ffffffffffffffffffffffffffffffffffffffff16815260200190815260200160002060008781526020019081526020016000206040518060800160405290816000820160009054906101000a900473ffffffffffffffffffffffffffffffffffffffff1673ffffffffffffffffffffffffffffffffffffffff1673ffffffffffffffffffffffffffffffffffffffff16815260200160018201548152602001600282015481526020016003820160009054906101000a900460ff1615151515815250509050806060015161166557600080fd5b600160008373ffffffffffffffffffffffffffffffffffffffff1673ffffffffffffffffffffffffffffffffffffffff1681526020019081526020016000206000878152602001908152602001600020600080820160006101000a81549073ffffffffffffffffffffffffffffffffffffffff0219169055600182016000905560028201600090556003820160006101000a81549060ff02191690555050858273ffffffffffffffffffffffffffffffffffffffff167f6bc0cb9e9967b59a69ace442598e1df4368d38661bd5c0800fbcbc9fe855fbbe60405160405180910390a3606060006001871415611a925760008473ffffffffffffffffffffffffffffffffffffffff16638da5cb5b6040518163ffffffff1660e01b815260040160206040518083038186803b15801561179c57600080fd5b505afa1580156117b0573d6000803e3d6000fd5b505050506040513d60208110156117c657600080fd5b810190808051906020019092919050505090508073ffffffffffffffffffffffffffffffffffffffff1663d1b7089a856000015186602001518760400151600030604051602401808581526020018481526020018360ff1681526020018273ffffffffffffffffffffffffffffffffffffffff1673ffffffffffffffffffffffffffffffffffffffff1681526020019450505050506040516020818303038152906040527f359afa49000000000000000000000000000000000000000000000000000000007bffffffffffffffffffffffffffffffffffffffffffffffffffffffff19166020820180517bffffffffffffffffffffffffffffffffffffffffffffffffffffffff83818316178352505050508860006040518563ffffffff1660e01b8152600401808573ffffffffffffffffffffffffffffffffffffffff1673ffffffffffffffffffffffffffffffffffffffff168152602001806020018473ffffffffffffffffffffffffffffffffffffffff1673ffffffffffffffffffffffffffffffffffffffff168152602001838152602001828103825285818151815260200191508051906020019080838360005b83811015611994578082015181840152602081019050611979565b50505050905090810190601f1680156119c15780820380516001836020036101000a031916815260200191505b5095505050505050600060405180830381600087803b1580156119e357600080fd5b505af11580156119f7573d6000803e3d6000fd5b505050506040513d6000823e3d601f19601f820116820180604052506040811015611a2157600080fd5b81019080805190602001909291908051640100000000811115611a4357600080fd5b82810190506020810184811115611a5957600080fd5b8151856001820283011164010000000082111715611a7657600080fd5b5050929190505050809450819350505081611a9057600080fd5b505b878473ffffffffffffffffffffffffffffffffffffffff167f7c1ea889aeb873862488f79e0228a2240ec23e80244de201dd45f39f603fc3c489856040518083815260200180602001828103825283818151815260200191508051906020019080838360005b83811015611b13578082015181840152602081019050611af8565b50505050905090810190601f168015611b405780820380516001836020036101000a031916815260200191505b50935050505060405180910390a360019550505050505092915050565b6000611b67612b2e565b6000803373ffffffffffffffffffffffffffffffffffffffff1673ffffffffffffffffffffffffffffffffffffffff1681526020019081526020016000206000848152602001908152602001600020604051806040016040529081600082015481526020016001820160009054906101000a900473ffffffffffffffffffffffffffffffffffffffff1673ffffffffffffffffffffffffffffffffffffffff1673ffffffffffffffffffffffffffffffffffffffff16815250509050600073ffffffffffffffffffffffffffffffffffffffff16816020015173ffffffffffffffffffffffffffffffffffffffff161415611c66576000915050611d7e565b806020015173ffffffffffffffffffffffffffffffffffffffff166389ae1c906040518163ffffffff1660e01b815260040160206040518083038186803b158015611cb057600080fd5b505afa158015611cc4573d6000803e3d6000fd5b505050506040513d6020811015611cda57600080fd5b810190808051906020019092919050505073ffffffffffffffffffffffffffffffffffffffff1663981b24d082600001516040518263ffffffff1660e01b81526004018082815260200191505060206040518083038186803b158015611d3f57600080fd5b505afa158015611d53573d6000803e3d6000fd5b505050506040513d6020811015611d6957600080fd5b81019080805190602001909291905050509150505b919050565b600081600073ffffffffffffffffffffffffffffffffffffffff166000803373ffffffffffffffffffffffffffffffffffffffff1673ffffffffffffffffffffffffffffffffffffffff168152602001908152602001600020600083815260200190815260200160002060010160009054906101000a900473ffffffffffffffffffffffffffffffffffffffff1673ffffffffffffffffffffffffffffffffffffffff161415611e9b576040517f08c379a00000000000000000000000000000000000000000000000000000000081526004018080602001828103825260128152602001807f6f6e6c7920566f74696e674d616368696e65000000000000000000000000000081525060200191505060405180910390fd5b60008060003373ffffffffffffffffffffffffffffffffffffffff1673ffffffffffffffffffffffffffffffffffffffff168152602001908152602001600020600085815260200190815260200160002060010160009054906101000a900473ffffffffffffffffffffffffffffffffffffffff169050600073ffffffffffffffffffffffffffffffffffffffff168173ffffffffffffffffffffffffffffffffffffffff161415611f515760009250506120ff565b8073ffffffffffffffffffffffffffffffffffffffff16638da5cb5b6040518163ffffffff1660e01b815260040160206040518083038186803b158015611f9757600080fd5b505afa158015611fab573d6000803e3d6000fd5b505050506040513d6020811015611fc157600080fd5b810190808051906020019092919050505073ffffffffffffffffffffffffffffffffffffffff1663b9a04cdd888888856040518563ffffffff1660e01b8152600401808573ffffffffffffffffffffffffffffffffffffffff1673ffffffffffffffffffffffffffffffffffffffff1681526020018473ffffffffffffffffffffffffffffffffffffffff1673ffffffffffffffffffffffffffffffffffffffff1681526020018381526020018273ffffffffffffffffffffffffffffffffffffffff1673ffffffffffffffffffffffffffffffffffffffff168152602001945050505050602060405180830381600087803b1580156120c057600080fd5b505af11580156120d4573d6000803e3d6000fd5b505050506040513d60208110156120ea57600080fd5b81019080805190602001909291905050509250505b50949350505050565b600081600073ffffffffffffffffffffffffffffffffffffffff166000803373ffffffffffffffffffffffffffffffffffffffff1673ffffffffffffffffffffffffffffffffffffffff168152602001908152602001600020600083815260200190815260200160002060010160009054906101000a900473ffffffffffffffffffffffffffffffffffffffff1673ffffffffffffffffffffffffffffffffffffffff161415612220576040517f08c379a00000000000000000000000000000000000000000000000000000000081526004018080602001828103825260128152602001807f6f6e6c7920566f74696e674d616368696e65000000000000000000000000000081525060200191505060405180910390fd5b60008060003373ffffffffffffffffffffffffffffffffffffffff1673ffffffffffffffffffffffffffffffffffffffff168152602001908152602001600020600085815260200190815260200160002060010160009054906101000a900473ffffffffffffffffffffffffffffffffffffffff169050600073ffffffffffffffffffffffffffffffffffffffff168173ffffffffffffffffffffffffffffffffffffffff1614156122d6576000925050612450565b8073ffffffffffffffffffffffffffffffffffffffff16638da5cb5b6040518163ffffffff1660e01b815260040160206040518083038186803b15801561231c57600080fd5b505afa158015612330573d6000803e3d6000fd5b505050506040513d602081101561234657600080fd5b810190808051906020019092919050505073ffffffffffffffffffffffffffffffffffffffff1663eaf994b28787846040518463ffffffff1660e01b8152600401808481526020018373ffffffffffffffffffffffffffffffffffffffff1673ffffffffffffffffffffffffffffffffffffffff1681526020018273ffffffffffffffffffffffffffffffffffffffff1673ffffffffffffffffffffffffffffffffffffffff1681526020019350505050602060405180830381600087803b15801561241157600080fd5b505af1158015612425573d6000803e3d6000fd5b505050506040513d602081101561243b57600080fd5b81019080805190602001909291905050509250505b509392505050565b600081600073ffffffffffffffffffffffffffffffffffffffff166000803373ffffffffffffffffffffffffffffffffffffffff1673ffffffffffffffffffffffffffffffffffffffff168152602001908152602001600020600083815260200190815260200160002060010160009054906101000a900473ffffffffffffffffffffffffffffffffffffffff1673ffffffffffffffffffffffffffffffffffffffff161415612570576040517f08c379a00000000000000000000000000000000000000000000000000000000081526004018080602001828103825260128152602001807f6f6e6c7920566f74696e674d616368696e65000000000000000000000000000081525060200191505060405180910390fd5b60008060003373ffffffffffffffffffffffffffffffffffffffff1673ffffffffffffffffffffffffffffffffffffffff168152602001908152602001600020600085815260200190815260200160002060010160009054906101000a900473ffffffffffffffffffffffffffffffffffffffff169050600073ffffffffffffffffffffffffffffffffffffffff168173ffffffffffffffffffffffffffffffffffffffff1614156126265760009250506127a0565b8073ffffffffffffffffffffffffffffffffffffffff16638da5cb5b6040518163ffffffff1660e01b815260040160206040518083038186803b15801561266c57600080fd5b505afa158015612680573d6000803e3d6000fd5b505050506040513d602081101561269657600080fd5b810190808051906020019092919050505073ffffffffffffffffffffffffffffffffffffffff16636e94d2788787846040518463ffffffff1660e01b8152600401808481526020018373ffffffffffffffffffffffffffffffffffffffff1673ffffffffffffffffffffffffffffffffffffffff1681526020018273ffffffffffffffffffffffffffffffffffffffff1673ffffffffffffffffffffffffffffffffffffffff1681526020019350505050602060405180830381600087803b15801561276157600080fd5b505af1158015612775573d6000803e3d6000fd5b505050506040513d602081101561278b57600080fd5b81019080805190602001909291905050509250505b509392505050565b60008173ffffffffffffffffffffffffffffffffffffffff16638da5cb5b6040518163ffffffff1660e01b815260040160206040518083038186803b1580156127f057600080fd5b505afa158015612804573d6000803e3d6000fd5b505050506040513d602081101561281a57600080fd5b810190808051906020019092919050505073ffffffffffffffffffffffffffffffffffffffff16639be2faed30846040518363ffffffff1660e01b8152600401808373ffffffffffffffffffffffffffffffffffffffff1673ffffffffffffffffffffffffffffffffffffffff1681526020018273ffffffffffffffffffffffffffffffffffffffff1673ffffffffffffffffffffffffffffffffffffffff1681526020019250505060206040518083038186803b1580156128db57600080fd5b505afa1580156128ef573d6000803e3d6000fd5b505050506040513d602081101561290557600080fd5b8101908080519060200190929190505050612988576040517f08c379a00000000000000000000000000000000000000000000000000000000081526004018080602001828103825260188152602001807f736368656d65206973206e6f742072656769737465726564000000000000000081525060200191505060405180910390fd5b8173ffffffffffffffffffffffffffffffffffffffff16638da5cb5b6040518163ffffffff1660e01b815260040160206040518083038186803b1580156129ce57600080fd5b505afa1580156129e2573d6000803e3d6000fd5b505050506040513d60208110156129f857600080fd5b810190808051906020019092919050505073ffffffffffffffffffffffffffffffffffffffff16631c4d560830846040518363ffffffff1660e01b8152600401808373ffffffffffffffffffffffffffffffffffffffff1673ffffffffffffffffffffffffffffffffffffffff1681526020018273ffffffffffffffffffffffffffffffffffffffff1673ffffffffffffffffffffffffffffffffffffffff1681526020019250505060206040518083038186803b158015612ab957600080fd5b505afa158015612acd573d6000803e3d6000fd5b505050506040513d6020811015612ae357600080fd5b81019080805190602001909291905050509050919050565b6040518060400160405280600073ffffffffffffffffffffffffffffffffffffffff168152602001600080191681525090565b604051806040016040528060008152602001600073ffffffffffffffffffffffffffffffffffffffff1681525090565b6040518060800160405280600073ffffffffffffffffffffffffffffffffffffffff1681526020016000801916815260200160008152602001600015158152509056fe766f74652073686f756c6420626520696e2074686520616c6c6f7765642072616e6765766f74652073686f756c64206265203c3d206f726967696e616c2070726f706f73616c206e756d626572206f662063686f69636573a165627a7a723058203b13f7bbdefe8aac75509fde0e9377bad8749888f7b2061de64002dc8955b24d0029",
  "source": "pragma solidity ^0.5.4;\n\nimport \"../../Voting-Machine/contracts/VotingMachine/IntVoteInterface.sol\";\nimport \"../../Voting-Machine/contracts/VotingMachine/VotingMachineCallbacksInterface.sol\";\nimport \"./UniversalScheme.sol\";\nimport \"../../Voting-Machine/contracts/VotingMachine/VotingMachineCallbacks.sol\";\n\n\n\n/**\n * @title VoteInOrganizationScheme.\n * @dev A scheme to allow an organization to vote in a proposal.\n */\ncontract VoteInOrganizationScheme is UniversalScheme, VotingMachineCallbacks, ProposalExecuteInterface {\n    event NewVoteProposal(\n        address indexed _avatar,\n        bytes32 indexed _proposalId,\n        address indexed _intVoteInterface,\n        IntVoteInterface _originalIntVote,\n        bytes32 _originalProposalId,\n        uint256 _vote,\n        string _descriptionHash\n    );\n\n    event ProposalExecuted(address indexed _avatar, bytes32 indexed _proposalId, int256 _param, bytes _callReturnValue);\n    event ProposalDeleted(address indexed _avatar, bytes32 indexed _proposalId);\n\n    // Details of a voting proposal:\n    struct VoteProposal {\n        IntVoteInterface originalIntVote;\n        bytes32 originalProposalId;\n        uint256 vote;\n        bool exist;\n    }\n\n    // A mapping from the organization (Avatar) address to the saved data of the organization:\n    mapping(address=>mapping(bytes32=>VoteProposal)) public organizationsProposals;\n\n    struct Parameters {\n        IntVoteInterface intVote;\n        bytes32 voteParams;\n    }\n\n    // A mapping from hashes to parameters (use to store a particular configuration on the controller)\n    mapping(bytes32=>Parameters) public parameters;\n\n    /**\n    * @dev execution of proposals, can only be called by the voting machine in which the vote is held.\n    * @param _proposalId the ID of the voting in the voting machine\n    * @param _param a parameter of the voting result, 1 yes and 2 is no.\n    * @return bool which represents a successful of the function\n    */\n    function executeProposal(bytes32 _proposalId, int256 _param) external onlyVotingMachine(_proposalId) returns(bool) {\n        Avatar avatar = proposalsInfo[msg.sender][_proposalId].avatar;\n        // Save proposal to memory and delete from storage:\n        VoteProposal memory proposal = organizationsProposals[address(avatar)][_proposalId];\n        require(proposal.exist);\n        delete organizationsProposals[address(avatar)][_proposalId];\n        emit ProposalDeleted(address(avatar), _proposalId);\n        bytes memory callReturnValue;\n        bool success;\n        // If no decision do nothing:\n        if (_param == 1) {\n\n            ControllerInterface controller = ControllerInterface(avatar.owner());\n            (success, callReturnValue) = controller.genericCall(\n            address(proposal.originalIntVote),\n            abi.encodeWithSignature(\"vote(bytes32,uint256,uint256,address)\",\n            proposal.originalProposalId,\n            proposal.vote,\n            0,\n            address(this)),\n            avatar,\n            0\n            );\n            require(success);\n        }\n        emit ProposalExecuted(address(avatar), _proposalId, _param, callReturnValue);\n        return true;\n    }\n\n    /**\n    * @dev Hash the parameters, save them if necessary, and return the hash value\n    * @param _voteParams -  voting parameters\n    * @param _intVote  - voting machine contract.\n    * @return bytes32 -the parameters hash\n    */\n    function setParameters(\n        bytes32 _voteParams,\n        IntVoteInterface _intVote\n    ) public returns(bytes32)\n    {\n        bytes32 paramsHash = getParametersHash(_voteParams, _intVote);\n        parameters[paramsHash].voteParams = _voteParams;\n        parameters[paramsHash].intVote = _intVote;\n        return paramsHash;\n    }\n\n    /**\n    * @dev Hash the parameters, and return the hash value\n    * @param _voteParams -  voting parameters\n    * @param _intVote  - voting machine contract.\n    * @return bytes32 -the parameters hash\n    */\n    function getParametersHash(\n        bytes32 _voteParams,\n        IntVoteInterface _intVote\n    ) public pure returns(bytes32)\n    {\n        return keccak256(abi.encodePacked(_voteParams, _intVote));\n    }\n\n    /**\n    * @dev propose to vote in other organization\n    *      The function trigger NewVoteProposal event\n    * @param _avatar avatar of the organization\n    * @param _originalIntVote the other organization voting machine\n    * @param _originalProposalId the other organization proposal id\n    * @param _vote - which value to vote in the destination organization\n    * @param _descriptionHash proposal description hash\n    * @return an id which represents the proposal\n    */\n    function proposeVote(\n    Avatar _avatar,\n    IntVoteInterface _originalIntVote,\n    bytes32 _originalProposalId,\n    uint256 _vote,\n    string memory _descriptionHash)\n    public\n    returns(bytes32)\n    {\n        Parameters memory params = parameters[getParametersFromController(_avatar)];\n        IntVoteInterface intVote = params.intVote;\n        (uint256 minVote, uint256 maxVote) = _originalIntVote.getAllowedRangeOfChoices();\n        require(_vote <= maxVote && _vote >= minVote, \"vote should be in the allowed range\");\n        require(_vote <= _originalIntVote.getNumberOfChoices(_originalProposalId),\n        \"vote should be <= original proposal number of choices\");\n\n        bytes32 proposalId = intVote.propose(2, params.voteParams, msg.sender, address(_avatar));\n\n        organizationsProposals[address(_avatar)][proposalId] = VoteProposal({\n            originalIntVote: _originalIntVote,\n            originalProposalId: _originalProposalId,\n            vote:_vote,\n            exist: true\n        });\n        emit NewVoteProposal(\n            address(_avatar),\n            proposalId,\n            address(params.intVote),\n            _originalIntVote,\n            _originalProposalId,\n            _vote,\n            _descriptionHash\n        );\n        proposalsInfo[address(intVote)][proposalId] = ProposalInfo({\n            blockNumber:block.number,\n            avatar:_avatar\n        });\n        return proposalId;\n    }\n}",
  "sourcePath": "C:/Users/Subhan/Desktop/github/betterbrooklyndao/UniversalSchemes/contracts/VoteInOrganizationScheme.sol",
  "compiler": {
    "name": "solc",
    "version": "0.5.8+commit.23d335f2.Emscripten.clang"
  },
  "schemaVersion": "3.0.11",
  "updatedAt": "2019-07-17T22:56:37.061Z",
  "devdoc": {
    "details": "A scheme to allow an organization to vote in a proposal.",
    "methods": {
      "executeProposal(bytes32,int256)": {
        "details": "execution of proposals, can only be called by the voting machine in which the vote is held.",
        "params": {
          "_param": "a parameter of the voting result, 1 yes and 2 is no.",
          "_proposalId": "the ID of the voting in the voting machine"
        },
        "return": "bool which represents a successful of the function"
      },
      "getParametersHash(bytes32,address)": {
        "details": "Hash the parameters, and return the hash value",
        "params": {
          "_intVote": "- voting machine contract.",
          "_voteParams": "-  voting parameters"
        },
        "return": "bytes32 -the parameters hash"
      },
      "proposeVote(address,address,bytes32,uint256,string)": {
        "details": "propose to vote in other organization     The function trigger NewVoteProposal event",
        "params": {
          "_avatar": "avatar of the organization",
          "_descriptionHash": "proposal description hash",
          "_originalIntVote": "the other organization voting machine",
          "_originalProposalId": "the other organization proposal id",
          "_vote": "- which value to vote in the destination organization"
        },
        "return": "an id which represents the proposal"
      },
      "setParameters(bytes32,address)": {
        "details": "Hash the parameters, save them if necessary, and return the hash value",
        "params": {
          "_intVote": "- voting machine contract.",
          "_voteParams": "-  voting parameters"
        },
        "return": "bytes32 -the parameters hash"
      }
    },
    "title": "VoteInOrganizationScheme."
  },
  "userdoc": {
    "methods": {}
  }
}