{
  "contractName": "AbsoluteVote",
  "abi": [
    {
      "constant": true,
      "inputs": [
        {
          "name": "",
          "type": "bytes32"
        }
      ],
      "name": "parameters",
      "outputs": [
        {
          "name": "precReq",
          "type": "uint256"
        },
        {
          "name": "voteOnBehalf",
          "type": "address"
        }
      ],
      "payable": false,
      "stateMutability": "view",
      "type": "function"
    },
    {
      "constant": true,
      "inputs": [],
      "name": "proposalsCnt",
      "outputs": [
        {
          "name": "",
          "type": "uint256"
        }
      ],
      "payable": false,
      "stateMutability": "view",
      "type": "function"
    },
    {
      "constant": true,
      "inputs": [
        {
          "name": "",
          "type": "bytes32"
        }
      ],
      "name": "proposals",
      "outputs": [
        {
          "name": "organizationId",
          "type": "bytes32"
        },
        {
          "name": "open",
          "type": "bool"
        },
        {
          "name": "callbacks",
          "type": "address"
        },
        {
          "name": "numOfChoices",
          "type": "uint256"
        },
        {
          "name": "paramsHash",
          "type": "bytes32"
        },
        {
          "name": "totalVotes",
          "type": "uint256"
        }
      ],
      "payable": false,
      "stateMutability": "view",
      "type": "function"
    },
    {
      "constant": true,
      "inputs": [],
      "name": "MAX_NUM_OF_CHOICES",
      "outputs": [
        {
          "name": "",
          "type": "uint256"
        }
      ],
      "payable": false,
      "stateMutability": "view",
      "type": "function"
    },
    {
      "constant": true,
      "inputs": [
        {
          "name": "",
          "type": "bytes32"
        }
      ],
      "name": "organizations",
      "outputs": [
        {
          "name": "",
          "type": "address"
        }
      ],
      "payable": false,
      "stateMutability": "view",
      "type": "function"
    },
    {
      "anonymous": false,
      "inputs": [
        {
          "indexed": true,
          "name": "_proposalId",
          "type": "bytes32"
        },
        {
          "indexed": false,
          "name": "_isProxyVote",
          "type": "bool"
        }
      ],
      "name": "AVVoteProposal",
      "type": "event"
    },
    {
      "anonymous": false,
      "inputs": [
        {
          "indexed": true,
          "name": "_proposalId",
          "type": "bytes32"
        },
        {
          "indexed": true,
          "name": "_organization",
          "type": "address"
        },
        {
          "indexed": false,
          "name": "_numOfChoices",
          "type": "uint256"
        },
        {
          "indexed": false,
          "name": "_proposer",
          "type": "address"
        },
        {
          "indexed": false,
          "name": "_paramsHash",
          "type": "bytes32"
        }
      ],
      "name": "NewProposal",
      "type": "event"
    },
    {
      "anonymous": false,
      "inputs": [
        {
          "indexed": true,
          "name": "_proposalId",
          "type": "bytes32"
        },
        {
          "indexed": true,
          "name": "_organization",
          "type": "address"
        },
        {
          "indexed": false,
          "name": "_decision",
          "type": "uint256"
        },
        {
          "indexed": false,
          "name": "_totalReputation",
          "type": "uint256"
        }
      ],
      "name": "ExecuteProposal",
      "type": "event"
    },
    {
      "anonymous": false,
      "inputs": [
        {
          "indexed": true,
          "name": "_proposalId",
          "type": "bytes32"
        },
        {
          "indexed": true,
          "name": "_organization",
          "type": "address"
        },
        {
          "indexed": true,
          "name": "_voter",
          "type": "address"
        },
        {
          "indexed": false,
          "name": "_vote",
          "type": "uint256"
        },
        {
          "indexed": false,
          "name": "_reputation",
          "type": "uint256"
        }
      ],
      "name": "VoteProposal",
      "type": "event"
    },
    {
      "anonymous": false,
      "inputs": [
        {
          "indexed": true,
          "name": "_proposalId",
          "type": "bytes32"
        },
        {
          "indexed": true,
          "name": "_organization",
          "type": "address"
        }
      ],
      "name": "CancelProposal",
      "type": "event"
    },
    {
      "anonymous": false,
      "inputs": [
        {
          "indexed": true,
          "name": "_proposalId",
          "type": "bytes32"
        },
        {
          "indexed": true,
          "name": "_organization",
          "type": "address"
        },
        {
          "indexed": true,
          "name": "_voter",
          "type": "address"
        }
      ],
      "name": "CancelVoting",
      "type": "event"
    },
    {
      "constant": false,
      "inputs": [
        {
          "name": "_numOfChoices",
          "type": "uint256"
        },
        {
          "name": "_paramsHash",
          "type": "bytes32"
        },
        {
          "name": "",
          "type": "address"
        },
        {
          "name": "_organization",
          "type": "address"
        }
      ],
      "name": "propose",
      "outputs": [
        {
          "name": "",
          "type": "bytes32"
        }
      ],
      "payable": false,
      "stateMutability": "nonpayable",
      "type": "function"
    },
    {
      "constant": false,
      "inputs": [
        {
          "name": "_proposalId",
          "type": "bytes32"
        },
        {
          "name": "_vote",
          "type": "uint256"
        },
        {
          "name": "_amount",
          "type": "uint256"
        },
        {
          "name": "_voter",
          "type": "address"
        }
      ],
      "name": "vote",
      "outputs": [
        {
          "name": "",
          "type": "bool"
        }
      ],
      "payable": false,
      "stateMutability": "nonpayable",
      "type": "function"
    },
    {
      "constant": false,
      "inputs": [
        {
          "name": "_proposalId",
          "type": "bytes32"
        }
      ],
      "name": "cancelVote",
      "outputs": [],
      "payable": false,
      "stateMutability": "nonpayable",
      "type": "function"
    },
    {
      "constant": false,
      "inputs": [
        {
          "name": "_proposalId",
          "type": "bytes32"
        }
      ],
      "name": "execute",
      "outputs": [
        {
          "name": "",
          "type": "bool"
        }
      ],
      "payable": false,
      "stateMutability": "nonpayable",
      "type": "function"
    },
    {
      "constant": true,
      "inputs": [
        {
          "name": "_proposalId",
          "type": "bytes32"
        }
      ],
      "name": "getNumberOfChoices",
      "outputs": [
        {
          "name": "",
          "type": "uint256"
        }
      ],
      "payable": false,
      "stateMutability": "view",
      "type": "function"
    },
    {
      "constant": true,
      "inputs": [
        {
          "name": "_proposalId",
          "type": "bytes32"
        },
        {
          "name": "_voter",
          "type": "address"
        }
      ],
      "name": "voteInfo",
      "outputs": [
        {
          "name": "",
          "type": "uint256"
        },
        {
          "name": "",
          "type": "uint256"
        }
      ],
      "payable": false,
      "stateMutability": "view",
      "type": "function"
    },
    {
      "constant": true,
      "inputs": [
        {
          "name": "_proposalId",
          "type": "bytes32"
        },
        {
          "name": "_choice",
          "type": "uint256"
        }
      ],
      "name": "voteStatus",
      "outputs": [
        {
          "name": "",
          "type": "uint256"
        }
      ],
      "payable": false,
      "stateMutability": "view",
      "type": "function"
    },
    {
      "constant": true,
      "inputs": [
        {
          "name": "_proposalId",
          "type": "bytes32"
        }
      ],
      "name": "isVotable",
      "outputs": [
        {
          "name": "",
          "type": "bool"
        }
      ],
      "payable": false,
      "stateMutability": "view",
      "type": "function"
    },
    {
      "constant": true,
      "inputs": [],
      "name": "isAbstainAllow",
      "outputs": [
        {
          "name": "",
          "type": "bool"
        }
      ],
      "payable": false,
      "stateMutability": "pure",
      "type": "function"
    },
    {
      "constant": true,
      "inputs": [],
      "name": "getAllowedRangeOfChoices",
      "outputs": [
        {
          "name": "min",
          "type": "uint256"
        },
        {
          "name": "max",
          "type": "uint256"
        }
      ],
      "payable": false,
      "stateMutability": "pure",
      "type": "function"
    },
    {
      "constant": false,
      "inputs": [
        {
          "name": "_precReq",
          "type": "uint256"
        },
        {
          "name": "_voteOnBehalf",
          "type": "address"
        }
      ],
      "name": "setParameters",
      "outputs": [
        {
          "name": "",
          "type": "bytes32"
        }
      ],
      "payable": false,
      "stateMutability": "nonpayable",
      "type": "function"
    },
    {
      "constant": true,
      "inputs": [
        {
          "name": "_precReq",
          "type": "uint256"
        },
        {
          "name": "_voteOnBehalf",
          "type": "address"
        }
      ],
      "name": "getParametersHash",
      "outputs": [
        {
          "name": "",
          "type": "bytes32"
        }
      ],
      "payable": false,
      "stateMutability": "pure",
      "type": "function"
    }
  ],
  "bytecode": "0x608060405234801561001057600080fd5b50611bff806100206000396000f3fe608060405234801561001057600080fd5b506004361061010b5760003560e01c806351d997b2116100a2578063a003651d11610071578063a003651d146104fe578063b451291314610540578063ba51b14e1461058c578063c0835106146105fa578063e751f271146106405761010b565b806351d997b21461040457806388737b5e146104265780638d22651e146104b25780639525c0cc146104d05761010b565b8063289647e4116100de578063289647e41461026e57806332ed5b12146102d0578063359afa49146103655780635142bc1e146103df5761010b565b80630250680414610110578063119ce91b1461018557806321b4b3dc146101ee57806323d840f51461020c575b600080fd5b61013c6004803603602081101561012657600080fd5b8101908080359060200190929190505050610686565b604051808381526020018273ffffffffffffffffffffffffffffffffffffffff1673ffffffffffffffffffffffffffffffffffffffff1681526020019250505060405180910390f35b6101d16004803603604081101561019b57600080fd5b8101908080359060200190929190803573ffffffffffffffffffffffffffffffffffffffff1690602001909291905050506106ca565b604051808381526020018281526020019250505060405180910390f35b6101f661075f565b6040518082815260200191505060405180910390f35b6102586004803603604081101561022257600080fd5b8101908080359060200190929190803573ffffffffffffffffffffffffffffffffffffffff169060200190929190505050610765565b6040518082815260200191505060405180910390f35b6102ba6004803603604081101561028457600080fd5b8101908080359060200190929190803573ffffffffffffffffffffffffffffffffffffffff16906020019092919050505061082a565b6040518082815260200191505060405180910390f35b6102fc600480360360208110156102e657600080fd5b8101908080359060200190929190505050610892565b60405180878152602001861515151581526020018573ffffffffffffffffffffffffffffffffffffffff1673ffffffffffffffffffffffffffffffffffffffff168152602001848152602001838152602001828152602001965050505050505060405180910390f35b6103c56004803603608081101561037b57600080fd5b81019080803590602001909291908035906020019092919080359060200190929190803573ffffffffffffffffffffffffffffffffffffffff1690602001909291905050506108fb565b604051808215151515815260200191505060405180910390f35b6103e7610a68565b604051808381526020018281526020019250505060405180910390f35b61040c610a7a565b604051808215151515815260200191505060405180910390f35b61049c6004803603608081101561043c57600080fd5b810190808035906020019092919080359060200190929190803573ffffffffffffffffffffffffffffffffffffffff169060200190929190803573ffffffffffffffffffffffffffffffffffffffff169060200190929190505050610a83565b6040518082815260200191505060405180910390f35b6104ba610f04565b6040518082815260200191505060405180910390f35b6104fc600480360360208110156104e657600080fd5b8101908080359060200190929190505050610f09565b005b61052a6004803603602081101561051457600080fd5b8101908080359060200190929190505050610f45565b6040518082815260200191505060405180910390f35b6105766004803603604081101561055657600080fd5b810190808035906020019092919080359060200190929190505050610f65565b6040518082815260200191505060405180910390f35b6105b8600480360360208110156105a257600080fd5b8101908080359060200190929190505050610f97565b604051808273ffffffffffffffffffffffffffffffffffffffff1673ffffffffffffffffffffffffffffffffffffffff16815260200191505060405180910390f35b6106266004803603602081101561061057600080fd5b8101908080359060200190929190505050610fca565b604051808215151515815260200191505060405180910390f35b61066c6004803603602081101561065657600080fd5b8101908080359060200190929190505050610ff7565b604051808215151515815260200191505060405180910390f35b60006020528060005260406000206000915090508060000154908060010160009054906101000a900473ffffffffffffffffffffffffffffffffffffffff16905082565b6000806106d5611b35565b6001600086815260200190815260200160002060060160008573ffffffffffffffffffffffffffffffffffffffff1673ffffffffffffffffffffffffffffffffffffffff1681526020019081526020016000206040518060400160405290816000820154815260200160018201548152505090508060000151816020015192509250509250929050565b60035481565b6000606483111580156107785750600083115b61078157600080fd5b600061078d848461082a565b905060405180604001604052808581526020018473ffffffffffffffffffffffffffffffffffffffff168152506000808381526020019081526020016000206000820151816000015560208201518160010160006101000a81548173ffffffffffffffffffffffffffffffffffffffff021916908373ffffffffffffffffffffffffffffffffffffffff1602179055509050508091505092915050565b60008282604051602001808381526020018273ffffffffffffffffffffffffffffffffffffffff1673ffffffffffffffffffffffffffffffffffffffff1660601b81526014019250505060405160208183030381529060405280519060200120905092915050565b60016020528060005260406000206000915090508060000154908060010160009054906101000a900460ff16908060010160019054906101000a900473ffffffffffffffffffffffffffffffffffffffff16908060020154908060030154908060040154905086565b6000846001600082815260200190815260200160002060010160009054906101000a900460ff1661092b57600080fd5b600060016000888152602001908152602001600020905061094a611b4f565b60008083600301548152602001908152602001600020604051806040016040529081600082015481526020016001820160009054906101000a900473ffffffffffffffffffffffffffffffffffffffff1673ffffffffffffffffffffffffffffffffffffffff1673ffffffffffffffffffffffffffffffffffffffff1681525050905060008073ffffffffffffffffffffffffffffffffffffffff16826020015173ffffffffffffffffffffffffffffffffffffffff1614610a4a57816020015173ffffffffffffffffffffffffffffffffffffffff163373ffffffffffffffffffffffffffffffffffffffff1614610a4257600080fd5b859050610a4e565b3390505b610a5a89828a8a611038565b945050505050949350505050565b6000806000600a819150915091509091565b60006001905090565b6000806000808681526020019081526020016000206000015411610aa657600080fd5b600085118015610ab75750600a8511155b610ac057600080fd5b600030600354604051602001808373ffffffffffffffffffffffffffffffffffffffff1673ffffffffffffffffffffffffffffffffffffffff1660601b815260140182815260200192505050604051602081830303815290604052805190602001209050610b3a600160035461142890919063ffffffff16565b600381905550610b48611b7f565b868160600181815250508581608001818152505033816040019073ffffffffffffffffffffffffffffffffffffffff16908173ffffffffffffffffffffffffffffffffffffffff16815250503384604051602001808373ffffffffffffffffffffffffffffffffffffffff1673ffffffffffffffffffffffffffffffffffffffff1660601b81526014018273ffffffffffffffffffffffffffffffffffffffff1673ffffffffffffffffffffffffffffffffffffffff1660601b81526014019250505060405160208183030381529060405280519060200120816000018181525050600181602001901515908115158152505080600160008481526020019081526020016000206000820151816000015560208201518160010160006101000a81548160ff02191690831515021790555060408201518160010160016101000a81548173ffffffffffffffffffffffffffffffffffffffff021916908373ffffffffffffffffffffffffffffffffffffffff160217905550606082015181600201556080820151816003015560a08201518160040155905050600073ffffffffffffffffffffffffffffffffffffffff16600260008360000151815260200190815260200160002060009054906101000a900473ffffffffffffffffffffffffffffffffffffffff1673ffffffffffffffffffffffffffffffffffffffff161415610e3557600073ffffffffffffffffffffffffffffffffffffffff168473ffffffffffffffffffffffffffffffffffffffff161415610ddd5733600260008360000151815260200190815260200160002060006101000a81548173ffffffffffffffffffffffffffffffffffffffff021916908373ffffffffffffffffffffffffffffffffffffffff160217905550610e34565b83600260008360000151815260200190815260200160002060006101000a81548173ffffffffffffffffffffffffffffffffffffffff021916908373ffffffffffffffffffffffffffffffffffffffff1602179055505b5b600260008260000151815260200190815260200160002060009054906101000a900473ffffffffffffffffffffffffffffffffffffffff1673ffffffffffffffffffffffffffffffffffffffff16827f75b4ff136cc5de5957574c797de3334eb1c141271922b825eb071e0487ba2c5c89338a604051808481526020018373ffffffffffffffffffffffffffffffffffffffff1673ffffffffffffffffffffffffffffffffffffffff168152602001828152602001935050505060405180910390a38192505050949350505050565b600a81565b806001600082815260200190815260200160002060010160009054906101000a900460ff16610f3757600080fd5b610f4182336114b0565b5050565b600060016000838152602001908152602001600020600201549050919050565b600060016000848152602001908152602001600020600501600083815260200190815260200160002054905092915050565b60026020528060005260406000206000915054906101000a900473ffffffffffffffffffffffffffffffffffffffff1681565b60006001600083815260200190815260200160002060010160009054906101000a900460ff169050919050565b6000816001600082815260200190815260200160002060010160009054906101000a900460ff1661102757600080fd5b6110308361168d565b915050919050565b600080600160008781526020019081526020016000209050806002015484111561106157600080fd5b60008160010160019054906101000a900473ffffffffffffffffffffffffffffffffffffffff1673ffffffffffffffffffffffffffffffffffffffff16639588378e87896040518363ffffffff1660e01b8152600401808373ffffffffffffffffffffffffffffffffffffffff1673ffffffffffffffffffffffffffffffffffffffff1681526020018281526020019250505060206040518083038186803b15801561110c57600080fd5b505afa158015611120573d6000803e3d6000fd5b505050506040513d602081101561113657600080fd5b81019080805190602001909291905050509050600081116111bf576040517f08c379a000000000000000000000000000000000000000000000000000000000815260040180806020018281038252601b8152602001807f5f766f746572206d75737420686176652072657075746174696f6e000000000081525060200191505060405180910390fd5b838110156111cc57600080fd5b600084905060008114156111de578190505b60008360060160008973ffffffffffffffffffffffffffffffffffffffff1673ffffffffffffffffffffffffffffffffffffffff16815260200190815260200160002060010154146112355761123488886114b0565b5b61125d836005016000888152602001908152602001600020548261142890919063ffffffff16565b8360050160008881526020019081526020016000208190555061128d83600401548261142890919063ffffffff16565b83600401819055506040518060400160405280878152602001828152508360060160008973ffffffffffffffffffffffffffffffffffffffff1673ffffffffffffffffffffffffffffffffffffffff16815260200190815260200160002060008201518160000155602082015181600101559050508673ffffffffffffffffffffffffffffffffffffffff16600260008560000154815260200190815260200160002060009054906101000a900473ffffffffffffffffffffffffffffffffffffffff1673ffffffffffffffffffffffffffffffffffffffff16897f066c061a3792cb3eb64a441a928655fcbafb4a54b49725fe9cd2951df5e7189e8985604051808381526020018281526020019250505060405180910390a4877fe715e19c865cb724f3c292cc2fffc24d9cdd398e179fb366f008cc73028e1c523373ffffffffffffffffffffffffffffffffffffffff168973ffffffffffffffffffffffffffffffffffffffff161415604051808215151515815260200191505060405180910390a261141b8861168d565b9350505050949350505050565b6000808284019050838110156114a6576040517f08c379a000000000000000000000000000000000000000000000000000000000815260040180806020018281038252601b8152602001807f536166654d6174683a206164646974696f6e206f766572666c6f77000000000081525060200191505060405180910390fd5b8091505092915050565b60006001600084815260200190815260200160002090506114cf611b35565b8160060160008473ffffffffffffffffffffffffffffffffffffffff1673ffffffffffffffffffffffffffffffffffffffff168152602001908152602001600020604051806040016040529081600082015481526020016001820154815250509050611561816020015183600501600084600001518152602001908152602001600020546119e890919063ffffffff16565b8260050160008360000151815260200190815260200160002081905550611599816020015183600401546119e890919063ffffffff16565b82600401819055508160060160008473ffffffffffffffffffffffffffffffffffffffff1673ffffffffffffffffffffffffffffffffffffffff168152602001908152602001600020600080820160009055600182016000905550508273ffffffffffffffffffffffffffffffffffffffff16600260008460000154815260200190815260200160002060009054906101000a900473ffffffffffffffffffffffffffffffffffffffff1673ffffffffffffffffffffffffffffffffffffffff16857f0ecab23267930de581498fac1af19a95c888ec6583921ee9c47473e16245d3c860405160405180910390a450505050565b6000816001600082815260200190815260200160002060010160009054906101000a900460ff166116bd57600080fd5b600060016000858152602001908152602001600020905060008160010160019054906101000a900473ffffffffffffffffffffffffffffffffffffffff1673ffffffffffffffffffffffffffffffffffffffff1663b551c373866040518263ffffffff1660e01b81526004018082815260200191505060206040518083038186803b15801561174b57600080fd5b505afa15801561175f573d6000803e3d6000fd5b505050506040513d602081101561177557600080fd5b8101908080519060200190929190505050905060008060008460030154815260200190815260200160002060000154905060008090505b836002015481116119d95781606484816117c257fe5b04028460050160008381526020019081526020016000205411156119cc576117e8611b7f565b846040518060c0016040529081600082015481526020016001820160009054906101000a900460ff161515151581526020016001820160019054906101000a900473ffffffffffffffffffffffffffffffffffffffff1673ffffffffffffffffffffffffffffffffffffffff1673ffffffffffffffffffffffffffffffffffffffff1681526020016002820154815260200160038201548152602001600482015481525050905061189888611a71565b600260008260000151815260200190815260200160002060009054906101000a900473ffffffffffffffffffffffffffffffffffffffff1673ffffffffffffffffffffffffffffffffffffffff16887f37471b9c9d295ffb1309ad070b8964700bfb7b555e8e8292d0b6cbc7dba35d108487604051808381526020018281526020019250505060405180910390a3806040015173ffffffffffffffffffffffffffffffffffffffff16639d4c162d89846040518363ffffffff1660e01b81526004018083815260200182815260200192505050602060405180830381600087803b15801561198557600080fd5b505af1158015611999573d6000803e3d6000fd5b505050506040513d60208110156119af57600080fd5b8101908080519060200190929190505050965050505050506119e2565b80806001019150506117ac565b50600094505050505b50919050565b600082821115611a60576040517f08c379a000000000000000000000000000000000000000000000000000000000815260040180806020018281038252601e8152602001807f536166654d6174683a207375627472616374696f6e206f766572666c6f77000081525060200191505060405180910390fd5b600082840390508091505092915050565b600060016000838152602001908152602001600020905060008090505b81600201548111611abf57816005016000828152602001908152602001600020600090558080600101915050611a8e565b50600160008381526020019081526020016000206000808201600090556001820160006101000a81549060ff02191690556001820160016101000a81549073ffffffffffffffffffffffffffffffffffffffff021916905560028201600090556003820160009055600482016000905550505050565b604051806040016040528060008152602001600081525090565b604051806040016040528060008152602001600073ffffffffffffffffffffffffffffffffffffffff1681525090565b6040518060c0016040528060008019168152602001600015158152602001600073ffffffffffffffffffffffffffffffffffffffff168152602001600081526020016000801916815260200160008152509056fea165627a7a723058208752bf658b0e5a99638efd20b228cfcf9f4342f87bf7b6bcca0ba526d480451e0029",
  "source": "pragma solidity ^0.5.4;\r\n\r\nimport \"../Reputation.sol\";\r\nimport \"./IntVoteInterface.sol\";\r\nimport \"../SafeMath.sol\";\r\nimport \"./VotingMachineCallbacksInterface.sol\";\r\nimport \"./ProposalExecuteInterface.sol\";\r\n\r\n\r\ncontract AbsoluteVote is IntVoteInterface {\r\n    using SafeMath for uint;\r\n\r\n    struct Parameters {\r\n        uint256 precReq; // how many percentages required for the proposal to be passed\r\n        address voteOnBehalf; //if this address is set so only this address is allowed\r\n                              // to vote of behalf of someone else.\r\n    }\r\n\r\n    struct Voter {\r\n        uint256 vote; // 0 - 'abstain'\r\n        uint256 reputation; // amount of voter's reputation\r\n    }\r\n\r\n    struct Proposal {\r\n        bytes32 organizationId; // the organization Id\r\n        bool open; // voting open flag\r\n        address callbacks;\r\n        uint256 numOfChoices;\r\n        bytes32 paramsHash; // the hash of the parameters of the proposal\r\n        uint256 totalVotes;\r\n        mapping(uint=>uint) votes;\r\n        mapping(address=>Voter) voters;\r\n    }\r\n\r\n    event AVVoteProposal(bytes32 indexed _proposalId, bool _isProxyVote);\r\n\r\n    mapping(bytes32=>Parameters) public parameters;  // A mapping from hashes to parameters\r\n    mapping(bytes32=>Proposal) public proposals; // Mapping from the ID of the proposal to the proposal itself.\r\n    mapping(bytes32=>address) public organizations;\r\n\r\n    uint256 public constant MAX_NUM_OF_CHOICES = 10;\r\n    uint256 public proposalsCnt; // Total amount of proposals\r\n\r\n  /**\r\n   * @dev Check that the proposal is votable (open and not executed yet)\r\n   */\r\n    modifier votable(bytes32 _proposalId) {\r\n        require(proposals[_proposalId].open);\r\n        _;\r\n    }\r\n\r\n    /**\r\n     * @dev register a new proposal with the given parameters. Every proposal has a unique ID which is being\r\n     * generated by calculating keccak256 of a incremented counter.\r\n     * @param _numOfChoices number of voting choices\r\n     * @param _paramsHash defined the parameters of the voting machine used for this proposal\r\n     * @param _organization address\r\n     * @return proposal's id.\r\n     */\r\n    function propose(uint256 _numOfChoices, bytes32 _paramsHash, address, address _organization)\r\n        external\r\n        returns(bytes32)\r\n    {\r\n        // Check valid params and number of choices:\r\n        require(parameters[_paramsHash].precReq > 0);\r\n        require(_numOfChoices > 0 && _numOfChoices <= MAX_NUM_OF_CHOICES);\r\n        // Generate a unique ID:\r\n        bytes32 proposalId = keccak256(abi.encodePacked(this, proposalsCnt));\r\n        proposalsCnt = proposalsCnt.add(1);\r\n        // Open proposal:\r\n        Proposal memory proposal;\r\n        proposal.numOfChoices = _numOfChoices;\r\n        proposal.paramsHash = _paramsHash;\r\n        proposal.callbacks = msg.sender;\r\n        proposal.organizationId = keccak256(abi.encodePacked(msg.sender, _organization));\r\n        proposal.open = true;\r\n        proposals[proposalId] = proposal;\r\n        if (organizations[proposal.organizationId] == address(0)) {\r\n            if (_organization == address(0)) {\r\n                organizations[proposal.organizationId] = msg.sender;\r\n            } else {\r\n                organizations[proposal.organizationId] = _organization;\r\n            }\r\n        }\r\n        emit NewProposal(proposalId, organizations[proposal.organizationId], _numOfChoices, msg.sender, _paramsHash);\r\n        return proposalId;\r\n    }\r\n\r\n    /**\r\n     * @dev voting function\r\n     * @param _proposalId id of the proposal\r\n     * @param _vote a value between 0 to and the proposal number of choices.\r\n     * @param _amount the reputation amount to vote with . if _amount == 0 it will use all voter reputation.\r\n     * @param _voter voter address\r\n     * @return bool true - the proposal has been executed\r\n     *              false - otherwise.\r\n     */\r\n    function vote(\r\n        bytes32 _proposalId,\r\n        uint256 _vote,\r\n        uint256 _amount,\r\n        address _voter)\r\n        external\r\n        votable(_proposalId)\r\n        returns(bool)\r\n        {\r\n\r\n        Proposal storage proposal = proposals[_proposalId];\r\n        Parameters memory params = parameters[proposal.paramsHash];\r\n        address voter;\r\n        if (params.voteOnBehalf != address(0)) {\r\n            require(msg.sender == params.voteOnBehalf);\r\n            voter = _voter;\r\n        } else {\r\n            voter = msg.sender;\r\n        }\r\n        return internalVote(_proposalId, voter, _vote, _amount);\r\n    }\r\n\r\n  /**\r\n   * @dev Cancel the vote of the msg.sender: subtract the reputation amount from the votes\r\n   * and delete the voter from the proposal struct\r\n   * @param _proposalId id of the proposal\r\n   */\r\n    function cancelVote(bytes32 _proposalId) external votable(_proposalId) {\r\n        cancelVoteInternal(_proposalId, msg.sender);\r\n    }\r\n\r\n    /**\r\n      * @dev execute check if the proposal has been decided, and if so, execute the proposal\r\n      * @param _proposalId the id of the proposal\r\n      * @return bool true - the proposal has been executed\r\n      *              false - otherwise.\r\n     */\r\n    function execute(bytes32 _proposalId) external votable(_proposalId) returns(bool) {\r\n        return _execute(_proposalId);\r\n    }\r\n\r\n  /**\r\n   * @dev getNumberOfChoices returns the number of choices possible in this proposal\r\n   * excluding the abstain vote (0)\r\n   * @param _proposalId the ID of the proposal\r\n   * @return uint256 that contains number of choices\r\n   */\r\n    function getNumberOfChoices(bytes32 _proposalId) external view returns(uint256) {\r\n        return proposals[_proposalId].numOfChoices;\r\n    }\r\n\r\n  /**\r\n   * @dev voteInfo returns the vote and the amount of reputation of the user committed to this proposal\r\n   * @param _proposalId the ID of the proposal\r\n   * @param _voter the address of the voter\r\n   * @return uint256 vote - the voters vote\r\n   *        uint256 reputation - amount of reputation committed by _voter to _proposalId\r\n   */\r\n    function voteInfo(bytes32 _proposalId, address _voter) external view returns(uint, uint) {\r\n        Voter memory voter = proposals[_proposalId].voters[_voter];\r\n        return (voter.vote, voter.reputation);\r\n    }\r\n\r\n    /**\r\n     * @dev voteStatus returns the reputation voted for a proposal for a specific voting choice.\r\n     * @param _proposalId the ID of the proposal\r\n     * @param _choice the index in the\r\n     * @return voted reputation for the given choice\r\n     */\r\n    function voteStatus(bytes32 _proposalId, uint256 _choice) external view returns(uint256) {\r\n        return proposals[_proposalId].votes[_choice];\r\n    }\r\n\r\n    /**\r\n      * @dev isVotable check if the proposal is votable\r\n      * @param _proposalId the ID of the proposal\r\n      * @return bool true or false\r\n    */\r\n    function isVotable(bytes32 _proposalId) external view returns(bool) {\r\n        return  proposals[_proposalId].open;\r\n    }\r\n\r\n    /**\r\n     * @dev isAbstainAllow returns if the voting machine allow abstain (0)\r\n     * @return bool true or false\r\n     */\r\n    function isAbstainAllow() external pure returns(bool) {\r\n        return true;\r\n    }\r\n\r\n    /**\r\n     * @dev getAllowedRangeOfChoices returns the allowed range of choices for a voting machine.\r\n     * @return min - minimum number of choices\r\n               max - maximum number of choices\r\n     */\r\n    function getAllowedRangeOfChoices() external pure returns(uint256 min, uint256 max) {\r\n        return (0, MAX_NUM_OF_CHOICES);\r\n    }\r\n\r\n    /**\r\n     * @dev hash the parameters, save them if necessary, and return the hash value\r\n    */\r\n    function setParameters(uint256 _precReq, address _voteOnBehalf) public returns(bytes32) {\r\n        require(_precReq <= 100 && _precReq > 0);\r\n        bytes32 hashedParameters = getParametersHash(_precReq, _voteOnBehalf);\r\n        parameters[hashedParameters] = Parameters({\r\n            precReq: _precReq,\r\n            voteOnBehalf: _voteOnBehalf\r\n        });\r\n        return hashedParameters;\r\n    }\r\n\r\n    /**\r\n     * @dev hashParameters returns a hash of the given parameters\r\n     */\r\n    function getParametersHash(uint256 _precReq, address _voteOnBehalf) public pure returns(bytes32) {\r\n        return keccak256(abi.encodePacked(_precReq, _voteOnBehalf));\r\n    }\r\n\r\n    function cancelVoteInternal(bytes32 _proposalId, address _voter) internal {\r\n        Proposal storage proposal = proposals[_proposalId];\r\n        Voter memory voter = proposal.voters[_voter];\r\n        proposal.votes[voter.vote] = (proposal.votes[voter.vote]).sub(voter.reputation);\r\n        proposal.totalVotes = (proposal.totalVotes).sub(voter.reputation);\r\n        delete proposal.voters[_voter];\r\n        emit CancelVoting(_proposalId, organizations[proposal.organizationId], _voter);\r\n    }\r\n\r\n    function deleteProposal(bytes32 _proposalId) internal {\r\n        Proposal storage proposal = proposals[_proposalId];\r\n        for (uint256 cnt = 0; cnt <= proposal.numOfChoices; cnt++) {\r\n            delete proposal.votes[cnt];\r\n        }\r\n        delete proposals[_proposalId];\r\n    }\r\n\r\n    /**\r\n      * @dev execute check if the proposal has been decided, and if so, execute the proposal\r\n      * @param _proposalId the id of the proposal\r\n      * @return bool true - the proposal has been executed\r\n      *              false - otherwise.\r\n     */\r\n    function _execute(bytes32 _proposalId) internal votable(_proposalId) returns(bool) {\r\n        Proposal storage proposal = proposals[_proposalId];\r\n        uint256 totalReputation =\r\n        VotingMachineCallbacksInterface(proposal.callbacks).getTotalReputationSupply(_proposalId);\r\n        uint256 precReq = parameters[proposal.paramsHash].precReq;\r\n        // Check if someone crossed the bar:\r\n        for (uint256 cnt = 0; cnt <= proposal.numOfChoices; cnt++) {\r\n            if (proposal.votes[cnt] > (totalReputation/100)*precReq) {\r\n                Proposal memory tmpProposal = proposal;\r\n                deleteProposal(_proposalId);\r\n                emit ExecuteProposal(_proposalId, organizations[tmpProposal.organizationId], cnt, totalReputation);\r\n                return ProposalExecuteInterface(tmpProposal.callbacks).executeProposal(_proposalId, int(cnt));\r\n            }\r\n        }\r\n        return false;\r\n    }\r\n\r\n    /**\r\n     * @dev Vote for a proposal, if the voter already voted, cancel the last vote and set a new one instead\r\n     * @param _proposalId id of the proposal\r\n     * @param _voter used in case the vote is cast for someone else\r\n     * @param _vote a value between 0 to and the proposal's number of choices.\r\n     * @return true in case of proposal execution otherwise false\r\n     * throws if proposal is not open or if it has been executed\r\n     * NB: executes the proposal if a decision has been reached\r\n     */\r\n    function internalVote(bytes32 _proposalId, address _voter, uint256 _vote, uint256 _rep) internal returns(bool) {\r\n        Proposal storage proposal = proposals[_proposalId];\r\n        // Check valid vote:\r\n        require(_vote <= proposal.numOfChoices);\r\n        // Check voter has enough reputation:\r\n        uint256 reputation = VotingMachineCallbacksInterface(proposal.callbacks).reputationOf(_voter, _proposalId);\r\n        require(reputation > 0, \"_voter must have reputation\");\r\n        require(reputation >= _rep);\r\n        uint256 rep = _rep;\r\n        if (rep == 0) {\r\n            rep = reputation;\r\n        }\r\n        // If this voter has already voted, first cancel the vote:\r\n        if (proposal.voters[_voter].reputation != 0) {\r\n            cancelVoteInternal(_proposalId, _voter);\r\n        }\r\n        // The voting itself:\r\n        proposal.votes[_vote] = rep.add(proposal.votes[_vote]);\r\n        proposal.totalVotes = rep.add(proposal.totalVotes);\r\n        proposal.voters[_voter] = Voter({\r\n            reputation: rep,\r\n            vote: _vote\r\n        });\r\n        // Event:\r\n        emit VoteProposal(_proposalId, organizations[proposal.organizationId], _voter, _vote, rep);\r\n        emit AVVoteProposal(_proposalId, (_voter != msg.sender));\r\n        // execute the proposal if this vote was decisive:\r\n        return _execute(_proposalId);\r\n    }\r\n}",
  "sourcePath": "C:\\Users\\Subhan\\Desktop\\github\\betterbrooklyndao\\Voting-Machine\\contracts\\VotingMachine\\AbsoluteVote.sol",
  "compiler": {
    "name": "solc",
    "version": "0.5.8+commit.23d335f2.Emscripten.clang"
  },
  "schemaVersion": "3.0.11",
  "updatedAt": "2019-07-18T15:01:35.980Z",
  "devdoc": {
    "methods": {
      "cancelVote(bytes32)": {
        "details": "Cancel the vote of the msg.sender: subtract the reputation amount from the votes\r and delete the voter from the proposal struct\r",
        "params": {
          "_proposalId": "id of the proposal\r"
        }
      },
      "execute(bytes32)": {
        "details": "execute check if the proposal has been decided, and if so, execute the proposal\r",
        "params": {
          "_proposalId": "the id of the proposal\r"
        },
        "return": "bool true - the proposal has been executed\r             false - otherwise.\r"
      },
      "getAllowedRangeOfChoices()": {
        "details": "getAllowedRangeOfChoices returns the allowed range of choices for a voting machine.\r",
        "return": "min - minimum number of choices\r max - maximum number of choices\r"
      },
      "getNumberOfChoices(bytes32)": {
        "details": "getNumberOfChoices returns the number of choices possible in this proposal\r excluding the abstain vote (0)\r",
        "params": {
          "_proposalId": "the ID of the proposal\r"
        },
        "return": "uint256 that contains number of choices\r"
      },
      "getParametersHash(uint256,address)": {
        "details": "hashParameters returns a hash of the given parameters\r"
      },
      "isAbstainAllow()": {
        "details": "isAbstainAllow returns if the voting machine allow abstain (0)\r",
        "return": "bool true or false\r"
      },
      "isVotable(bytes32)": {
        "details": "isVotable check if the proposal is votable\r",
        "params": {
          "_proposalId": "the ID of the proposal\r"
        },
        "return": "bool true or false\r"
      },
      "propose(uint256,bytes32,address,address)": {
        "details": "register a new proposal with the given parameters. Every proposal has a unique ID which is being\r generated by calculating keccak256 of a incremented counter.\r",
        "params": {
          "_numOfChoices": "number of voting choices\r",
          "_organization": "address\r",
          "_paramsHash": "defined the parameters of the voting machine used for this proposal\r"
        },
        "return": "proposal's id.\r"
      },
      "setParameters(uint256,address)": {
        "details": "hash the parameters, save them if necessary, and return the hash value\r"
      },
      "vote(bytes32,uint256,uint256,address)": {
        "details": "voting function\r",
        "params": {
          "_amount": "the reputation amount to vote with . if _amount == 0 it will use all voter reputation.\r",
          "_proposalId": "id of the proposal\r",
          "_vote": "a value between 0 to and the proposal number of choices.\r",
          "_voter": "voter address\r"
        },
        "return": "bool true - the proposal has been executed\r             false - otherwise.\r"
      },
      "voteInfo(bytes32,address)": {
        "details": "voteInfo returns the vote and the amount of reputation of the user committed to this proposal\r",
        "params": {
          "_proposalId": "the ID of the proposal\r",
          "_voter": "the address of the voter\r"
        },
        "return": "uint256 vote - the voters vote\r       uint256 reputation - amount of reputation committed by _voter to _proposalId\r"
      },
      "voteStatus(bytes32,uint256)": {
        "details": "voteStatus returns the reputation voted for a proposal for a specific voting choice.\r",
        "params": {
          "_choice": "the index in the\r",
          "_proposalId": "the ID of the proposal\r"
        },
        "return": "voted reputation for the given choice\r"
      }
    }
  },
  "userdoc": {
    "methods": {}
  }
}